{
  "contractName": "Lottery",
  "abi": [
    {
      "inputs": [
        {
          "internalType": "address payable",
          "name": "projectDeployer",
          "type": "address"
        },
        {
          "internalType": "address payable",
          "name": "projectStarter",
          "type": "address"
        },
        {
          "internalType": "uint256",
          "name": "projectId",
          "type": "uint256"
        },
        {
          "internalType": "uint256",
          "name": "deadlineTime",
          "type": "uint256"
        },
        {
          "internalType": "uint256",
          "name": "projectTicketPrice",
          "type": "uint256"
        },
        {
          "internalType": "uint256[]",
          "name": "lotteryRewards",
          "type": "uint256[]"
        },
        {
          "internalType": "uint256",
          "name": "lotteryLimitTickets",
          "type": "uint256"
        }
      ],
      "stateMutability": "nonpayable",
      "type": "constructor"
    },
    {
      "anonymous": false,
      "inputs": [
        {
          "indexed": true,
          "internalType": "address",
          "name": "userAddress",
          "type": "address"
        },
        {
          "indexed": false,
          "internalType": "uint256",
          "name": "index",
          "type": "uint256"
        }
      ],
      "name": "LogDeleteUser",
      "type": "event"
    },
    {
      "anonymous": false,
      "inputs": [
        {
          "indexed": false,
          "internalType": "address",
          "name": "winner",
          "type": "address"
        }
      ],
      "name": "LogWinnerSelected",
      "type": "event"
    },
    {
      "anonymous": false,
      "inputs": [
        {
          "indexed": false,
          "internalType": "string",
          "name": "message",
          "type": "string"
        }
      ],
      "name": "LogWinnerSelectionStarted",
      "type": "event"
    },
    {
      "anonymous": false,
      "inputs": [
        {
          "indexed": false,
          "internalType": "enum State",
          "name": "newState",
          "type": "uint8"
        }
      ],
      "name": "LotteryStateChanged",
      "type": "event"
    },
    {
      "anonymous": false,
      "inputs": [
        {
          "indexed": true,
          "internalType": "address",
          "name": "_from",
          "type": "address"
        },
        {
          "indexed": false,
          "internalType": "uint256",
          "name": "_value",
          "type": "uint256"
        }
      ],
      "name": "Transfer",
      "type": "event"
    },
    {
      "inputs": [
        {
          "internalType": "address",
          "name": "",
          "type": "address"
        }
      ],
      "name": "contributors",
      "outputs": [
        {
          "internalType": "uint256",
          "name": "",
          "type": "uint256"
        }
      ],
      "stateMutability": "view",
      "type": "function"
    },
    {
      "inputs": [],
      "name": "created",
      "outputs": [
        {
          "internalType": "uint256",
          "name": "",
          "type": "uint256"
        }
      ],
      "stateMutability": "view",
      "type": "function"
    },
    {
      "inputs": [],
      "name": "creator",
      "outputs": [
        {
          "internalType": "address payable",
          "name": "",
          "type": "address"
        }
      ],
      "stateMutability": "view",
      "type": "function"
    },
    {
      "inputs": [],
      "name": "currentBalance",
      "outputs": [
        {
          "internalType": "uint256",
          "name": "",
          "type": "uint256"
        }
      ],
      "stateMutability": "view",
      "type": "function"
    },
    {
      "inputs": [],
      "name": "deadline",
      "outputs": [
        {
          "internalType": "uint256",
          "name": "",
          "type": "uint256"
        }
      ],
      "stateMutability": "view",
      "type": "function"
    },
    {
      "inputs": [],
      "name": "deployer",
      "outputs": [
        {
          "internalType": "address",
          "name": "",
          "type": "address"
        }
      ],
      "stateMutability": "view",
      "type": "function"
    },
    {
      "inputs": [],
      "name": "id",
      "outputs": [
        {
          "internalType": "uint256",
          "name": "",
          "type": "uint256"
        }
      ],
      "stateMutability": "view",
      "type": "function"
    },
    {
      "inputs": [],
      "name": "numberOfWinners",
      "outputs": [
        {
          "internalType": "uint256",
          "name": "",
          "type": "uint256"
        }
      ],
      "stateMutability": "view",
      "type": "function"
    },
    {
      "inputs": [
        {
          "internalType": "uint256",
          "name": "",
          "type": "uint256"
        }
      ],
      "name": "players",
      "outputs": [
        {
          "internalType": "address",
          "name": "",
          "type": "address"
        }
      ],
      "stateMutability": "view",
      "type": "function"
    },
    {
      "inputs": [],
      "name": "priceTicket",
      "outputs": [
        {
          "internalType": "uint256",
          "name": "",
          "type": "uint256"
        }
      ],
      "stateMutability": "view",
      "type": "function"
    },
    {
      "inputs": [
        {
          "internalType": "uint256",
          "name": "",
          "type": "uint256"
        }
      ],
      "name": "rewards",
      "outputs": [
        {
          "internalType": "uint256",
          "name": "",
          "type": "uint256"
        }
      ],
      "stateMutability": "view",
      "type": "function"
    },
    {
      "inputs": [],
      "name": "state",
      "outputs": [
        {
          "internalType": "enum State",
          "name": "",
          "type": "uint8"
        }
      ],
      "stateMutability": "view",
      "type": "function"
    },
    {
      "inputs": [
        {
          "internalType": "uint256",
          "name": "",
          "type": "uint256"
        }
      ],
      "name": "tickets",
      "outputs": [
        {
          "internalType": "address",
          "name": "",
          "type": "address"
        }
      ],
      "stateMutability": "view",
      "type": "function"
    },
    {
      "inputs": [
        {
          "internalType": "uint256",
          "name": "",
          "type": "uint256"
        }
      ],
      "name": "winnerIds",
      "outputs": [
        {
          "internalType": "uint256",
          "name": "",
          "type": "uint256"
        }
      ],
      "stateMutability": "view",
      "type": "function"
    },
    {
      "inputs": [],
      "name": "getDeployerAddress",
      "outputs": [
        {
          "internalType": "address",
          "name": "",
          "type": "address"
        }
      ],
      "stateMutability": "view",
      "type": "function"
    },
    {
      "inputs": [],
      "name": "getContractAddress",
      "outputs": [
        {
          "internalType": "address",
          "name": "",
          "type": "address"
        }
      ],
      "stateMutability": "view",
      "type": "function"
    },
    {
      "inputs": [],
      "name": "getTicketPrice",
      "outputs": [
        {
          "internalType": "uint256",
          "name": "",
          "type": "uint256"
        }
      ],
      "stateMutability": "view",
      "type": "function"
    },
    {
      "inputs": [],
      "name": "getDeadline",
      "outputs": [
        {
          "internalType": "uint256",
          "name": "",
          "type": "uint256"
        }
      ],
      "stateMutability": "view",
      "type": "function"
    },
    {
      "inputs": [],
      "name": "getLimitTicket",
      "outputs": [
        {
          "internalType": "uint256",
          "name": "",
          "type": "uint256"
        }
      ],
      "stateMutability": "view",
      "type": "function"
    },
    {
      "inputs": [],
      "name": "getRewards",
      "outputs": [
        {
          "internalType": "uint256[]",
          "name": "",
          "type": "uint256[]"
        }
      ],
      "stateMutability": "view",
      "type": "function"
    },
    {
      "inputs": [
        {
          "internalType": "address",
          "name": "_address",
          "type": "address"
        }
      ],
      "name": "getContributed",
      "outputs": [
        {
          "internalType": "uint256",
          "name": "",
          "type": "uint256"
        }
      ],
      "stateMutability": "view",
      "type": "function"
    },
    {
      "inputs": [],
      "name": "getState",
      "outputs": [
        {
          "internalType": "enum State",
          "name": "",
          "type": "uint8"
        }
      ],
      "stateMutability": "view",
      "type": "function"
    },
    {
      "inputs": [],
      "name": "getTicketsCount",
      "outputs": [
        {
          "internalType": "uint256",
          "name": "",
          "type": "uint256"
        }
      ],
      "stateMutability": "view",
      "type": "function"
    },
    {
      "inputs": [],
      "name": "getTickets",
      "outputs": [
        {
          "internalType": "address[]",
          "name": "",
          "type": "address[]"
        }
      ],
      "stateMutability": "view",
      "type": "function"
    },
    {
      "inputs": [
        {
          "internalType": "uint256",
          "name": "index",
          "type": "uint256"
        }
      ],
      "name": "getWinner",
      "outputs": [
        {
          "internalType": "address",
          "name": "",
          "type": "address"
        }
      ],
      "stateMutability": "view",
      "type": "function"
    },
    {
      "inputs": [
        {
          "internalType": "uint256",
          "name": "index",
          "type": "uint256"
        }
      ],
      "name": "getWinnerAmount",
      "outputs": [
        {
          "internalType": "uint256",
          "name": "",
          "type": "uint256"
        }
      ],
      "stateMutability": "view",
      "type": "function"
    },
    {
      "inputs": [],
      "name": "getNumberOfWinners",
      "outputs": [
        {
          "internalType": "uint256",
          "name": "",
          "type": "uint256"
        }
      ],
      "stateMutability": "view",
      "type": "function"
    },
    {
      "inputs": [],
      "name": "getOwner",
      "outputs": [
        {
          "internalType": "address",
          "name": "",
          "type": "address"
        }
      ],
      "stateMutability": "view",
      "type": "function"
    },
    {
      "inputs": [],
      "name": "getBalance",
      "outputs": [
        {
          "internalType": "uint256",
          "name": "",
          "type": "uint256"
        }
      ],
      "stateMutability": "view",
      "type": "function"
    },
    {
      "inputs": [],
      "name": "getPlayers",
      "outputs": [
        {
          "internalType": "address[]",
          "name": "",
          "type": "address[]"
        }
      ],
      "stateMutability": "view",
      "type": "function"
    },
    {
      "inputs": [],
      "name": "getEntrantCount",
      "outputs": [
        {
          "internalType": "uint256",
          "name": "",
          "type": "uint256"
        }
      ],
      "stateMutability": "view",
      "type": "function"
    },
    {
      "inputs": [],
      "name": "kill",
      "outputs": [],
      "stateMutability": "nonpayable",
      "type": "function"
    },
    {
      "inputs": [
        {
          "internalType": "uint256",
          "name": "ticketAmount",
          "type": "uint256"
        }
      ],
      "name": "buyTicket",
      "outputs": [
        {
          "internalType": "uint256",
          "name": "",
          "type": "uint256"
        }
      ],
      "stateMutability": "payable",
      "type": "function"
    },
    {
      "inputs": [
        {
          "internalType": "address",
          "name": "_address",
          "type": "address"
        }
      ],
      "name": "getRewardsByAccount",
      "outputs": [
        {
          "internalType": "uint256",
          "name": "",
          "type": "uint256"
        }
      ],
      "stateMutability": "view",
      "type": "function"
    },
    {
      "inputs": [
        {
          "internalType": "address",
          "name": "_address",
          "type": "address"
        }
      ],
      "name": "getEnteredTicketsByAccount",
      "outputs": [
        {
          "internalType": "uint256",
          "name": "",
          "type": "uint256"
        }
      ],
      "stateMutability": "view",
      "type": "function"
    },
    {
      "inputs": [
        {
          "internalType": "address",
          "name": "_address",
          "type": "address"
        }
      ],
      "name": "getWinProbabiltyByAccount",
      "outputs": [
        {
          "internalType": "uint256",
          "name": "",
          "type": "uint256"
        }
      ],
      "stateMutability": "view",
      "type": "function"
    },
    {
      "inputs": [],
      "name": "pickWinner",
      "outputs": [],
      "stateMutability": "payable",
      "type": "function"
    },
    {
      "inputs": [
        {
          "internalType": "uint256",
          "name": "userIndex",
          "type": "uint256"
        }
      ],
      "name": "deleteUser",
      "outputs": [
        {
          "internalType": "address",
          "name": "index",
          "type": "address"
        }
      ],
      "stateMutability": "nonpayable",
      "type": "function"
    },
    {
      "inputs": [],
      "name": "revealWinners",
      "outputs": [
        {
          "internalType": "uint256[]",
          "name": "",
          "type": "uint256[]"
        },
        {
          "internalType": "address[]",
          "name": "",
          "type": "address[]"
        }
      ],
      "stateMutability": "view",
      "type": "function"
    },
    {
      "inputs": [
        {
          "internalType": "address",
          "name": "account",
          "type": "address"
        }
      ],
      "name": "getDetails",
      "outputs": [
        {
          "internalType": "address payable",
          "name": "projectStarter",
          "type": "address"
        },
        {
          "internalType": "uint256",
          "name": "projectId",
          "type": "uint256"
        },
        {
          "internalType": "uint256",
          "name": "deadlineTime",
          "type": "uint256"
        },
        {
          "internalType": "enum State",
          "name": "currentState",
          "type": "uint8"
        },
        {
          "internalType": "uint256",
          "name": "currentAmount",
          "type": "uint256"
        },
        {
          "internalType": "uint256",
          "name": "ticketPrice",
          "type": "uint256"
        },
        {
          "internalType": "uint256",
          "name": "lotteryPlayersLength",
          "type": "uint256"
        },
        {
          "internalType": "uint256",
          "name": "lotteryDateCreated",
          "type": "uint256"
        },
        {
          "internalType": "uint256[]",
          "name": "lotteryRewards",
          "type": "uint256[]"
        },
        {
          "internalType": "uint256",
          "name": "purchased",
          "type": "uint256"
        }
      ],
      "stateMutability": "view",
      "type": "function"
    },
    {
      "inputs": [],
      "name": "getPlayersDetails",
      "outputs": [
        {
          "internalType": "address[]",
          "name": "lotteryPlayers",
          "type": "address[]"
        },
        {
          "internalType": "address[]",
          "name": "lotteryTickets",
          "type": "address[]"
        }
      ],
      "stateMutability": "view",
      "type": "function"
    }
  ],
  "bytecode": "0x60806040526007805460ff191690553480156200001b57600080fd5b50604051620020b7380380620020b78339810160408190526200003e916200012f565b600080546001600160a01b03808a166001600160a01b031992831617835560018054918a1691909216179055600686905560028490556005859055600455426003558151600b8190556200009a90600c906020850190620000ab565b50600d555062000239945050505050565b828054828255906000526020600020908101928215620000e9579160200282015b82811115620000e9578251825591602001919060010190620000cc565b50620000f7929150620000fb565b5090565b5b80821115620000f75760008155600101620000fc565b80516001600160a01b03811681146200012a57600080fd5b919050565b600080600080600080600060e0888a0312156200014a578283fd5b620001558862000112565b9650602062000166818a0162000112565b60408a015160608b015160808c015160a08d0151939a50919850965094506001600160401b038082111562000199578485fd5b818b0191508b601f830112620001ad578485fd5b815181811115620001ba57fe5b83810260405185828201018181108582111715620001d457fe5b806040525080935082815285810193508585018f87848801011115620001f8578889fd5b8895505b838610156200021c578051855260019590950194938601938601620001fc565b5080975050505050505060c0880151905092959891949750929550565b611e6e80620002496000396000f3fe6080604052600436106102c65760003560e01c80635d495aea116101795780638b5b9ccc116100d6578063c19d93fb1161008a578063f301af4211610064578063f301af42146106c6578063f71d96cb146106e6578063f7feb20d14610706576102c6565b8063c19d93fb14610687578063ce845d1d1461069c578063d5f39488146106b1576102c6565b8063952587d6116100bb578063952587d61461062f578063a6a031b914610652578063af640d0f14610672576102c6565b80638b5b9ccc146106055780638e33cffc1461061a576102c6565b806376d6b4ed1161012d57806387bb7ae01161011257806387bb7ae0146105c6578063893d20e8146105db5780638acfaca9146105f0576102c6565b806376d6b4ed1461059c578063790b6209146105b1576102c6565b806364c165341161015e57806364c165341461055457806367dd74ca14610569578063685f9bf51461057c576102c6565b80635d495aea146105375780635f8d96de1461053f576102c6565b8063325a19f11161022757806341c0e1b5116101db5780634de58efe116101c05780634de58efe146104d55780634ed02622146104f557806350b4471214610517576102c6565b806341c0e1b51461049b57806344ed63f6146104b2576102c6565b806338f148451161020c57806338f148451461043b578063403d13121461045b5780634129b2c91461047b576102c6565b8063325a19f11461041157806332a2c5d014610426576102c6565b80631865c57d1161027e57806324cc28661161026357806324cc2866146103b157806329dcb0cf146103c657806330289c61146103db576102c6565b80631865c57d1461036f5780631f6d494214610391576102c6565b8063080b2a86116102af578063080b2a86146103185780630e0b0f431461033a57806312065fe01461035a576102c6565b806302d05d3f146102cb5780630572b0cc146102f6575b600080fd5b3480156102d757600080fd5b506102e0610726565b6040516102ed91906119df565b60405180910390f35b34801561030257600080fd5b5061030b610735565b6040516102ed9190611aa9565b34801561032457600080fd5b5061032d61078d565b6040516102ed919061198c565b34801561034657600080fd5b5061032d61035536600461185e565b610793565b34801561036657600080fd5b5061032d6107e4565b34801561037b57600080fd5b506103846107ea565b6040516102ed9190611acf565b34801561039d57600080fd5b5061032d6103ac36600461185e565b6107f3565b3480156103bd57600080fd5b506102e0610805565b3480156103d257600080fd5b5061032d610814565b3480156103e757600080fd5b506103fb6103f636600461185e565b61081a565b6040516102ed9a999897969594939291906119f3565b34801561041d57600080fd5b5061032d6108d1565b34801561043257600080fd5b506102e06108d7565b34801561044757600080fd5b506102e0610456366004611885565b6108db565b34801561046757600080fd5b5061032d610476366004611885565b610949565b34801561048757600080fd5b506102e0610496366004611885565b61096a565b3480156104a757600080fd5b506104b0610988565b005b3480156104be57600080fd5b506104c76109c9565b6040516102ed929190611a7b565b3480156104e157600080fd5b5061032d6104f036600461185e565b610a8a565b34801561050157600080fd5b5061050a610aa5565b6040516102ed9190611a61565b34801561052357600080fd5b506102e0610532366004611885565b610b06565b6104b0610b30565b34801561054b57600080fd5b5061032d610fe9565b34801561056057600080fd5b5061032d610fef565b61032d610577366004611885565b610ff5565b34801561058857600080fd5b5061032d61059736600461185e565b611263565b3480156105a857600080fd5b5061032d6112ef565b3480156105bd57600080fd5b5061032d6112f5565b3480156105d257600080fd5b5061032d6112fb565b3480156105e757600080fd5b506102e0611301565b3480156105fc57600080fd5b5061032d611310565b34801561061157600080fd5b5061050a611316565b34801561062657600080fd5b5061032d611376565b34801561063b57600080fd5b5061064461137c565b6040516102ed929190611abc565b34801561065e57600080fd5b5061032d61066d36600461185e565b6114bb565b34801561067e57600080fd5b5061032d611503565b34801561069357600080fd5b50610384611509565b3480156106a857600080fd5b5061032d611512565b3480156106bd57600080fd5b506102e0611518565b3480156106d257600080fd5b5061032d6106e1366004611885565b611527565b3480156106f257600080fd5b506102e0610701366004611885565b611537565b34801561071257600080fd5b5061032d610721366004611885565b611547565b6001546001600160a01b031681565b6060600c80548060200260200160405190810160405280929190818152602001828054801561078357602002820191906000526020600020905b81548152602001906001019080831161076f575b5050505050905090565b600e5490565b600080805b600e548110156107dd57600e81815481106107af57fe5b6000918252602090912001546001600160a01b03858116911614156107d5576001909101905b600101610798565b5092915050565b60045490565b60075460ff1690565b60086020526000908152604090205481565b6000546001600160a01b031690565b60055481565b600154600654600554600754600454600254600a54600354600c8054604080516020808402820181019092528281526001600160a01b03909b169a60ff90981697606093600093919290919083018282801561089557602002820191906000526020600020905b815481526020019060010190808311610881575b50505050509150600860008c6001600160a01b03166001600160a01b031681526020019081526020016000205490509193959799509193959799565b60035481565b3090565b600080600e83815481106108eb57fe5b600091825260209091200154600e546001600160a01b03909116915060001901610915848261155c565b600e80548061092057fe5b600082815260209020600019908201810180546001600160a01b03191690550190555092915050565b6010818154811061095957600080fd5b600091825260209091200154905081565b6000908152600f60205260409020600201546001600160a01b031690565b6001546001600160a01b031633146109bb5760405162461bcd60e51b81526004016109b290611ddb565b60405180910390fd5b6001546001600160a01b0316ff5b6060806009805480602002602001604051908101604052809291908181526020018280548015610a2257602002820191906000526020600020905b81546001600160a01b03168152600190910190602001808311610a04575b50505050509150600e805480602002602001604051908101604052809291908181526020018280548015610a7f57602002820191906000526020600020905b81546001600160a01b03168152600190910190602001808311610a61575b505050505090509091565b6001600160a01b031660009081526008602052604090205490565b6060600e80548060200260200160405190810160405280929190818152602001828054801561078357602002820191906000526020600020905b81546001600160a01b03168152600190910190602001808311610adf575050505050905090565b600e8181548110610b1657600080fd5b6000918252602090912001546001600160a01b0316905081565b6001546001600160a01b03163314610b5a5760405162461bcd60e51b81526004016109b290611bc4565b6005544211610b7b5760405162461bcd60e51b81526004016109b290611c7e565b610b83611628565b610b9f5760405162461bcd60e51b81526004016109b290611d49565b610ba761162f565b15610bc45760405162461bcd60e51b81526004016109b290611cec565b610bce600261164a565b47600455600b54600954600091605f9111610c605760005b600954811015610c5a57600060098281548110610bff57fe5b60009182526020808320909101546001600160a01b031680835260089091526040808320549051919350839281156108fc029290818181858888f19350505050158015610c50573d6000803e3d6000fd5b5050600101610be6565b50610f4f565b60005b600b54811015610f4d57600e54610c7957610f4d565b7faf4ec89c92b2378c5281acbbdbd9184d1dddf5382f07d8bdaf42196683e206f381600101604051602001610cae9190611935565b60408051601f1981840301815290829052610cc891611add565b60405180910390a181612710600454600c8481548110610ce457fe5b90600052602060002001540281610cf757fe5b04029250610d036116aa565b600e805460408051602080840282018101909252828152600093610d66928490830182828015610d5c57602002820191906000526020600020905b81546001600160a01b03168152600190910190602001808311610d3e575b50505050506117c6565b81610d6d57fe5b6000848152600f60205260409020600e80549390920693509183908110610d9057fe5b60009182526020822001546002830180546001600160a01b0319166001600160a01b03909216919091179055600182810187905560108054918201815582527f1b6847dc741a1b0cd08d278845f9d819d87b734759afb55fe2de5cb82a9ae672018490555b600e54600019018111610f05576002820154600e80546001600160a01b039092169183908110610e2157fe5b6000918252602090912001546001600160a01b03161415610efd57600e8054600091906000198101908110610e5257fe5b6000918252602090912001546001600160a01b031690505b60028301546001600160a01b038281169116148015610e8f5750600e54600019018214155b15610ef157600e805480610e9f57fe5b600082815260209020810160001990810180546001600160a01b0319169055908101909155600e805490918101908110610ed557fe5b6000918252602090912001546001600160a01b03169050610e6a565b610efa826108db565b50505b600101610df5565b5060028101546040516001600160a01b039091169086156108fc029087906000818181858888f19350505050158015610f42573d6000803e3d6000fd5b505050600101610c63565b505b476004819055606490603c026001546040519290910493506001600160a01b03169083156108fc029084906000818181858888f19350505050158015610f99573d6000803e3d6000fd5b50610fa2610805565b6001600160a01b03166108fc479081150290604051600060405180830381858888f19350505050158015610fda573d6000803e3d6000fd5b50610fe5600161164a565b5050565b60055490565b60025481565b600060055442106110185760405162461bcd60e51b81526004016109b290611cb5565b60025434101561103a5760405162461bcd60e51b81526004016109b290611b30565b611042611628565b61105e5760405162461bcd60e51b81526004016109b290611c21565b604051630e0b0f4360e01b815260009083903090630e0b0f43906110869033906004016119df565b60206040518083038186803b15801561109e57600080fd5b505afa1580156110b2573d6000803e3d6000fd5b505050506040513d601f19601f820116820180604052508101906110d6919061189d565b01905080600d5410156110fb5760405162461bcd60e51b81526004016109b290611b67565b3360009081526008602052604090205461111590346117fb565b3360009081526008602052604090205560045461113290346117fb565b60045560005b8381101561118957600e8054600181810183556000929092527fbb7b4a454dc3493923482f07822329ed19e8244eff582cc204f8554c3620c3fd0180546001600160a01b0319163317905501611138565b506000805b6009548110156111ce57600981815481106111a557fe5b6000918252602090912001546001600160a01b03163314156111c657600191505b60010161118e565b508061121757600980546001810182556000919091527f6e1540171b6c0c960b71a7020d9f60077f6af931a8bbf590da0223dacf75c7af0180546001600160a01b031916331790555b336001600160a01b03167f69ca02dd4edd7bf0a4abb9ed3b7af3f14778db5d61921c7dc7cd545266326de234604051611250919061198c565b60405180910390a25050600e5492915050565b600e54604051630e0b0f4360e01b8152600091903090630e0b0f439061128d9086906004016119df565b60206040518083038186803b1580156112a557600080fd5b505afa1580156112b9573d6000803e3d6000fd5b505050506040513d601f19601f820116820180604052508101906112dd919061189d565b61271002816112e857fe5b0492915050565b600d5490565b60095490565b60025490565b6001546001600160a01b031690565b600b5481565b60606009805480602002602001604051908101604052809291908181526020018280548015610783576020028201919060005260206000209081546001600160a01b03168152600190910190602001808311610adf575050505050905090565b600c5490565b60608060055442116113a05760405162461bcd60e51b81526004016109b290611d7e565b60105460009067ffffffffffffffff811180156113bc57600080fd5b506040519080825280602002602001820160405280156113e6578160200160208202803683370190505b5060105490915060009067ffffffffffffffff8111801561140657600080fd5b50604051908082528060200260200182016040528015611430578160200160208202803683370190505b50905060005b6010548110156114b2576000818152600f60205260409020600281015484516001600160a01b039091169085908490811061146d57fe5b60200260200101906001600160a01b031690816001600160a01b031681525050806001015483838151811061149e57fe5b602090810291909101015250600101611436565b50925090509091565b600080805b600b548110156107dd576000818152600f6020526040902060028101546001600160a01b03868116911614156114fa578060010154830192505b506001016114c0565b60065481565b60075460ff1681565b60045481565b6000546001600160a01b031681565b600c818154811061095957600080fd5b60098181548110610b1657600080fd5b6000908152600f602052604090206001015490565b6000600e838154811061156b57fe5b600091825260209091200154600e80546001600160a01b039092169250908390811061159357fe5b600091825260209091200154600e80546001600160a01b0390921691859081106115b957fe5b9060005260206000200160006101000a8154816001600160a01b0302191690836001600160a01b0316021790555080600e83815481106115f557fe5b9060005260206000200160006101000a8154816001600160a01b0302191690836001600160a01b03160217905550505050565b6010541590565b6000600260075460ff16600281111561164457fe5b14905090565b6007805482919060ff1916600183600281111561166357fe5b02179055506007546040517f1e046fdd2110d82ed3fa7652b41ced17c49cbb9ee4536e65f51ad2a6ed5359a79161169f9160ff90911690611acf565b60405180910390a150565b60005b600e548110156117c357600081600e8054905003426040516020016116d2919061198c565b6040516020818303038152906040528051906020012060001c816116f257fe5b06820190506000600e828154811061170657fe5b600091825260209091200154600e80546001600160a01b039092169250908490811061172e57fe5b600091825260209091200154600e80546001600160a01b03909216918490811061175457fe5b9060005260206000200160006101000a8154816001600160a01b0302191690836001600160a01b0316021790555080600e848154811061179057fe5b600091825260209091200180546001600160a01b0319166001600160a01b039290921691909117905550506001016116ad565b50565b60004442836040516020016117dd93929190611995565b60408051601f19818403018152919052805160209091012092915050565b600082820183811015611855576040805162461bcd60e51b815260206004820152601b60248201527f536166654d6174683a206164646974696f6e206f766572666c6f770000000000604482015290519081900360640190fd5b90505b92915050565b60006020828403121561186f578081fd5b81356001600160a01b0381168114611855578182fd5b600060208284031215611896578081fd5b5035919050565b6000602082840312156118ae578081fd5b5051919050565b6000815180845260208085019450808401835b838110156118ed5781516001600160a01b0316875295820195908201906001016118c8565b509495945050505050565b6000815180845260208085019450808401835b838110156118ed5781518752958201959082019060010161190b565b6003811061193157fe5b9052565b7f57696e6e65722000000000000000000000000000000000000000000000000000815260078101919091527f2073656c656374696f6e206861732073746172746564210000000000000000006027820152603e0190565b90815260200190565b600084825260208481840152604083018451828601845b828110156119d15781516001600160a01b0316845292840192908401906001016119ac565b509198975050505050505050565b6001600160a01b0391909116815260200190565b60006101406001600160a01b038d1683528b60208401528a6040840152611a1d606084018b611927565b8860808401528760a08401528660c08401528560e084015280610100840152611a48818401866118f8565b915050826101208301529b9a5050505050505050505050565b600060208252611a7460208301846118b5565b9392505050565b600060408252611a8e60408301856118b5565b8281036020840152611aa081856118b5565b95945050505050565b600060208252611a7460208301846118f8565b600060408252611a8e60408301856118f8565b602081016118588284611927565b6000602080835283518082850152825b81811015611b0957858101830151858201604001528201611aed565b81811115611b1a5783604083870101525b50601f01601f1916929092016040019392505050565b6020808252601a908201527f496e76616c696420656e747279206665652070726f7669646564000000000000604082015260600190565b6020808252603f908201527f456e7465726564207469636b6574732073686f756c64206e6f74206265206f7660408201527f657220746865206c696d6974207469636b657420627920616464726573732e00606082015260800190565b60208082526031908201527f4f6e6c792074686520636f6e74726163742063726561746f722063616e20657860408201527f6563757465207468697320616374696f6e000000000000000000000000000000606082015260800190565b6020808252603f908201527f4c6f74746572792068617320616c7265616479206265656e20636c6f7365642e60408201527f2057696e6e657273207765726520616c72656164792073656c65637465642e00606082015260800190565b6020808252600f908201527f4c6f7474657279206973206f70656e0000000000000000000000000000000000604082015260600190565b60208082526015908201527f546865206c6f74746572792068617320656e6465640000000000000000000000604082015260600190565b60208082526025908201527f57696e6e6572732073656c656374696f6e20616c726561647920696e2070726f60408201527f6772657373000000000000000000000000000000000000000000000000000000606082015260800190565b6020808252818101527f57696e6e65722068617320616c7265616479206265656e2073656c6563746564604082015260600190565b60208082526028908201527f5468652077696e6e6572732068617665206e6f74206265656e20616e6e6f756e60408201527f636564207965742e000000000000000000000000000000000000000000000000606082015260800190565b60208082526025908201527f4f6e6c7920746865206f776e65722063616e206b696c6c207468697320636f6e60408201527f747261637400000000000000000000000000000000000000000000000000000060608201526080019056fea264697066735822122039fb05da6fcafb9ba9f0d573c94e7f013098141cb34cd09afaffbbd84dbfa73864736f6c63430007060033",
  "immutableReferences": {},
  "source": "// SPDX-License-Identifier: MIT\r\npragma solidity ^0.7.0;\r\nimport \"../node_modules/@openzeppelin/contracts/math/SafeMath.sol\";\r\npragma experimental ABIEncoderV2;\r\n// import \"@openzeppelin/contracts/access/Ownable.sol\";\r\n\r\n// import \"@chainlink/contracts/src/v0.8/VRFConsumerBase.sol\";\r\n\r\nenum State {\r\n    Open,\r\n    Closed,\r\n    InProgress\r\n}\r\n\r\ncontract Lottery {\r\n    using SafeMath for uint256;\r\n    // State variables\r\n    address public deployer;\r\n    address payable public creator;\r\n    uint256 public priceTicket;\r\n    uint256 public created;\r\n    uint256 public currentBalance;\r\n    uint256 public deadline;\r\n    uint256 public id;\r\n    State public state = State.Open; // initialize on create\r\n    mapping(address => uint256) public contributors;\r\n    address[] public players;\r\n    uint256 playersLength;\r\n    uint256 public numberOfWinners;\r\n    uint256[] public rewards;\r\n    uint256 limitTickets;\r\n    address[] public tickets;\r\n\r\n    function getDeployerAddress() public view returns (address) {\r\n        return deployer;\r\n    }\r\n\r\n    struct winner {\r\n        uint256 id;\r\n        uint256 amount;\r\n        address account;\r\n    }\r\n    mapping(uint256 => winner) winners;\r\n    uint256[] public winnerIds;\r\n\r\n    // function createTickets(address data) public {\r\n    //     delete tickets; // This should reset the length to zero\r\n    //     tickets.push(data);\r\n    // }\r\n\r\n    // function pushTicket(address data) public {\r\n    //     tickets.push(data);\r\n    // }\r\n\r\n    // function getTickets() public view returns(address[] memory) {\r\n    //     return tickets;\r\n    // }\r\n    event LotteryStateChanged(State newState);\r\n    event Transfer(address indexed _from, uint256 _value);\r\n    event LogWinnerSelectionStarted(string message);\r\n    event LogWinnerSelected(address winner);\r\n\r\n    constructor(\r\n        address payable projectDeployer,\r\n        address payable projectStarter,\r\n        uint256 projectId,\r\n        uint256 deadlineTime,\r\n        uint256 projectTicketPrice,\r\n        uint256[] memory lotteryRewards,\r\n        uint256 lotteryLimitTickets\r\n    ) {\r\n        // this is for testing\r\n        // uint256 totalPercent = 0;\r\n        // for (uint256 i = 0; i < rewards.length; i++) {\r\n        //     totalPercent += uint256(rewards[i]);\r\n        // }\r\n        // require(totalPercent == 100, \"The sum of prizes is not 100 (percent)\");\r\n        deployer = projectDeployer;\r\n        creator = projectStarter;\r\n        id = projectId;\r\n        priceTicket = projectTicketPrice;\r\n        deadline = deadlineTime;\r\n        currentBalance = 0;\r\n        created = block.timestamp;\r\n        numberOfWinners = lotteryRewards.length;\r\n        rewards = lotteryRewards;\r\n        limitTickets = lotteryLimitTickets;\r\n    }\r\n\r\n    function getContractAddress() public view returns (address) {\r\n        return address(this);\r\n    }\r\n\r\n    function getTicketPrice() public view returns (uint256) {\r\n        return priceTicket;\r\n    }\r\n\r\n    function getDeadline() public view returns (uint256) {\r\n        return deadline;\r\n    }\r\n\r\n    function getLimitTicket() public view returns (uint256) {\r\n        return limitTickets;\r\n    }\r\n\r\n    function getRewards() public view returns (uint256[] memory) {\r\n        return rewards;\r\n    }\r\n\r\n    function getContributed(address _address) public view returns (uint256) {\r\n        return contributors[_address];\r\n    }\r\n\r\n    function getState() public view returns (State) {\r\n        return state;\r\n    }\r\n\r\n    function getTicketsCount() public view returns (uint256) {\r\n        return tickets.length;\r\n    }\r\n\r\n    function getTickets() public view returns (address[] memory) {\r\n        return tickets;\r\n    }\r\n\r\n    function getWinner(uint256 index) public view returns (address) {\r\n        return winners[index].account;\r\n    }\r\n\r\n    function getWinnerAmount(uint256 index) public view returns (uint256) {\r\n        return winners[index].amount;\r\n    }\r\n\r\n    function getNumberOfWinners() public view returns (uint256) {\r\n        return rewards.length;\r\n    }\r\n\r\n    function getOwner() public view returns (address) {\r\n        return creator;\r\n    }\r\n\r\n    function getBalance() public view returns (uint256) {\r\n        return currentBalance;\r\n    }\r\n\r\n    function getPlayers() public view returns (address[] memory) {\r\n        return players;\r\n    }\r\n\r\n    function getEntrantCount() public view returns (uint256) {\r\n        return players.length;\r\n    }\r\n\r\n    function winnerHasNotBeenSet() private view returns (bool) {\r\n        return winnerIds.length == 0;\r\n    }\r\n\r\n    function pickWinnerIsInProgress() private view returns (bool) {\r\n        return state == State.InProgress;\r\n    }\r\n\r\n    function kill() external {\r\n        require(msg.sender == creator, \"Only the owner can kill this contract\");\r\n        selfdestruct(creator);\r\n    }\r\n\r\n    function buyTicket(uint256 ticketAmount) public payable returns (uint256) {\r\n        require(block.timestamp < deadline, \"The lottery has ended\");\r\n        require(msg.value >= priceTicket, \"Invalid entry fee provided\");\r\n        require(\r\n            winnerHasNotBeenSet(),\r\n            \"Lottery has already been closed. Winners were already selected.\"\r\n        );\r\n\r\n        uint256 ticketsByAcc = this.getEnteredTicketsByAccount(msg.sender) +\r\n            ticketAmount;\r\n        require(\r\n            limitTickets >= ticketsByAcc,\r\n            \"Entered tickets should not be over the limit ticket by address.\"\r\n        );\r\n\r\n        contributors[msg.sender] = contributors[msg.sender].add(msg.value);\r\n        currentBalance = currentBalance.add(msg.value);\r\n\r\n        for (uint256 i = 0; i < ticketAmount; i++) {\r\n            tickets.push(msg.sender);\r\n        }\r\n\r\n        bool doesPlayerEntered = false;\r\n        for (uint256 i = 0; i < players.length; i++) {\r\n            if (msg.sender == players[i]) {\r\n                doesPlayerEntered = true;\r\n            }\r\n        }\r\n\r\n        if (!doesPlayerEntered) {\r\n            players.push(msg.sender);\r\n        }\r\n\r\n        emit Transfer(msg.sender, msg.value);\r\n\r\n        return tickets.length;\r\n    }\r\n\r\n    function getRewardsByAccount(address _address)\r\n        public\r\n        view\r\n        returns (uint256)\r\n    {\r\n        uint256 rewardsWon = 0;\r\n        for (uint256 i = 0; i < numberOfWinners; i++) {\r\n            winner storage ltWinner = winners[i];\r\n            if (ltWinner.account == _address) {\r\n                rewardsWon = uint256(rewardsWon) + uint256(ltWinner.amount);\r\n            }\r\n        }\r\n        return rewardsWon;\r\n    }\r\n\r\n    function getEnteredTicketsByAccount(address _address)\r\n        public\r\n        view\r\n        returns (uint256)\r\n    {\r\n        uint256 ticketsByAccount = 0;\r\n        for (uint256 i = 0; i < tickets.length; i++) {\r\n            if (_address == tickets[i]) {\r\n                ticketsByAccount++;\r\n            }\r\n        }\r\n        return ticketsByAccount;\r\n    }\r\n\r\n    function getWinProbabiltyByAccount(address _address)\r\n        public\r\n        view\r\n        returns (uint256)\r\n    {\r\n        // vraciam percenta + navyse 2 desatinimi cislami,\r\n        // kvoli tomu ze v Solidity sa neda pracovat s float\r\n        // na frontende ak vstup predelim 100, dostanem percenta\r\n        // napr 21,58\r\n        return\r\n            (this.getEnteredTicketsByAccount(_address) * 10000) /\r\n            tickets.length;\r\n    }\r\n\r\n    function shuffle() private {\r\n        for (uint256 i = 0; i < tickets.length; i++) {\r\n            uint256 n = i +\r\n                (uint256(keccak256(abi.encodePacked(block.timestamp))) %\r\n                    (tickets.length - i));\r\n            address temp = tickets[n];\r\n            tickets[n] = tickets[i];\r\n            tickets[i] = temp;\r\n        }\r\n    }\r\n\r\n    function random(address[] memory roundTickets)\r\n        private\r\n        view\r\n        returns (uint256)\r\n    {\r\n        return\r\n            uint256(\r\n                keccak256(\r\n                    abi.encodePacked(\r\n                        block.difficulty,\r\n                        block.timestamp,\r\n                        roundTickets\r\n                    )\r\n                )\r\n            );\r\n    }\r\n\r\n    function pickWinner() public payable isCreator {\r\n        require(block.timestamp > deadline, \"Lottery is open\");\r\n        require(winnerHasNotBeenSet(), \"Winner has already been selected\");\r\n        require(\r\n            !pickWinnerIsInProgress(),\r\n            \"Winners selection already in progress\"\r\n        );\r\n        _changeState(State.InProgress);\r\n        uint256 reward;\r\n        currentBalance = address(this).balance;\r\n        uint256 winnersReward = 95;\r\n\r\n        if (players.length <= numberOfWinners) {\r\n            for (uint256 i = 0; i < players.length; i++) {\r\n                address player = players[i];\r\n                payable(player).transfer(contributors[player]);\r\n            }\r\n        } else {\r\n            for (uint256 i = 0; i < numberOfWinners; i++) {\r\n                // calculate the REWARD based on draw ROUND\r\n                if (tickets.length == 0) {\r\n                    break;\r\n                }\r\n\r\n                emit LogWinnerSelectionStarted(\r\n                    string(\r\n                        abi.encodePacked(\r\n                            \"Winner \",\r\n                            (i + 1),\r\n                            \" selection has started!\"\r\n                        )\r\n                    )\r\n                );\r\n                reward =\r\n                    ((uint256(rewards[i]) * currentBalance) / uint256(10000)) *\r\n                    uint256(winnersReward);\r\n\r\n                // shuffle tickets in round i\r\n                shuffle();\r\n\r\n                // get random address from tickets\r\n                uint256 index = random(tickets) % tickets.length;\r\n\r\n                // set the winner properties\r\n                winner storage ltWinner = winners[i];\r\n                ltWinner.account = tickets[index];\r\n                ltWinner.amount = reward;\r\n                winnerIds.push(i);\r\n\r\n                // move out winner tickets\r\n                for (uint256 j = 0; j <= tickets.length - 1; j++) {\r\n                    if (tickets[j] == ltWinner.account) {\r\n                        address toMove = tickets[tickets.length - 1];\r\n                        while (\r\n                            toMove == ltWinner.account &&\r\n                            tickets.length - 1 != j\r\n                        ) {\r\n                            tickets.pop();\r\n                            toMove = tickets[tickets.length - 1];\r\n                        }\r\n                        deleteUser(j);\r\n                    }\r\n                }\r\n\r\n                // send reward to the winner\r\n                payable(ltWinner.account).transfer(reward);\r\n            }\r\n        }\r\n\r\n        // reward for creator 3%\r\n        currentBalance = address(this).balance;\r\n        reward = (currentBalance * 60) / 100;\r\n        payable(creator).transfer(reward);\r\n\r\n        // reward for deployer 2%\r\n        payable(getDeployerAddress()).transfer(address(this).balance);\r\n        _changeState(State.Closed);\r\n    }\r\n\r\n    // Modifier to check if the function caller is the project creator\r\n    modifier isCreator() {\r\n        require(\r\n            msg.sender == creator,\r\n            \"Only the contract creator can execute this action\"\r\n        );\r\n        _;\r\n    }\r\n\r\n    event LogDeleteUser(address indexed userAddress, uint256 index);\r\n\r\n    function deleteUser(uint256 userIndex) public returns (address index) {\r\n        address toDelete = tickets[userIndex];\r\n        uint256 lastIndex = tickets.length - 1;\r\n        swap(userIndex, lastIndex);\r\n        tickets.pop();\r\n\r\n        return toDelete;\r\n    }\r\n\r\n    function swap(uint256 userIndex, uint256 lastIndex) private {\r\n        address toDelete = tickets[userIndex];\r\n        tickets[userIndex] = tickets[lastIndex];\r\n        tickets[lastIndex] = toDelete;\r\n    }\r\n\r\n    function revealWinners()\r\n        public\r\n        view\r\n        returns (uint256[] memory, address[] memory)\r\n    {\r\n        require(\r\n            block.timestamp > deadline,\r\n            \"The winners have not been announced yet.\"\r\n        );\r\n\r\n        address[] memory addrs = new address[](winnerIds.length);\r\n        uint256[] memory amounts = new uint256[](winnerIds.length);\r\n\r\n        for (uint256 i = 0; i < winnerIds.length; i++) {\r\n            winner storage ltWinner = winners[i];\r\n            addrs[i] = ltWinner.account;\r\n            amounts[i] = ltWinner.amount;\r\n        }\r\n        return (amounts, addrs);\r\n    }\r\n\r\n    /** @dev Function to get specific information about the project.\r\n     * @return projectStarter Returns all the project's details\r\n     */\r\n    function getDetails(address account)\r\n        public\r\n        view\r\n        returns (\r\n            address payable projectStarter,\r\n            uint256 projectId,\r\n            uint256 deadlineTime,\r\n            State currentState,\r\n            uint256 currentAmount,\r\n            uint256 ticketPrice,\r\n            uint256 lotteryPlayersLength,\r\n            uint256 lotteryDateCreated,\r\n            uint256[] memory lotteryRewards,\r\n            uint256 purchased\r\n        )\r\n    {\r\n        projectStarter = creator;\r\n        projectId = id;\r\n        deadlineTime = deadline;\r\n        currentState = state;\r\n        currentAmount = currentBalance;\r\n        ticketPrice = priceTicket;\r\n        lotteryPlayersLength = playersLength;\r\n        lotteryDateCreated = created;\r\n        lotteryRewards = rewards;\r\n        purchased = contributors[account];\r\n    }\r\n\r\n    // function purchasedByAddress(address _key) public view returns (uint256) {\r\n    //     return contributors[_key];\r\n    // }\r\n    function _changeState(State _newState) private {\r\n        state = _newState;\r\n        emit LotteryStateChanged(state);\r\n    }\r\n\r\n    function getPlayersDetails()\r\n        public\r\n        view\r\n        returns (\r\n            address[] memory lotteryPlayers,\r\n            address[] memory lotteryTickets\r\n        )\r\n    {\r\n        lotteryPlayers = players;\r\n        lotteryTickets = tickets;\r\n    }\r\n}\r\n",
  "sourcePath": "c:\\fei\\projects\\lottery\\contracts\\Lottery.sol",
  "compiler": {
    "name": "solc",
    "version": "0.7.6+commit.7338295f.Emscripten.clang"
  },
  "schemaVersion": "3.4.7",
  "updatedAt": "2022-05-11T15:29:06.434Z",
  "devdoc": {
    "kind": "dev",
    "methods": {
      "getDetails(address)": {
        "details": "Function to get specific information about the project.",
        "returns": {
          "projectStarter": "Returns all the project's details"
        }
      }
    },
    "version": 1
  },
  "userdoc": {
    "kind": "user",
    "methods": {},
    "version": 1
  }
}