{
  "contractName": "Lottery",
  "abi": [
    {
      "inputs": [
        {
          "internalType": "address payable",
          "name": "projectStarter",
          "type": "address"
        },
        {
          "internalType": "string",
          "name": "projectTitle",
          "type": "string"
        },
        {
          "internalType": "string",
          "name": "projectDesc",
          "type": "string"
        },
        {
          "internalType": "uint256",
          "name": "deadlineTime",
          "type": "uint256"
        },
        {
          "internalType": "uint256",
          "name": "projectTicketPrice",
          "type": "uint256"
        },
        {
          "internalType": "uint256",
          "name": "numberWinners",
          "type": "uint256"
        },
        {
          "internalType": "uint256[]",
          "name": "lotteryRewards",
          "type": "uint256[]"
        },
        {
          "internalType": "uint256",
          "name": "lotteryLimitTickets",
          "type": "uint256"
        }
      ],
      "stateMutability": "nonpayable",
      "type": "constructor"
    },
    {
      "anonymous": false,
      "inputs": [
        {
          "indexed": true,
          "internalType": "address",
          "name": "userAddress",
          "type": "address"
        },
        {
          "indexed": false,
          "internalType": "uint256",
          "name": "index",
          "type": "uint256"
        }
      ],
      "name": "LogDeleteUser",
      "type": "event"
    },
    {
      "anonymous": false,
      "inputs": [
        {
          "indexed": false,
          "internalType": "enum State",
          "name": "newState",
          "type": "uint8"
        }
      ],
      "name": "LotteryStateChanged",
      "type": "event"
    },
    {
      "anonymous": false,
      "inputs": [
        {
          "indexed": true,
          "internalType": "address",
          "name": "_from",
          "type": "address"
        },
        {
          "indexed": false,
          "internalType": "uint256",
          "name": "_value",
          "type": "uint256"
        }
      ],
      "name": "Transfer",
      "type": "event"
    },
    {
      "inputs": [
        {
          "internalType": "address",
          "name": "",
          "type": "address"
        }
      ],
      "name": "contributors",
      "outputs": [
        {
          "internalType": "uint256",
          "name": "",
          "type": "uint256"
        }
      ],
      "stateMutability": "view",
      "type": "function"
    },
    {
      "inputs": [],
      "name": "created",
      "outputs": [
        {
          "internalType": "uint256",
          "name": "",
          "type": "uint256"
        }
      ],
      "stateMutability": "view",
      "type": "function"
    },
    {
      "inputs": [],
      "name": "creator",
      "outputs": [
        {
          "internalType": "address payable",
          "name": "",
          "type": "address"
        }
      ],
      "stateMutability": "view",
      "type": "function"
    },
    {
      "inputs": [],
      "name": "currentBalance",
      "outputs": [
        {
          "internalType": "uint256",
          "name": "",
          "type": "uint256"
        }
      ],
      "stateMutability": "view",
      "type": "function"
    },
    {
      "inputs": [],
      "name": "deadline",
      "outputs": [
        {
          "internalType": "uint256",
          "name": "",
          "type": "uint256"
        }
      ],
      "stateMutability": "view",
      "type": "function"
    },
    {
      "inputs": [],
      "name": "description",
      "outputs": [
        {
          "internalType": "string",
          "name": "",
          "type": "string"
        }
      ],
      "stateMutability": "view",
      "type": "function"
    },
    {
      "inputs": [],
      "name": "numberOfWinners",
      "outputs": [
        {
          "internalType": "uint256",
          "name": "",
          "type": "uint256"
        }
      ],
      "stateMutability": "view",
      "type": "function"
    },
    {
      "inputs": [
        {
          "internalType": "uint256",
          "name": "",
          "type": "uint256"
        }
      ],
      "name": "players",
      "outputs": [
        {
          "internalType": "address",
          "name": "",
          "type": "address"
        }
      ],
      "stateMutability": "view",
      "type": "function"
    },
    {
      "inputs": [],
      "name": "priceTicket",
      "outputs": [
        {
          "internalType": "uint256",
          "name": "",
          "type": "uint256"
        }
      ],
      "stateMutability": "view",
      "type": "function"
    },
    {
      "inputs": [
        {
          "internalType": "uint256",
          "name": "",
          "type": "uint256"
        }
      ],
      "name": "rewards",
      "outputs": [
        {
          "internalType": "uint256",
          "name": "",
          "type": "uint256"
        }
      ],
      "stateMutability": "view",
      "type": "function"
    },
    {
      "inputs": [],
      "name": "state",
      "outputs": [
        {
          "internalType": "enum State",
          "name": "",
          "type": "uint8"
        }
      ],
      "stateMutability": "view",
      "type": "function"
    },
    {
      "inputs": [
        {
          "internalType": "uint256",
          "name": "",
          "type": "uint256"
        }
      ],
      "name": "tickets",
      "outputs": [
        {
          "internalType": "address",
          "name": "",
          "type": "address"
        }
      ],
      "stateMutability": "view",
      "type": "function"
    },
    {
      "inputs": [],
      "name": "title",
      "outputs": [
        {
          "internalType": "string",
          "name": "",
          "type": "string"
        }
      ],
      "stateMutability": "view",
      "type": "function"
    },
    {
      "inputs": [
        {
          "internalType": "uint256",
          "name": "",
          "type": "uint256"
        }
      ],
      "name": "winnerIds",
      "outputs": [
        {
          "internalType": "uint256",
          "name": "",
          "type": "uint256"
        }
      ],
      "stateMutability": "view",
      "type": "function"
    },
    {
      "inputs": [],
      "name": "getDeployerAddress",
      "outputs": [
        {
          "internalType": "address",
          "name": "",
          "type": "address"
        }
      ],
      "stateMutability": "view",
      "type": "function"
    },
    {
      "inputs": [
        {
          "internalType": "address",
          "name": "_address",
          "type": "address"
        }
      ],
      "name": "getRewardsByAccount",
      "outputs": [
        {
          "internalType": "uint256",
          "name": "",
          "type": "uint256"
        }
      ],
      "stateMutability": "view",
      "type": "function"
    },
    {
      "inputs": [],
      "name": "getContractAddress",
      "outputs": [
        {
          "internalType": "address",
          "name": "",
          "type": "address"
        }
      ],
      "stateMutability": "view",
      "type": "function"
    },
    {
      "inputs": [
        {
          "internalType": "address",
          "name": "_address",
          "type": "address"
        }
      ],
      "name": "getContributed",
      "outputs": [
        {
          "internalType": "uint256",
          "name": "",
          "type": "uint256"
        }
      ],
      "stateMutability": "view",
      "type": "function"
    },
    {
      "inputs": [],
      "name": "getState",
      "outputs": [
        {
          "internalType": "enum State",
          "name": "",
          "type": "uint8"
        }
      ],
      "stateMutability": "view",
      "type": "function"
    },
    {
      "inputs": [
        {
          "internalType": "uint256",
          "name": "id",
          "type": "uint256"
        }
      ],
      "name": "getWinner",
      "outputs": [
        {
          "internalType": "address",
          "name": "",
          "type": "address"
        }
      ],
      "stateMutability": "view",
      "type": "function"
    },
    {
      "inputs": [
        {
          "internalType": "uint256",
          "name": "id",
          "type": "uint256"
        }
      ],
      "name": "getWinnerAmount",
      "outputs": [
        {
          "internalType": "uint256",
          "name": "",
          "type": "uint256"
        }
      ],
      "stateMutability": "view",
      "type": "function"
    },
    {
      "inputs": [
        {
          "internalType": "uint256",
          "name": "overralPrice",
          "type": "uint256"
        },
        {
          "internalType": "uint256",
          "name": "ticketAmount",
          "type": "uint256"
        }
      ],
      "name": "buyTicket",
      "outputs": [],
      "stateMutability": "payable",
      "type": "function"
    },
    {
      "inputs": [],
      "name": "getNumberOfWinners",
      "outputs": [
        {
          "internalType": "uint256",
          "name": "",
          "type": "uint256"
        }
      ],
      "stateMutability": "view",
      "type": "function"
    },
    {
      "inputs": [],
      "name": "getOwner",
      "outputs": [
        {
          "internalType": "address",
          "name": "",
          "type": "address"
        }
      ],
      "stateMutability": "view",
      "type": "function"
    },
    {
      "inputs": [
        {
          "internalType": "address",
          "name": "_address",
          "type": "address"
        }
      ],
      "name": "getEnteredTicketsByAccount",
      "outputs": [
        {
          "internalType": "uint256",
          "name": "",
          "type": "uint256"
        }
      ],
      "stateMutability": "view",
      "type": "function"
    },
    {
      "inputs": [
        {
          "internalType": "address",
          "name": "_address",
          "type": "address"
        }
      ],
      "name": "getWinProbabiltyByAccount",
      "outputs": [
        {
          "internalType": "uint256",
          "name": "",
          "type": "uint256"
        }
      ],
      "stateMutability": "view",
      "type": "function"
    },
    {
      "inputs": [],
      "name": "pickWinner",
      "outputs": [],
      "stateMutability": "payable",
      "type": "function"
    },
    {
      "inputs": [],
      "name": "getPlayers",
      "outputs": [
        {
          "internalType": "address[]",
          "name": "",
          "type": "address[]"
        }
      ],
      "stateMutability": "view",
      "type": "function"
    },
    {
      "inputs": [
        {
          "internalType": "address",
          "name": "sender",
          "type": "address"
        }
      ],
      "name": "storno",
      "outputs": [],
      "stateMutability": "nonpayable",
      "type": "function"
    },
    {
      "inputs": [
        {
          "internalType": "uint256",
          "name": "userIndex",
          "type": "uint256"
        }
      ],
      "name": "deleteUser",
      "outputs": [
        {
          "internalType": "address",
          "name": "index",
          "type": "address"
        }
      ],
      "stateMutability": "nonpayable",
      "type": "function"
    },
    {
      "inputs": [],
      "name": "revealWinners",
      "outputs": [
        {
          "internalType": "uint256[]",
          "name": "",
          "type": "uint256[]"
        },
        {
          "internalType": "address[]",
          "name": "",
          "type": "address[]"
        }
      ],
      "stateMutability": "view",
      "type": "function"
    },
    {
      "inputs": [
        {
          "internalType": "address",
          "name": "account",
          "type": "address"
        }
      ],
      "name": "getDetails",
      "outputs": [
        {
          "internalType": "address payable",
          "name": "projectStarter",
          "type": "address"
        },
        {
          "internalType": "string",
          "name": "projectTitle",
          "type": "string"
        },
        {
          "internalType": "string",
          "name": "projectDesc",
          "type": "string"
        },
        {
          "internalType": "uint256",
          "name": "deadlineTime",
          "type": "uint256"
        },
        {
          "internalType": "enum State",
          "name": "currentState",
          "type": "uint8"
        },
        {
          "internalType": "uint256",
          "name": "currentAmount",
          "type": "uint256"
        },
        {
          "internalType": "uint256",
          "name": "ticketPrice",
          "type": "uint256"
        },
        {
          "internalType": "uint256",
          "name": "lotteryPlayersLength",
          "type": "uint256"
        },
        {
          "internalType": "uint256",
          "name": "lotteryDateCreated",
          "type": "uint256"
        },
        {
          "internalType": "uint256[]",
          "name": "lotteryRewards",
          "type": "uint256[]"
        },
        {
          "internalType": "uint256",
          "name": "purchased",
          "type": "uint256"
        }
      ],
      "stateMutability": "view",
      "type": "function"
    },
    {
      "inputs": [],
      "name": "getPlayersDetails",
      "outputs": [
        {
          "internalType": "address[]",
          "name": "lotteryPlayers",
          "type": "address[]"
        },
        {
          "internalType": "address[]",
          "name": "lotteryTickets",
          "type": "address[]"
        }
      ],
      "stateMutability": "view",
      "type": "function"
    }
  ],
  "bytecode": "0x60806040526000600760006101000a81548160ff021916908360028111156200002457fe5b02179055503480156200003657600080fd5b50604051620032483803806200324883398181016040528101906200005c91906200036a565b876000806101000a81548173ffffffffffffffffffffffffffffffffffffffff021916908373ffffffffffffffffffffffffffffffffffffffff1602179055508660059080519060200190620000b492919062000120565b508560069080519060200190620000cd92919062000120565b50836001819055508460048190555060006003819055504260028190555082600b8190555081600c90805190602001906200010a929190620001b7565b5080600d819055505050505050505050620005b8565b828054600181600116156101000203166002900490600052602060002090601f016020900481019282620001585760008555620001a4565b82601f106200017357805160ff1916838001178555620001a4565b82800160010185558215620001a4579182015b82811115620001a357825182559160200191906001019062000186565b5b509050620001b3919062000209565b5090565b828054828255906000526020600020908101928215620001f6579160200282015b82811115620001f5578251825591602001919060010190620001d8565b5b50905062000205919062000209565b5090565b5b80821115620002245760008160009055506001016200020a565b5090565b60006200023f6200023984620004ac565b62000478565b905080838252602082019050828560208602820111156200025f57600080fd5b60005b8581101562000293578162000278888262000353565b84526020840193506020830192505060018101905062000262565b5050509392505050565b6000620002b4620002ae84620004db565b62000478565b905082815260208101848484011115620002cd57600080fd5b620002da8482856200054c565b509392505050565b600081519050620002f38162000584565b92915050565b600082601f8301126200030b57600080fd5b81516200031d84826020860162000228565b91505092915050565b600082601f8301126200033857600080fd5b81516200034a8482602086016200029d565b91505092915050565b60008151905062000364816200059e565b92915050565b600080600080600080600080610100898b0312156200038857600080fd5b6000620003988b828c01620002e2565b985050602089015167ffffffffffffffff811115620003b657600080fd5b620003c48b828c0162000326565b975050604089015167ffffffffffffffff811115620003e257600080fd5b620003f08b828c0162000326565b9650506060620004038b828c0162000353565b9550506080620004168b828c0162000353565b94505060a0620004298b828c0162000353565b93505060c089015167ffffffffffffffff8111156200044757600080fd5b620004558b828c01620002f9565b92505060e0620004688b828c0162000353565b9150509295985092959890939650565b6000604051905081810181811067ffffffffffffffff82111715620004a257620004a162000582565b5b8060405250919050565b600067ffffffffffffffff821115620004ca57620004c962000582565b5b602082029050602081019050919050565b600067ffffffffffffffff821115620004f957620004f862000582565b5b601f19601f8301169050602081019050919050565b60006200051b8262000522565b9050919050565b600073ffffffffffffffffffffffffffffffffffffffff82169050919050565b6000819050919050565b60005b838110156200056c5780820151818401526020810190506200054f565b838111156200057c576000848401525b50505050565bfe5b6200058f816200050e565b81146200059b57600080fd5b50565b620005a98162000542565b8114620005b557600080fd5b50565b612c8080620005c86000396000f3fe6080604052600436106101ee5760003560e01c806350b447121161010d5780638e33cffc116100a0578063ce845d1d1161006f578063ce845d1d14610737578063e75582a414610762578063f301af421461078b578063f71d96cb146107c8578063f7feb20d14610805576101ee565b80638e33cffc14610678578063952587d6146106a3578063a6a031b9146106cf578063c19d93fb1461070c576101ee565b80637284e416116100dc5780637284e416146105cc578063893d20e8146105f75780638acfaca9146106225780638b5b9ccc1461064d576101ee565b806350b447121461051d5780635d495aea1461055a57806364c1653414610564578063685f9bf51461058f576101ee565b8063325a19f1116101855780634129b2c9116101545780634129b2c91461044c57806344ed63f6146104895780634a79d50c146104b55780634de58efe146104e0576101ee565b8063325a19f11461037c57806332a2c5d0146103a757806338f14845146103d2578063403d13121461040f576101ee565b806324cc2866116101c157806324cc2866146102c3578063298ec208146102ee57806329dcb0cf1461030a57806330289c6114610335576101ee565b806302d05d3f146101f35780630e0b0f431461021e5780631865c57d1461025b5780631f6d494214610286575b600080fd5b3480156101ff57600080fd5b50610208610842565b60405161021591906127f3565b60405180910390f35b34801561022a57600080fd5b506102456004803603810190610240919061226d565b610866565b6040516102529190612a5b565b60405180910390f35b34801561026757600080fd5b50610270610908565b60405161027d919061295e565b60405180910390f35b34801561029257600080fd5b506102ad60048036038101906102a8919061226d565b61091f565b6040516102ba9190612a5b565b60405180910390f35b3480156102cf57600080fd5b506102d8610937565b6040516102e591906127bd565b60405180910390f35b61030860048036038101906103039190612311565b6109de565b005b34801561031657600080fd5b5061031f610db1565b60405161032c9190612a5b565b60405180910390f35b34801561034157600080fd5b5061035c6004803603810190610357919061226d565b610db7565b6040516103739b9a9998979695949392919061280e565b60405180910390f35b34801561038857600080fd5b50610391610ff6565b60405161039e9190612a5b565b60405180910390f35b3480156103b357600080fd5b506103bc610ffc565b6040516103c991906127bd565b60405180910390f35b3480156103de57600080fd5b506103f960048036038101906103f491906122bf565b611004565b60405161040691906127bd565b60405180910390f35b34801561041b57600080fd5b50610436600480360381019061043191906122bf565b6111a3565b6040516104439190612a5b565b60405180910390f35b34801561045857600080fd5b50610473600480360381019061046e91906122bf565b6111c7565b60405161048091906127bd565b60405180910390f35b34801561049557600080fd5b5061049e611207565b6040516104ac9291906128f0565b60405180910390f35b3480156104c157600080fd5b506104ca611320565b6040516104d79190612979565b60405180910390f35b3480156104ec57600080fd5b506105076004803603810190610502919061226d565b6113be565b6040516105149190612a5b565b60405180910390f35b34801561052957600080fd5b50610544600480360381019061053f91906122bf565b611407565b60405161055191906127bd565b60405180910390f35b610562611446565b005b34801561057057600080fd5b5061057961190a565b6040516105869190612a5b565b60405180910390f35b34801561059b57600080fd5b506105b660048036038101906105b1919061226d565b611910565b6040516105c39190612a5b565b60405180910390f35b3480156105d857600080fd5b506105e16119b4565b6040516105ee9190612979565b60405180910390f35b34801561060357600080fd5b5061060c611a52565b60405161061991906127bd565b60405180910390f35b34801561062e57600080fd5b50610637611a7b565b6040516106449190612a5b565b60405180910390f35b34801561065957600080fd5b50610662611a81565b60405161066f91906128ce565b60405180910390f35b34801561068457600080fd5b5061068d611b0f565b60405161069a9190612a5b565b60405180910390f35b3480156106af57600080fd5b506106b8611b19565b6040516106c6929190612927565b60405180910390f35b3480156106db57600080fd5b506106f660048036038101906106f1919061226d565b611cca565b6040516107039190612a5b565b60405180910390f35b34801561071857600080fd5b50610721611d6f565b60405161072e919061295e565b60405180910390f35b34801561074357600080fd5b5061074c611d82565b6040516107599190612a5b565b60405180910390f35b34801561076e57600080fd5b506107896004803603810190610784919061226d565b611d88565b005b34801561079757600080fd5b506107b260048036038101906107ad91906122bf565b611e33565b6040516107bf9190612a5b565b60405180910390f35b3480156107d457600080fd5b506107ef60048036038101906107ea91906122bf565b611e57565b6040516107fc91906127bd565b60405180910390f35b34801561081157600080fd5b5061082c600480360381019061082791906122bf565b611e96565b6040516108399190612a5b565b60405180910390f35b60008054906101000a900473ffffffffffffffffffffffffffffffffffffffff1681565b6000806000905060005b600e805490508110156108fe57600e818154811061088a57fe5b9060005260206000200160009054906101000a900473ffffffffffffffffffffffffffffffffffffffff1673ffffffffffffffffffffffffffffffffffffffff168473ffffffffffffffffffffffffffffffffffffffff1614156108f15781806001019250505b8080600101915050610870565b5080915050919050565b6000600760009054906101000a900460ff16905090565b60086020528060005260406000206000915090505481565b6000600f60009054906101000a900473ffffffffffffffffffffffffffffffffffffffff1673ffffffffffffffffffffffffffffffffffffffff16630ee2cb106040518163ffffffff1660e01b815260040160206040518083038186803b1580156109a157600080fd5b505afa1580156109b5573d6000803e3d6000fd5b505050506040513d601f19601f820116820180604052508101906109d99190612296565b905090565b6004544210610a22576040517f08c379a0000000000000000000000000000000000000000000000000000000008152600401610a19906129fb565b60405180910390fd5b60008211610a65576040517f08c379a0000000000000000000000000000000000000000000000000000000008152600401610a5c9061299b565b60405180910390fd5b6000813073ffffffffffffffffffffffffffffffffffffffff16630e0b0f43336040518263ffffffff1660e01b8152600401610aa191906127d8565b60206040518083038186803b158015610ab957600080fd5b505afa158015610acd573d6000803e3d6000fd5b505050506040513d601f19601f82011682018060405250810190610af191906122e8565b01905080600d541015610b39576040517f08c379a0000000000000000000000000000000000000000000000000000000008152600401610b3090612a1b565b60405180910390fd5b610b8b83600860003373ffffffffffffffffffffffffffffffffffffffff1673ffffffffffffffffffffffffffffffffffffffff16815260200190815260200160002054611eb690919063ffffffff16565b600860003373ffffffffffffffffffffffffffffffffffffffff1673ffffffffffffffffffffffffffffffffffffffff16815260200190815260200160002081905550610be383600354611eb690919063ffffffff16565b60038190555060005b82811015610c6457600e339080600181540180825580915050600190039060005260206000200160009091909190916101000a81548173ffffffffffffffffffffffffffffffffffffffff021916908373ffffffffffffffffffffffffffffffffffffffff1602179055508080600101915050610bec565b506000805b600980549050811015610cf35760098181548110610c8357fe5b9060005260206000200160009054906101000a900473ffffffffffffffffffffffffffffffffffffffff1673ffffffffffffffffffffffffffffffffffffffff163373ffffffffffffffffffffffffffffffffffffffff161415610ce657600191505b8080600101915050610c69565b5080610d5d576009339080600181540180825580915050600190039060005260206000200160009091909190916101000a81548173ffffffffffffffffffffffffffffffffffffffff021916908373ffffffffffffffffffffffffffffffffffffffff1602179055505b3373ffffffffffffffffffffffffffffffffffffffff167f69ca02dd4edd7bf0a4abb9ed3b7af3f14778db5d61921c7dc7cd545266326de285604051610da39190612a5b565b60405180910390a250505050565b60045481565b6000606080600080600080600080606060008060009054906101000a900473ffffffffffffffffffffffffffffffffffffffff169a5060058054600181600116156101000203166002900480601f016020809104026020016040519081016040528092919081815260200182805460018160011615610100020316600290048015610e835780601f10610e5857610100808354040283529160200191610e83565b820191906000526020600020905b815481529060010190602001808311610e6657829003601f168201915b5050505050995060068054600181600116156101000203166002900480601f016020809104026020016040519081016040528092919081815260200182805460018160011615610100020316600290048015610f205780601f10610ef557610100808354040283529160200191610f20565b820191906000526020600020905b815481529060010190602001808311610f0357829003601f168201915b505050505098506004549750600760009054906101000a900460ff16965060035495506001549450600a5493506002549250600c805480602002602001604051908101604052809291908181526020018280548015610f9e57602002820191906000526020600020905b815481526020019060010190808311610f8a575b50505050509150600860008d73ffffffffffffffffffffffffffffffffffffffff1673ffffffffffffffffffffffffffffffffffffffff16815260200190815260200160002054905091939597999b90929496989a50565b60025481565b600030905090565b600080600e838154811061101457fe5b9060005260206000200160009054906101000a900473ffffffffffffffffffffffffffffffffffffffff1690506000600e6001600e80549050038154811061105857fe5b9060005260206000200160009054906101000a900473ffffffffffffffffffffffffffffffffffffffff16905060006001600e805490500390505b8273ffffffffffffffffffffffffffffffffffffffff168273ffffffffffffffffffffffffffffffffffffffff16141561114e57600e8054806110d257fe5b6001900381819060005260206000200160006101000a81549073ffffffffffffffffffffffffffffffffffffffff02191690559055600e6001600e80549050038154811061111c57fe5b9060005260206000200160009054906101000a900473ffffffffffffffffffffffffffffffffffffffff169150611093565b6111588582611f3e565b600e80548061116357fe5b6001900381819060005260206000200160006101000a81549073ffffffffffffffffffffffffffffffffffffffff02191690559055829350505050919050565b601181815481106111b357600080fd5b906000526020600020016000915090505481565b60006010600083815260200190815260200160002060020160009054906101000a900473ffffffffffffffffffffffffffffffffffffffff169050919050565b606080600980548060200260200160405190810160405280929190818152602001828054801561128c57602002820191906000526020600020905b8160009054906101000a900473ffffffffffffffffffffffffffffffffffffffff1673ffffffffffffffffffffffffffffffffffffffff1681526020019060010190808311611242575b50505050509150600e80548060200260200160405190810160405280929190818152602001828054801561131557602002820191906000526020600020905b8160009054906101000a900473ffffffffffffffffffffffffffffffffffffffff1673ffffffffffffffffffffffffffffffffffffffff16815260200190600101908083116112cb575b505050505090509091565b60058054600181600116156101000203166002900480601f0160208091040260200160405190810160405280929190818152602001828054600181600116156101000203166002900480156113b65780601f1061138b576101008083540402835291602001916113b6565b820191906000526020600020905b81548152906001019060200180831161139957829003601f168201915b505050505081565b6000600860008373ffffffffffffffffffffffffffffffffffffffff1673ffffffffffffffffffffffffffffffffffffffff168152602001908152602001600020549050919050565b600e818154811061141757600080fd5b906000526020600020016000915054906101000a900473ffffffffffffffffffffffffffffffffffffffff1681565b60008054906101000a900473ffffffffffffffffffffffffffffffffffffffff1673ffffffffffffffffffffffffffffffffffffffff163373ffffffffffffffffffffffffffffffffffffffff16146114d4576040517f08c379a00000000000000000000000000000000000000000000000000000000081526004016114cb906129bb565b60405180910390fd5b6004544211611518576040517f08c379a000000000000000000000000000000000000000000000000000000000815260040161150f906129db565b60405180910390fd5b6000476003819055506000605f905060006005905060005b600b5481101561188a5782612710600354600c848154811061154e57fe5b9060005260206000200154028161156157fe5b040293506115f4600e8054806020026020016040519081016040528092919081815260200182805480156115ea57602002820191906000526020600020905b8160009054906101000a900473ffffffffffffffffffffffffffffffffffffffff1673ffffffffffffffffffffffffffffffffffffffff16815260200190600101908083116115a0575b5050505050612062565b6000600e8054905061168b600e80548060200260200160405190810160405280929190818152602001828054801561168157602002820191906000526020600020905b8160009054906101000a900473ffffffffffffffffffffffffffffffffffffffff1673ffffffffffffffffffffffffffffffffffffffff1681526020019060010190808311611637575b5050505050612176565b8161169257fe5b0690506000601060008481526020019081526020016000209050600e82815481106116b957fe5b9060005260206000200160009054906101000a900473ffffffffffffffffffffffffffffffffffffffff168160020160006101000a81548173ffffffffffffffffffffffffffffffffffffffff021916908373ffffffffffffffffffffffffffffffffffffffff160217905550858160010181905550601183908060018154018082558091505060019003906000526020600020016000909190919091505560005b600e8054905081101561180f578160020160009054906101000a900473ffffffffffffffffffffffffffffffffffffffff1673ffffffffffffffffffffffffffffffffffffffff16600e82815481106117b057fe5b9060005260206000200160009054906101000a900473ffffffffffffffffffffffffffffffffffffffff1673ffffffffffffffffffffffffffffffffffffffff1614156118025761180081611004565b505b808060010191505061175b565b508060020160009054906101000a900473ffffffffffffffffffffffffffffffffffffffff1673ffffffffffffffffffffffffffffffffffffffff166108fc879081150290604051600060405180830381858888f1935050505015801561187a573d6000803e3d6000fd5b5050508080600101915050611530565b504760038190555060008054906101000a900473ffffffffffffffffffffffffffffffffffffffff1673ffffffffffffffffffffffffffffffffffffffff166108fc6003549081150290604051600060405180830381858888f193505050501580156118fa573d6000803e3d6000fd5b5061190560016121ad565b505050565b60015481565b6000600e805490506127103073ffffffffffffffffffffffffffffffffffffffff16630e0b0f43856040518263ffffffff1660e01b815260040161195491906127bd565b60206040518083038186803b15801561196c57600080fd5b505afa158015611980573d6000803e3d6000fd5b505050506040513d601f19601f820116820180604052508101906119a491906122e8565b02816119ac57fe5b049050919050565b60068054600181600116156101000203166002900480601f016020809104026020016040519081016040528092919081815260200182805460018160011615610100020316600290048015611a4a5780601f10611a1f57610100808354040283529160200191611a4a565b820191906000526020600020905b815481529060010190602001808311611a2d57829003601f168201915b505050505081565b60008060009054906101000a900473ffffffffffffffffffffffffffffffffffffffff16905090565b600b5481565b60606009805480602002602001604051908101604052809291908181526020018280548015611b0557602002820191906000526020600020905b8160009054906101000a900473ffffffffffffffffffffffffffffffffffffffff1673ffffffffffffffffffffffffffffffffffffffff1681526020019060010190808311611abb575b5050505050905090565b6000600b54905090565b6060806004544211611b60576040517f08c379a0000000000000000000000000000000000000000000000000000000008152600401611b5790612a3b565b60405180910390fd5b600060118054905067ffffffffffffffff81118015611b7e57600080fd5b50604051908082528060200260200182016040528015611bad5781602001602082028036833780820191505090505b509050600060118054905067ffffffffffffffff81118015611bce57600080fd5b50604051908082528060200260200182016040528015611bfd5781602001602082028036833780820191505090505b50905060005b601180549050811015611cbd5760006010600083815260200190815260200160002090508060020160009054906101000a900473ffffffffffffffffffffffffffffffffffffffff16848381518110611c5857fe5b602002602001019073ffffffffffffffffffffffffffffffffffffffff16908173ffffffffffffffffffffffffffffffffffffffff16815250508060010154838381518110611ca357fe5b602002602001018181525050508080600101915050611c03565b5080829350935050509091565b6000806000905060005b600b54811015611d655760006010600083815260200190815260200160002090508473ffffffffffffffffffffffffffffffffffffffff168160020160009054906101000a900473ffffffffffffffffffffffffffffffffffffffff1673ffffffffffffffffffffffffffffffffffffffff161415611d57578060010154830192505b508080600101915050611cd4565b5080915050919050565b600760009054906101000a900460ff1681565b60035481565b6004544210611d9657600080fd5b6000600860003373ffffffffffffffffffffffffffffffffffffffff1673ffffffffffffffffffffffffffffffffffffffff1681526020019081526020016000205490506000811415611de857600080fd5b8173ffffffffffffffffffffffffffffffffffffffff166108fc829081150290604051600060405180830381858888f19350505050158015611e2e573d6000803e3d6000fd5b505050565b600c8181548110611e4357600080fd5b906000526020600020016000915090505481565b60098181548110611e6757600080fd5b906000526020600020016000915054906101000a900473ffffffffffffffffffffffffffffffffffffffff1681565b600060106000838152602001908152602001600020600101549050919050565b600080828401905083811015611f34576040517f08c379a000000000000000000000000000000000000000000000000000000000815260040180806020018281038252601b8152602001807f536166654d6174683a206164646974696f6e206f766572666c6f77000000000081525060200191505060405180910390fd5b8091505092915050565b6000600e8381548110611f4d57fe5b9060005260206000200160009054906101000a900473ffffffffffffffffffffffffffffffffffffffff169050600e8281548110611f8757fe5b9060005260206000200160009054906101000a900473ffffffffffffffffffffffffffffffffffffffff16600e8481548110611fbf57fe5b9060005260206000200160006101000a81548173ffffffffffffffffffffffffffffffffffffffff021916908373ffffffffffffffffffffffffffffffffffffffff16021790555080600e838154811061201557fe5b9060005260206000200160006101000a81548173ffffffffffffffffffffffffffffffffffffffff021916908373ffffffffffffffffffffffffffffffffffffffff160217905550505050565b60005b815181101561217257600081835103426040516020016120859190612769565b6040516020818303038152906040528051906020012060001c816120a557fe5b068201905060008382815181106120b857fe5b602002602001015190508383815181106120ce57fe5b60200260200101518483815181106120e257fe5b602002602001019073ffffffffffffffffffffffffffffffffffffffff16908173ffffffffffffffffffffffffffffffffffffffff16815250508084848151811061212957fe5b602002602001019073ffffffffffffffffffffffffffffffffffffffff16908173ffffffffffffffffffffffffffffffffffffffff168152505050508080600101915050612065565b5050565b600044428360405160200161218d93929190612784565b6040516020818303038152906040528051906020012060001c9050919050565b80600760006101000a81548160ff021916908360028111156121cb57fe5b02179055507f1e046fdd2110d82ed3fa7652b41ced17c49cbb9ee4536e65f51ad2a6ed5359a7600760009054906101000a900460ff1660405161220e919061295e565b60405180910390a150565b60008135905061222881612c1c565b92915050565b60008151905061223d81612c1c565b92915050565b60008135905061225281612c33565b92915050565b60008151905061226781612c33565b92915050565b60006020828403121561227f57600080fd5b600061228d84828501612219565b91505092915050565b6000602082840312156122a857600080fd5b60006122b68482850161222e565b91505092915050565b6000602082840312156122d157600080fd5b60006122df84828501612243565b91505092915050565b6000602082840312156122fa57600080fd5b600061230884828501612258565b91505092915050565b6000806040838503121561232457600080fd5b600061233285828601612243565b925050602061234385828601612243565b9150509250929050565b600061235983836123b3565b60208301905092915050565b600061237183836123d1565b60208301905092915050565b60006123898383612734565b60208301905092915050565b61239e81612b70565b82525050565b6123ad81612b21565b82525050565b6123bc81612b0f565b82525050565b6123cb81612b0f565b82525050565b6123da81612b0f565b82525050565b60006123eb82612a96565b6123f58185612ad1565b935061240083612a76565b8060005b83811015612431578151612418888261234d565b975061242383612ab7565b925050600181019050612404565b5085935050505092915050565b600061244982612a96565b6124538185612ae2565b935061245e83612a76565b8060005b8381101561248f5781516124768882612365565b975061248183612ab7565b925050600181019050612462565b5085935050505092915050565b60006124a782612aa1565b6124b18185612aed565b93506124bc83612a86565b8060005b838110156124ed5781516124d4888261237d565b97506124df83612ac4565b9250506001810190506124c0565b5085935050505092915050565b61250381612b82565b82525050565b600061251482612aac565b61251e8185612afe565b935061252e818560208601612bb8565b61253781612bf7565b840191505092915050565b600061254f601583612afe565b91507f5072696365206d757374206265206f76657220302e00000000000000000000006000830152602082019050919050565b600061258f603283612afe565b91507f4f6e6c792074686520636f6e74726163742063726561746f722063616e20657860008301527f6563757465207468697320616374696f6e2e00000000000000000000000000006020830152604082019050919050565b60006125f5601583612afe565b91507f4c6f7474657279206973207374696c6c206f70656e00000000000000000000006000830152602082019050919050565b6000612635601683612afe565b91507f546865206c6f74746572792068617320656e6465642e000000000000000000006000830152602082019050919050565b6000612675602683612afe565b91507f596f75206172652067657474696e67206f76657220746865206c696d6974207460008301527f69636b65742e00000000000000000000000000000000000000000000000000006020830152604082019050919050565b60006126db602883612afe565b91507f5468652077696e6e6572732068617665206e6f74206265656e20616e6e6f756e60008301527f636564207965742e0000000000000000000000000000000000000000000000006020830152604082019050919050565b61273d81612b66565b82525050565b61274c81612b66565b82525050565b61276361275e82612b66565b612beb565b82525050565b60006127758284612752565b60208201915081905092915050565b60006127908286612752565b6020820191506127a08285612752565b6020820191506127b0828461243e565b9150819050949350505050565b60006020820190506127d260008301846123c2565b92915050565b60006020820190506127ed6000830184612395565b92915050565b600060208201905061280860008301846123a4565b92915050565b600061016082019050612824600083018e6123a4565b8181036020830152612836818d612509565b9050818103604083015261284a818c612509565b9050612859606083018b612743565b612866608083018a6124fa565b61287360a0830189612743565b61288060c0830188612743565b61288d60e0830187612743565b61289b610100830186612743565b8181036101208301526128ae818561249c565b90506128be610140830184612743565b9c9b505050505050505050505050565b600060208201905081810360008301526128e881846123e0565b905092915050565b6000604082019050818103600083015261290a81856123e0565b9050818103602083015261291e81846123e0565b90509392505050565b60006040820190508181036000830152612941818561249c565b9050818103602083015261295581846123e0565b90509392505050565b600060208201905061297360008301846124fa565b92915050565b600060208201905081810360008301526129938184612509565b905092915050565b600060208201905081810360008301526129b481612542565b9050919050565b600060208201905081810360008301526129d481612582565b9050919050565b600060208201905081810360008301526129f4816125e8565b9050919050565b60006020820190508181036000830152612a1481612628565b9050919050565b60006020820190508181036000830152612a3481612668565b9050919050565b60006020820190508181036000830152612a54816126ce565b9050919050565b6000602082019050612a706000830184612743565b92915050565b6000819050602082019050919050565b6000819050602082019050919050565b600081519050919050565b600081519050919050565b600081519050919050565b6000602082019050919050565b6000602082019050919050565b600082825260208201905092915050565b600081905092915050565b600082825260208201905092915050565b600082825260208201905092915050565b6000612b1a82612b46565b9050919050565b6000612b2c82612b46565b9050919050565b6000819050612b4182612c08565b919050565b600073ffffffffffffffffffffffffffffffffffffffff82169050919050565b6000819050919050565b6000612b7b82612b94565b9050919050565b6000612b8d82612b33565b9050919050565b6000612b9f82612ba6565b9050919050565b6000612bb182612b46565b9050919050565b60005b83811015612bd6578082015181840152602081019050612bbb565b83811115612be5576000848401525b50505050565b6000819050919050565bfe5b6000601f19601f8301169050919050565b60038110612c1957612c18612bf5565b5b50565b612c2581612b0f565b8114612c3057600080fd5b50565b612c3c81612b66565b8114612c4757600080fd5b5056fea264697066735822122041fcedebb0930e791872f499b8db4dec7656d7ad07f337b0b81cd391476b842d64736f6c63430007060033",
  "immutableReferences": {},
  "source": "// SPDX-License-Identifier: MIT\r\npragma solidity ^0.7.0;\r\nimport \"../node_modules/@openzeppelin/contracts/math/SafeMath.sol\";\r\npragma experimental ABIEncoderV2;\r\nimport \"@openzeppelin/contracts/access/Ownable.sol\";\r\n\r\nenum State {\r\n    Open,\r\n    Closed,\r\n    Suspended\r\n}\r\n\r\ncontract LotteryBuilder {\r\n    using SafeMath for uint256;\r\n\r\n    // List of existing projects\r\n    Lottery[] private lotteries;\r\n    address payable creator;\r\n\r\n    constructor(address payable deployer) {\r\n        creator = deployer;\r\n    }\r\n\r\n    // Event that will be emitted whenever a new project is started\r\n    event ProjectStarted(\r\n        address contractAddress,\r\n        address projectStarter,\r\n        string projectTitle,\r\n        string projectDesc,\r\n        uint256 deadline,\r\n        uint256 ticketPrice,\r\n        uint256 numberWinners,\r\n        uint256[] rewards,\r\n        uint256 limitTickets\r\n    );\r\n\r\n    /** @dev Function to start a new project.\r\n     * @param title Title of the project to be created\r\n     * @param description Brief description about the project\r\n     * @param deadlineDate Project deadline in days\r\n     * @param ticketPrice Project goal in wei\r\n     */\r\n    function startProject(\r\n        address payable owner,\r\n        string calldata title,\r\n        string calldata description,\r\n        uint256 deadlineDate,\r\n        uint256 ticketPrice,\r\n        uint256 numberWinners,\r\n        uint256[] calldata rewards,\r\n        uint256 limitTickets\r\n    ) external {\r\n        uint256 raiseUntil = deadlineDate;\r\n        Lottery newProject = new Lottery(\r\n            owner,\r\n            title,\r\n            description,\r\n            raiseUntil,\r\n            ticketPrice,\r\n            numberWinners,\r\n            rewards,\r\n            limitTickets\r\n        );\r\n        lotteries.push(newProject);\r\n        emit ProjectStarted(\r\n            address(newProject),\r\n            owner,\r\n            title,\r\n            description,\r\n            raiseUntil,\r\n            ticketPrice,\r\n            numberWinners,\r\n            rewards,\r\n            limitTickets\r\n        );\r\n    }\r\n\r\n    struct Winners {\r\n        uint256[] values;\r\n        address[] accounts;\r\n    }\r\n    mapping(uint256 => Winners) allWinners;\r\n\r\n    struct participated {\r\n        address lotteryAddress;\r\n        uint256 value;\r\n        uint256 ticketsAmount;\r\n        State state;\r\n        bool won;\r\n        uint256 amountWon;\r\n    }\r\n    mapping(uint256 => participated) participatedList;\r\n\r\n    function participatedByAddress(address _address)\r\n        public\r\n        returns (\r\n            address[] memory,\r\n            uint256[] memory,\r\n            uint256[] memory,\r\n            State[] memory,\r\n            bool[] memory,\r\n            uint256[] memory\r\n        )\r\n    {\r\n        uint256 participatedIndex = 0;\r\n        for (uint256 i = 0; i < lotteries.length; i++) {\r\n            Lottery ltr = lotteries[i];\r\n            address[] memory players = ltr.getPlayers();\r\n            for (uint256 j = 0; j < players.length; j++) {\r\n                if (players[j] == _address) {\r\n                    participated storage par = participatedList[\r\n                        participatedIndex\r\n                    ];\r\n                    par.lotteryAddress = ltr.getContractAddress();\r\n                    par.value = ltr.getContributed(_address);\r\n                    par.ticketsAmount = ltr.getEnteredTicketsByAccount(\r\n                        _address\r\n                    );\r\n                    par.state = ltr.getState();\r\n                    par.won = false;\r\n                    par.amountWon = 0;\r\n\r\n                    for (uint256 k = 0; k < ltr.getNumberOfWinners(); k++) {\r\n                        if (_address == ltr.getWinner(k)) {\r\n                            par.won = true;\r\n                            par.amountWon = ltr.getWinnerAmount(k);\r\n                        }\r\n                    }\r\n                    participatedIndex++;\r\n                }\r\n            }\r\n        }\r\n\r\n        address[] memory addrs = new address[](participatedIndex);\r\n        uint256[] memory funds = new uint256[](participatedIndex);\r\n        uint256[] memory tickets = new uint256[](participatedIndex);\r\n        State[] memory states = new State[](participatedIndex);\r\n        bool[] memory won = new bool[](participatedIndex);\r\n        uint256[] memory amountWon = new uint256[](participatedIndex);\r\n\r\n        for (uint256 i = 0; i < participatedIndex; i++) {\r\n            participated storage pa = participatedList[i];\r\n            addrs[i] = pa.lotteryAddress;\r\n            funds[i] = pa.value;\r\n            tickets[i] = pa.ticketsAmount;\r\n            states[i] = pa.state;\r\n            won[i] = pa.won;\r\n            amountWon[i] = pa.amountWon;\r\n        }\r\n\r\n        return (addrs, funds, tickets, states, won, amountWon);\r\n    }\r\n\r\n    // function getTotalSpent(address _address) external view returns (uint256) {\r\n    //     uint256 totalSpent = 0;\r\n    //     totalSpent = this.getRewardsWonByAddress(_address) - this.getSpentState(_address);\r\n    //     return totalSpent;\r\n    // }\r\n\r\n    function getCreator() public view returns (address) {\r\n        return creator;\r\n    }\r\n\r\n    function getSpentState(address _address) external view returns (uint256) {\r\n        uint256 spent = 0;\r\n\r\n        for (uint256 i = 0; i < lotteries.length; i++) {\r\n            Lottery ltr = lotteries[i];\r\n            spent = spent + uint256(ltr.getContributed(_address));\r\n        }\r\n\r\n        return spent;\r\n    }\r\n\r\n    function getRewardsWonByAddress(address _address)\r\n        external\r\n        view\r\n        returns (uint256)\r\n    {\r\n        uint256 rewardsWon = 0;\r\n\r\n        for (uint256 i = 0; i < lotteries.length; i++) {\r\n            Lottery ltr = lotteries[i];\r\n            rewardsWon =\r\n                uint256(rewardsWon) +\r\n                uint256(ltr.getRewardsByAccount(_address));\r\n        }\r\n        return rewardsWon;\r\n    }\r\n\r\n    event RevealLatestWinners(Winners[] _a);\r\n\r\n    function getLatestWinners() external view returns (Winners[] memory) {\r\n        Lottery[] memory closedLotteries = this.returnClosedProjects();\r\n\r\n        Winners[] memory winners = new Winners[](closedLotteries.length);\r\n        if (closedLotteries.length != 0) {\r\n            for (uint256 i = 0; i < closedLotteries.length; i++) {\r\n                Lottery ltr = closedLotteries[i];\r\n                (uint256[] memory values, address[] memory accounts) = ltr\r\n                    .revealWinners();\r\n                winners[i].values = values;\r\n                winners[i].accounts = accounts;\r\n            }\r\n        }\r\n        return winners;\r\n    }\r\n\r\n    function returnClosedProjects() external view returns (Lottery[] memory) {\r\n        return this.getProjectsByState(State.Closed);\r\n    }\r\n\r\n    function returnOpenProjects() external view returns (Lottery[] memory) {\r\n        return this.getProjectsByState(State.Open);\r\n    }\r\n\r\n    function getProjectsByState(State state)\r\n        external\r\n        view\r\n        returns (Lottery[] memory)\r\n    {\r\n        uint256 count = 0;\r\n        for (uint256 i = 0; i < lotteries.length; i++) {\r\n            Lottery ltr = lotteries[i];\r\n            if (ltr.getState() == state) {\r\n                count++;\r\n            }\r\n        }\r\n        Lottery[] memory ltrs = new Lottery[](count);\r\n        count = 0;\r\n        for (uint256 i = 0; i < lotteries.length; i++) {\r\n            Lottery ltr = lotteries[i];\r\n            if (ltr.getState() == state) {\r\n                ltrs[count] = ltr;\r\n                count++;\r\n            }\r\n        }\r\n        return ltrs;\r\n    }\r\n\r\n    /** @dev Function to get all projects' contract addresses.\r\n     * @return A list of all projects' contract addreses\r\n     */\r\n    function returnAllLotteries() external view returns (Lottery[] memory) {\r\n        return lotteries;\r\n    }\r\n}\r\n\r\ncontract Lottery {\r\n    using SafeMath for uint256;\r\n    // State variables\r\n    address payable public creator;\r\n    uint256 public priceTicket; // required to reach at least this much, else everyone gets refund\r\n    uint256 public created;\r\n    uint256 public currentBalance;\r\n    uint256 public deadline;\r\n    string public title;\r\n    string public description;\r\n    State public state = State.Open; // initialize on create\r\n    mapping(address => uint256) public contributors;\r\n    address[] public players;\r\n    uint256 playersLength;\r\n    uint256 public numberOfWinners;\r\n    uint256[] public rewards;\r\n    uint256 limitTickets;\r\n    address[] public tickets;\r\n\r\n    LotteryBuilder lotteryBuilder;\r\n\r\n    function getDeployerAddress() public view returns (address) {\r\n        return lotteryBuilder.getCreator();\r\n    }\r\n\r\n    struct winner {\r\n        uint256 id;\r\n        uint256 amount;\r\n        address account;\r\n    }\r\n    mapping(uint256 => winner) winners;\r\n    uint256[] public winnerIds;\r\n\r\n    // function createTickets(address data) public {\r\n    //     delete tickets; // This should reset the length to zero\r\n    //     tickets.push(data);\r\n    // }\r\n\r\n    // function pushTicket(address data) public {\r\n    //     tickets.push(data);\r\n    // }\r\n\r\n    // function getTickets() public view returns(address[] memory) {\r\n    //     return tickets;\r\n    // }\r\n    event LotteryStateChanged(State newState);\r\n    event Transfer(address indexed _from, uint256 _value);\r\n\r\n    constructor(\r\n        address payable projectStarter,\r\n        string memory projectTitle,\r\n        string memory projectDesc,\r\n        uint256 deadlineTime,\r\n        uint256 projectTicketPrice,\r\n        uint256 numberWinners,\r\n        uint256[] memory lotteryRewards,\r\n        uint256 lotteryLimitTickets\r\n    ) {\r\n        creator = projectStarter;\r\n        title = projectTitle;\r\n        description = projectDesc;\r\n        priceTicket = projectTicketPrice;\r\n        deadline = deadlineTime;\r\n        currentBalance = 0;\r\n        created = block.timestamp;\r\n        numberOfWinners = numberWinners;\r\n        rewards = lotteryRewards;\r\n        limitTickets = lotteryLimitTickets;\r\n    }\r\n\r\n    function getRewardsByAccount(address _address)\r\n        public\r\n        view\r\n        returns (uint256)\r\n    {\r\n        uint256 rewardsWon = 0;\r\n        for (uint256 i = 0; i < numberOfWinners; i++) {\r\n            winner storage ltWinner = winners[i];\r\n            if (ltWinner.account == _address) {\r\n                rewardsWon = uint256(rewardsWon) + uint256(ltWinner.amount);\r\n            }\r\n        }\r\n        return rewardsWon;\r\n    }\r\n\r\n    function getContractAddress() public view returns (address) {\r\n        return address(this);\r\n    }\r\n\r\n    function getContributed(address _address) public view returns (uint256) {\r\n        return contributors[_address];\r\n    }\r\n\r\n    function getState() public view returns (State) {\r\n        return state;\r\n    }\r\n\r\n    function getWinner(uint256 id) public view returns (address) {\r\n        return winners[id].account;\r\n    }\r\n\r\n    function getWinnerAmount(uint256 id) public view returns (uint256) {\r\n        return winners[id].amount;\r\n    }\r\n\r\n    function buyTicket(uint256 overralPrice, uint256 ticketAmount)\r\n        public\r\n        payable\r\n    {\r\n        require(block.timestamp < deadline, \"The lottery has ended.\");\r\n        require(overralPrice > 0, \"Price must be over 0.\");\r\n\r\n        uint256 ticketsByAcc = this.getEnteredTicketsByAccount(msg.sender) +\r\n            ticketAmount;\r\n        require(\r\n            limitTickets >= ticketsByAcc,\r\n            \"You are getting over the limit ticket.\"\r\n        );\r\n\r\n        contributors[msg.sender] = contributors[msg.sender].add(overralPrice);\r\n        currentBalance = currentBalance.add(overralPrice);\r\n\r\n        for (uint256 i = 0; i < ticketAmount; i++) {\r\n            tickets.push(msg.sender);\r\n        }\r\n\r\n        bool doesPlayerEntered = false;\r\n        for (uint256 i = 0; i < players.length; i++) {\r\n            if (msg.sender == players[i]) {\r\n                doesPlayerEntered = true;\r\n            }\r\n        }\r\n\r\n        if (!doesPlayerEntered) {\r\n            players.push(msg.sender);\r\n        }\r\n\r\n        emit Transfer(msg.sender, overralPrice);\r\n    }\r\n\r\n    function getNumberOfWinners() public view returns (uint256) {\r\n        return numberOfWinners;\r\n    }\r\n\r\n    function getOwner() public view returns (address) {\r\n        return creator;\r\n    }\r\n\r\n    function getEnteredTicketsByAccount(address _address)\r\n        public\r\n        view\r\n        returns (uint256)\r\n    {\r\n        uint256 ticketsByAccount = 0;\r\n        for (uint256 i = 0; i < tickets.length; i++) {\r\n            if (_address == tickets[i]) {\r\n                ticketsByAccount++;\r\n            }\r\n        }\r\n        return ticketsByAccount;\r\n    }\r\n\r\n    function getWinProbabiltyByAccount(address _address)\r\n        public\r\n        view\r\n        returns (uint256)\r\n    {\r\n        // vraciam percenta + navyse 2 desatinimi cislami,\r\n        // kvoli tomu ze v Solidity sa neda pracovat s float\r\n        // na frontende ak vstup predelim 100, dostanem percenta\r\n        // napr 21,58\r\n        return\r\n            (this.getEnteredTicketsByAccount(_address) * 10000) /\r\n            tickets.length;\r\n    }\r\n\r\n    function shuffle(address[] memory roundTickets) private view {\r\n        for (uint256 i = 0; i < roundTickets.length; i++) {\r\n            uint256 n = i +\r\n                (uint256(keccak256(abi.encodePacked(block.timestamp))) %\r\n                    (roundTickets.length - i));\r\n            address temp = roundTickets[n];\r\n            roundTickets[n] = roundTickets[i];\r\n            roundTickets[i] = temp;\r\n        }\r\n    }\r\n\r\n    function random(address[] memory roundTickets)\r\n        private\r\n        view\r\n        returns (uint256)\r\n    {\r\n        return\r\n            uint256(\r\n                keccak256(\r\n                    abi.encodePacked(\r\n                        block.difficulty,\r\n                        block.timestamp,\r\n                        roundTickets\r\n                    )\r\n                )\r\n            );\r\n    }\r\n\r\n    function pickWinner() public payable isCreator {\r\n        require(block.timestamp > deadline, \"Lottery is still open\");\r\n\r\n        uint256 reward;\r\n        currentBalance = address(this).balance;\r\n        uint256 winnersReward = 95;\r\n        uint256 creatorsReward = 5;\r\n        for (uint256 i = 0; i < numberOfWinners; i++) {\r\n            // calculate the REWARD based on draw ROUND\r\n            reward =\r\n                ((uint256(rewards[i]) * currentBalance) / uint256(10000)) *\r\n                uint256(winnersReward);\r\n\r\n            // shuffle tickets in round i\r\n            shuffle(tickets);\r\n\r\n            // get random address from tickets\r\n            uint256 index = random(tickets) % tickets.length;\r\n\r\n            // set the winner properties\r\n            winner storage ltWinner = winners[i];\r\n            ltWinner.account = tickets[index];\r\n            ltWinner.amount = reward;\r\n            winnerIds.push(i);\r\n\r\n            // move out winner tickets\r\n            for (uint256 j = 0; j < tickets.length; j++) {\r\n                if (tickets[j] == ltWinner.account) {\r\n                    deleteUser(j);\r\n                }\r\n            }\r\n\r\n            // send reward to the winner\r\n            payable(ltWinner.account).transfer(reward);\r\n        }\r\n\r\n        // reward for creator 3%\r\n         currentBalance = address(this).balance;\r\n        // reward = ((100 * 3) / creatorsReward) * (currentBalance / 100);\r\n         payable(creator).transfer(currentBalance);\r\n\r\n        // reward for deployer 2%\r\n        //reward = (100*3 / 5) * address(this).balance / 100;\r\n        // payable(getDeployerAddress()).transfer(address(this).balance);\r\n        _changeState(State.Closed);\r\n    }\r\n\r\n    // Modifier to check if the function caller is the project creator\r\n    modifier isCreator() {\r\n        require(\r\n            msg.sender == creator,\r\n            \"Only the contract creator can execute this action.\"\r\n        );\r\n        _;\r\n    }\r\n\r\n    function getPlayers() public view returns (address[] memory) {\r\n        return players;\r\n    }\r\n\r\n    function storno(address sender) public {\r\n        require(block.timestamp < deadline); //is open period\r\n\r\n        uint256 amount = contributors[msg.sender];\r\n        require(amount != 0);\r\n\r\n        payable(sender).transfer(amount); //payment return\r\n    }\r\n\r\n    event LogDeleteUser(address indexed userAddress, uint256 index);\r\n\r\n    function deleteUser(uint256 userIndex) public returns (address index) {\r\n        address toDelete = tickets[userIndex];\r\n        address toMove = tickets[tickets.length - 1];\r\n        uint256 lastIndex = tickets.length - 1;\r\n        while (toMove == toDelete) {\r\n            tickets.pop();\r\n            toMove = tickets[tickets.length - 1];\r\n        }\r\n        swap(userIndex, lastIndex);\r\n        tickets.pop();\r\n\r\n        return toDelete;\r\n    }\r\n\r\n     function swap(uint256 userIndex, uint256 lastIndex) private {\r\n        address toDelete = tickets[userIndex];\r\n        tickets[userIndex] = tickets[lastIndex];\r\n        tickets[lastIndex] = toDelete;\r\n    }\r\n\r\n    function revealWinners()\r\n        public\r\n        view\r\n        returns (uint256[] memory, address[] memory)\r\n    {\r\n        require(\r\n            block.timestamp > deadline,\r\n            \"The winners have not been announced yet.\"\r\n        );\r\n\r\n        address[] memory addrs = new address[](winnerIds.length);\r\n        uint256[] memory amounts = new uint256[](winnerIds.length);\r\n\r\n        for (uint256 i = 0; i < winnerIds.length; i++) {\r\n            winner storage ltWinner = winners[i];\r\n            addrs[i] = ltWinner.account;\r\n            amounts[i] = ltWinner.amount;\r\n        }\r\n        return (amounts, addrs);\r\n    }\r\n\r\n    /** @dev Function to get specific information about the project.\r\n     * @return projectStarter Returns all the project's details\r\n     */\r\n    function getDetails(address account)\r\n        public\r\n        view\r\n        returns (\r\n            address payable projectStarter,\r\n            string memory projectTitle,\r\n            string memory projectDesc,\r\n            uint256 deadlineTime,\r\n            State currentState,\r\n            uint256 currentAmount,\r\n            uint256 ticketPrice,\r\n            uint256 lotteryPlayersLength,\r\n            uint256 lotteryDateCreated,\r\n            uint256[] memory lotteryRewards,\r\n            uint256 purchased\r\n        )\r\n    {\r\n        projectStarter = creator;\r\n        projectTitle = title;\r\n        projectDesc = description;\r\n        deadlineTime = deadline;\r\n        currentState = state;\r\n        currentAmount = currentBalance;\r\n        ticketPrice = priceTicket;\r\n        lotteryPlayersLength = playersLength;\r\n        lotteryDateCreated = created;\r\n        lotteryRewards = rewards;\r\n        purchased = contributors[account];\r\n    }\r\n\r\n    // function purchasedByAddress(address _key) public view returns (uint256) {\r\n    //     return contributors[_key];\r\n    // }\r\n    function _changeState(State _newState) private {\r\n        state = _newState;\r\n        emit LotteryStateChanged(state);\r\n    }\r\n\r\n    function getPlayersDetails()\r\n        public\r\n        view\r\n        returns (\r\n            address[] memory lotteryPlayers,\r\n            address[] memory lotteryTickets\r\n        )\r\n    {\r\n        lotteryPlayers = players;\r\n        lotteryTickets = tickets;\r\n    }\r\n}\r\n",
  "sourcePath": "C:\\fei\\projects\\lottery\\contracts\\Lottery.sol",
  "compiler": {
    "name": "solc",
    "version": "0.7.6+commit.7338295f.Emscripten.clang"
  },
  "schemaVersion": "3.4.4",
  "updatedAt": "2022-04-07T20:43:34.226Z",
  "devdoc": {
    "kind": "dev",
    "methods": {
      "getDetails(address)": {
        "details": "Function to get specific information about the project.",
        "returns": {
          "projectStarter": "Returns all the project's details"
        }
      }
    },
    "version": 1
  },
  "userdoc": {
    "kind": "user",
    "methods": {},
    "version": 1
  }
}