{
  "contractName": "Lottery",
  "abi": [
    {
      "inputs": [
        {
          "internalType": "address payable",
          "name": "projectStarter",
          "type": "address"
        },
        {
          "internalType": "string",
          "name": "projectTitle",
          "type": "string"
        },
        {
          "internalType": "string",
          "name": "projectDesc",
          "type": "string"
        },
        {
          "internalType": "uint256",
          "name": "deadlineTime",
          "type": "uint256"
        },
        {
          "internalType": "uint256",
          "name": "projectTicketPrice",
          "type": "uint256"
        },
        {
          "internalType": "uint256",
          "name": "numberWinners",
          "type": "uint256"
        },
        {
          "internalType": "uint256[]",
          "name": "lotteryRewards",
          "type": "uint256[]"
        },
        {
          "internalType": "uint256",
          "name": "lotteryLimitTickets",
          "type": "uint256"
        }
      ],
      "stateMutability": "nonpayable",
      "type": "constructor"
    },
    {
      "anonymous": false,
      "inputs": [
        {
          "indexed": true,
          "internalType": "address",
          "name": "userAddress",
          "type": "address"
        },
        {
          "indexed": false,
          "internalType": "uint256",
          "name": "index",
          "type": "uint256"
        }
      ],
      "name": "LogDeleteUser",
      "type": "event"
    },
    {
      "anonymous": false,
      "inputs": [
        {
          "indexed": false,
          "internalType": "enum State",
          "name": "newState",
          "type": "uint8"
        }
      ],
      "name": "LotteryStateChanged",
      "type": "event"
    },
    {
      "anonymous": false,
      "inputs": [
        {
          "indexed": true,
          "internalType": "address",
          "name": "_from",
          "type": "address"
        },
        {
          "indexed": false,
          "internalType": "uint256",
          "name": "_value",
          "type": "uint256"
        }
      ],
      "name": "Transfer",
      "type": "event"
    },
    {
      "inputs": [
        {
          "internalType": "address",
          "name": "",
          "type": "address"
        }
      ],
      "name": "contributors",
      "outputs": [
        {
          "internalType": "uint256",
          "name": "",
          "type": "uint256"
        }
      ],
      "stateMutability": "view",
      "type": "function"
    },
    {
      "inputs": [],
      "name": "created",
      "outputs": [
        {
          "internalType": "uint256",
          "name": "",
          "type": "uint256"
        }
      ],
      "stateMutability": "view",
      "type": "function"
    },
    {
      "inputs": [],
      "name": "creator",
      "outputs": [
        {
          "internalType": "address payable",
          "name": "",
          "type": "address"
        }
      ],
      "stateMutability": "view",
      "type": "function"
    },
    {
      "inputs": [],
      "name": "currentBalance",
      "outputs": [
        {
          "internalType": "uint256",
          "name": "",
          "type": "uint256"
        }
      ],
      "stateMutability": "view",
      "type": "function"
    },
    {
      "inputs": [],
      "name": "deadline",
      "outputs": [
        {
          "internalType": "uint256",
          "name": "",
          "type": "uint256"
        }
      ],
      "stateMutability": "view",
      "type": "function"
    },
    {
      "inputs": [],
      "name": "description",
      "outputs": [
        {
          "internalType": "string",
          "name": "",
          "type": "string"
        }
      ],
      "stateMutability": "view",
      "type": "function"
    },
    {
      "inputs": [],
      "name": "numberOfWinners",
      "outputs": [
        {
          "internalType": "uint256",
          "name": "",
          "type": "uint256"
        }
      ],
      "stateMutability": "view",
      "type": "function"
    },
    {
      "inputs": [
        {
          "internalType": "uint256",
          "name": "",
          "type": "uint256"
        }
      ],
      "name": "players",
      "outputs": [
        {
          "internalType": "address",
          "name": "",
          "type": "address"
        }
      ],
      "stateMutability": "view",
      "type": "function"
    },
    {
      "inputs": [],
      "name": "priceTicket",
      "outputs": [
        {
          "internalType": "uint256",
          "name": "",
          "type": "uint256"
        }
      ],
      "stateMutability": "view",
      "type": "function"
    },
    {
      "inputs": [
        {
          "internalType": "uint256",
          "name": "",
          "type": "uint256"
        }
      ],
      "name": "rewards",
      "outputs": [
        {
          "internalType": "uint256",
          "name": "",
          "type": "uint256"
        }
      ],
      "stateMutability": "view",
      "type": "function"
    },
    {
      "inputs": [],
      "name": "state",
      "outputs": [
        {
          "internalType": "enum State",
          "name": "",
          "type": "uint8"
        }
      ],
      "stateMutability": "view",
      "type": "function"
    },
    {
      "inputs": [
        {
          "internalType": "uint256",
          "name": "",
          "type": "uint256"
        }
      ],
      "name": "tickets",
      "outputs": [
        {
          "internalType": "address",
          "name": "",
          "type": "address"
        }
      ],
      "stateMutability": "view",
      "type": "function"
    },
    {
      "inputs": [],
      "name": "title",
      "outputs": [
        {
          "internalType": "string",
          "name": "",
          "type": "string"
        }
      ],
      "stateMutability": "view",
      "type": "function"
    },
    {
      "inputs": [
        {
          "internalType": "uint256",
          "name": "",
          "type": "uint256"
        }
      ],
      "name": "winnerIds",
      "outputs": [
        {
          "internalType": "uint256",
          "name": "",
          "type": "uint256"
        }
      ],
      "stateMutability": "view",
      "type": "function"
    },
    {
      "inputs": [],
      "name": "getDeployerAddress",
      "outputs": [
        {
          "internalType": "address",
          "name": "",
          "type": "address"
        }
      ],
      "stateMutability": "view",
      "type": "function"
    },
    {
      "inputs": [
        {
          "internalType": "address",
          "name": "_address",
          "type": "address"
        }
      ],
      "name": "getRewardsByAccount",
      "outputs": [
        {
          "internalType": "uint256",
          "name": "",
          "type": "uint256"
        }
      ],
      "stateMutability": "view",
      "type": "function"
    },
    {
      "inputs": [],
      "name": "getContractAddress",
      "outputs": [
        {
          "internalType": "address",
          "name": "",
          "type": "address"
        }
      ],
      "stateMutability": "view",
      "type": "function"
    },
    {
      "inputs": [
        {
          "internalType": "address",
          "name": "_address",
          "type": "address"
        }
      ],
      "name": "getContributed",
      "outputs": [
        {
          "internalType": "uint256",
          "name": "",
          "type": "uint256"
        }
      ],
      "stateMutability": "view",
      "type": "function"
    },
    {
      "inputs": [],
      "name": "getState",
      "outputs": [
        {
          "internalType": "enum State",
          "name": "",
          "type": "uint8"
        }
      ],
      "stateMutability": "view",
      "type": "function"
    },
    {
      "inputs": [
        {
          "internalType": "uint256",
          "name": "id",
          "type": "uint256"
        }
      ],
      "name": "getWinner",
      "outputs": [
        {
          "internalType": "address",
          "name": "",
          "type": "address"
        }
      ],
      "stateMutability": "view",
      "type": "function"
    },
    {
      "inputs": [
        {
          "internalType": "uint256",
          "name": "id",
          "type": "uint256"
        }
      ],
      "name": "getWinnerAmount",
      "outputs": [
        {
          "internalType": "uint256",
          "name": "",
          "type": "uint256"
        }
      ],
      "stateMutability": "view",
      "type": "function"
    },
    {
      "inputs": [
        {
          "internalType": "uint256",
          "name": "overralPrice",
          "type": "uint256"
        },
        {
          "internalType": "uint256",
          "name": "ticketAmount",
          "type": "uint256"
        }
      ],
      "name": "buyTicket",
      "outputs": [],
      "stateMutability": "payable",
      "type": "function"
    },
    {
      "inputs": [],
      "name": "getNumberOfWinners",
      "outputs": [
        {
          "internalType": "uint256",
          "name": "",
          "type": "uint256"
        }
      ],
      "stateMutability": "view",
      "type": "function"
    },
    {
      "inputs": [],
      "name": "getOwner",
      "outputs": [
        {
          "internalType": "address",
          "name": "",
          "type": "address"
        }
      ],
      "stateMutability": "view",
      "type": "function"
    },
    {
      "inputs": [
        {
          "internalType": "address",
          "name": "_address",
          "type": "address"
        }
      ],
      "name": "getEnteredTicketsByAccount",
      "outputs": [
        {
          "internalType": "uint256",
          "name": "",
          "type": "uint256"
        }
      ],
      "stateMutability": "view",
      "type": "function"
    },
    {
      "inputs": [
        {
          "internalType": "address",
          "name": "_address",
          "type": "address"
        }
      ],
      "name": "getWinProbabiltyByAccount",
      "outputs": [
        {
          "internalType": "uint256",
          "name": "",
          "type": "uint256"
        }
      ],
      "stateMutability": "view",
      "type": "function"
    },
    {
      "inputs": [],
      "name": "pickWinner",
      "outputs": [],
      "stateMutability": "payable",
      "type": "function"
    },
    {
      "inputs": [],
      "name": "getPlayers",
      "outputs": [
        {
          "internalType": "address[]",
          "name": "",
          "type": "address[]"
        }
      ],
      "stateMutability": "view",
      "type": "function"
    },
    {
      "inputs": [
        {
          "internalType": "address",
          "name": "sender",
          "type": "address"
        }
      ],
      "name": "storno",
      "outputs": [],
      "stateMutability": "nonpayable",
      "type": "function"
    },
    {
      "inputs": [
        {
          "internalType": "uint256",
          "name": "userIndex",
          "type": "uint256"
        }
      ],
      "name": "deleteUser",
      "outputs": [
        {
          "internalType": "address",
          "name": "index",
          "type": "address"
        }
      ],
      "stateMutability": "nonpayable",
      "type": "function"
    },
    {
      "inputs": [],
      "name": "revealWinners",
      "outputs": [
        {
          "internalType": "uint256[]",
          "name": "",
          "type": "uint256[]"
        },
        {
          "internalType": "address[]",
          "name": "",
          "type": "address[]"
        }
      ],
      "stateMutability": "view",
      "type": "function"
    },
    {
      "inputs": [
        {
          "internalType": "address",
          "name": "account",
          "type": "address"
        }
      ],
      "name": "getDetails",
      "outputs": [
        {
          "internalType": "address payable",
          "name": "projectStarter",
          "type": "address"
        },
        {
          "internalType": "string",
          "name": "projectTitle",
          "type": "string"
        },
        {
          "internalType": "string",
          "name": "projectDesc",
          "type": "string"
        },
        {
          "internalType": "uint256",
          "name": "deadlineTime",
          "type": "uint256"
        },
        {
          "internalType": "enum State",
          "name": "currentState",
          "type": "uint8"
        },
        {
          "internalType": "uint256",
          "name": "currentAmount",
          "type": "uint256"
        },
        {
          "internalType": "uint256",
          "name": "ticketPrice",
          "type": "uint256"
        },
        {
          "internalType": "uint256",
          "name": "lotteryPlayersLength",
          "type": "uint256"
        },
        {
          "internalType": "uint256",
          "name": "lotteryDateCreated",
          "type": "uint256"
        },
        {
          "internalType": "uint256[]",
          "name": "lotteryRewards",
          "type": "uint256[]"
        },
        {
          "internalType": "uint256",
          "name": "purchased",
          "type": "uint256"
        }
      ],
      "stateMutability": "view",
      "type": "function"
    },
    {
      "inputs": [],
      "name": "getPlayersDetails",
      "outputs": [
        {
          "internalType": "address[]",
          "name": "lotteryPlayers",
          "type": "address[]"
        },
        {
          "internalType": "address[]",
          "name": "lotteryTickets",
          "type": "address[]"
        }
      ],
      "stateMutability": "view",
      "type": "function"
    }
  ],
  "bytecode": "0x60806040526000600760006101000a81548160ff021916908360028111156200002457fe5b02179055503480156200003657600080fd5b50604051620032673803806200326783398181016040528101906200005c91906200036a565b876000806101000a81548173ffffffffffffffffffffffffffffffffffffffff021916908373ffffffffffffffffffffffffffffffffffffffff1602179055508660059080519060200190620000b492919062000120565b508560069080519060200190620000cd92919062000120565b50836001819055508460048190555060006003819055504260028190555082600b8190555081600c90805190602001906200010a929190620001b7565b5080600d819055505050505050505050620005b8565b828054600181600116156101000203166002900490600052602060002090601f016020900481019282620001585760008555620001a4565b82601f106200017357805160ff1916838001178555620001a4565b82800160010185558215620001a4579182015b82811115620001a357825182559160200191906001019062000186565b5b509050620001b3919062000209565b5090565b828054828255906000526020600020908101928215620001f6579160200282015b82811115620001f5578251825591602001919060010190620001d8565b5b50905062000205919062000209565b5090565b5b80821115620002245760008160009055506001016200020a565b5090565b60006200023f6200023984620004ac565b62000478565b905080838252602082019050828560208602820111156200025f57600080fd5b60005b8581101562000293578162000278888262000353565b84526020840193506020830192505060018101905062000262565b5050509392505050565b6000620002b4620002ae84620004db565b62000478565b905082815260208101848484011115620002cd57600080fd5b620002da8482856200054c565b509392505050565b600081519050620002f38162000584565b92915050565b600082601f8301126200030b57600080fd5b81516200031d84826020860162000228565b91505092915050565b600082601f8301126200033857600080fd5b81516200034a8482602086016200029d565b91505092915050565b60008151905062000364816200059e565b92915050565b600080600080600080600080610100898b0312156200038857600080fd5b6000620003988b828c01620002e2565b985050602089015167ffffffffffffffff811115620003b657600080fd5b620003c48b828c0162000326565b975050604089015167ffffffffffffffff811115620003e257600080fd5b620003f08b828c0162000326565b9650506060620004038b828c0162000353565b9550506080620004168b828c0162000353565b94505060a0620004298b828c0162000353565b93505060c089015167ffffffffffffffff8111156200044757600080fd5b620004558b828c01620002f9565b92505060e0620004688b828c0162000353565b9150509295985092959890939650565b6000604051905081810181811067ffffffffffffffff82111715620004a257620004a162000582565b5b8060405250919050565b600067ffffffffffffffff821115620004ca57620004c962000582565b5b602082029050602081019050919050565b600067ffffffffffffffff821115620004f957620004f862000582565b5b601f19601f8301169050602081019050919050565b60006200051b8262000522565b9050919050565b600073ffffffffffffffffffffffffffffffffffffffff82169050919050565b6000819050919050565b60005b838110156200056c5780820151818401526020810190506200054f565b838111156200057c576000848401525b50505050565bfe5b6200058f816200050e565b81146200059b57600080fd5b50565b620005a98162000542565b8114620005b557600080fd5b50565b612c9f80620005c86000396000f3fe6080604052600436106101ee5760003560e01c806350b447121161010d5780638e33cffc116100a0578063ce845d1d1161006f578063ce845d1d14610737578063e75582a414610762578063f301af421461078b578063f71d96cb146107c8578063f7feb20d14610805576101ee565b80638e33cffc14610678578063952587d6146106a3578063a6a031b9146106cf578063c19d93fb1461070c576101ee565b80637284e416116100dc5780637284e416146105cc578063893d20e8146105f75780638acfaca9146106225780638b5b9ccc1461064d576101ee565b806350b447121461051d5780635d495aea1461055a57806364c1653414610564578063685f9bf51461058f576101ee565b8063325a19f1116101855780634129b2c9116101545780634129b2c91461044c57806344ed63f6146104895780634a79d50c146104b55780634de58efe146104e0576101ee565b8063325a19f11461037c57806332a2c5d0146103a757806338f14845146103d2578063403d13121461040f576101ee565b806324cc2866116101c157806324cc2866146102c3578063298ec208146102ee57806329dcb0cf1461030a57806330289c6114610335576101ee565b806302d05d3f146101f35780630e0b0f431461021e5780631865c57d1461025b5780631f6d494214610286575b600080fd5b3480156101ff57600080fd5b50610208610842565b6040516102159190612812565b60405180910390f35b34801561022a57600080fd5b506102456004803603810190610240919061228c565b610866565b6040516102529190612a7a565b60405180910390f35b34801561026757600080fd5b50610270610908565b60405161027d919061297d565b60405180910390f35b34801561029257600080fd5b506102ad60048036038101906102a8919061228c565b61091f565b6040516102ba9190612a7a565b60405180910390f35b3480156102cf57600080fd5b506102d8610937565b6040516102e591906127dc565b60405180910390f35b61030860048036038101906103039190612330565b6109de565b005b34801561031657600080fd5b5061031f610db1565b60405161032c9190612a7a565b60405180910390f35b34801561034157600080fd5b5061035c6004803603810190610357919061228c565b610db7565b6040516103739b9a9998979695949392919061282d565b60405180910390f35b34801561038857600080fd5b50610391610ff6565b60405161039e9190612a7a565b60405180910390f35b3480156103b357600080fd5b506103bc610ffc565b6040516103c991906127dc565b60405180910390f35b3480156103de57600080fd5b506103f960048036038101906103f491906122de565b611004565b60405161040691906127dc565b60405180910390f35b34801561041b57600080fd5b50610436600480360381019061043191906122de565b61127e565b6040516104439190612a7a565b60405180910390f35b34801561045857600080fd5b50610473600480360381019061046e91906122de565b6112a2565b60405161048091906127dc565b60405180910390f35b34801561049557600080fd5b5061049e6112e2565b6040516104ac92919061290f565b60405180910390f35b3480156104c157600080fd5b506104ca6113fb565b6040516104d79190612998565b60405180910390f35b3480156104ec57600080fd5b506105076004803603810190610502919061228c565b611499565b6040516105149190612a7a565b60405180910390f35b34801561052957600080fd5b50610544600480360381019061053f91906122de565b6114e2565b60405161055191906127dc565b60405180910390f35b610562611521565b005b34801561057057600080fd5b50610579611a4d565b6040516105869190612a7a565b60405180910390f35b34801561059b57600080fd5b506105b660048036038101906105b1919061228c565b611a53565b6040516105c39190612a7a565b60405180910390f35b3480156105d857600080fd5b506105e1611af7565b6040516105ee9190612998565b60405180910390f35b34801561060357600080fd5b5061060c611b95565b60405161061991906127dc565b60405180910390f35b34801561062e57600080fd5b50610637611bbe565b6040516106449190612a7a565b60405180910390f35b34801561065957600080fd5b50610662611bc4565b60405161066f91906128ed565b60405180910390f35b34801561068457600080fd5b5061068d611c52565b60405161069a9190612a7a565b60405180910390f35b3480156106af57600080fd5b506106b8611c5c565b6040516106c6929190612946565b60405180910390f35b3480156106db57600080fd5b506106f660048036038101906106f1919061228c565b611e0d565b6040516107039190612a7a565b60405180910390f35b34801561071857600080fd5b50610721611eb2565b60405161072e919061297d565b60405180910390f35b34801561074357600080fd5b5061074c611ec5565b6040516107599190612a7a565b60405180910390f35b34801561076e57600080fd5b506107896004803603810190610784919061228c565b611ecb565b005b34801561079757600080fd5b506107b260048036038101906107ad91906122de565b611f76565b6040516107bf9190612a7a565b60405180910390f35b3480156107d457600080fd5b506107ef60048036038101906107ea91906122de565b611f9a565b6040516107fc91906127dc565b60405180910390f35b34801561081157600080fd5b5061082c600480360381019061082791906122de565b611fd9565b6040516108399190612a7a565b60405180910390f35b60008054906101000a900473ffffffffffffffffffffffffffffffffffffffff1681565b6000806000905060005b600e805490508110156108fe57600e818154811061088a57fe5b9060005260206000200160009054906101000a900473ffffffffffffffffffffffffffffffffffffffff1673ffffffffffffffffffffffffffffffffffffffff168473ffffffffffffffffffffffffffffffffffffffff1614156108f15781806001019250505b8080600101915050610870565b5080915050919050565b6000600760009054906101000a900460ff16905090565b60086020528060005260406000206000915090505481565b6000600f60009054906101000a900473ffffffffffffffffffffffffffffffffffffffff1673ffffffffffffffffffffffffffffffffffffffff16630ee2cb106040518163ffffffff1660e01b815260040160206040518083038186803b1580156109a157600080fd5b505afa1580156109b5573d6000803e3d6000fd5b505050506040513d601f19601f820116820180604052508101906109d991906122b5565b905090565b6004544210610a22576040517f08c379a0000000000000000000000000000000000000000000000000000000008152600401610a1990612a1a565b60405180910390fd5b60008211610a65576040517f08c379a0000000000000000000000000000000000000000000000000000000008152600401610a5c906129ba565b60405180910390fd5b6000813073ffffffffffffffffffffffffffffffffffffffff16630e0b0f43336040518263ffffffff1660e01b8152600401610aa191906127f7565b60206040518083038186803b158015610ab957600080fd5b505afa158015610acd573d6000803e3d6000fd5b505050506040513d601f19601f82011682018060405250810190610af19190612307565b01905080600d541015610b39576040517f08c379a0000000000000000000000000000000000000000000000000000000008152600401610b3090612a3a565b60405180910390fd5b610b8b83600860003373ffffffffffffffffffffffffffffffffffffffff1673ffffffffffffffffffffffffffffffffffffffff16815260200190815260200160002054611ff990919063ffffffff16565b600860003373ffffffffffffffffffffffffffffffffffffffff1673ffffffffffffffffffffffffffffffffffffffff16815260200190815260200160002081905550610be383600354611ff990919063ffffffff16565b60038190555060005b82811015610c6457600e339080600181540180825580915050600190039060005260206000200160009091909190916101000a81548173ffffffffffffffffffffffffffffffffffffffff021916908373ffffffffffffffffffffffffffffffffffffffff1602179055508080600101915050610bec565b506000805b600980549050811015610cf35760098181548110610c8357fe5b9060005260206000200160009054906101000a900473ffffffffffffffffffffffffffffffffffffffff1673ffffffffffffffffffffffffffffffffffffffff163373ffffffffffffffffffffffffffffffffffffffff161415610ce657600191505b8080600101915050610c69565b5080610d5d576009339080600181540180825580915050600190039060005260206000200160009091909190916101000a81548173ffffffffffffffffffffffffffffffffffffffff021916908373ffffffffffffffffffffffffffffffffffffffff1602179055505b3373ffffffffffffffffffffffffffffffffffffffff167f69ca02dd4edd7bf0a4abb9ed3b7af3f14778db5d61921c7dc7cd545266326de285604051610da39190612a7a565b60405180910390a250505050565b60045481565b6000606080600080600080600080606060008060009054906101000a900473ffffffffffffffffffffffffffffffffffffffff169a5060058054600181600116156101000203166002900480601f016020809104026020016040519081016040528092919081815260200182805460018160011615610100020316600290048015610e835780601f10610e5857610100808354040283529160200191610e83565b820191906000526020600020905b815481529060010190602001808311610e6657829003601f168201915b5050505050995060068054600181600116156101000203166002900480601f016020809104026020016040519081016040528092919081815260200182805460018160011615610100020316600290048015610f205780601f10610ef557610100808354040283529160200191610f20565b820191906000526020600020905b815481529060010190602001808311610f0357829003601f168201915b505050505098506004549750600760009054906101000a900460ff16965060035495506001549450600a5493506002549250600c805480602002602001604051908101604052809291908181526020018280548015610f9e57602002820191906000526020600020905b815481526020019060010190808311610f8a575b50505050509150600860008d73ffffffffffffffffffffffffffffffffffffffff1673ffffffffffffffffffffffffffffffffffffffff16815260200190815260200160002054905091939597999b90929496989a50565b60025481565b600030905090565b600080600e838154811061101457fe5b9060005260206000200160009054906101000a900473ffffffffffffffffffffffffffffffffffffffff1690506000600e6001600e80549050038154811061105857fe5b9060005260206000200160009054906101000a900473ffffffffffffffffffffffffffffffffffffffff1690505b8173ffffffffffffffffffffffffffffffffffffffff168173ffffffffffffffffffffffffffffffffffffffff16141561114157600e8054806110c557fe5b6001900381819060005260206000200160006101000a81549073ffffffffffffffffffffffffffffffffffffffff02191690559055600e6001600e80549050038154811061110f57fe5b9060005260206000200160009054906101000a900473ffffffffffffffffffffffffffffffffffffffff169050611086565b600e6001600e80549050038154811061115657fe5b9060005260206000200160009054906101000a900473ffffffffffffffffffffffffffffffffffffffff16600e858154811061118e57fe5b9060005260206000200160006101000a81548173ffffffffffffffffffffffffffffffffffffffff021916908373ffffffffffffffffffffffffffffffffffffffff16021790555081600e6001600e8054905003815481106111ec57fe5b9060005260206000200160006101000a81548173ffffffffffffffffffffffffffffffffffffffff021916908373ffffffffffffffffffffffffffffffffffffffff160217905550600e80548061123f57fe5b6001900381819060005260206000200160006101000a81549073ffffffffffffffffffffffffffffffffffffffff021916905590558192505050919050565b6011818154811061128e57600080fd5b906000526020600020016000915090505481565b60006010600083815260200190815260200160002060020160009054906101000a900473ffffffffffffffffffffffffffffffffffffffff169050919050565b606080600980548060200260200160405190810160405280929190818152602001828054801561136757602002820191906000526020600020905b8160009054906101000a900473ffffffffffffffffffffffffffffffffffffffff1673ffffffffffffffffffffffffffffffffffffffff168152602001906001019080831161131d575b50505050509150600e8054806020026020016040519081016040528092919081815260200182805480156113f057602002820191906000526020600020905b8160009054906101000a900473ffffffffffffffffffffffffffffffffffffffff1673ffffffffffffffffffffffffffffffffffffffff16815260200190600101908083116113a6575b505050505090509091565b60058054600181600116156101000203166002900480601f0160208091040260200160405190810160405280929190818152602001828054600181600116156101000203166002900480156114915780601f1061146657610100808354040283529160200191611491565b820191906000526020600020905b81548152906001019060200180831161147457829003601f168201915b505050505081565b6000600860008373ffffffffffffffffffffffffffffffffffffffff1673ffffffffffffffffffffffffffffffffffffffff168152602001908152602001600020549050919050565b600e81815481106114f257600080fd5b906000526020600020016000915054906101000a900473ffffffffffffffffffffffffffffffffffffffff1681565b60008054906101000a900473ffffffffffffffffffffffffffffffffffffffff1673ffffffffffffffffffffffffffffffffffffffff163373ffffffffffffffffffffffffffffffffffffffff16146115af576040517f08c379a00000000000000000000000000000000000000000000000000000000081526004016115a6906129da565b60405180910390fd5b60045442116115f3576040517f08c379a00000000000000000000000000000000000000000000000000000000081526004016115ea906129fa565b60405180910390fd5b6000476003819055506000605f905060006005905060005b600b548110156119655782612710600354600c848154811061162957fe5b9060005260206000200154028161163c57fe5b040293506116cf600e8054806020026020016040519081016040528092919081815260200182805480156116c557602002820191906000526020600020905b8160009054906101000a900473ffffffffffffffffffffffffffffffffffffffff1673ffffffffffffffffffffffffffffffffffffffff168152602001906001019080831161167b575b5050505050612081565b6000600e80549050611766600e80548060200260200160405190810160405280929190818152602001828054801561175c57602002820191906000526020600020905b8160009054906101000a900473ffffffffffffffffffffffffffffffffffffffff1673ffffffffffffffffffffffffffffffffffffffff1681526020019060010190808311611712575b5050505050612195565b8161176d57fe5b0690506000601060008481526020019081526020016000209050600e828154811061179457fe5b9060005260206000200160009054906101000a900473ffffffffffffffffffffffffffffffffffffffff168160020160006101000a81548173ffffffffffffffffffffffffffffffffffffffff021916908373ffffffffffffffffffffffffffffffffffffffff160217905550858160010181905550601183908060018154018082558091505060019003906000526020600020016000909190919091505560005b600e805490508110156118ea578160020160009054906101000a900473ffffffffffffffffffffffffffffffffffffffff1673ffffffffffffffffffffffffffffffffffffffff16600e828154811061188b57fe5b9060005260206000200160009054906101000a900473ffffffffffffffffffffffffffffffffffffffff1673ffffffffffffffffffffffffffffffffffffffff1614156118dd576118db81611004565b505b8080600101915050611836565b508060020160009054906101000a900473ffffffffffffffffffffffffffffffffffffffff1673ffffffffffffffffffffffffffffffffffffffff166108fc879081150290604051600060405180830381858888f19350505050158015611955573d6000803e3d6000fd5b505050808060010191505061160b565b504760038190555060646003548161197957fe5b048161012c8161198557fe5b0402925060008054906101000a900473ffffffffffffffffffffffffffffffffffffffff1673ffffffffffffffffffffffffffffffffffffffff166108fc849081150290604051600060405180830381858888f193505050501580156119ef573d6000803e3d6000fd5b506119f8610937565b73ffffffffffffffffffffffffffffffffffffffff166108fc479081150290604051600060405180830381858888f19350505050158015611a3d573d6000803e3d6000fd5b50611a4860016121cc565b505050565b60015481565b6000600e805490506127103073ffffffffffffffffffffffffffffffffffffffff16630e0b0f43856040518263ffffffff1660e01b8152600401611a9791906127dc565b60206040518083038186803b158015611aaf57600080fd5b505afa158015611ac3573d6000803e3d6000fd5b505050506040513d601f19601f82011682018060405250810190611ae79190612307565b0281611aef57fe5b049050919050565b60068054600181600116156101000203166002900480601f016020809104026020016040519081016040528092919081815260200182805460018160011615610100020316600290048015611b8d5780601f10611b6257610100808354040283529160200191611b8d565b820191906000526020600020905b815481529060010190602001808311611b7057829003601f168201915b505050505081565b60008060009054906101000a900473ffffffffffffffffffffffffffffffffffffffff16905090565b600b5481565b60606009805480602002602001604051908101604052809291908181526020018280548015611c4857602002820191906000526020600020905b8160009054906101000a900473ffffffffffffffffffffffffffffffffffffffff1673ffffffffffffffffffffffffffffffffffffffff1681526020019060010190808311611bfe575b5050505050905090565b6000600b54905090565b6060806004544211611ca3576040517f08c379a0000000000000000000000000000000000000000000000000000000008152600401611c9a90612a5a565b60405180910390fd5b600060118054905067ffffffffffffffff81118015611cc157600080fd5b50604051908082528060200260200182016040528015611cf05781602001602082028036833780820191505090505b509050600060118054905067ffffffffffffffff81118015611d1157600080fd5b50604051908082528060200260200182016040528015611d405781602001602082028036833780820191505090505b50905060005b601180549050811015611e005760006010600083815260200190815260200160002090508060020160009054906101000a900473ffffffffffffffffffffffffffffffffffffffff16848381518110611d9b57fe5b602002602001019073ffffffffffffffffffffffffffffffffffffffff16908173ffffffffffffffffffffffffffffffffffffffff16815250508060010154838381518110611de657fe5b602002602001018181525050508080600101915050611d46565b5080829350935050509091565b6000806000905060005b600b54811015611ea85760006010600083815260200190815260200160002090508473ffffffffffffffffffffffffffffffffffffffff168160020160009054906101000a900473ffffffffffffffffffffffffffffffffffffffff1673ffffffffffffffffffffffffffffffffffffffff161415611e9a578060010154830192505b508080600101915050611e17565b5080915050919050565b600760009054906101000a900460ff1681565b60035481565b6004544210611ed957600080fd5b6000600860003373ffffffffffffffffffffffffffffffffffffffff1673ffffffffffffffffffffffffffffffffffffffff1681526020019081526020016000205490506000811415611f2b57600080fd5b8173ffffffffffffffffffffffffffffffffffffffff166108fc829081150290604051600060405180830381858888f19350505050158015611f71573d6000803e3d6000fd5b505050565b600c8181548110611f8657600080fd5b906000526020600020016000915090505481565b60098181548110611faa57600080fd5b906000526020600020016000915054906101000a900473ffffffffffffffffffffffffffffffffffffffff1681565b600060106000838152602001908152602001600020600101549050919050565b600080828401905083811015612077576040517f08c379a000000000000000000000000000000000000000000000000000000000815260040180806020018281038252601b8152602001807f536166654d6174683a206164646974696f6e206f766572666c6f77000000000081525060200191505060405180910390fd5b8091505092915050565b60005b815181101561219157600081835103426040516020016120a49190612788565b6040516020818303038152906040528051906020012060001c816120c457fe5b068201905060008382815181106120d757fe5b602002602001015190508383815181106120ed57fe5b602002602001015184838151811061210157fe5b602002602001019073ffffffffffffffffffffffffffffffffffffffff16908173ffffffffffffffffffffffffffffffffffffffff16815250508084848151811061214857fe5b602002602001019073ffffffffffffffffffffffffffffffffffffffff16908173ffffffffffffffffffffffffffffffffffffffff168152505050508080600101915050612084565b5050565b60004442836040516020016121ac939291906127a3565b6040516020818303038152906040528051906020012060001c9050919050565b80600760006101000a81548160ff021916908360028111156121ea57fe5b02179055507f1e046fdd2110d82ed3fa7652b41ced17c49cbb9ee4536e65f51ad2a6ed5359a7600760009054906101000a900460ff1660405161222d919061297d565b60405180910390a150565b60008135905061224781612c3b565b92915050565b60008151905061225c81612c3b565b92915050565b60008135905061227181612c52565b92915050565b60008151905061228681612c52565b92915050565b60006020828403121561229e57600080fd5b60006122ac84828501612238565b91505092915050565b6000602082840312156122c757600080fd5b60006122d58482850161224d565b91505092915050565b6000602082840312156122f057600080fd5b60006122fe84828501612262565b91505092915050565b60006020828403121561231957600080fd5b600061232784828501612277565b91505092915050565b6000806040838503121561234357600080fd5b600061235185828601612262565b925050602061236285828601612262565b9150509250929050565b600061237883836123d2565b60208301905092915050565b600061239083836123f0565b60208301905092915050565b60006123a88383612753565b60208301905092915050565b6123bd81612b8f565b82525050565b6123cc81612b40565b82525050565b6123db81612b2e565b82525050565b6123ea81612b2e565b82525050565b6123f981612b2e565b82525050565b600061240a82612ab5565b6124148185612af0565b935061241f83612a95565b8060005b83811015612450578151612437888261236c565b975061244283612ad6565b925050600181019050612423565b5085935050505092915050565b600061246882612ab5565b6124728185612b01565b935061247d83612a95565b8060005b838110156124ae5781516124958882612384565b97506124a083612ad6565b925050600181019050612481565b5085935050505092915050565b60006124c682612ac0565b6124d08185612b0c565b93506124db83612aa5565b8060005b8381101561250c5781516124f3888261239c565b97506124fe83612ae3565b9250506001810190506124df565b5085935050505092915050565b61252281612ba1565b82525050565b600061253382612acb565b61253d8185612b1d565b935061254d818560208601612bd7565b61255681612c16565b840191505092915050565b600061256e601583612b1d565b91507f5072696365206d757374206265206f76657220302e00000000000000000000006000830152602082019050919050565b60006125ae603283612b1d565b91507f4f6e6c792074686520636f6e74726163742063726561746f722063616e20657860008301527f6563757465207468697320616374696f6e2e00000000000000000000000000006020830152604082019050919050565b6000612614601583612b1d565b91507f4c6f7474657279206973207374696c6c206f70656e00000000000000000000006000830152602082019050919050565b6000612654601683612b1d565b91507f546865206c6f74746572792068617320656e6465642e000000000000000000006000830152602082019050919050565b6000612694602683612b1d565b91507f596f75206172652067657474696e67206f76657220746865206c696d6974207460008301527f69636b65742e00000000000000000000000000000000000000000000000000006020830152604082019050919050565b60006126fa602883612b1d565b91507f5468652077696e6e6572732068617665206e6f74206265656e20616e6e6f756e60008301527f636564207965742e0000000000000000000000000000000000000000000000006020830152604082019050919050565b61275c81612b85565b82525050565b61276b81612b85565b82525050565b61278261277d82612b85565b612c0a565b82525050565b60006127948284612771565b60208201915081905092915050565b60006127af8286612771565b6020820191506127bf8285612771565b6020820191506127cf828461245d565b9150819050949350505050565b60006020820190506127f160008301846123e1565b92915050565b600060208201905061280c60008301846123b4565b92915050565b600060208201905061282760008301846123c3565b92915050565b600061016082019050612843600083018e6123c3565b8181036020830152612855818d612528565b90508181036040830152612869818c612528565b9050612878606083018b612762565b612885608083018a612519565b61289260a0830189612762565b61289f60c0830188612762565b6128ac60e0830187612762565b6128ba610100830186612762565b8181036101208301526128cd81856124bb565b90506128dd610140830184612762565b9c9b505050505050505050505050565b6000602082019050818103600083015261290781846123ff565b905092915050565b6000604082019050818103600083015261292981856123ff565b9050818103602083015261293d81846123ff565b90509392505050565b6000604082019050818103600083015261296081856124bb565b9050818103602083015261297481846123ff565b90509392505050565b60006020820190506129926000830184612519565b92915050565b600060208201905081810360008301526129b28184612528565b905092915050565b600060208201905081810360008301526129d381612561565b9050919050565b600060208201905081810360008301526129f3816125a1565b9050919050565b60006020820190508181036000830152612a1381612607565b9050919050565b60006020820190508181036000830152612a3381612647565b9050919050565b60006020820190508181036000830152612a5381612687565b9050919050565b60006020820190508181036000830152612a73816126ed565b9050919050565b6000602082019050612a8f6000830184612762565b92915050565b6000819050602082019050919050565b6000819050602082019050919050565b600081519050919050565b600081519050919050565b600081519050919050565b6000602082019050919050565b6000602082019050919050565b600082825260208201905092915050565b600081905092915050565b600082825260208201905092915050565b600082825260208201905092915050565b6000612b3982612b65565b9050919050565b6000612b4b82612b65565b9050919050565b6000819050612b6082612c27565b919050565b600073ffffffffffffffffffffffffffffffffffffffff82169050919050565b6000819050919050565b6000612b9a82612bb3565b9050919050565b6000612bac82612b52565b9050919050565b6000612bbe82612bc5565b9050919050565b6000612bd082612b65565b9050919050565b60005b83811015612bf5578082015181840152602081019050612bda565b83811115612c04576000848401525b50505050565b6000819050919050565bfe5b6000601f19601f8301169050919050565b60038110612c3857612c37612c14565b5b50565b612c4481612b2e565b8114612c4f57600080fd5b50565b612c5b81612b85565b8114612c6657600080fd5b5056fea26469706673582212201f1479d36ad932bcab4c7bad45d9b3e5570cfb85e48f10b99cdcd8ed5eb3cd5964736f6c63430007060033",
  "immutableReferences": {},
  "source": "// SPDX-License-Identifier: MIT\npragma solidity ^0.7.0;\nimport \"../node_modules/@openzeppelin/contracts/math/SafeMath.sol\";\npragma experimental ABIEncoderV2;\nimport \"@openzeppelin/contracts/access/Ownable.sol\";\n\nenum State {\n    Open,\n    Closed,\n    Suspended\n}\n\ncontract LotteryBuilder {\n    using SafeMath for uint256;\n\n    // List of existing projects\n    Lottery[] private lotteries;\n    address payable creator;\n\n    constructor(address payable deployer) {\n        creator = deployer;\n    }\n\n    // Event that will be emitted whenever a new project is started\n    event ProjectStarted(\n        address contractAddress,\n        address projectStarter,\n        string projectTitle,\n        string projectDesc,\n        uint256 deadline,\n        uint256 ticketPrice,\n        uint256 numberWinners,\n        uint256[] rewards,\n        uint256 limitTickets\n    );\n\n    /** @dev Function to start a new project.\n     * @param title Title of the project to be created\n     * @param description Brief description about the project\n     * @param deadlineDate Project deadline in days\n     * @param ticketPrice Project goal in wei\n     */\n    function startProject(\n        address payable owner,\n        string calldata title,\n        string calldata description,\n        uint256 deadlineDate,\n        uint256 ticketPrice,\n        uint256 numberWinners,\n        uint256[] calldata rewards,\n        uint256 limitTickets\n    ) external {\n        uint256 raiseUntil = deadlineDate;\n        Lottery newProject = new Lottery(\n            owner,\n            title,\n            description,\n            raiseUntil,\n            ticketPrice,\n            numberWinners,\n            rewards,\n            limitTickets\n        );\n        lotteries.push(newProject);\n        emit ProjectStarted(\n            address(newProject),\n            owner,\n            title,\n            description,\n            raiseUntil,\n            ticketPrice,\n            numberWinners,\n            rewards,\n            limitTickets\n        );\n    }\n\n    struct Winners {\n        uint256[] values;\n        address[] accounts;\n    }\n    mapping(uint256 => Winners) allWinners;\n\n    struct participated {\n        address lotteryAddress;\n        uint256 value;\n        uint256 ticketsAmount;\n        State state;\n        bool won;\n        uint256 amountWon;\n    }\n    mapping(uint256 => participated) participatedList;\n\n    function participatedByAddress(address _address)\n        public\n        returns (\n            address[] memory,\n            uint256[] memory,\n            uint256[] memory,\n            State[] memory,\n            bool[] memory,\n            uint256[] memory\n        )\n    {\n        uint256 participatedIndex = 0;\n        for (uint256 i = 0; i < lotteries.length; i++) {\n            Lottery ltr = lotteries[i];\n            address[] memory players = ltr.getPlayers();\n            for (uint256 j = 0; j < players.length; j++) {\n                if (players[j] == _address) {\n                    participated storage par = participatedList[\n                        participatedIndex\n                    ];\n                    par.lotteryAddress = ltr.getContractAddress();\n                    par.value = ltr.getContributed(_address);\n                    par.ticketsAmount = ltr.getEnteredTicketsByAccount(\n                        _address\n                    );\n                    par.state = ltr.getState();\n                    par.won = false;\n                    par.amountWon = 0;\n\n                    for (uint256 k = 0; k < ltr.getNumberOfWinners(); k++) {\n                        if (_address == ltr.getWinner(k)) {\n                            par.won = true;\n                            par.amountWon = ltr.getWinnerAmount(k);\n                        }\n                    }\n                    participatedIndex++;\n                }\n            }\n        }\n\n        address[] memory addrs = new address[](participatedIndex);\n        uint256[] memory funds = new uint256[](participatedIndex);\n        uint256[] memory tickets = new uint256[](participatedIndex);\n        State[] memory states = new State[](participatedIndex);\n        bool[] memory won = new bool[](participatedIndex);\n        uint256[] memory amountWon = new uint256[](participatedIndex);\n\n        for (uint256 i = 0; i < participatedIndex; i++) {\n            participated storage pa = participatedList[i];\n            addrs[i] = pa.lotteryAddress;\n            funds[i] = pa.value;\n            tickets[i] = pa.ticketsAmount;\n            states[i] = pa.state;\n            won[i] = pa.won;\n            amountWon[i] = pa.amountWon;\n        }\n\n        return (addrs, funds, tickets, states, won, amountWon);\n    }\n\n    // function getTotalSpent(address _address) external view returns (uint256) {\n    //     uint256 totalSpent = 0;\n    //     totalSpent = this.getRewardsWonByAddress(_address) - this.getSpentState(_address);\n    //     return totalSpent;\n    // }\n\n    function getCreator() public view returns (address) {\n        return creator;\n    }\n\n    function getSpentState(address _address) external view returns (uint256) {\n        uint256 spent = 0;\n\n        for (uint256 i = 0; i < lotteries.length; i++) {\n            Lottery ltr = lotteries[i];\n            spent = spent + uint256(ltr.getContributed(_address));\n        }\n\n        return spent;\n    }\n\n    function getRewardsWonByAddress(address _address)\n        external\n        view\n        returns (uint256)\n    {\n        uint256 rewardsWon = 0;\n\n        for (uint256 i = 0; i < lotteries.length; i++) {\n            Lottery ltr = lotteries[i];\n            rewardsWon =\n                uint256(rewardsWon) +\n                uint256(ltr.getRewardsByAccount(_address));\n        }\n        return rewardsWon;\n    }\n\n    event RevealLatestWinners(Winners[] _a);\n\n    function getLatestWinners() external view returns (Winners[] memory) {\n        Lottery[] memory closedLotteries = this.returnClosedProjects();\n\n        Winners[] memory winners = new Winners[](closedLotteries.length);\n        if (closedLotteries.length != 0) {\n            for (uint256 i = 0; i < closedLotteries.length; i++) {\n                Lottery ltr = closedLotteries[i];\n                (uint256[] memory values, address[] memory accounts) = ltr\n                    .revealWinners();\n                winners[i].values = values;\n                winners[i].accounts = accounts;\n            }\n        }\n        return winners;\n    }\n\n    function returnClosedProjects() external view returns (Lottery[] memory) {\n        return this.getProjectsByState(State.Closed);\n    }\n\n    function returnOpenProjects() external view returns (Lottery[] memory) {\n        return this.getProjectsByState(State.Open);\n    }\n\n    function getProjectsByState(State state)\n        external\n        view\n        returns (Lottery[] memory)\n    {\n        uint256 count = 0;\n        for (uint256 i = 0; i < lotteries.length; i++) {\n            Lottery ltr = lotteries[i];\n            if (ltr.getState() == state) {\n                count++;\n            }\n        }\n        Lottery[] memory ltrs = new Lottery[](count);\n        count = 0;\n        for (uint256 i = 0; i < lotteries.length; i++) {\n            Lottery ltr = lotteries[i];\n            if (ltr.getState() == state) {\n                ltrs[count] = ltr;\n                count++;\n            }\n        }\n        return ltrs;\n    }\n\n    /** @dev Function to get all projects' contract addresses.\n     * @return A list of all projects' contract addreses\n     */\n    function returnAllLotteries() external view returns (Lottery[] memory) {\n        return lotteries;\n    }\n}\n\ncontract Lottery {\n    using SafeMath for uint256;\n    // State variables\n    address payable public creator;\n    uint256 public priceTicket; // required to reach at least this much, else everyone gets refund\n    uint256 public created;\n    uint256 public currentBalance;\n    uint256 public deadline;\n    string public title;\n    string public description;\n    State public state = State.Open; // initialize on create\n    mapping(address => uint256) public contributors;\n    address[] public players;\n    uint256 playersLength;\n    uint256 public numberOfWinners;\n    uint256[] public rewards;\n    uint256 limitTickets;\n    address[] public tickets;\n\n    LotteryBuilder lotteryBuilder;\n\n    function getDeployerAddress() public view returns (address) {\n        return lotteryBuilder.getCreator();\n    }\n\n    struct winner {\n        uint256 id;\n        uint256 amount;\n        address account;\n    }\n    mapping(uint256 => winner) winners;\n    uint256[] public winnerIds;\n\n    // function createTickets(address data) public {\n    //     delete tickets; // This should reset the length to zero\n    //     tickets.push(data);\n    // }\n\n    // function pushTicket(address data) public {\n    //     tickets.push(data);\n    // }\n\n    // function getTickets() public view returns(address[] memory) {\n    //     return tickets;\n    // }\n    event LotteryStateChanged(State newState);\n    event Transfer(address indexed _from, uint256 _value);\n\n    constructor(\n        address payable projectStarter,\n        string memory projectTitle,\n        string memory projectDesc,\n        uint256 deadlineTime,\n        uint256 projectTicketPrice,\n        uint256 numberWinners,\n        uint256[] memory lotteryRewards,\n        uint256 lotteryLimitTickets\n    ) {\n        creator = projectStarter;\n        title = projectTitle;\n        description = projectDesc;\n        priceTicket = projectTicketPrice;\n        deadline = deadlineTime;\n        currentBalance = 0;\n        created = block.timestamp;\n        numberOfWinners = numberWinners;\n        rewards = lotteryRewards;\n        limitTickets = lotteryLimitTickets;\n    }\n\n    function getRewardsByAccount(address _address)\n        public\n        view\n        returns (uint256)\n    {\n        uint256 rewardsWon = 0;\n        for (uint256 i = 0; i < numberOfWinners; i++) {\n            winner storage ltWinner = winners[i];\n            if (ltWinner.account == _address) {\n                rewardsWon = uint256(rewardsWon) + uint256(ltWinner.amount);\n            }\n        }\n        return rewardsWon;\n    }\n\n    function getContractAddress() public view returns (address) {\n        return address(this);\n    }\n\n    function getContributed(address _address) public view returns (uint256) {\n        return contributors[_address];\n    }\n\n    function getState() public view returns (State) {\n        return state;\n    }\n\n    function getWinner(uint256 id) public view returns (address) {\n        return winners[id].account;\n    }\n\n    function getWinnerAmount(uint256 id) public view returns (uint256) {\n        return winners[id].amount;\n    }\n\n    function buyTicket(uint256 overralPrice, uint256 ticketAmount)\n        public\n        payable\n    {\n        require(block.timestamp < deadline, \"The lottery has ended.\");\n        require(overralPrice > 0, \"Price must be over 0.\");\n\n        uint256 ticketsByAcc = this.getEnteredTicketsByAccount(msg.sender) +\n            ticketAmount;\n        require(\n            limitTickets >= ticketsByAcc,\n            \"You are getting over the limit ticket.\"\n        );\n\n        contributors[msg.sender] = contributors[msg.sender].add(overralPrice);\n        currentBalance = currentBalance.add(overralPrice);\n\n        for (uint256 i = 0; i < ticketAmount; i++) {\n            tickets.push(msg.sender);\n        }\n\n        bool doesPlayerEntered = false;\n        for (uint256 i = 0; i < players.length; i++) {\n            if (msg.sender == players[i]) {\n                doesPlayerEntered = true;\n            }\n        }\n\n        if (!doesPlayerEntered) {\n            players.push(msg.sender);\n        }\n\n        emit Transfer(msg.sender, overralPrice);\n    }\n\n    function getNumberOfWinners() public view returns (uint256) {\n        return numberOfWinners;\n    }\n\n    function getOwner() public view returns (address) {\n        return creator;\n    }\n\n    function getEnteredTicketsByAccount(address _address)\n        public\n        view\n        returns (uint256)\n    {\n        uint256 ticketsByAccount = 0;\n        for (uint256 i = 0; i < tickets.length; i++) {\n            if (_address == tickets[i]) {\n                ticketsByAccount++;\n            }\n        }\n        return ticketsByAccount;\n    }\n\n    function getWinProbabiltyByAccount(address _address)\n        public\n        view\n        returns (uint256)\n    {\n        // vraciam percenta + navyse 2 desatinimi cislami,\n        // kvoli tomu ze v Solidity sa neda pracovat s float\n        // na frontende ak vstup predelim 100, dostanem percenta\n        // napr 21,58\n        return\n            (this.getEnteredTicketsByAccount(_address) * 10000) /\n            tickets.length;\n    }\n\n    function shuffle(address[] memory roundTickets) private view {\n        for (uint256 i = 0; i < roundTickets.length; i++) {\n            uint256 n = i +\n                (uint256(keccak256(abi.encodePacked(block.timestamp))) %\n                    (roundTickets.length - i));\n            address temp = roundTickets[n];\n            roundTickets[n] = roundTickets[i];\n            roundTickets[i] = temp;\n        }\n    }\n\n    function random(address[] memory roundTickets)\n        private\n        view\n        returns (uint256)\n    {\n        return\n            uint256(\n                keccak256(\n                    abi.encodePacked(\n                        block.difficulty,\n                        block.timestamp,\n                        roundTickets\n                    )\n                )\n            );\n    }\n\n    function pickWinner() public payable isCreator {\n        require(block.timestamp > deadline, \"Lottery is still open\");\n\n        uint256 reward;\n        currentBalance = address(this).balance;\n        uint256 winnersReward = 95;\n        uint256 creatorsReward = 5;\n        for (uint256 i = 0; i < numberOfWinners; i++) {\n            // calculate the REWARD based on draw ROUND\n            reward =\n                ((uint256(rewards[i]) * currentBalance) / uint256(10000)) *\n                uint256(winnersReward);\n\n            // shuffle tickets in round i\n            shuffle(tickets);\n\n            // get random address from tickets\n            uint256 index = random(tickets) % tickets.length;\n\n            // set the winner properties\n            winner storage ltWinner = winners[i];\n            ltWinner.account = tickets[index];\n            ltWinner.amount = reward;\n            winnerIds.push(i);\n\n            // move out winner tickets\n            for (uint256 j = 0; j < tickets.length; j++) {\n                if (tickets[j] == ltWinner.account) {\n                    deleteUser(j);\n                }\n            }\n\n            // send reward to the winner\n            payable(ltWinner.account).transfer(reward);\n        }\n\n        // reward for creator 3%\n        currentBalance = address(this).balance;\n        reward = ((100 * 3) / creatorsReward) * (currentBalance / 100);\n        payable(creator).transfer(reward);\n\n        // reward for deployer 2%\n        //reward = (100*3 / 5) * address(this).balance / 100;\n        payable(getDeployerAddress()).transfer(address(this).balance);\n        _changeState(State.Closed);\n    }\n\n    // Modifier to check if the function caller is the project creator\n    modifier isCreator() {\n        require(\n            msg.sender == creator,\n            \"Only the contract creator can execute this action.\"\n        );\n        _;\n    }\n\n    function getPlayers() public view returns (address[] memory) {\n        return players;\n    }\n\n    function storno(address sender) public {\n        require(block.timestamp < deadline); //is open period\n\n        uint256 amount = contributors[msg.sender];\n        require(amount != 0);\n\n        payable(sender).transfer(amount); //payment return\n    }\n\n    event LogDeleteUser(address indexed userAddress, uint256 index);\n\n    function deleteUser(uint256 userIndex) public returns (address index) {\n        address rowToDelete = tickets[userIndex];\n        address rowToMove = tickets[tickets.length - 1];\n        while (rowToMove == rowToDelete) {\n            tickets.pop();\n            rowToMove = tickets[tickets.length - 1];\n        }\n        tickets[userIndex] = tickets[tickets.length - 1];\n        tickets[tickets.length - 1] = rowToDelete;\n        tickets.pop();\n\n        return rowToDelete;\n    }\n\n    function revealWinners()\n        public\n        view\n        returns (uint256[] memory, address[] memory)\n    {\n        require(\n            block.timestamp > deadline,\n            \"The winners have not been announced yet.\"\n        );\n\n        address[] memory addrs = new address[](winnerIds.length);\n        uint256[] memory amounts = new uint256[](winnerIds.length);\n\n        for (uint256 i = 0; i < winnerIds.length; i++) {\n            winner storage ltWinner = winners[i];\n            addrs[i] = ltWinner.account;\n            amounts[i] = ltWinner.amount;\n        }\n        return (amounts, addrs);\n    }\n\n    /** @dev Function to get specific information about the project.\n     * @return projectStarter Returns all the project's details\n     */\n    function getDetails(address account)\n        public\n        view\n        returns (\n            address payable projectStarter,\n            string memory projectTitle,\n            string memory projectDesc,\n            uint256 deadlineTime,\n            State currentState,\n            uint256 currentAmount,\n            uint256 ticketPrice,\n            uint256 lotteryPlayersLength,\n            uint256 lotteryDateCreated,\n            uint256[] memory lotteryRewards,\n            uint256 purchased\n        )\n    {\n        projectStarter = creator;\n        projectTitle = title;\n        projectDesc = description;\n        deadlineTime = deadline;\n        currentState = state;\n        currentAmount = currentBalance;\n        ticketPrice = priceTicket;\n        lotteryPlayersLength = playersLength;\n        lotteryDateCreated = created;\n        lotteryRewards = rewards;\n        purchased = contributors[account];\n    }\n\n    // function purchasedByAddress(address _key) public view returns (uint256) {\n    //     return contributors[_key];\n    // }\n    function _changeState(State _newState) private {\n        state = _newState;\n        emit LotteryStateChanged(state);\n    }\n\n    function getPlayersDetails()\n        public\n        view\n        returns (\n            address[] memory lotteryPlayers,\n            address[] memory lotteryTickets\n        )\n    {\n        lotteryPlayers = players;\n        lotteryTickets = tickets;\n    }\n}\n",
  "sourcePath": "/Users/jakub/Documents/Skola/lottery/contracts/Lottery.sol",
  "compiler": {
    "name": "solc",
    "version": "0.7.6+commit.7338295f.Emscripten.clang"
  },
  "schemaVersion": "3.4.4",
  "updatedAt": "2022-04-06T12:15:19.523Z",
  "devdoc": {
    "kind": "dev",
    "methods": {
      "getDetails(address)": {
        "details": "Function to get specific information about the project.",
        "returns": {
          "projectStarter": "Returns all the project's details"
        }
      }
    },
    "version": 1
  },
  "userdoc": {
    "kind": "user",
    "methods": {},
    "version": 1
  }
}