{
  "contractName": "LotteryBuilder",
  "abi": [
    {
      "inputs": [],
      "stateMutability": "nonpayable",
      "type": "constructor"
    },
    {
      "anonymous": false,
      "inputs": [
        {
          "indexed": false,
          "internalType": "address",
          "name": "contractAddress",
          "type": "address"
        },
        {
          "indexed": false,
          "internalType": "address",
          "name": "deployer",
          "type": "address"
        },
        {
          "indexed": false,
          "internalType": "address",
          "name": "projectStarter",
          "type": "address"
        },
        {
          "indexed": false,
          "internalType": "string",
          "name": "projectTitle",
          "type": "string"
        },
        {
          "indexed": false,
          "internalType": "string",
          "name": "projectDesc",
          "type": "string"
        },
        {
          "indexed": false,
          "internalType": "uint256",
          "name": "deadline",
          "type": "uint256"
        },
        {
          "indexed": false,
          "internalType": "uint256",
          "name": "ticketPrice",
          "type": "uint256"
        },
        {
          "indexed": false,
          "internalType": "uint256[]",
          "name": "rewards",
          "type": "uint256[]"
        },
        {
          "indexed": false,
          "internalType": "uint256",
          "name": "limitTickets",
          "type": "uint256"
        }
      ],
      "name": "ProjectStarted",
      "type": "event"
    },
    {
      "anonymous": false,
      "inputs": [
        {
          "components": [
            {
              "internalType": "uint256[]",
              "name": "values",
              "type": "uint256[]"
            },
            {
              "internalType": "address[]",
              "name": "accounts",
              "type": "address[]"
            }
          ],
          "indexed": false,
          "internalType": "struct LotteryBuilder.Winners[]",
          "name": "_a",
          "type": "tuple[]"
        }
      ],
      "name": "RevealLatestWinners",
      "type": "event"
    },
    {
      "inputs": [],
      "name": "owner",
      "outputs": [
        {
          "internalType": "address payable",
          "name": "",
          "type": "address"
        }
      ],
      "stateMutability": "view",
      "type": "function",
      "constant": true
    },
    {
      "inputs": [
        {
          "internalType": "address payable",
          "name": "creator",
          "type": "address"
        },
        {
          "internalType": "string",
          "name": "title",
          "type": "string"
        },
        {
          "internalType": "string",
          "name": "description",
          "type": "string"
        },
        {
          "internalType": "uint256",
          "name": "deadlineDate",
          "type": "uint256"
        },
        {
          "internalType": "uint256",
          "name": "ticketPrice",
          "type": "uint256"
        },
        {
          "internalType": "uint256[]",
          "name": "rewards",
          "type": "uint256[]"
        },
        {
          "internalType": "uint256",
          "name": "limitTickets",
          "type": "uint256"
        }
      ],
      "name": "startProject",
      "outputs": [],
      "stateMutability": "nonpayable",
      "type": "function"
    },
    {
      "inputs": [],
      "name": "getOwner",
      "outputs": [
        {
          "internalType": "address",
          "name": "",
          "type": "address"
        }
      ],
      "stateMutability": "view",
      "type": "function",
      "constant": true
    },
    {
      "inputs": [
        {
          "internalType": "address",
          "name": "_address",
          "type": "address"
        }
      ],
      "name": "participatedByAddress",
      "outputs": [
        {
          "internalType": "address[]",
          "name": "",
          "type": "address[]"
        },
        {
          "internalType": "uint256[]",
          "name": "",
          "type": "uint256[]"
        },
        {
          "internalType": "uint256[]",
          "name": "",
          "type": "uint256[]"
        },
        {
          "internalType": "enum State[]",
          "name": "",
          "type": "uint8[]"
        },
        {
          "internalType": "bool[]",
          "name": "",
          "type": "bool[]"
        },
        {
          "internalType": "uint256[]",
          "name": "",
          "type": "uint256[]"
        }
      ],
      "stateMutability": "nonpayable",
      "type": "function"
    },
    {
      "inputs": [
        {
          "internalType": "address",
          "name": "_address",
          "type": "address"
        }
      ],
      "name": "getSpentState",
      "outputs": [
        {
          "internalType": "uint256",
          "name": "",
          "type": "uint256"
        }
      ],
      "stateMutability": "view",
      "type": "function",
      "constant": true
    },
    {
      "inputs": [
        {
          "internalType": "address",
          "name": "_address",
          "type": "address"
        }
      ],
      "name": "getRewardsWonByAddress",
      "outputs": [
        {
          "internalType": "uint256",
          "name": "",
          "type": "uint256"
        }
      ],
      "stateMutability": "view",
      "type": "function",
      "constant": true
    },
    {
      "inputs": [],
      "name": "getLatestWinners",
      "outputs": [
        {
          "components": [
            {
              "internalType": "uint256[]",
              "name": "values",
              "type": "uint256[]"
            },
            {
              "internalType": "address[]",
              "name": "accounts",
              "type": "address[]"
            }
          ],
          "internalType": "struct LotteryBuilder.Winners[]",
          "name": "",
          "type": "tuple[]"
        }
      ],
      "stateMutability": "view",
      "type": "function",
      "constant": true
    },
    {
      "inputs": [],
      "name": "returnClosedProjects",
      "outputs": [
        {
          "internalType": "contract Lottery[]",
          "name": "",
          "type": "address[]"
        }
      ],
      "stateMutability": "view",
      "type": "function",
      "constant": true
    },
    {
      "inputs": [],
      "name": "returnOpenProjects",
      "outputs": [
        {
          "internalType": "contract Lottery[]",
          "name": "",
          "type": "address[]"
        }
      ],
      "stateMutability": "view",
      "type": "function",
      "constant": true
    },
    {
      "inputs": [
        {
          "internalType": "enum State",
          "name": "state",
          "type": "uint8"
        }
      ],
      "name": "getProjectsByState",
      "outputs": [
        {
          "internalType": "contract Lottery[]",
          "name": "",
          "type": "address[]"
        }
      ],
      "stateMutability": "view",
      "type": "function",
      "constant": true
    },
    {
      "inputs": [],
      "name": "returnAllLotteries",
      "outputs": [
        {
          "internalType": "contract Lottery[]",
          "name": "",
          "type": "address[]"
        }
      ],
      "stateMutability": "view",
      "type": "function",
      "constant": true
    }
  ],
  "bytecode": "0x608060405234801561001057600080fd5b50600180546001600160a01b03191633179055614236806100326000396000f3fe60806040523480156200001157600080fd5b5060043610620000dc5760003560e01c80638b3645ee116200008d578063c934d7581162000063578063c934d75814620001a4578063e184794c14620001ca578063eb1f044514620001e157620000dc565b80638b3645ee14620001775780638da5cb5b1462000190578063c5d8668f146200019a57620000dc565b80632f771ef611620000c35780632f771ef6146200012e57806385a54e151462000145578063893d20e8146200015e57620000dc565b8063180a1d1614620000e15780632c9d40601462000115575b600080fd5b620000f8620000f2366004620013db565b620001eb565b6040516200010c9695949392919062001971565b60405180910390f35b6200011f62000a59565b6040516200010c919062001a2b565b6200011f6200013f366004620016c7565b62000abd565b6200015c6200015636600462001420565b62000cef565b005b6200016862000e8e565b6040516200010c91906200184e565b6200018162000e9d565b6040516200010c919062001a7a565b6200016862001075565b6200011f62001084565b620001bb620001b5366004620013db565b6200110a565b6040516200010c919062001b75565b620001bb620001db366004620013db565b620011e9565b6200011f620012c1565b6060806060806060806000805b600054811015620007685760008082815481106200021257fe5b9060005260206000200160009054906101000a90046001600160a01b031690506000816001600160a01b0316638b5b9ccc6040518163ffffffff1660e01b815260040160006040518083038186803b1580156200026e57600080fd5b505afa15801562000283573d6000803e3d6000fd5b505050506040513d6000823e601f3d908101601f19168201604052620002ad91908101906200151e565b905060005b81518110156200075c578b6001600160a01b0316828281518110620002d357fe5b60200260200101516001600160a01b0316141562000753576000600360008781526020019081526020016000209050836001600160a01b03166332a2c5d06040518163ffffffff1660e01b815260040160206040518083038186803b1580156200033c57600080fd5b505afa15801562000351573d6000803e3d6000fd5b505050506040513d601f19601f8201168201806040525081019062000377919062001401565b8160000160006101000a8154816001600160a01b0302191690836001600160a01b03160217905550836001600160a01b0316634de58efe8e6040518263ffffffff1660e01b8152600401620003cd91906200184e565b60206040518083038186803b158015620003e657600080fd5b505afa158015620003fb573d6000803e3d6000fd5b505050506040513d601f19601f8201168201806040525081019062000421919062001705565b8160010181905550836001600160a01b0316630e0b0f438e6040518263ffffffff1660e01b81526004016200045791906200184e565b60206040518083038186803b1580156200047057600080fd5b505afa15801562000485573d6000803e3d6000fd5b505050506040513d601f19601f82011682018060405250810190620004ab919062001705565b8160020181905550836001600160a01b0316631865c57d6040518163ffffffff1660e01b815260040160206040518083038186803b158015620004ed57600080fd5b505afa15801562000502573d6000803e3d6000fd5b505050506040513d601f19601f82011682018060405250810190620005289190620016e6565b60038201805460ff191660018360028111156200054157fe5b021790555060038101805461ff00191690556000600482018190555b846001600160a01b0316638e33cffc6040518163ffffffff1660e01b815260040160206040518083038186803b1580156200059757600080fd5b505afa158015620005ac573d6000803e3d6000fd5b505050506040513d601f19601f82011682018060405250810190620005d2919062001705565b8110156200074a576040517f4129b2c90000000000000000000000000000000000000000000000000000000081526001600160a01b03861690634129b2c9906200062190849060040162001b75565b60206040518083038186803b1580156200063a57600080fd5b505afa1580156200064f573d6000803e3d6000fd5b505050506040513d601f19601f8201168201806040525081019062000675919062001401565b6001600160a01b03168e6001600160a01b03161415620007415760038201805461ff0019166101001790556040517ff7feb20d0000000000000000000000000000000000000000000000000000000081526001600160a01b0386169063f7feb20d90620006e790849060040162001b75565b60206040518083038186803b1580156200070057600080fd5b505afa15801562000715573d6000803e3d6000fd5b505050506040513d601f19601f820116820180604052508101906200073b919062001705565b60048301555b6001016200055d565b50506001909401935b600101620002b2565b505050600101620001f8565b5060008167ffffffffffffffff811180156200078357600080fd5b50604051908082528060200260200182016040528015620007ae578160200160208202803683370190505b50905060008267ffffffffffffffff81118015620007cb57600080fd5b50604051908082528060200260200182016040528015620007f6578160200160208202803683370190505b50905060008367ffffffffffffffff811180156200081357600080fd5b506040519080825280602002602001820160405280156200083e578160200160208202803683370190505b50905060008467ffffffffffffffff811180156200085b57600080fd5b5060405190808252806020026020018201604052801562000886578160200160208202803683370190505b50905060008567ffffffffffffffff81118015620008a357600080fd5b50604051908082528060200260200182016040528015620008ce578160200160208202803683370190505b50905060008667ffffffffffffffff81118015620008eb57600080fd5b5060405190808252806020026020018201604052801562000916578160200160208202803683370190505b50905060005b8781101562000a43576000818152600360205260409020805488516001600160a01b03909116908990849081106200095057fe5b60200260200101906001600160a01b031690816001600160a01b03168152505080600101548783815181106200098257fe5b6020026020010181815250508060020154868381518110620009a057fe5b60209081029190910101526003810154855160ff90911690869084908110620009c557fe5b60200260200101906002811115620009d957fe5b90816002811115620009e757fe5b815250508060030160019054906101000a900460ff1684838151811062000a0a57fe5b602002602001019015159081151581525050806004015483838151811062000a2e57fe5b6020908102919091010152506001016200091c565b50949d939c50919a509850965090945092505050565b6060600080548060200260200160405190810160405280929190818152602001828054801562000ab357602002820191906000526020600020905b81546001600160a01b0316815260019091019060200180831162000a94575b5050505050905090565b60606000805b60005481101562000b9a57600080828154811062000add57fe5b6000918252602090912001546001600160a01b0316905084600281111562000b0157fe5b816001600160a01b0316631865c57d6040518163ffffffff1660e01b815260040160206040518083038186803b15801562000b3b57600080fd5b505afa15801562000b50573d6000803e3d6000fd5b505050506040513d601f19601f8201168201806040525081019062000b769190620016e6565b600281111562000b8257fe5b141562000b90576001909201915b5060010162000ac3565b5060008167ffffffffffffffff8111801562000bb557600080fd5b5060405190808252806020026020018201604052801562000be0578160200160208202803683370190505b5090506000915060005b60005481101562000ce757600080828154811062000c0457fe5b6000918252602090912001546001600160a01b0316905085600281111562000c2857fe5b816001600160a01b0316631865c57d6040518163ffffffff1660e01b815260040160206040518083038186803b15801562000c6257600080fd5b505afa15801562000c77573d6000803e3d6000fd5b505050506040513d601f19601f8201168201806040525081019062000c9d9190620016e6565b600281111562000ca957fe5b141562000cdd578083858151811062000cbe57fe5b6001600160a01b03909216602092830291909101909101526001909301925b5060010162000bea565b509392505050565b6000805b8381101562000d205784848281811062000d0957fe5b602002919091013592909201915060010162000cf3565b508060641462000d67576040517f08c379a000000000000000000000000000000000000000000000000000000000815260040162000d5e9062001b18565b60405180910390fd5b60008690506000600160009054906101000a90046001600160a01b03168d8d8d8d8d878d8d8d8d60405162000d9c90620012ea565b62000db29b9a9998979695949392919062001862565b604051809103906000f08015801562000dcf573d6000803e3d6000fd5b5090506000819080600181540180825580915050600190039060005260206000200160009091909190916101000a8154816001600160a01b0302191690836001600160a01b031602179055507fdf54dbcf54b276c880d4a08833029386e6b1970214f14e76cfa9a29d46de655381600160009054906101000a90046001600160a01b03168f8f8f8f8f898f8f8f8f60405162000e779c9b9a99989796959493929190620018e5565b60405180910390a150505050505050505050505050565b6001546001600160a01b031690565b60606000306001600160a01b031663c5d8668f6040518163ffffffff1660e01b815260040160006040518083038186803b15801562000edb57600080fd5b505afa15801562000ef0573d6000803e3d6000fd5b505050506040513d6000823e601f3d908101601f1916820160405262000f1a91908101906200155d565b90506000815167ffffffffffffffff8111801562000f3757600080fd5b5060405190808252806020026020018201604052801562000f7557816020015b62000f61620012f8565b81526020019060019003908162000f575790505b50905081516000146200106f5760005b82518110156200106d57600083828151811062000f9e57fe5b60200260200101519050600080826001600160a01b031663952587d66040518163ffffffff1660e01b815260040160006040518083038186803b15801562000fe557600080fd5b505afa15801562000ffa573d6000803e3d6000fd5b505050506040513d6000823e601f3d908101601f1916820160405262001024919081019062001601565b91509150818585815181106200103657fe5b602002602001015160000181905250808585815181106200105357fe5b602090810291909101810151015250505060010162000f85565b505b91505090565b6001546001600160a01b031681565b6040516317bb8f7b60e11b81526060903090632f771ef690620010ad9060019060040162001b02565b60006040518083038186803b158015620010c657600080fd5b505afa158015620010db573d6000803e3d6000fd5b505050506040513d6000823e601f3d908101601f191682016040526200110591908101906200155d565b905090565b600080805b600054811015620011e25760008082815481106200112957fe5b6000918252602090912001546040517f4de58efe0000000000000000000000000000000000000000000000000000000081526001600160a01b0390911691508190634de58efe90620011809088906004016200184e565b60206040518083038186803b1580156200119957600080fd5b505afa158015620011ae573d6000803e3d6000fd5b505050506040513d601f19601f82011682018060405250810190620011d4919062001705565b90920191506001016200110f565b5092915050565b600080805b600054811015620011e25760008082815481106200120857fe5b6000918252602090912001546040517fa6a031b90000000000000000000000000000000000000000000000000000000081526001600160a01b039091169150819063a6a031b9906200125f9088906004016200184e565b60206040518083038186803b1580156200127857600080fd5b505afa1580156200128d573d6000803e3d6000fd5b505050506040513d601f19601f82011682018060405250810190620012b3919062001705565b9092019150600101620011ee565b6040516317bb8f7b60e11b81526060903090632f771ef690620010ad9060009060040162001b02565b6126178062001bea83390190565b604051806040016040528060608152602001606081525090565b600082601f83011262001323578081fd5b815160206200133c620013368362001ba3565b62001b7e565b828152818101908583018385028701840188101562001359578586fd5b855b8581101562001384578151620013718162001bc2565b845292840192908401906001016200135b565b5090979650505050505050565b60008083601f840112620013a3578182fd5b50813567ffffffffffffffff811115620013bb578182fd5b602083019150836020828501011115620013d457600080fd5b9250929050565b600060208284031215620013ed578081fd5b8135620013fa8162001bc2565b9392505050565b60006020828403121562001413578081fd5b8151620013fa8162001bc2565b60008060008060008060008060008060e08b8d0312156200143f578586fd5b8a356200144c8162001bc2565b995060208b013567ffffffffffffffff8082111562001469578788fd5b620014778e838f0162001391565b909b50995060408d013591508082111562001490578788fd5b6200149e8e838f0162001391565b909950975060608d0135965060808d0135955060a08d0135915080821115620014c5578485fd5b818d0191508d601f830112620014d9578485fd5b813581811115620014e8578586fd5b8e60208083028501011115620014fc578586fd5b60208301955080945050505060c08b013590509295989b9194979a5092959850565b60006020828403121562001530578081fd5b815167ffffffffffffffff81111562001547578182fd5b620015558482850162001312565b949350505050565b6000602080838503121562001570578182fd5b825167ffffffffffffffff81111562001587578283fd5b8301601f8101851362001598578283fd5b8051620015a9620013368262001ba3565b8181528381019083850185840285018601891015620015c6578687fd5b8694505b83851015620015f5578051620015e08162001bc2565b835260019490940193918501918501620015ca565b50979650505050505050565b6000806040838503121562001614578182fd5b825167ffffffffffffffff808211156200162c578384fd5b818501915085601f83011262001640578384fd5b8151602062001653620013368362001ba3565b82815281810190858301838502870184018b101562001670578889fd5b8896505b848710156200169457805183526001969096019591830191830162001674565b5091880151919650909350505080821115620016ae578283fd5b50620016bd8582860162001312565b9150509250929050565b600060208284031215620016d9578081fd5b8135620013fa8162001bdb565b600060208284031215620016f8578081fd5b8151620013fa8162001bdb565b60006020828403121562001717578081fd5b5051919050565b6000815180845260208085019450808401835b83811015620017585781516001600160a01b03168752958201959082019060010162001731565b509495945050505050565b6000815180845260208085019450808401835b838110156200175857815115158752958201959082019060010162001776565b60008284527f07ffffffffffffffffffffffffffffffffffffffffffffffffffffffffffffff831115620017c8578081fd5b6020830280836020870137939093016020019283525090919050565b6000815180845260208085019450808401835b838110156200175857815187529582019590820190600101620017f7565b600381106200182057fe5b9052565b60008284528282602086013780602084860101526020601f19601f85011685010190509392505050565b6001600160a01b0391909116815260200190565b60006101006001600160a01b03808f168452808e16602085015250806040840152620018928184018c8e62001824565b90508281036060840152620018a9818a8c62001824565b90508760808401528660a084015282810360c0840152620018cc81868862001796565b9150508260e08301529c9b505050505050505050505050565b60006001600160a01b03808f168352808e166020840152808d1660408401525061012060608301526200191e61012083018b8d62001824565b828103608084015262001933818a8c62001824565b90508760a08401528660c084015282810360e08401526200195681868862001796565b915050826101008301529d9c50505050505050505050505050565b600060c082526200198660c08301896200171e565b6020838203818501526200199b828a620017e4565b91508382036040850152620019b18289620017e4565b84810360608601528751808252828901935090820190845b81811015620019f057620019df83865162001815565b9383019391830191600101620019c9565b5050848103608086015262001a06818862001763565b9250505082810360a084015262001a1e8185620017e4565b9998505050505050505050565b6020808252825182820181905260009190848201906040850190845b8181101562001a6e5783516001600160a01b03168352928401929184019160010162001a47565b50909695505050505050565b60208082528251828201819052600091906040908185019080840286018301878501865b8381101562001af457888303603f190185528151805187855262001ac588860182620017e4565b91890151858303868b015291905062001adf81836200171e565b96890196945050509086019060010162001a9e565b509098975050505050505050565b6020810162001b12828462001815565b92915050565b60208082526026908201527f5468652073756d206f66207072697a6573206973206e6f74203130302028706560408201527f7263656e74290000000000000000000000000000000000000000000000000000606082015260800190565b90815260200190565b60405181810167ffffffffffffffff8111828210171562001b9b57fe5b604052919050565b600067ffffffffffffffff82111562001bb857fe5b5060209081020190565b6001600160a01b038116811462001bd857600080fd5b50565b6003811062001bd857600080fdfe60806040526008805460ff191690553480156200001b57600080fd5b5060405162002617380380620026178339810160408190526200003e916200034f565b6000805b600d548110156200007557600d81815481106200005b57fe5b600091825260209091200154919091019060010162000042565b5080606414620000a25760405162461bcd60e51b8152600401620000999062000420565b60405180910390fd5b600080546001600160a01b03808c166001600160a01b03199283161790925560018054928b16929091169190911790558651620000e79060069060208a01906200013e565b508551620000fd9060079060208901906200013e565b50600284905560058590556000600455426003558251600c8190556200012b90600d906020860190620001d3565b5050600e55506200048a95505050505050565b828054600181600116156101000203166002900490600052602060002090601f016020900481019282620001765760008555620001c1565b82601f106200019157805160ff1916838001178555620001c1565b82800160010185558215620001c1579182015b82811115620001c1578251825591602001919060010190620001a4565b50620001cf92915062000210565b5090565b828054828255906000526020600020908101928215620001c15791602002820182811115620001c1578251825591602001919060010190620001a4565b5b80821115620001cf576000815560010162000211565b80516001600160a01b03811681146200023f57600080fd5b919050565b600082601f83011262000255578081fd5b815160206001600160401b038211156200026b57fe5b8082026200027b82820162000466565b83815282810190868401838801850189101562000296578687fd5b8693505b85841015620002ba5780518352600193909301929184019184016200029a565b50979650505050505050565b600082601f830112620002d7578081fd5b81516001600160401b03811115620002eb57fe5b602062000301601f8301601f1916820162000466565b828152858284870101111562000315578384fd5b835b838110156200033457858101830151828201840152820162000317565b838111156200034557848385840101525b5095945050505050565b600080600080600080600080610100898b0312156200036c578384fd5b620003778962000227565b97506200038760208a0162000227565b60408a01519097506001600160401b0380821115620003a4578586fd5b620003b28c838d01620002c6565b975060608b0151915080821115620003c8578586fd5b620003d68c838d01620002c6565b965060808b0151955060a08b0151945060c08b0151915080821115620003fa578384fd5b50620004098b828c0162000244565b92505060e089015190509295985092959890939650565b60208082526026908201527f5468652073756d206f66207072697a6573206973206e6f7420313030202870656040820152657263656e742960d01b606082015260800190565b6040518181016001600160401b03811182821017156200048257fe5b604052919050565b61217d806200049a6000396000f3fe6080604052600436106102e75760003560e01c80635d495aea116101845780638b5b9ccc116100d6578063ce845d1d1161008a578063f71d96cb11610064578063f71d96cb1461073f578063f7feb20d1461075f578063ff3c1a8f1461077f576102e7565b8063ce845d1d146106f5578063d5f394881461070a578063f301af421461071f576102e7565b8063952587d6116100bb578063952587d61461069d578063a6a031b9146106c0578063c19d93fb146106e0576102e7565b80638b5b9ccc146106735780638e33cffc14610688576102e7565b80637284e4161161013857806387bb7ae01161011257806387bb7ae014610634578063893d20e8146106495780638acfaca91461065e576102e7565b80637284e416146105f557806376d6b4ed1461060a578063790b62091461061f576102e7565b806364c165341161016957806364c16534146105ad57806367dd74ca146105c2578063685f9bf5146105d5576102e7565b80635d495aea146105905780635f8d96de14610598576102e7565b8063325a19f11161023d57806341c0e1b5116101f15780634de58efe116101cb5780634de58efe1461052e5780634ed026221461054e57806350b4471214610570576102e7565b806341c0e1b5146104df57806344ed63f6146104f65780634a79d50c14610519576102e7565b806338f148451161022257806338f148451461047f578063403d13121461049f5780634129b2c9146104bf576102e7565b8063325a19f11461045557806332a2c5d01461046a576102e7565b80631865c57d1161029f57806324cc28661161027957806324cc2866146103f457806329dcb0cf1461040957806330289c611461041e576102e7565b80631865c57d146103905780631a092541146103b25780631f6d4942146103d4576102e7565b8063080b2a86116102d0578063080b2a86146103395780630e0b0f431461035b57806312065fe01461037b576102e7565b806302d05d3f146102ec5780630572b0cc14610317575b600080fd5b3480156102f857600080fd5b50610301610794565b60405161030e9190611d9e565b60405180910390f35b34801561032357600080fd5b5061032c6107a3565b60405161030e9190611e8c565b34801561034557600080fd5b5061034e6107fb565b60405161030e9190611d4b565b34801561036757600080fd5b5061034e610376366004611bd2565b610801565b34801561038757600080fd5b5061034e610852565b34801561039c57600080fd5b506103a5610858565b60405161030e9190611eb2565b3480156103be57600080fd5b506103c7610861565b60405161030e9190611ec0565b3480156103e057600080fd5b5061034e6103ef366004611bd2565b6108ee565b34801561040057600080fd5b50610301610900565b34801561041557600080fd5b5061034e61090f565b34801561042a57600080fd5b5061043e610439366004611bd2565b610915565b60405161030e9b9a99989796959493929190611db2565b34801561046157600080fd5b5061034e610b2e565b34801561047657600080fd5b50610301610b34565b34801561048b57600080fd5b5061030161049a366004611bf9565b610b38565b3480156104ab57600080fd5b5061034e6104ba366004611bf9565b610ba6565b3480156104cb57600080fd5b506103016104da366004611bf9565b610bc7565b3480156104eb57600080fd5b506104f4610be5565b005b34801561050257600080fd5b5061050b610c26565b60405161030e929190611e5e565b34801561052557600080fd5b506103c7610ce7565b34801561053a57600080fd5b5061034e610549366004611bd2565b610d75565b34801561055a57600080fd5b50610563610d90565b60405161030e9190611e44565b34801561057c57600080fd5b5061030161058b366004611bf9565b610df1565b6104f4610e1b565b3480156105a457600080fd5b5061034e6112c6565b3480156105b957600080fd5b5061034e6112cc565b61034e6105d0366004611bf9565b6112d2565b3480156105e157600080fd5b5061034e6105f0366004611bd2565b611540565b34801561060157600080fd5b506103c76115cc565b34801561061657600080fd5b5061034e611627565b34801561062b57600080fd5b5061034e61162d565b34801561064057600080fd5b5061034e611633565b34801561065557600080fd5b50610301611639565b34801561066a57600080fd5b5061034e611648565b34801561067f57600080fd5b5061056361164e565b34801561069457600080fd5b5061034e6116ae565b3480156106a957600080fd5b506106b26116b4565b60405161030e929190611e9f565b3480156106cc57600080fd5b5061034e6106db366004611bd2565b6117d4565b3480156106ec57600080fd5b506103a561181c565b34801561070157600080fd5b5061034e611825565b34801561071657600080fd5b5061030161182b565b34801561072b57600080fd5b5061034e61073a366004611bf9565b61183a565b34801561074b57600080fd5b5061030161075a366004611bf9565b61184a565b34801561076b57600080fd5b5061034e61077a366004611bf9565b61185a565b34801561078b57600080fd5b506103c761186f565b6001546001600160a01b031681565b6060600d8054806020026020016040519081016040528092919081815260200182805480156107f157602002820191906000526020600020905b8154815260200190600101908083116107dd575b5050505050905090565b600f5490565b600080805b600f5481101561084b57600f818154811061081d57fe5b6000918252602090912001546001600160a01b0385811691161415610843576001909101905b600101610806565b5092915050565b60045490565b60085460ff1690565b60078054604080516020601f60026000196101006001881615020190951694909404938401819004810282018101909252828152606093909290918301828280156107f15780601f106108c2576101008083540402835291602001916107f1565b820191906000526020600020905b8154815290600101906020018083116108d057509395945050505050565b60096020526000908152604090205481565b6000546001600160a01b031690565b60055481565b600060608060008060008060008060606000600160009054906101000a90046001600160a01b03169a5060068054600181600116156101000203166002900480601f0160208091040260200160405190810160405280929190818152602001828054600181600116156101000203166002900480156109d55780601f106109aa576101008083540402835291602001916109d5565b820191906000526020600020905b8154815290600101906020018083116109b857829003601f168201915b5050505050995060078054600181600116156101000203166002900480601f016020809104026020016040519081016040528092919081815260200182805460018160011615610100020316600290048015610a725780601f10610a4757610100808354040283529160200191610a72565b820191906000526020600020905b815481529060010190602001808311610a5557829003601f168201915b505050505098506005549750600860009054906101000a900460ff16965060045495506002549450600b5493506003549250600d805480602002602001604051908101604052809291908181526020018280548015610af057602002820191906000526020600020905b815481526020019060010190808311610adc575b50505050509150600960008d6001600160a01b03166001600160a01b0316815260200190815260200160002054905091939597999b90929496989a50565b60035481565b3090565b600080600f8381548110610b4857fe5b600091825260209091200154600f546001600160a01b03909116915060001901610b7284826118d0565b600f805480610b7d57fe5b600082815260209020600019908201810180546001600160a01b03191690550190555092915050565b60118181548110610bb657600080fd5b600091825260209091200154905081565b6000908152601060205260409020600201546001600160a01b031690565b6001546001600160a01b03163314610c185760405162461bcd60e51b8152600401610c0f906120ea565b60405180910390fd5b6001546001600160a01b0316ff5b606080600a805480602002602001604051908101604052809291908181526020018280548015610c7f57602002820191906000526020600020905b81546001600160a01b03168152600190910190602001808311610c61575b50505050509150600f805480602002602001604051908101604052809291908181526020018280548015610cdc57602002820191906000526020600020905b81546001600160a01b03168152600190910190602001808311610cbe575b505050505090509091565b6006805460408051602060026001851615610100026000190190941693909304601f81018490048402820184019092528181529291830182828015610d6d5780601f10610d4257610100808354040283529160200191610d6d565b820191906000526020600020905b815481529060010190602001808311610d5057829003601f168201915b505050505081565b6001600160a01b031660009081526009602052604090205490565b6060600f8054806020026020016040519081016040528092919081815260200182805480156107f157602002820191906000526020600020905b81546001600160a01b03168152600190910190602001808311610dca575050505050905090565b600f8181548110610e0157600080fd5b6000918252602090912001546001600160a01b0316905081565b6001546001600160a01b03163314610e455760405162461bcd60e51b8152600401610c0f90611f67565b610e4d61199c565b610e695760405162461bcd60e51b8152600401610c0f906120b5565b610e716119a3565b15610e8e5760405162461bcd60e51b8152600401610c0f90612058565b610e9860026119be565b47600455600c54600a54600091605f9160059110610f2d5760005b600a54811015610f27576000600a8281548110610ecc57fe5b60009182526020808320909101546001600160a01b031680835260099091526040808320549051919350839281156108fc029290818181858888f19350505050158015610f1d573d6000803e3d6000fd5b5050600101610eb3565b5061121c565b60005b600c5481101561121a57600f54610f465761121a565b7faf4ec89c92b2378c5281acbbdbd9184d1dddf5382f07d8bdaf42196683e206f381600101604051602001610f7b9190611cf4565b60408051601f1981840301815290829052610f9591611ec0565b60405180910390a182612710600454600d8481548110610fb157fe5b90600052602060002001540281610fc457fe5b04029350610fd0611a1e565b600f80546040805160208084028201810190925282815260009361103392849083018282801561102957602002820191906000526020600020905b81546001600160a01b0316815260019091019060200180831161100b575b5050505050611b3a565b8161103a57fe5b6000848152601060205260409020600f8054939092069350918390811061105d57fe5b60009182526020822001546002830180546001600160a01b0319166001600160a01b03909216919091179055600182810188905560118054918201815582527f31ecc21a745e3968a04e9570e4425bc18fa8019c68028196b546d1669c200c68018490555b600f546000190181116111d2576002820154600f80546001600160a01b0390921691839081106110ee57fe5b6000918252602090912001546001600160a01b031614156111ca57600f805460009190600019810190811061111f57fe5b6000918252602090912001546001600160a01b031690505b60028301546001600160a01b03828116911614801561115c5750600f54600019018214155b156111be57600f80548061116c57fe5b600082815260209020810160001990810180546001600160a01b0319169055908101909155600f8054909181019081106111a257fe5b6000918252602090912001546001600160a01b03169050611137565b6111c782610b38565b50505b6001016110c2565b5060028101546040516001600160a01b039091169087156108fc029088906000818181858888f1935050505015801561120f573d6000803e3d6000fd5b505050600101610f30565b505b476004819055606490048161012c8161123157fe5b600154604051929091049290920294506001600160a01b039091169084156108fc029085906000818181858888f19350505050158015611275573d6000803e3d6000fd5b5061127e610900565b6001600160a01b03166108fc479081150290604051600060405180830381858888f193505050501580156112b6573d6000803e3d6000fd5b506112c160016119be565b505050565b60055490565b60025481565b600060055442106112f55760405162461bcd60e51b8152600401610c0f90612021565b6002543410156113175760405162461bcd60e51b8152600401610c0f90611ed3565b61131f61199c565b61133b5760405162461bcd60e51b8152600401610c0f90611fc4565b604051630e0b0f4360e01b815260009083903090630e0b0f4390611363903390600401611d9e565b60206040518083038186803b15801561137b57600080fd5b505afa15801561138f573d6000803e3d6000fd5b505050506040513d601f19601f820116820180604052508101906113b39190611c11565b01905080600e5410156113d85760405162461bcd60e51b8152600401610c0f90611f0a565b336000908152600960205260409020546113f29034611b6f565b3360009081526009602052604090205560045461140f9034611b6f565b60045560005b8381101561146657600f8054600181810183556000929092527f8d1108e10bcb7c27dddfc02ed9d693a074039d026cf4ea4240b40f7d581ac8020180546001600160a01b0319163317905501611415565b506000805b600a548110156114ab57600a818154811061148257fe5b6000918252602090912001546001600160a01b03163314156114a357600191505b60010161146b565b50806114f457600a80546001810182556000919091527fc65a7bb8d6351c1cf70c95a316cc6a92839c986682d98bc35f958f4883f9d2a80180546001600160a01b031916331790555b336001600160a01b03167f69ca02dd4edd7bf0a4abb9ed3b7af3f14778db5d61921c7dc7cd545266326de23460405161152d9190611d4b565b60405180910390a25050600f5492915050565b600f54604051630e0b0f4360e01b8152600091903090630e0b0f439061156a908690600401611d9e565b60206040518083038186803b15801561158257600080fd5b505afa158015611596573d6000803e3d6000fd5b505050506040513d601f19601f820116820180604052508101906115ba9190611c11565b61271002816115c557fe5b0492915050565b6007805460408051602060026001851615610100026000190190941693909304601f81018490048402820184019092528181529291830182828015610d6d5780601f10610d4257610100808354040283529160200191610d6d565b600e5490565b600a5490565b60025490565b6001546001600160a01b031690565b600c5481565b6060600a8054806020026020016040519081016040528092919081815260200182805480156107f1576020028201919060005260206000209081546001600160a01b03168152600190910190602001808311610dca575050505050905090565b600d5490565b606080600060118054905067ffffffffffffffff811180156116d557600080fd5b506040519080825280602002602001820160405280156116ff578160200160208202803683370190505b5060115490915060009067ffffffffffffffff8111801561171f57600080fd5b50604051908082528060200260200182016040528015611749578160200160208202803683370190505b50905060005b6011548110156117cb576000818152601060205260409020600281015484516001600160a01b039091169085908490811061178657fe5b60200260200101906001600160a01b031690816001600160a01b03168152505080600101548383815181106117b757fe5b60209081029190910101525060010161174f565b50925090509091565b600080805b600c5481101561084b57600081815260106020526040902060028101546001600160a01b0386811691161415611813578060010154830192505b506001016117d9565b60085460ff1681565b60045481565b6000546001600160a01b031681565b600d8181548110610bb657600080fd5b600a8181548110610e0157600080fd5b60009081526010602052604090206001015490565b60068054604080516020601f60026000196101006001881615020190951694909404938401819004810282018101909252828152606093909290918301828280156107f15780601f106108c2576101008083540402835291602001916107f1565b6000600f83815481106118df57fe5b600091825260209091200154600f80546001600160a01b039092169250908390811061190757fe5b600091825260209091200154600f80546001600160a01b03909216918590811061192d57fe5b9060005260206000200160006101000a8154816001600160a01b0302191690836001600160a01b0316021790555080600f838154811061196957fe5b9060005260206000200160006101000a8154816001600160a01b0302191690836001600160a01b03160217905550505050565b6011541590565b6000600260085460ff1660028111156119b857fe5b14905090565b6008805482919060ff191660018360028111156119d757fe5b02179055506008546040517f1e046fdd2110d82ed3fa7652b41ced17c49cbb9ee4536e65f51ad2a6ed5359a791611a139160ff90911690611eb2565b60405180910390a150565b60005b600f54811015611b3757600081600f805490500342604051602001611a469190611d4b565b6040516020818303038152906040528051906020012060001c81611a6657fe5b06820190506000600f8281548110611a7a57fe5b600091825260209091200154600f80546001600160a01b0390921692509084908110611aa257fe5b600091825260209091200154600f80546001600160a01b039092169184908110611ac857fe5b9060005260206000200160006101000a8154816001600160a01b0302191690836001600160a01b0316021790555080600f8481548110611b0457fe5b600091825260209091200180546001600160a01b0319166001600160a01b03929092169190911790555050600101611a21565b50565b6000444283604051602001611b5193929190611d54565b60408051601f19818403018152919052805160209091012092915050565b600082820183811015611bc9576040805162461bcd60e51b815260206004820152601b60248201527f536166654d6174683a206164646974696f6e206f766572666c6f770000000000604482015290519081900360640190fd5b90505b92915050565b600060208284031215611be3578081fd5b81356001600160a01b0381168114611bc9578182fd5b600060208284031215611c0a578081fd5b5035919050565b600060208284031215611c22578081fd5b5051919050565b6000815180845260208085019450808401835b83811015611c615781516001600160a01b031687529582019590820190600101611c3c565b509495945050505050565b6000815180845260208085019450808401835b83811015611c6157815187529582019590820190600101611c7f565b60038110611ca557fe5b9052565b60008151808452815b81811015611cce57602081850181015186830182015201611cb2565b81811115611cdf5782602083870101525b50601f01601f19169290920160200192915050565b7f57696e6e65722000000000000000000000000000000000000000000000000000815260078101919091527f2073656c656374696f6e206861732073746172746564210000000000000000006027820152603e0190565b90815260200190565b600084825260208481840152604083018451828601845b82811015611d905781516001600160a01b031684529284019290840190600101611d6b565b509198975050505050505050565b6001600160a01b0391909116815260200190565b60006101606001600160a01b038e168352806020840152611dd58184018e611ca9565b90508281036040840152611de9818d611ca9565b90508a6060840152611dfe608084018b611c9b565b8860a08401528760c08401528660e084015285610100840152828103610120840152611e2a8186611c6c565b915050826101408301529c9b505050505050505050505050565b600060208252611e576020830184611c29565b9392505050565b600060408252611e716040830185611c29565b8281036020840152611e838185611c29565b95945050505050565b600060208252611e576020830184611c6c565b600060408252611e716040830185611c6c565b60208101611bcc8284611c9b565b600060208252611e576020830184611ca9565b6020808252601a908201527f496e76616c696420656e747279206665652070726f7669646564000000000000604082015260600190565b6020808252603f908201527f456e7465726564207469636b6574732073686f756c64206e6f74206265206f7660408201527f657220746865206c696d6974207469636b657420627920616464726573732e00606082015260800190565b60208082526031908201527f4f6e6c792074686520636f6e74726163742063726561746f722063616e20657860408201527f6563757465207468697320616374696f6e000000000000000000000000000000606082015260800190565b6020808252603f908201527f4c6f74746572792068617320616c7265616479206265656e20636c6f7365642e60408201527f2057696e6e657273207765726520616c72656164792073656c65637465642e00606082015260800190565b60208082526015908201527f546865206c6f74746572792068617320656e6465640000000000000000000000604082015260600190565b60208082526025908201527f57696e6e6572732073656c656374696f6e20616c726561647920696e2070726f60408201527f6772657373000000000000000000000000000000000000000000000000000000606082015260800190565b6020808252818101527f57696e6e65722068617320616c7265616479206265656e2073656c6563746564604082015260600190565b60208082526025908201527f4f6e6c7920746865206f776e65722063616e206b696c6c207468697320636f6e60408201527f747261637400000000000000000000000000000000000000000000000000000060608201526080019056fea26469706673582212201faa5af34de18a6277662396d7c60b8bfc432b5f26a548eac9f7dbc0fd886f8264736f6c63430007060033a2646970667358221220913457846cdf5c827180c235bf0f77d133dffd054d56799439ea40689838d7fa64736f6c63430007060033",
  "immutableReferences": {},
  "source": "// SPDX-License-Identifier: MIT\r\npragma solidity ^0.7.0;\r\nimport \"../node_modules/@openzeppelin/contracts/math/SafeMath.sol\";\r\npragma experimental ABIEncoderV2;\r\nimport \"./Lottery.sol\";\r\n\r\ncontract LotteryBuilder {\r\n    using SafeMath for uint256;\r\n\r\n    // List of existing projects\r\n    Lottery[] private lotteries;\r\n    address payable public owner;\r\n\r\n    constructor() {\r\n        owner = msg.sender;\r\n    }\r\n\r\n    // Event that will be emitted whenever a new project is started\r\n    event ProjectStarted(\r\n        address contractAddress,\r\n        address deployer,\r\n        address projectStarter,\r\n        string projectTitle,\r\n        string projectDesc,\r\n        uint256 deadline,\r\n        uint256 ticketPrice,\r\n        uint256[] rewards,\r\n        uint256 limitTickets\r\n    );\r\n\r\n    /** @dev Function to start a new project.\r\n     * @param title Title of the project to be created\r\n     * @param description Brief description about the project\r\n     * @param deadlineDate Project deadline in days\r\n     * @param ticketPrice Project goal in wei\r\n     */\r\n    function startProject(\r\n        address payable creator,\r\n        string calldata title,\r\n        string calldata description,\r\n        uint256 deadlineDate,\r\n        uint256 ticketPrice,\r\n        uint256[] calldata rewards,\r\n        uint256 limitTickets\r\n    ) external {\r\n        uint256 totalPercent = 0;\r\n        for (uint256 i = 0; i < rewards.length; i++) {\r\n            totalPercent += rewards[i];\r\n        }\r\n        require(totalPercent == 100, \"The sum of prizes is not 100 (percent)\");\r\n        uint256 raiseUntil = deadlineDate;\r\n        Lottery newProject = new Lottery(\r\n            owner,\r\n            creator,\r\n            title,\r\n            description,\r\n            raiseUntil,\r\n            ticketPrice,\r\n            rewards,\r\n            limitTickets\r\n        );\r\n        lotteries.push(newProject);\r\n        emit ProjectStarted(\r\n            address(newProject),\r\n            owner,\r\n            creator,\r\n            title,\r\n            description,\r\n            raiseUntil,\r\n            ticketPrice,\r\n            rewards,\r\n            limitTickets\r\n        );\r\n    }\r\n\r\n    struct Winners {\r\n        uint256[] values;\r\n        address[] accounts;\r\n    }\r\n    mapping(uint256 => Winners) allWinners;\r\n\r\n    struct participated {\r\n        address lotteryAddress;\r\n        uint256 value;\r\n        uint256 ticketsAmount;\r\n        State state;\r\n        bool won;\r\n        uint256 amountWon;\r\n    }\r\n    mapping(uint256 => participated) participatedList;\r\n\r\n    function getOwner() public view returns (address) {\r\n        return owner;\r\n    }\r\n\r\n    function participatedByAddress(address _address)\r\n        public\r\n        returns (\r\n            address[] memory,\r\n            uint256[] memory,\r\n            uint256[] memory,\r\n            State[] memory,\r\n            bool[] memory,\r\n            uint256[] memory\r\n        )\r\n    {\r\n        uint256 participatedIndex = 0;\r\n        for (uint256 i = 0; i < lotteries.length; i++) {\r\n            Lottery ltr = lotteries[i];\r\n            address[] memory players = ltr.getPlayers();\r\n            for (uint256 j = 0; j < players.length; j++) {\r\n                if (players[j] == _address) {\r\n                    participated storage par = participatedList[\r\n                        participatedIndex\r\n                    ];\r\n                    par.lotteryAddress = ltr.getContractAddress();\r\n                    par.value = ltr.getContributed(_address);\r\n                    par.ticketsAmount = ltr.getEnteredTicketsByAccount(\r\n                        _address\r\n                    );\r\n                    par.state = ltr.getState();\r\n                    par.won = false;\r\n                    par.amountWon = 0;\r\n\r\n                    for (uint256 k = 0; k < ltr.getNumberOfWinners(); k++) {\r\n                        if (_address == ltr.getWinner(k)) {\r\n                            par.won = true;\r\n                            par.amountWon = ltr.getWinnerAmount(k);\r\n                        }\r\n                    }\r\n                    participatedIndex++;\r\n                }\r\n            }\r\n        }\r\n\r\n        address[] memory addrs = new address[](participatedIndex);\r\n        uint256[] memory funds = new uint256[](participatedIndex);\r\n        uint256[] memory tickets = new uint256[](participatedIndex);\r\n        State[] memory states = new State[](participatedIndex);\r\n        bool[] memory won = new bool[](participatedIndex);\r\n        uint256[] memory amountWon = new uint256[](participatedIndex);\r\n\r\n        for (uint256 i = 0; i < participatedIndex; i++) {\r\n            participated storage pa = participatedList[i];\r\n            addrs[i] = pa.lotteryAddress;\r\n            funds[i] = pa.value;\r\n            tickets[i] = pa.ticketsAmount;\r\n            states[i] = pa.state;\r\n            won[i] = pa.won;\r\n            amountWon[i] = pa.amountWon;\r\n        }\r\n\r\n        return (addrs, funds, tickets, states, won, amountWon);\r\n    }\r\n\r\n    // function getTotalSpent(address _address) external view returns (uint256) {\r\n    //     uint256 totalSpent = 0;\r\n    //     totalSpent = this.getRewardsWonByAddress(_address) - this.getSpentState(_address);\r\n    //     return totalSpent;\r\n    // }\r\n\r\n    function getSpentState(address _address) external view returns (uint256) {\r\n        uint256 spent = 0;\r\n\r\n        for (uint256 i = 0; i < lotteries.length; i++) {\r\n            Lottery ltr = lotteries[i];\r\n            spent = spent + uint256(ltr.getContributed(_address));\r\n        }\r\n\r\n        return spent;\r\n    }\r\n\r\n    function getRewardsWonByAddress(address _address)\r\n        external\r\n        view\r\n        returns (uint256)\r\n    {\r\n        uint256 rewardsWon = 0;\r\n\r\n        for (uint256 i = 0; i < lotteries.length; i++) {\r\n            Lottery ltr = lotteries[i];\r\n            rewardsWon =\r\n                uint256(rewardsWon) +\r\n                uint256(ltr.getRewardsByAccount(_address));\r\n        }\r\n        return rewardsWon;\r\n    }\r\n\r\n    event RevealLatestWinners(Winners[] _a);\r\n\r\n    function getLatestWinners() external view returns (Winners[] memory) {\r\n        Lottery[] memory closedLotteries = this.returnClosedProjects();\r\n\r\n        Winners[] memory winners = new Winners[](closedLotteries.length);\r\n        if (closedLotteries.length != 0) {\r\n            for (uint256 i = 0; i < closedLotteries.length; i++) {\r\n                Lottery ltr = closedLotteries[i];\r\n                (uint256[] memory values, address[] memory accounts) = ltr\r\n                    .revealWinners();\r\n                winners[i].values = values;\r\n                winners[i].accounts = accounts;\r\n            }\r\n        }\r\n        return winners;\r\n    }\r\n\r\n    function returnClosedProjects() external view returns (Lottery[] memory) {\r\n        return this.getProjectsByState(State.Closed);\r\n    }\r\n\r\n    function returnOpenProjects() external view returns (Lottery[] memory) {\r\n        return this.getProjectsByState(State.Open);\r\n    }\r\n\r\n    function getProjectsByState(State state)\r\n        external\r\n        view\r\n        returns (Lottery[] memory)\r\n    {\r\n        uint256 count = 0;\r\n        for (uint256 i = 0; i < lotteries.length; i++) {\r\n            Lottery ltr = lotteries[i];\r\n            if (ltr.getState() == state) {\r\n                count++;\r\n            }\r\n        }\r\n        Lottery[] memory ltrs = new Lottery[](count);\r\n        count = 0;\r\n        for (uint256 i = 0; i < lotteries.length; i++) {\r\n            Lottery ltr = lotteries[i];\r\n            if (ltr.getState() == state) {\r\n                ltrs[count] = ltr;\r\n                count++;\r\n            }\r\n        }\r\n        return ltrs;\r\n    }\r\n\r\n    /** @dev Function to get all projects' contract addresses.\r\n     * @return A list of all projects' contract addreses\r\n     */\r\n    function returnAllLotteries() external view returns (Lottery[] memory) {\r\n        return lotteries;\r\n    }\r\n}\r\n",
  "sourcePath": "C:\\fei\\projects\\lottery\\contracts\\LotteryBuilder.sol",
  "compiler": {
    "name": "solc",
    "version": "0.7.6+commit.7338295f.Emscripten.clang"
  },
  "schemaVersion": "3.4.7",
  "updatedAt": "2022-05-04T12:00:10.306Z",
  "networkType": "ethereum",
  "devdoc": {
    "kind": "dev",
    "methods": {
      "returnAllLotteries()": {
        "details": "Function to get all projects' contract addresses.",
        "returns": {
          "_0": "A list of all projects' contract addreses"
        }
      },
      "startProject(address,string,string,uint256,uint256,uint256[],uint256)": {
        "details": "Function to start a new project.",
        "params": {
          "deadlineDate": "Project deadline in days",
          "description": "Brief description about the project",
          "ticketPrice": "Project goal in wei",
          "title": "Title of the project to be created"
        }
      }
    },
    "version": 1
  },
  "userdoc": {
    "kind": "user",
    "methods": {},
    "version": 1
  }
}