{
  "contractName": "lotteryCreator",
  "abi": [
    {
      "anonymous": false,
      "inputs": [
        {
          "indexed": false,
          "internalType": "address",
          "name": "contractAddress",
          "type": "address"
        },
        {
          "indexed": false,
          "internalType": "address",
          "name": "projectStarter",
          "type": "address"
        },
        {
          "indexed": false,
          "internalType": "string",
          "name": "projectTitle",
          "type": "string"
        },
        {
          "indexed": false,
          "internalType": "string",
          "name": "projectDesc",
          "type": "string"
        },
        {
          "indexed": false,
          "internalType": "uint256",
          "name": "deadline",
          "type": "uint256"
        },
        {
          "indexed": false,
          "internalType": "uint256",
          "name": "ticketPrice",
          "type": "uint256"
        },
        {
          "indexed": false,
          "internalType": "uint256",
          "name": "numberWinners",
          "type": "uint256"
        },
        {
          "indexed": false,
          "internalType": "uint256[]",
          "name": "rewards",
          "type": "uint256[]"
        },
        {
          "indexed": false,
          "internalType": "uint256",
          "name": "limitTickets",
          "type": "uint256"
        }
      ],
      "name": "ProjectStarted",
      "type": "event"
    },
    {
      "anonymous": false,
      "inputs": [
        {
          "components": [
            {
              "internalType": "uint256[]",
              "name": "values",
              "type": "uint256[]"
            },
            {
              "internalType": "address[]",
              "name": "accounts",
              "type": "address[]"
            }
          ],
          "indexed": false,
          "internalType": "struct lotteryCreator.Winners[]",
          "name": "_a",
          "type": "tuple[]"
        }
      ],
      "name": "RevealLatestWinners",
      "type": "event"
    },
    {
      "inputs": [
        {
          "internalType": "address payable",
          "name": "owner",
          "type": "address"
        },
        {
          "internalType": "string",
          "name": "title",
          "type": "string"
        },
        {
          "internalType": "string",
          "name": "description",
          "type": "string"
        },
        {
          "internalType": "uint256",
          "name": "deadlineDate",
          "type": "uint256"
        },
        {
          "internalType": "uint256",
          "name": "ticketPrice",
          "type": "uint256"
        },
        {
          "internalType": "uint256",
          "name": "numberWinners",
          "type": "uint256"
        },
        {
          "internalType": "uint256[]",
          "name": "rewards",
          "type": "uint256[]"
        },
        {
          "internalType": "uint256",
          "name": "limitTickets",
          "type": "uint256"
        }
      ],
      "name": "startProject",
      "outputs": [],
      "stateMutability": "nonpayable",
      "type": "function"
    },
    {
      "inputs": [
        {
          "internalType": "address",
          "name": "_address",
          "type": "address"
        }
      ],
      "name": "participatedByAddress",
      "outputs": [
        {
          "internalType": "address[]",
          "name": "",
          "type": "address[]"
        },
        {
          "internalType": "uint256[]",
          "name": "",
          "type": "uint256[]"
        },
        {
          "internalType": "uint256[]",
          "name": "",
          "type": "uint256[]"
        },
        {
          "internalType": "enum State[]",
          "name": "",
          "type": "uint8[]"
        },
        {
          "internalType": "bool[]",
          "name": "",
          "type": "bool[]"
        },
        {
          "internalType": "uint256[]",
          "name": "",
          "type": "uint256[]"
        }
      ],
      "stateMutability": "nonpayable",
      "type": "function"
    },
    {
      "inputs": [
        {
          "internalType": "address",
          "name": "_address",
          "type": "address"
        }
      ],
      "name": "getSpentState",
      "outputs": [
        {
          "internalType": "uint256",
          "name": "",
          "type": "uint256"
        }
      ],
      "stateMutability": "view",
      "type": "function",
      "constant": true
    },
    {
      "inputs": [
        {
          "internalType": "address",
          "name": "_address",
          "type": "address"
        }
      ],
      "name": "getRewardsWonByAddress",
      "outputs": [
        {
          "internalType": "uint256",
          "name": "",
          "type": "uint256"
        }
      ],
      "stateMutability": "view",
      "type": "function",
      "constant": true
    },
    {
      "inputs": [],
      "name": "getLatestWinners",
      "outputs": [
        {
          "components": [
            {
              "internalType": "uint256[]",
              "name": "values",
              "type": "uint256[]"
            },
            {
              "internalType": "address[]",
              "name": "accounts",
              "type": "address[]"
            }
          ],
          "internalType": "struct lotteryCreator.Winners[]",
          "name": "",
          "type": "tuple[]"
        }
      ],
      "stateMutability": "view",
      "type": "function",
      "constant": true
    },
    {
      "inputs": [],
      "name": "returnClosedProjects",
      "outputs": [
        {
          "internalType": "contract Lottery[]",
          "name": "",
          "type": "address[]"
        }
      ],
      "stateMutability": "view",
      "type": "function",
      "constant": true
    },
    {
      "inputs": [],
      "name": "returnOpenProjects",
      "outputs": [
        {
          "internalType": "contract Lottery[]",
          "name": "",
          "type": "address[]"
        }
      ],
      "stateMutability": "view",
      "type": "function",
      "constant": true
    },
    {
      "inputs": [
        {
          "internalType": "enum State",
          "name": "state",
          "type": "uint8"
        }
      ],
      "name": "getProjectsByState",
      "outputs": [
        {
          "internalType": "contract Lottery[]",
          "name": "",
          "type": "address[]"
        }
      ],
      "stateMutability": "view",
      "type": "function",
      "constant": true
    },
    {
      "inputs": [],
      "name": "returnAllLotteries",
      "outputs": [
        {
          "internalType": "contract Lottery[]",
          "name": "",
          "type": "address[]"
        }
      ],
      "stateMutability": "view",
      "type": "function",
      "constant": true
    }
  ],
  "bytecode": "0x608060405234801561001057600080fd5b506151e8806100206000396000f3fe60806040523480156200001157600080fd5b5060043610620000a05760003560e01c80638b3645ee116200006f5780638b3645ee1462000158578063c5d8668f146200017a578063c934d758146200019c578063e184794c14620001d2578063eb1f0445146200020857620000a0565b8063180a1d1614620000a55780632c9d406014620000e05780632f771ef614620001025780637e5782941462000138575b600080fd5b620000c36004803603810190620000bd9190620018c7565b6200022a565b604051620000d796959493929190620022bd565b60405180910390f35b620000ea62000bd6565b604051620000f9919062002354565b60405180910390f35b6200012060048036038101906200011a919062001b38565b62000c66565b6040516200012f919062002354565b60405180910390f35b6200015660048036038101906200015091906200191f565b62000f1c565b005b6200016262001033565b60405162000171919062002378565b60405180910390f35b620001846200122f565b60405162000193919062002354565b60405180910390f35b620001ba6004803603810190620001b49190620018c7565b620012cb565b604051620001c99190620023b9565b60405180910390f35b620001f06004803603810190620001ea9190620018c7565b620013cb565b604051620001ff9190620023b9565b60405180910390f35b62000212620014cb565b60405162000221919062002354565b60405180910390f35b6060806060806060806000805b600080549050811015620008765760008082815481106200025457fe5b9060005260206000200160009054906101000a900473ffffffffffffffffffffffffffffffffffffffff16905060008173ffffffffffffffffffffffffffffffffffffffff16638b5b9ccc6040518163ffffffff1660e01b815260040160006040518083038186803b158015620002ca57600080fd5b505afa158015620002df573d6000803e3d6000fd5b505050506040513d6000823e3d601f19601f820116820180604052508101906200030a919062001a3b565b905060005b815181101562000865578b73ffffffffffffffffffffffffffffffffffffffff168282815181106200033d57fe5b602002602001015173ffffffffffffffffffffffffffffffffffffffff161415620008575760006003600087815260200190815260200160002090508373ffffffffffffffffffffffffffffffffffffffff166332a2c5d06040518163ffffffff1660e01b815260040160206040518083038186803b158015620003c057600080fd5b505afa158015620003d5573d6000803e3d6000fd5b505050506040513d601f19601f82011682018060405250810190620003fb9190620018f3565b8160000160006101000a81548173ffffffffffffffffffffffffffffffffffffffff021916908373ffffffffffffffffffffffffffffffffffffffff1602179055508373ffffffffffffffffffffffffffffffffffffffff16634de58efe8e6040518263ffffffff1660e01b81526004016200047891906200213d565b60206040518083038186803b1580156200049157600080fd5b505afa158015620004a6573d6000803e3d6000fd5b505050506040513d601f19601f82011682018060405250810190620004cc919062001b90565b81600101819055508373ffffffffffffffffffffffffffffffffffffffff16630e0b0f438e6040518263ffffffff1660e01b81526004016200050f91906200213d565b60206040518083038186803b1580156200052857600080fd5b505afa1580156200053d573d6000803e3d6000fd5b505050506040513d601f19601f8201168201806040525081019062000563919062001b90565b81600201819055508373ffffffffffffffffffffffffffffffffffffffff16631865c57d6040518163ffffffff1660e01b815260040160206040518083038186803b158015620005b257600080fd5b505afa158015620005c7573d6000803e3d6000fd5b505050506040513d601f19601f82011682018060405250810190620005ed919062001b64565b8160030160006101000a81548160ff021916908360028111156200060d57fe5b021790555060008160030160016101000a81548160ff0219169083151502179055506000816004018190555060005b8473ffffffffffffffffffffffffffffffffffffffff16638e33cffc6040518163ffffffff1660e01b815260040160206040518083038186803b1580156200068357600080fd5b505afa15801562000698573d6000803e3d6000fd5b505050506040513d601f19601f82011682018060405250810190620006be919062001b90565b8110156200084c578473ffffffffffffffffffffffffffffffffffffffff16634129b2c9826040518263ffffffff1660e01b8152600401620007019190620023b9565b60206040518083038186803b1580156200071a57600080fd5b505afa1580156200072f573d6000803e3d6000fd5b505050506040513d601f19601f82011682018060405250810190620007559190620018f3565b73ffffffffffffffffffffffffffffffffffffffff168e73ffffffffffffffffffffffffffffffffffffffff1614156200083e5760018260030160016101000a81548160ff0219169083151502179055508473ffffffffffffffffffffffffffffffffffffffff1663f7feb20d826040518263ffffffff1660e01b8152600401620007e19190620023b9565b60206040518083038186803b158015620007fa57600080fd5b505afa1580156200080f573d6000803e3d6000fd5b505050506040513d601f19601f8201168201806040525081019062000835919062001b90565b82600401819055505b80806001019150506200063c565b508580600101965050505b80806001019150506200030f565b505050808060010191505062000237565b5060008167ffffffffffffffff811180156200089157600080fd5b50604051908082528060200260200182016040528015620008c15781602001602082028036833780820191505090505b50905060008267ffffffffffffffff81118015620008de57600080fd5b506040519080825280602002602001820160405280156200090e5781602001602082028036833780820191505090505b50905060008367ffffffffffffffff811180156200092b57600080fd5b506040519080825280602002602001820160405280156200095b5781602001602082028036833780820191505090505b50905060008467ffffffffffffffff811180156200097857600080fd5b50604051908082528060200260200182016040528015620009a85781602001602082028036833780820191505090505b50905060008567ffffffffffffffff81118015620009c557600080fd5b50604051908082528060200260200182016040528015620009f55781602001602082028036833780820191505090505b50905060008667ffffffffffffffff8111801562000a1257600080fd5b5060405190808252806020026020018201604052801562000a425781602001602082028036833780820191505090505b50905060005b8781101562000bb35760006003600083815260200190815260200160002090508060000160009054906101000a900473ffffffffffffffffffffffffffffffffffffffff1688838151811062000a9a57fe5b602002602001019073ffffffffffffffffffffffffffffffffffffffff16908173ffffffffffffffffffffffffffffffffffffffff1681525050806001015487838151811062000ae657fe5b602002602001018181525050806002015486838151811062000b0457fe5b6020026020010181815250508060030160009054906101000a900460ff1685838151811062000b2f57fe5b6020026020010190600281111562000b4357fe5b9081600281111562000b5157fe5b815250508060030160019054906101000a900460ff1684838151811062000b7457fe5b602002602001019015159081151581525050806004015483838151811062000b9857fe5b60200260200101818152505050808060010191505062000a48565b508585858585859c509c509c509c509c509c505050505050505091939550919395565b6060600080548060200260200160405190810160405280929190818152602001828054801562000c5c57602002820191906000526020600020905b8160009054906101000a900473ffffffffffffffffffffffffffffffffffffffff1673ffffffffffffffffffffffffffffffffffffffff168152602001906001019080831162000c11575b5050505050905090565b60606000805b60008054905081101562000d7057600080828154811062000c8957fe5b9060005260206000200160009054906101000a900473ffffffffffffffffffffffffffffffffffffffff16905084600281111562000cc357fe5b8173ffffffffffffffffffffffffffffffffffffffff16631865c57d6040518163ffffffff1660e01b815260040160206040518083038186803b15801562000d0a57600080fd5b505afa15801562000d1f573d6000803e3d6000fd5b505050506040513d601f19601f8201168201806040525081019062000d45919062001b64565b600281111562000d5157fe5b141562000d615782806001019350505b50808060010191505062000c6c565b5060008167ffffffffffffffff8111801562000d8b57600080fd5b5060405190808252806020026020018201604052801562000dbb5781602001602082028036833780820191505090505b5090506000915060005b60008054905081101562000f1157600080828154811062000de257fe5b9060005260206000200160009054906101000a900473ffffffffffffffffffffffffffffffffffffffff16905085600281111562000e1c57fe5b8173ffffffffffffffffffffffffffffffffffffffff16631865c57d6040518163ffffffff1660e01b815260040160206040518083038186803b15801562000e6357600080fd5b505afa15801562000e78573d6000803e3d6000fd5b505050506040513d601f19601f8201168201806040525081019062000e9e919062001b64565b600281111562000eaa57fe5b141562000f02578083858151811062000ebf57fe5b602002602001019073ffffffffffffffffffffffffffffffffffffffff16908173ffffffffffffffffffffffffffffffffffffffff168152505083806001019450505b50808060010191505062000dc5565b508092505050919050565b600086905060008c8c8c8c8c868c8c8c8c8c60405162000f3c9062001567565b62000f529b9a999897969594939291906200215a565b604051809103906000f08015801562000f6f573d6000803e3d6000fd5b5090506000819080600181540180825580915050600190039060005260206000200160009091909190916101000a81548173ffffffffffffffffffffffffffffffffffffffff021916908373ffffffffffffffffffffffffffffffffffffffff1602179055507fc33b89565476136c799a7e92716fc3daaaafd9783944de47647ed9b3ffe122fe818e8e8e8e8e888e8e8e8e8e6040516200101c9c9b9a9998979695949392919062002203565b60405180910390a150505050505050505050505050565b606060003073ffffffffffffffffffffffffffffffffffffffff1663c5d8668f6040518163ffffffff1660e01b815260040160006040518083038186803b1580156200107e57600080fd5b505afa15801562001093573d6000803e3d6000fd5b505050506040513d6000823e3d601f19601f82011682018060405250810190620010be919062001a80565b90506000815167ffffffffffffffff81118015620010db57600080fd5b506040519080825280602002602001820160405280156200111957816020015b6200110562001575565b815260200190600190039081620010fb5790505b5090506000825114620012275760005b8251811015620012255760008382815181106200114257fe5b602002602001015190506000808273ffffffffffffffffffffffffffffffffffffffff1663952587d66040518163ffffffff1660e01b815260040160006040518083038186803b1580156200119657600080fd5b505afa158015620011ab573d6000803e3d6000fd5b505050506040513d6000823e3d601f19601f82011682018060405250810190620011d6919062001ac5565b9150915081858581518110620011e857fe5b602002602001015160000181905250808585815181106200120557fe5b602002602001015160200181905250505050808060010191505062001129565b505b809250505090565b60603073ffffffffffffffffffffffffffffffffffffffff16632f771ef660016040518263ffffffff1660e01b81526004016200126d91906200239c565b60006040518083038186803b1580156200128657600080fd5b505afa1580156200129b573d6000803e3d6000fd5b505050506040513d6000823e3d601f19601f82011682018060405250810190620012c6919062001a80565b905090565b6000806000905060005b600080549050811015620013c1576000808281548110620012f257fe5b9060005260206000200160009054906101000a900473ffffffffffffffffffffffffffffffffffffffff1690508073ffffffffffffffffffffffffffffffffffffffff16634de58efe866040518263ffffffff1660e01b81526004016200135a91906200213d565b60206040518083038186803b1580156200137357600080fd5b505afa15801562001388573d6000803e3d6000fd5b505050506040513d601f19601f82011682018060405250810190620013ae919062001b90565b83019250508080600101915050620012d5565b5080915050919050565b6000806000905060005b600080549050811015620014c1576000808281548110620013f257fe5b9060005260206000200160009054906101000a900473ffffffffffffffffffffffffffffffffffffffff1690508073ffffffffffffffffffffffffffffffffffffffff1663a6a031b9866040518263ffffffff1660e01b81526004016200145a91906200213d565b60206040518083038186803b1580156200147357600080fd5b505afa15801562001488573d6000803e3d6000fd5b505050506040513d601f19601f82011682018060405250810190620014ae919062001b90565b83019250508080600101915050620013d5565b5080915050919050565b60603073ffffffffffffffffffffffffffffffffffffffff16632f771ef660006040518263ffffffff1660e01b81526004016200150991906200239c565b60006040518083038186803b1580156200152257600080fd5b505afa15801562001537573d6000803e3d6000fd5b505050506040513d6000823e3d601f19601f8201168201806040525081019062001562919062001a80565b905090565b6129f280620027c183390190565b604051806040016040528060608152602001606081525090565b6000620015a6620015a0846200240a565b620023d6565b90508083825260208201905082856020860282011115620015c657600080fd5b60005b85811015620015fa5781620015df888262001705565b845260208401935060208301925050600181019050620015c9565b5050509392505050565b60006200161b620016158462002439565b620023d6565b905080838252602082019050828560208602820111156200163b57600080fd5b60005b858110156200166f578162001654888262001807565b8452602084019350602083019250506001810190506200163e565b5050509392505050565b6000620016906200168a8462002468565b620023d6565b90508083825260208201905082856020860282011115620016b057600080fd5b60005b85811015620016e45781620016c98882620018b0565b845260208401935060208301925050600181019050620016b3565b5050509392505050565b600081359050620016ff8162002747565b92915050565b600081519050620017168162002747565b92915050565b6000813590506200172d8162002761565b92915050565b600082601f8301126200174557600080fd5b8151620017578482602086016200158f565b91505092915050565b600082601f8301126200177257600080fd5b81516200178484826020860162001604565b91505092915050565b60008083601f840112620017a057600080fd5b8235905067ffffffffffffffff811115620017ba57600080fd5b602083019150836020820283011115620017d357600080fd5b9250929050565b600082601f830112620017ec57600080fd5b8151620017fe84826020860162001679565b91505092915050565b60008151905062001818816200277b565b92915050565b6000813590506200182f8162002795565b92915050565b600081519050620018468162002795565b92915050565b60008083601f8401126200185f57600080fd5b8235905067ffffffffffffffff8111156200187957600080fd5b6020830191508360018202830111156200189257600080fd5b9250929050565b600081359050620018aa81620027a6565b92915050565b600081519050620018c181620027a6565b92915050565b600060208284031215620018da57600080fd5b6000620018ea84828501620016ee565b91505092915050565b6000602082840312156200190657600080fd5b6000620019168482850162001705565b91505092915050565b60008060008060008060008060008060006101008c8e0312156200194257600080fd5b6000620019528e828f016200171c565b9b505060208c013567ffffffffffffffff8111156200197057600080fd5b6200197e8e828f016200184c565b9a509a505060408c013567ffffffffffffffff8111156200199e57600080fd5b620019ac8e828f016200184c565b98509850506060620019c18e828f0162001899565b9650506080620019d48e828f0162001899565b95505060a0620019e78e828f0162001899565b94505060c08c013567ffffffffffffffff81111562001a0557600080fd5b62001a138e828f016200178d565b935093505060e062001a288e828f0162001899565b9150509295989b509295989b9093969950565b60006020828403121562001a4e57600080fd5b600082015167ffffffffffffffff81111562001a6957600080fd5b62001a778482850162001733565b91505092915050565b60006020828403121562001a9357600080fd5b600082015167ffffffffffffffff81111562001aae57600080fd5b62001abc8482850162001760565b91505092915050565b6000806040838503121562001ad957600080fd5b600083015167ffffffffffffffff81111562001af457600080fd5b62001b0285828601620017da565b925050602083015167ffffffffffffffff81111562001b2057600080fd5b62001b2e8582860162001733565b9150509250929050565b60006020828403121562001b4b57600080fd5b600062001b5b848285016200181e565b91505092915050565b60006020828403121562001b7757600080fd5b600062001b878482850162001835565b91505092915050565b60006020828403121562001ba357600080fd5b600062001bb384828501620018b0565b91505092915050565b600062001bca838362001c76565b60208301905092915050565b600062001be483836200205c565b60208301905092915050565b600062001bfe83836200206d565b60208301905092915050565b600062001c1883836200207e565b60208301905092915050565b600062001c328383620020d3565b905092915050565b600062001c4883836200211b565b60208301905092915050565b62001c5f8162002696565b82525050565b62001c708162002623565b82525050565b62001c81816200260f565b82525050565b62001c92816200260f565b82525050565b600062001ca582620024f7565b62001cb1818562002587565b935062001cbe8362002497565b8060005b8381101562001cf557815162001cd9888262001bbc565b975062001ce68362002539565b92505060018101905062001cc2565b5085935050505092915050565b600062001d0f82620024f7565b62001d1b818562002598565b935062001d288362002497565b8060005b8381101562001d5f57815162001d43888262001bbc565b975062001d508362002539565b92505060018101905062001d2c565b5085935050505092915050565b600062001d798262002502565b62001d858185620025a9565b935062001d9283620024a7565b8060005b8381101562001dc957815162001dad888262001bd6565b975062001dba8362002546565b92505060018101905062001d96565b5085935050505092915050565b600062001de3826200250d565b62001def818562002598565b935062001dfc83620024b7565b8060005b8381101562001e3357815162001e17888262001bf0565b975062001e248362002553565b92505060018101905062001e00565b5085935050505092915050565b600062001e4d8262002518565b62001e598185620025ed565b935062001e6683620024c7565b8060005b8381101562001e9d57815162001e81888262001c0a565b975062001e8e8362002560565b92505060018101905062001e6a565b5085935050505092915050565b600062001eb78262002523565b62001ec38185620025ba565b93508360208202850162001ed785620024d7565b8060005b8581101562001f19578484038952815162001ef7858262001c24565b945062001f04836200256d565b925060208a0199505060018101905062001edb565b50829750879550505050505092915050565b600062001f398385620025dc565b93507f07ffffffffffffffffffffffffffffffffffffffffffffffffffffffffffffff83111562001f6957600080fd5b60208302925062001f7c8385846200270e565b82840190509392505050565b600062001f95826200252e565b62001fa18185620025cb565b935062001fae83620024e7565b8060005b8381101562001fe557815162001fc9888262001c3a565b975062001fd6836200257a565b92505060018101905062001fb2565b5085935050505092915050565b600062001fff826200252e565b6200200b8185620025dc565b93506200201883620024e7565b8060005b838110156200204f57815162002033888262001c3a565b975062002040836200257a565b9250506001810190506200201c565b5085935050505092915050565b620020678162002637565b82525050565b6200207881620026aa565b82525050565b6200208981620026d2565b82525050565b6200209a81620026d2565b82525050565b6000620020ae8385620025fe565b9350620020bd8385846200270e565b620020c8836200271f565b840190509392505050565b60006040830160008301518482036000860152620020f2828262001f88565b915050602083015184820360208601526200210e828262001c98565b9150508091505092915050565b62002126816200268c565b82525050565b62002137816200268c565b82525050565b600060208201905062002154600083018462001c87565b92915050565b60006101008201905062002172600083018e62001c65565b818103602083015262002187818c8e620020a0565b905081810360408301526200219e818a8c620020a0565b9050620021af60608301896200212c565b620021be60808301886200212c565b620021cd60a08301876200212c565b81810360c0830152620021e281858762001f2b565b9050620021f360e08301846200212c565b9c9b505050505050505050505050565b6000610120820190506200221b600083018f62001c87565b6200222a602083018e62001c54565b81810360408301526200223f818c8e620020a0565b9050818103606083015262002256818a8c620020a0565b90506200226760808301896200212c565b6200227660a08301886200212c565b6200228560c08301876200212c565b81810360e08301526200229a81858762001f2b565b9050620022ac6101008301846200212c565b9d9c50505050505050505050505050565b600060c0820190508181036000830152620022d9818962001d02565b90508181036020830152620022ef818862001ff2565b9050818103604083015262002305818762001ff2565b905081810360608301526200231b818662001e40565b9050818103608083015262002331818562001d6c565b905081810360a083015262002347818462001ff2565b9050979650505050505050565b6000602082019050818103600083015262002370818462001dd6565b905092915050565b6000602082019050818103600083015262002394818462001eaa565b905092915050565b6000602082019050620023b360008301846200208f565b92915050565b6000602082019050620023d060008301846200212c565b92915050565b6000604051905081810181811067ffffffffffffffff821117156200240057620023ff6200271d565b5b8060405250919050565b600067ffffffffffffffff8211156200242857620024276200271d565b5b602082029050602081019050919050565b600067ffffffffffffffff8211156200245757620024566200271d565b5b602082029050602081019050919050565b600067ffffffffffffffff8211156200248657620024856200271d565b5b602082029050602081019050919050565b6000819050602082019050919050565b6000819050602082019050919050565b6000819050602082019050919050565b6000819050602082019050919050565b6000819050602082019050919050565b6000819050602082019050919050565b600081519050919050565b600081519050919050565b600081519050919050565b600081519050919050565b600081519050919050565b600081519050919050565b6000602082019050919050565b6000602082019050919050565b6000602082019050919050565b6000602082019050919050565b6000602082019050919050565b6000602082019050919050565b600082825260208201905092915050565b600082825260208201905092915050565b600082825260208201905092915050565b600082825260208201905092915050565b600082825260208201905092915050565b600082825260208201905092915050565b600082825260208201905092915050565b600082825260208201905092915050565b60006200261c826200266c565b9050919050565b600062002630826200266c565b9050919050565b60008115159050919050565b600062002650826200260f565b9050919050565b6000819050620026678262002730565b919050565b600073ffffffffffffffffffffffffffffffffffffffff82169050919050565b6000819050919050565b6000620026a382620026e6565b9050919050565b6000620026b782620026be565b9050919050565b6000620026cb826200266c565b9050919050565b6000620026df8262002657565b9050919050565b6000620026f382620026fa565b9050919050565b600062002707826200266c565b9050919050565b82818337600083830152505050565bfe5b6000601f19601f8301169050919050565b600381106200274457620027436200271d565b5b50565b62002752816200260f565b81146200275e57600080fd5b50565b6200276c8162002623565b81146200277857600080fd5b50565b620027868162002643565b81146200279257600080fd5b50565b60038110620027a357600080fd5b50565b620027b1816200268c565b8114620027bd57600080fd5b5056fe60806040526000600760006101000a81548160ff021916908360028111156200002457fe5b02179055503480156200003657600080fd5b50604051620029f2380380620029f283398181016040528101906200005c91906200036a565b876000806101000a81548173ffffffffffffffffffffffffffffffffffffffff021916908373ffffffffffffffffffffffffffffffffffffffff1602179055508660059080519060200190620000b492919062000120565b508560069080519060200190620000cd92919062000120565b50836001819055508460048190555060006003819055504260028190555082600c8190555081600d90805190602001906200010a929190620001b7565b5080600e819055505050505050505050620005b8565b828054600181600116156101000203166002900490600052602060002090601f016020900481019282620001585760008555620001a4565b82601f106200017357805160ff1916838001178555620001a4565b82800160010185558215620001a4579182015b82811115620001a357825182559160200191906001019062000186565b5b509050620001b3919062000209565b5090565b828054828255906000526020600020908101928215620001f6579160200282015b82811115620001f5578251825591602001919060010190620001d8565b5b50905062000205919062000209565b5090565b5b80821115620002245760008160009055506001016200020a565b5090565b60006200023f6200023984620004ac565b62000478565b905080838252602082019050828560208602820111156200025f57600080fd5b60005b8581101562000293578162000278888262000353565b84526020840193506020830192505060018101905062000262565b5050509392505050565b6000620002b4620002ae84620004db565b62000478565b905082815260208101848484011115620002cd57600080fd5b620002da8482856200054c565b509392505050565b600081519050620002f38162000584565b92915050565b600082601f8301126200030b57600080fd5b81516200031d84826020860162000228565b91505092915050565b600082601f8301126200033857600080fd5b81516200034a8482602086016200029d565b91505092915050565b60008151905062000364816200059e565b92915050565b600080600080600080600080610100898b0312156200038857600080fd5b6000620003988b828c01620002e2565b985050602089015167ffffffffffffffff811115620003b657600080fd5b620003c48b828c0162000326565b975050604089015167ffffffffffffffff811115620003e257600080fd5b620003f08b828c0162000326565b9650506060620004038b828c0162000353565b9550506080620004168b828c0162000353565b94505060a0620004298b828c0162000353565b93505060c089015167ffffffffffffffff8111156200044757600080fd5b620004558b828c01620002f9565b92505060e0620004688b828c0162000353565b9150509295985092959890939650565b6000604051905081810181811067ffffffffffffffff82111715620004a257620004a162000582565b5b8060405250919050565b600067ffffffffffffffff821115620004ca57620004c962000582565b5b602082029050602081019050919050565b600067ffffffffffffffff821115620004f957620004f862000582565b5b601f19601f8301169050602081019050919050565b60006200051b8262000522565b9050919050565b600073ffffffffffffffffffffffffffffffffffffffff82169050919050565b6000819050919050565b60005b838110156200056c5780820151818401526020810190506200054f565b838111156200057c576000848401525b50505050565bfe5b6200058f816200050e565b81146200059b57600080fd5b50565b620005a98162000542565b8114620005b557600080fd5b50565b61242a80620005c86000396000f3fe6080604052600436106101e35760003560e01c80635d495aea11610102578063952587d611610095578063e75582a411610064578063e75582a41461072c578063f301af4214610755578063f71d96cb14610792578063f7feb20d146107cf576101e3565b8063952587d61461066d578063a6a031b914610699578063c19d93fb146106d6578063ce845d1d14610701576101e3565b8063893d20e8116100d1578063893d20e8146105c15780638acfaca9146105ec5780638b5b9ccc146106175780638e33cffc14610642576101e3565b80635d495aea1461052457806364c165341461052e578063685f9bf5146105595780637284e41614610596576101e3565b8063325a19f11161017a57806344ed63f61161014957806344ed63f6146104535780634a79d50c1461047f5780634de58efe146104aa57806350b44712146104e7576101e3565b8063325a19f11461038357806332a2c5d0146103ae578063403d1312146103d95780634129b2c914610416576101e3565b80631f6d4942116101b65780631f6d4942146102b8578063298ec208146102f557806329dcb0cf1461031157806330289c611461033c576101e3565b806302d05d3f146101e85780630e0b0f431461021357806312243b67146102505780631865c57d1461028d575b600080fd5b3480156101f457600080fd5b506101fd61080c565b60405161020a9190611faf565b60405180910390f35b34801561021f57600080fd5b5061023a60048036038101906102359190611c49565b610830565b6040516102479190612172565b60405180910390f35b34801561025c57600080fd5b5061027760048036038101906102729190611c49565b6108d2565b604051610284919061211a565b60405180910390f35b34801561029957600080fd5b506102a26109ae565b6040516102af9190612135565b60405180910390f35b3480156102c457600080fd5b506102df60048036038101906102da9190611c49565b6109c5565b6040516102ec9190612172565b60405180910390f35b61030f600480360381019061030a9190611cc4565b6109dd565b005b34801561031d57600080fd5b50610326610d0e565b6040516103339190612172565b60405180910390f35b34801561034857600080fd5b50610363600480360381019061035e9190611c49565b610d14565b60405161037a9b9a99989796959493929190611fca565b60405180910390f35b34801561038f57600080fd5b50610398610f53565b6040516103a59190612172565b60405180910390f35b3480156103ba57600080fd5b506103c3610f59565b6040516103d09190611f79565b60405180910390f35b3480156103e557600080fd5b5061040060048036038101906103fb9190611c72565b610f61565b60405161040d9190612172565b60405180910390f35b34801561042257600080fd5b5061043d60048036038101906104389190611c72565b610f85565b60405161044a9190611f79565b60405180910390f35b34801561045f57600080fd5b50610468610fc5565b6040516104769291906120ac565b60405180910390f35b34801561048b57600080fd5b506104946110de565b6040516104a19190612150565b60405180910390f35b3480156104b657600080fd5b506104d160048036038101906104cc9190611c49565b61117c565b6040516104de9190612172565b60405180910390f35b3480156104f357600080fd5b5061050e60048036038101906105099190611c72565b6111c5565b60405161051b9190611f79565b60405180910390f35b61052c611204565b005b34801561053a57600080fd5b50610543611560565b6040516105509190612172565b60405180910390f35b34801561056557600080fd5b50610580600480360381019061057b9190611c49565b611566565b60405161058d9190612172565b60405180910390f35b3480156105a257600080fd5b506105ab61160a565b6040516105b89190612150565b60405180910390f35b3480156105cd57600080fd5b506105d66116a8565b6040516105e39190611f79565b60405180910390f35b3480156105f857600080fd5b506106016116d1565b60405161060e9190612172565b60405180910390f35b34801561062357600080fd5b5061062c6116d7565b604051610639919061208a565b60405180910390f35b34801561064e57600080fd5b50610657611765565b6040516106649190612172565b60405180910390f35b34801561067957600080fd5b5061068261176f565b6040516106909291906120e3565b60405180910390f35b3480156106a557600080fd5b506106c060048036038101906106bb9190611c49565b6118ea565b6040516106cd9190612172565b60405180910390f35b3480156106e257600080fd5b506106eb61198f565b6040516106f89190612135565b60405180910390f35b34801561070d57600080fd5b506107166119a2565b6040516107239190612172565b60405180910390f35b34801561073857600080fd5b50610753600480360381019061074e9190611c49565b6119a8565b005b34801561076157600080fd5b5061077c60048036038101906107779190611c72565b611a5d565b6040516107899190612172565b60405180910390f35b34801561079e57600080fd5b506107b960048036038101906107b49190611c72565b611a81565b6040516107c69190611f79565b60405180910390f35b3480156107db57600080fd5b506107f660048036038101906107f19190611c72565b611ac0565b6040516108039190612172565b60405180910390f35b60008054906101000a900473ffffffffffffffffffffffffffffffffffffffff1681565b6000806000905060005b600a805490508110156108c857600a818154811061085457fe5b9060005260206000200160009054906101000a900473ffffffffffffffffffffffffffffffffffffffff1673ffffffffffffffffffffffffffffffffffffffff168473ffffffffffffffffffffffffffffffffffffffff1614156108bb5781806001019250505b808060010191505061083a565b5080915050919050565b600080600090505b6009805490508110156109a3578273ffffffffffffffffffffffffffffffffffffffff166009828154811061090b57fe5b9060005260206000200160009054906101000a900473ffffffffffffffffffffffffffffffffffffffff1673ffffffffffffffffffffffffffffffffffffffff161415610996576009818154811061095f57fe5b9060005260206000200160006101000a81549073ffffffffffffffffffffffffffffffffffffffff021916905560019150506109a9565b80806001019150506108da565b50600090505b919050565b6000600760009054906101000a900460ff16905090565b60086020528060005260406000206000915090505481565b60045442106109eb57600080fd5b600082116109f857600080fd5b6000813073ffffffffffffffffffffffffffffffffffffffff16630e0b0f43336040518263ffffffff1660e01b8152600401610a349190611f94565b60206040518083038186803b158015610a4c57600080fd5b505afa158015610a60573d6000803e3d6000fd5b505050506040513d601f19601f82011682018060405250810190610a849190611c9b565b01905080600e541015610a9657600080fd5b610ae883600860003373ffffffffffffffffffffffffffffffffffffffff1673ffffffffffffffffffffffffffffffffffffffff16815260200190815260200160002054611ae090919063ffffffff16565b600860003373ffffffffffffffffffffffffffffffffffffffff1673ffffffffffffffffffffffffffffffffffffffff16815260200190815260200160002081905550610b4083600354611ae090919063ffffffff16565b60038190555060005b82811015610bc157600a339080600181540180825580915050600190039060005260206000200160009091909190916101000a81548173ffffffffffffffffffffffffffffffffffffffff021916908373ffffffffffffffffffffffffffffffffffffffff1602179055508080600101915050610b49565b506000805b600980549050811015610c505760098181548110610be057fe5b9060005260206000200160009054906101000a900473ffffffffffffffffffffffffffffffffffffffff1673ffffffffffffffffffffffffffffffffffffffff163373ffffffffffffffffffffffffffffffffffffffff161415610c4357600191505b8080600101915050610bc6565b5080610cba576009339080600181540180825580915050600190039060005260206000200160009091909190916101000a81548173ffffffffffffffffffffffffffffffffffffffff021916908373ffffffffffffffffffffffffffffffffffffffff1602179055505b3373ffffffffffffffffffffffffffffffffffffffff167f69ca02dd4edd7bf0a4abb9ed3b7af3f14778db5d61921c7dc7cd545266326de285604051610d009190612172565b60405180910390a250505050565b60045481565b6000606080600080600080600080606060008060009054906101000a900473ffffffffffffffffffffffffffffffffffffffff169a5060058054600181600116156101000203166002900480601f016020809104026020016040519081016040528092919081815260200182805460018160011615610100020316600290048015610de05780601f10610db557610100808354040283529160200191610de0565b820191906000526020600020905b815481529060010190602001808311610dc357829003601f168201915b5050505050995060068054600181600116156101000203166002900480601f016020809104026020016040519081016040528092919081815260200182805460018160011615610100020316600290048015610e7d5780601f10610e5257610100808354040283529160200191610e7d565b820191906000526020600020905b815481529060010190602001808311610e6057829003601f168201915b505050505098506004549750600760009054906101000a900460ff16965060035495506001549450600b5493506002549250600d805480602002602001604051908101604052809291908181526020018280548015610efb57602002820191906000526020600020905b815481526020019060010190808311610ee7575b50505050509150600860008d73ffffffffffffffffffffffffffffffffffffffff1673ffffffffffffffffffffffffffffffffffffffff16815260200190815260200160002054905091939597999b90929496989a50565b60025481565b600030905090565b60108181548110610f7157600080fd5b906000526020600020016000915090505481565b6000600f600083815260200190815260200160002060020160009054906101000a900473ffffffffffffffffffffffffffffffffffffffff169050919050565b606080600980548060200260200160405190810160405280929190818152602001828054801561104a57602002820191906000526020600020905b8160009054906101000a900473ffffffffffffffffffffffffffffffffffffffff1673ffffffffffffffffffffffffffffffffffffffff1681526020019060010190808311611000575b50505050509150600a8054806020026020016040519081016040528092919081815260200182805480156110d357602002820191906000526020600020905b8160009054906101000a900473ffffffffffffffffffffffffffffffffffffffff1673ffffffffffffffffffffffffffffffffffffffff1681526020019060010190808311611089575b505050505090509091565b60058054600181600116156101000203166002900480601f0160208091040260200160405190810160405280929190818152602001828054600181600116156101000203166002900480156111745780601f1061114957610100808354040283529160200191611174565b820191906000526020600020905b81548152906001019060200180831161115757829003601f168201915b505050505081565b6000600860008373ffffffffffffffffffffffffffffffffffffffff1673ffffffffffffffffffffffffffffffffffffffff168152602001908152602001600020549050919050565b600a81815481106111d557600080fd5b906000526020600020016000915054906101000a900473ffffffffffffffffffffffffffffffffffffffff1681565b60008054906101000a900473ffffffffffffffffffffffffffffffffffffffff1673ffffffffffffffffffffffffffffffffffffffff163373ffffffffffffffffffffffffffffffffffffffff161461125c57600080fd5b600454421161126a57600080fd5b60004760038190555060005b600c548110156114eb57605d612710600354600d848154811061129557fe5b906000526020600020015402816112a857fe5b040291506000600a805490506112bc611b68565b816112c357fe5b0690506000600f60008481526020019081526020016000209050600a82815481106112ea57fe5b9060005260206000200160009054906101000a900473ffffffffffffffffffffffffffffffffffffffff168160020160006101000a81548173ffffffffffffffffffffffffffffffffffffffff021916908373ffffffffffffffffffffffffffffffffffffffff160217905550838160010181905550601083908060018154018082558091505060019003906000526020600020016000909190919091505560005b600a80549050811015611470578160020160009054906101000a900473ffffffffffffffffffffffffffffffffffffffff1673ffffffffffffffffffffffffffffffffffffffff16600a82815481106113e157fe5b9060005260206000200160009054906101000a900473ffffffffffffffffffffffffffffffffffffffff1673ffffffffffffffffffffffffffffffffffffffff16141561146357600a818154811061143557fe5b9060005260206000200160006101000a81549073ffffffffffffffffffffffffffffffffffffffff02191690555b808060010191505061138c565b508060020160009054906101000a900473ffffffffffffffffffffffffffffffffffffffff1673ffffffffffffffffffffffffffffffffffffffff166108fc859081150290604051600060405180830381858888f193505050501580156114db573d6000803e3d6000fd5b5050508080600101915050611276565b5060008054906101000a900473ffffffffffffffffffffffffffffffffffffffff1673ffffffffffffffffffffffffffffffffffffffff166108fc479081150290604051600060405180830381858888f19350505050158015611552573d6000803e3d6000fd5b5061155d6001611b9e565b50565b60015481565b6000600a805490506127103073ffffffffffffffffffffffffffffffffffffffff16630e0b0f43856040518263ffffffff1660e01b81526004016115aa9190611f79565b60206040518083038186803b1580156115c257600080fd5b505afa1580156115d6573d6000803e3d6000fd5b505050506040513d601f19601f820116820180604052508101906115fa9190611c9b565b028161160257fe5b049050919050565b60068054600181600116156101000203166002900480601f0160208091040260200160405190810160405280929190818152602001828054600181600116156101000203166002900480156116a05780601f10611675576101008083540402835291602001916116a0565b820191906000526020600020905b81548152906001019060200180831161168357829003601f168201915b505050505081565b60008060009054906101000a900473ffffffffffffffffffffffffffffffffffffffff16905090565b600c5481565b6060600980548060200260200160405190810160405280929190818152602001828054801561175b57602002820191906000526020600020905b8160009054906101000a900473ffffffffffffffffffffffffffffffffffffffff1673ffffffffffffffffffffffffffffffffffffffff1681526020019060010190808311611711575b5050505050905090565b6000600c54905090565b606080600454421161178057600080fd5b600060108054905067ffffffffffffffff8111801561179e57600080fd5b506040519080825280602002602001820160405280156117cd5781602001602082028036833780820191505090505b509050600060108054905067ffffffffffffffff811180156117ee57600080fd5b5060405190808252806020026020018201604052801561181d5781602001602082028036833780820191505090505b50905060005b6010805490508110156118dd576000600f600083815260200190815260200160002090508060020160009054906101000a900473ffffffffffffffffffffffffffffffffffffffff1684838151811061187857fe5b602002602001019073ffffffffffffffffffffffffffffffffffffffff16908173ffffffffffffffffffffffffffffffffffffffff168152505080600101548383815181106118c357fe5b602002602001018181525050508080600101915050611823565b5080829350935050509091565b6000806000905060005b600c54811015611985576000600f600083815260200190815260200160002090508473ffffffffffffffffffffffffffffffffffffffff168160020160009054906101000a900473ffffffffffffffffffffffffffffffffffffffff1673ffffffffffffffffffffffffffffffffffffffff161415611977578060010154830192505b5080806001019150506118f4565b5080915050919050565b600760009054906101000a900460ff1681565b60035481565b60045442106119b657600080fd5b6000600860003373ffffffffffffffffffffffffffffffffffffffff1673ffffffffffffffffffffffffffffffffffffffff1681526020019081526020016000205490506000811415611a0857600080fd5b8173ffffffffffffffffffffffffffffffffffffffff166108fc829081150290604051600060405180830381858888f19350505050158015611a4e573d6000803e3d6000fd5b50611a58826108d2565b505050565b600d8181548110611a6d57600080fd5b906000526020600020016000915090505481565b60098181548110611a9157600080fd5b906000526020600020016000915054906101000a900473ffffffffffffffffffffffffffffffffffffffff1681565b6000600f6000838152602001908152602001600020600101549050919050565b600080828401905083811015611b5e576040517f08c379a000000000000000000000000000000000000000000000000000000000815260040180806020018281038252601b8152602001807f536166654d6174683a206164646974696f6e206f766572666c6f77000000000081525060200191505060405180910390fd5b8091505092915050565b60004442600a604051602001611b8093929190611f40565b6040516020818303038152906040528051906020012060001c905090565b80600760006101000a81548160ff02191690836002811115611bbc57fe5b02179055507f1e046fdd2110d82ed3fa7652b41ced17c49cbb9ee4536e65f51ad2a6ed5359a7600760009054906101000a900460ff16604051611bff9190612135565b60405180910390a150565b600081359050611c19816123c6565b92915050565b600081359050611c2e816123dd565b92915050565b600081519050611c43816123dd565b92915050565b600060208284031215611c5b57600080fd5b6000611c6984828501611c0a565b91505092915050565b600060208284031215611c8457600080fd5b6000611c9284828501611c1f565b91505092915050565b600060208284031215611cad57600080fd5b6000611cbb84828501611c34565b91505092915050565b60008060408385031215611cd757600080fd5b6000611ce585828601611c1f565b9250506020611cf685828601611c1f565b9150509250929050565b6000611d0c8383611d66565b60208301905092915050565b6000611d248383611d84565b60208301905092915050565b6000611d3c8383611f0b565b60208301905092915050565b611d51816122e0565b82525050565b611d6081612285565b82525050565b611d6f81612273565b82525050565b611d7e81612273565b82525050565b611d8d81612273565b82525050565b6000611d9e826121c2565b611da88185612215565b9350611db38361218d565b8060005b83811015611de4578151611dcb8882611d00565b9750611dd6836121ee565b925050600181019050611db7565b5085935050505092915050565b6000611dfc826121cd565b611e068185612226565b9350611e118361219d565b8060005b83811015611e4957611e2682612381565b611e308882611d18565b9750611e3b836121fb565b925050600181019050611e15565b5085935050505092915050565b6000611e61826121d8565b611e6b8185612231565b9350611e76836121b2565b8060005b83811015611ea7578151611e8e8882611d30565b9750611e9983612208565b925050600181019050611e7a565b5085935050505092915050565b611ebd81612297565b82525050565b611ecc816122f2565b82525050565b6000611edd826121e3565b611ee78185612242565b9350611ef7818560208601612328565b611f0081612394565b840191505092915050565b611f14816122d6565b82525050565b611f23816122d6565b82525050565b611f3a611f35826122d6565b612375565b82525050565b6000611f4c8286611f29565b602082019150611f5c8285611f29565b602082019150611f6c8284611df1565b9150819050949350505050565b6000602082019050611f8e6000830184611d75565b92915050565b6000602082019050611fa96000830184611d48565b92915050565b6000602082019050611fc46000830184611d57565b92915050565b600061016082019050611fe0600083018e611d57565b8181036020830152611ff2818d611ed2565b90508181036040830152612006818c611ed2565b9050612015606083018b611f1a565b612022608083018a611ec3565b61202f60a0830189611f1a565b61203c60c0830188611f1a565b61204960e0830187611f1a565b612057610100830186611f1a565b81810361012083015261206a8185611e56565b905061207a610140830184611f1a565b9c9b505050505050505050505050565b600060208201905081810360008301526120a48184611d93565b905092915050565b600060408201905081810360008301526120c68185611d93565b905081810360208301526120da8184611d93565b90509392505050565b600060408201905081810360008301526120fd8185611e56565b905081810360208301526121118184611d93565b90509392505050565b600060208201905061212f6000830184611eb4565b92915050565b600060208201905061214a6000830184611ec3565b92915050565b6000602082019050818103600083015261216a8184611ed2565b905092915050565b60006020820190506121876000830184611f1a565b92915050565b6000819050602082019050919050565b60008190508160005260206000209050919050565b6000819050602082019050919050565b600081519050919050565b600081549050919050565b600081519050919050565b600081519050919050565b6000602082019050919050565b6000600182019050919050565b6000602082019050919050565b600082825260208201905092915050565b600081905092915050565b600082825260208201905092915050565b600082825260208201905092915050565b600073ffffffffffffffffffffffffffffffffffffffff82169050919050565b600061227e826122b6565b9050919050565b6000612290826122b6565b9050919050565b60008115159050919050565b60008190506122b1826123b2565b919050565b600073ffffffffffffffffffffffffffffffffffffffff82169050919050565b6000819050919050565b60006122eb82612304565b9050919050565b60006122fd826122a3565b9050919050565b600061230f82612316565b9050919050565b6000612321826122b6565b9050919050565b60005b8381101561234657808201518184015260208101905061232b565b83811115612355576000848401525b50505050565b600061236e612369836123a5565b612253565b9050919050565b6000819050919050565bfe5b600061238d825461235b565b9050919050565b6000601f19601f8301169050919050565b60008160001c9050919050565b600381106123c3576123c261237f565b5b50565b6123cf81612273565b81146123da57600080fd5b50565b6123e6816122d6565b81146123f157600080fd5b5056fea26469706673582212202966a61d8efe46bfc1b40f651489dc00f1b47e6deaffd5a5dcc7b88cd7ed026e64736f6c63430007060033a2646970667358221220c9324565e708e50e6dd1eb517263ff83fb1e857d43eb57eb47d97dd9d38d4cf764736f6c63430007060033",
  "immutableReferences": {},
  "source": "// SPDX-License-Identifier: MIT\npragma solidity ^0.7.0;\nimport \"../node_modules/@openzeppelin/contracts/math/SafeMath.sol\";\npragma experimental ABIEncoderV2;\n\nenum State {\n    Open,\n    Closed,\n    Suspended\n}\n\ncontract lotteryCreator {\n    using SafeMath for uint256;\n\n    // List of existing projects\n    Lottery[] private lotteries;\n    address payable creator;\n\n    // Event that will be emitted whenever a new project is started\n    event ProjectStarted(\n        address contractAddress,\n        address projectStarter,\n        string projectTitle,\n        string projectDesc,\n        uint256 deadline,\n        uint256 ticketPrice,\n        uint256 numberWinners,\n        uint256[] rewards,\n        uint256 limitTickets\n    );\n\n    /** @dev Function to start a new project.\n     * @param title Title of the project to be created\n     * @param description Brief description about the project\n     * @param deadlineDate Project deadline in days\n     * @param ticketPrice Project goal in wei\n     */\n    function startProject(\n        address payable owner,\n        string calldata title,\n        string calldata description,\n        uint256 deadlineDate,\n        uint256 ticketPrice,\n        uint256 numberWinners,\n        uint256[] calldata rewards,\n        uint256 limitTickets\n    ) external {\n        uint256 raiseUntil = deadlineDate;\n        Lottery newProject = new Lottery(\n            owner,\n            title,\n            description,\n            raiseUntil,\n            ticketPrice,\n            numberWinners,\n            rewards,\n            limitTickets\n        );\n        lotteries.push(newProject);\n        emit ProjectStarted(\n            address(newProject),\n            owner,\n            title,\n            description,\n            raiseUntil,\n            ticketPrice,\n            numberWinners,\n            rewards,\n            limitTickets\n        );\n    }\n\n    struct Winners {\n        uint256[] values;\n        address[] accounts;\n    }\n    mapping(uint256 => Winners) allWinners;\n\n    struct participated {\n        address lotteryAddress;\n        uint256 value;\n        uint256 ticketsAmount;\n        State state;\n        bool won;\n        uint256 amountWon;\n    }\n    mapping(uint256 => participated) participatedList;\n\n    function participatedByAddress(address _address)\n        public\n        returns (\n            address[] memory,\n            uint256[] memory,\n            uint256[] memory,\n            State[] memory,\n            bool[] memory,\n            uint256[] memory\n        )\n    {\n        uint256 participatedIndex = 0;\n        for (uint256 i = 0; i < lotteries.length; i++) {\n            Lottery ltr = lotteries[i];\n            address[] memory players = ltr.getPlayers();\n            for (uint256 j = 0; j < players.length; j++) {\n                if (players[j] == _address) {\n                    participated storage par = participatedList[\n                        participatedIndex\n                    ];\n                    par.lotteryAddress = ltr.getContractAddress();\n                    par.value = ltr.getContributed(_address);\n                    par.ticketsAmount = ltr.getEnteredTicketsByAccount(\n                        _address\n                    );\n                    par.state = ltr.getState();\n                    par.won = false;\n                    par.amountWon = 0;\n\n                    for (uint256 k = 0; k < ltr.getNumberOfWinners(); k++) {\n                        if (_address == ltr.getWinner(k)) {\n                            par.won = true;\n                            par.amountWon = ltr.getWinnerAmount(k);\n                        }\n                    }\n                    participatedIndex++;\n                }\n            }\n        }\n\n        address[] memory addrs = new address[](participatedIndex);\n        uint256[] memory funds = new uint256[](participatedIndex);\n        uint256[] memory tickets = new uint256[](participatedIndex);\n        State[] memory states = new State[](participatedIndex);\n        bool[] memory won = new bool[](participatedIndex);\n        uint256[] memory amountWon = new uint256[](participatedIndex);\n\n        for (uint256 i = 0; i < participatedIndex; i++) {\n            participated storage pa = participatedList[i];\n            addrs[i] = pa.lotteryAddress;\n            funds[i] = pa.value;\n            tickets[i] = pa.ticketsAmount;\n            states[i] = pa.state;\n            won[i] = pa.won;\n            amountWon[i] = pa.amountWon;\n        }\n\n        return (addrs, funds, tickets, states, won, amountWon);\n    }\n\n    // function getTotalSpent(address _address) external view returns (uint256) {\n    //     uint256 totalSpent = 0;\n    //     totalSpent = this.getRewardsWonByAddress(_address) - this.getSpentState(_address);\n    //     return totalSpent;\n    // }\n\n    function getSpentState(address _address) external view returns (uint256) {\n        uint256 spent = 0;\n\n        for (uint256 i = 0; i < lotteries.length; i++) {\n            Lottery ltr = lotteries[i];\n            spent = spent + uint256(ltr.getContributed(_address));\n        }\n\n        return spent;\n    }\n\n    function getRewardsWonByAddress(address _address)\n        external\n        view\n        returns (uint256)\n    {\n        uint256 rewardsWon = 0;\n\n        for (uint256 i = 0; i < lotteries.length; i++) {\n            Lottery ltr = lotteries[i];\n            rewardsWon =\n                uint256(rewardsWon) +\n                uint256(ltr.getRewardsByAccount(_address));\n        }\n        return rewardsWon;\n    }\n\n    event RevealLatestWinners(Winners[] _a);\n\n    function getLatestWinners() external view returns (Winners[] memory) {\n        Lottery[] memory closedLotteries = this.returnClosedProjects();\n\n        Winners[] memory winners = new Winners[](closedLotteries.length);\n        if (closedLotteries.length != 0) {\n            for (uint256 i = 0; i < closedLotteries.length; i++) {\n                Lottery ltr = closedLotteries[i];\n                (uint256[] memory values, address[] memory accounts) = ltr\n                    .revealWinners();\n                winners[i].values = values;\n                winners[i].accounts = accounts;\n            }\n        }\n        return winners;\n    }\n\n    function returnClosedProjects() external view returns (Lottery[] memory) {\n        return this.getProjectsByState(State.Closed);\n    }\n\n    function returnOpenProjects() external view returns (Lottery[] memory) {\n        return this.getProjectsByState(State.Open);\n    }\n\n    function getProjectsByState(State state)\n        external\n        view\n        returns (Lottery[] memory)\n    {\n        uint256 count = 0;\n        for (uint256 i = 0; i < lotteries.length; i++) {\n            Lottery ltr = lotteries[i];\n            if (ltr.getState() == state) {\n                count++;\n            }\n        }\n        Lottery[] memory ltrs = new Lottery[](count);\n        count = 0;\n        for (uint256 i = 0; i < lotteries.length; i++) {\n            Lottery ltr = lotteries[i];\n            if (ltr.getState() == state) {\n                ltrs[count] = ltr;\n                count++;\n            }\n        }\n        return ltrs;\n    }\n\n    /** @dev Function to get all projects' contract addresses.\n     * @return A list of all projects' contract addreses\n     */\n    function returnAllLotteries() external view returns (Lottery[] memory) {\n        return lotteries;\n    }\n}\n\ncontract Lottery {\n    using SafeMath for uint256;\n    // State variables\n    address payable public creator;\n    uint256 public priceTicket; // required to reach at least this much, else everyone gets refund\n    uint256 public created;\n    uint256 public currentBalance;\n    uint256 public deadline;\n    string public title;\n    string public description;\n    State public state = State.Open; // initialize on create\n    mapping(address => uint256) public contributors;\n    address[] public players;\n    address[] public tickets;\n    uint256 playersLength;\n    uint256 public numberOfWinners;\n    uint256[] public rewards;\n    uint256 limitTickets;\n\n    struct winner {\n        uint256 id;\n        uint256 amount;\n        address account;\n    }\n    mapping(uint256 => winner) winners;\n    uint256[] public winnerIds;\n\n    // Modifier to check if the function caller is the project creator\n    modifier isCreator() {\n        require(msg.sender == creator);\n        _;\n    }\n\n    event LotteryStateChanged(State newState);\n    event Transfer(address indexed _from, uint256 _value);\n\n    constructor(\n        address payable projectStarter,\n        string memory projectTitle,\n        string memory projectDesc,\n        uint256 deadlineTime,\n        uint256 projectTicketPrice,\n        uint256 numberWinners,\n        uint256[] memory lotteryRewards,\n        uint256 lotteryLimitTickets\n    ) public {\n        creator = projectStarter;\n        title = projectTitle;\n        description = projectDesc;\n        priceTicket = projectTicketPrice;\n        deadline = deadlineTime;\n        currentBalance = 0;\n        created = block.timestamp;\n        numberOfWinners = numberWinners;\n        rewards = lotteryRewards;\n        limitTickets = lotteryLimitTickets;\n    }\n\n    function getRewardsByAccount(address _address)\n        public\n        view\n        returns (uint256)\n    {\n        uint256 rewardsWon = 0;\n        for (uint256 i = 0; i < numberOfWinners; i++) {\n            winner storage ltWinner = winners[i];\n            if (ltWinner.account == _address) {\n                rewardsWon = uint256(rewardsWon) + uint256(ltWinner.amount);\n            }\n        }\n        return rewardsWon;\n    }\n\n    function getContractAddress() public view returns (address) {\n        return address(this);\n    }\n\n    function getContributed(address _address) public view returns (uint256) {\n        return contributors[_address];\n    }\n\n    function getState() public view returns (State) {\n        return state;\n    }\n\n    function getWinner(uint256 id) public view returns (address) {\n        return winners[id].account;\n    }\n\n    function getWinnerAmount(uint256 id) public view returns (uint256) {\n        return winners[id].amount;\n    }\n\n    function buyTicket(uint256 overralPrice, uint256 ticketAmount)\n        public\n        payable\n    {\n        require(block.timestamp < deadline); // in the fundraising period\n        require(overralPrice > 0);\n\n        uint256 ticketsByAcc = this.getEnteredTicketsByAccount(msg.sender) +\n            ticketAmount;\n        require(limitTickets >= ticketsByAcc);\n\n        contributors[msg.sender] = contributors[msg.sender].add(overralPrice);\n        currentBalance = currentBalance.add(overralPrice);\n\n        for (uint256 i = 0; i < ticketAmount; i++) {\n            tickets.push(msg.sender);\n        }\n\n        bool doesPlayerEntered = false;\n        for (uint256 i = 0; i < players.length; i++) {\n            if (msg.sender == players[i]) {\n                doesPlayerEntered = true;\n            }\n        }\n\n        if (!doesPlayerEntered) {\n            players.push(msg.sender);\n        }\n\n        emit Transfer(msg.sender, overralPrice);\n    }\n\n    function getNumberOfWinners() public view returns (uint256) {\n        return numberOfWinners;\n    }\n\n    function getOwner() public view returns (address) {\n        return creator;\n    }\n\n    function random() private view returns (uint256) {\n        return\n            uint256(\n                keccak256(\n                    abi.encodePacked(block.difficulty, block.timestamp, tickets)\n                )\n            );\n    }\n\n    function getEnteredTicketsByAccount(address _address)\n        public\n        view\n        returns (uint256)\n    {\n        uint256 ticketsByAccount = 0;\n        for (uint256 i = 0; i < tickets.length; i++) {\n            if (_address == tickets[i]) {\n                ticketsByAccount++;\n            }\n        }\n        return ticketsByAccount;\n    }\n\n    function getWinProbabiltyByAccount(address _address)\n        public\n        view\n        returns (uint256)\n    {\n        // vraciam percenta + navyse 2 desatinimi cislami,\n        // kvoli tomu ze v Solidity sa neda pracovat s float\n        // na frontende ak vstup predelim 100, dostanem percenta\n        // napr 21,58\n        return\n            (this.getEnteredTicketsByAccount(_address) * 10000) /\n            tickets.length;\n    }\n\n    function pickWinner() public payable restricted {\n        // po casovom limite, admin spusti losovanie a nasledne\n        // vyhodnotenie vyhercov\n        require(block.timestamp > deadline);\n\n        uint256 reward;\n        currentBalance = address(this).balance;\n        for (uint256 i = 0; i < numberOfWinners; i++) {\n            reward =\n                ((uint256(rewards[i]) * currentBalance) / uint256(10000)) *\n                uint256(93);\n            uint256 index = random() % tickets.length;\n            winner storage ltWinner = winners[i];\n            ltWinner.account = tickets[index];\n            ltWinner.amount = reward;\n            winnerIds.push(i);\n            for (uint256 j = 0; j < tickets.length; j++) {\n                if (tickets[j] == ltWinner.account) {\n                    delete tickets[j];\n                }\n            }\n            payable(ltWinner.account).transfer(reward);\n        }\n        // reward for creator 7%\n        payable(creator).transfer(address(this).balance);\n        _changeState(State.Closed);\n    }\n\n    modifier restricted() {\n        require(msg.sender == creator);\n        _;\n    }\n\n    function getPlayers() public view returns (address[] memory) {\n        return players;\n    }\n\n    function storno(address sender) public {\n        require(block.timestamp < deadline); //is open period\n\n        uint256 amount = contributors[msg.sender];\n        require(amount != 0);\n\n        payable(sender).transfer(amount); //payment return\n        deletePlayer(sender); //remove from lottery\n    }\n\n    function deletePlayer(address player) public returns (bool) {\n        for (uint256 i = 0; i < players.length; i++) {\n            if (players[i] == player) {\n                delete players[i];\n                return true;\n            }\n        }\n        return false;\n    }\n\n    function revealWinners()\n        public\n        view\n        returns (uint256[] memory, address[] memory)\n    {\n        require(block.timestamp > deadline);\n\n        address[] memory addrs = new address[](winnerIds.length);\n        uint256[] memory amounts = new uint256[](winnerIds.length);\n\n        for (uint256 i = 0; i < winnerIds.length; i++) {\n            winner storage ltWinner = winners[i];\n            addrs[i] = ltWinner.account;\n            amounts[i] = ltWinner.amount;\n        }\n        return (amounts, addrs);\n    }\n\n    /** @dev Function to get specific information about the project.\n     * @return projectStarter Returns all the project's details\n     */\n    function getDetails(address account)\n        public\n        view\n        returns (\n            address payable projectStarter,\n            string memory projectTitle,\n            string memory projectDesc,\n            uint256 deadlineTime,\n            State currentState,\n            uint256 currentAmount,\n            uint256 ticketPrice,\n            uint256 lotteryPlayersLength,\n            uint256 lotteryDateCreated,\n            uint256[] memory lotteryRewards,\n            uint256 purchased\n        )\n    {\n        projectStarter = creator;\n        projectTitle = title;\n        projectDesc = description;\n        deadlineTime = deadline;\n        currentState = state;\n        currentAmount = currentBalance;\n        ticketPrice = priceTicket;\n        lotteryPlayersLength = playersLength;\n        lotteryDateCreated = created;\n        lotteryRewards = rewards;\n        purchased = contributors[account];\n    }\n\n    // function purchasedByAddress(address _key) public view returns (uint256) {\n    //     return contributors[_key];\n    // }\n    function _changeState(State _newState) private {\n        state = _newState;\n        emit LotteryStateChanged(state);\n    }\n\n    function getPlayersDetails()\n        public\n        view\n        returns (\n            address[] memory lotteryPlayers,\n            address[] memory lotteryTickets\n        )\n    {\n        lotteryPlayers = players;\n        lotteryTickets = tickets;\n    }\n}\n",
  "sourcePath": "/Users/jakub/Documents/Skola/lottery/contracts/Lottery.sol",
  "compiler": {
    "name": "solc",
    "version": "0.7.6+commit.7338295f.Emscripten.clang"
  },
  "schemaVersion": "3.4.4",
  "updatedAt": "2022-03-28T20:04:24.369Z",
  "networkType": "ethereum",
  "devdoc": {
    "kind": "dev",
    "methods": {
      "returnAllLotteries()": {
        "details": "Function to get all projects' contract addresses.",
        "returns": {
          "_0": "A list of all projects' contract addreses"
        }
      },
      "startProject(address,string,string,uint256,uint256,uint256,uint256[],uint256)": {
        "details": "Function to start a new project.",
        "params": {
          "deadlineDate": "Project deadline in days",
          "description": "Brief description about the project",
          "ticketPrice": "Project goal in wei",
          "title": "Title of the project to be created"
        }
      }
    },
    "version": 1
  },
  "userdoc": {
    "kind": "user",
    "methods": {},
    "version": 1
  }
}