{
  "contractName": "LotteryBuilder",
  "abi": [
    {
      "anonymous": false,
      "inputs": [
        {
          "indexed": false,
          "internalType": "address",
          "name": "contractAddress",
          "type": "address"
        },
        {
          "indexed": false,
          "internalType": "address",
          "name": "projectStarter",
          "type": "address"
        },
        {
          "indexed": false,
          "internalType": "string",
          "name": "projectTitle",
          "type": "string"
        },
        {
          "indexed": false,
          "internalType": "string",
          "name": "projectDesc",
          "type": "string"
        },
        {
          "indexed": false,
          "internalType": "uint256",
          "name": "deadline",
          "type": "uint256"
        },
        {
          "indexed": false,
          "internalType": "uint256",
          "name": "ticketPrice",
          "type": "uint256"
        },
        {
          "indexed": false,
          "internalType": "uint256",
          "name": "numberWinners",
          "type": "uint256"
        },
        {
          "indexed": false,
          "internalType": "uint256[]",
          "name": "rewards",
          "type": "uint256[]"
        },
        {
          "indexed": false,
          "internalType": "uint256",
          "name": "limitTickets",
          "type": "uint256"
        }
      ],
      "name": "ProjectStarted",
      "type": "event"
    },
    {
      "anonymous": false,
      "inputs": [
        {
          "components": [
            {
              "internalType": "uint256[]",
              "name": "values",
              "type": "uint256[]"
            },
            {
              "internalType": "address[]",
              "name": "accounts",
              "type": "address[]"
            }
          ],
          "indexed": false,
          "internalType": "struct LotteryBuilder.Winners[]",
          "name": "_a",
          "type": "tuple[]"
        }
      ],
      "name": "RevealLatestWinners",
      "type": "event"
    },
    {
      "inputs": [
        {
          "internalType": "address payable",
          "name": "owner",
          "type": "address"
        },
        {
          "internalType": "string",
          "name": "title",
          "type": "string"
        },
        {
          "internalType": "string",
          "name": "description",
          "type": "string"
        },
        {
          "internalType": "uint256",
          "name": "deadlineDate",
          "type": "uint256"
        },
        {
          "internalType": "uint256",
          "name": "ticketPrice",
          "type": "uint256"
        },
        {
          "internalType": "uint256",
          "name": "numberWinners",
          "type": "uint256"
        },
        {
          "internalType": "uint256[]",
          "name": "rewards",
          "type": "uint256[]"
        },
        {
          "internalType": "uint256",
          "name": "limitTickets",
          "type": "uint256"
        }
      ],
      "name": "startProject",
      "outputs": [],
      "stateMutability": "nonpayable",
      "type": "function"
    },
    {
      "inputs": [
        {
          "internalType": "address",
          "name": "_address",
          "type": "address"
        }
      ],
      "name": "participatedByAddress",
      "outputs": [
        {
          "internalType": "address[]",
          "name": "",
          "type": "address[]"
        },
        {
          "internalType": "uint256[]",
          "name": "",
          "type": "uint256[]"
        },
        {
          "internalType": "uint256[]",
          "name": "",
          "type": "uint256[]"
        },
        {
          "internalType": "enum State[]",
          "name": "",
          "type": "uint8[]"
        },
        {
          "internalType": "bool[]",
          "name": "",
          "type": "bool[]"
        },
        {
          "internalType": "uint256[]",
          "name": "",
          "type": "uint256[]"
        }
      ],
      "stateMutability": "nonpayable",
      "type": "function"
    },
    {
      "inputs": [
        {
          "internalType": "address",
          "name": "_address",
          "type": "address"
        }
      ],
      "name": "getSpentState",
      "outputs": [
        {
          "internalType": "uint256",
          "name": "",
          "type": "uint256"
        }
      ],
      "stateMutability": "view",
      "type": "function",
      "constant": true
    },
    {
      "inputs": [
        {
          "internalType": "address",
          "name": "_address",
          "type": "address"
        }
      ],
      "name": "getRewardsWonByAddress",
      "outputs": [
        {
          "internalType": "uint256",
          "name": "",
          "type": "uint256"
        }
      ],
      "stateMutability": "view",
      "type": "function",
      "constant": true
    },
    {
      "inputs": [],
      "name": "getLatestWinners",
      "outputs": [
        {
          "components": [
            {
              "internalType": "uint256[]",
              "name": "values",
              "type": "uint256[]"
            },
            {
              "internalType": "address[]",
              "name": "accounts",
              "type": "address[]"
            }
          ],
          "internalType": "struct LotteryBuilder.Winners[]",
          "name": "",
          "type": "tuple[]"
        }
      ],
      "stateMutability": "view",
      "type": "function",
      "constant": true
    },
    {
      "inputs": [],
      "name": "returnClosedProjects",
      "outputs": [
        {
          "internalType": "contract Lottery[]",
          "name": "",
          "type": "address[]"
        }
      ],
      "stateMutability": "view",
      "type": "function",
      "constant": true
    },
    {
      "inputs": [],
      "name": "returnOpenProjects",
      "outputs": [
        {
          "internalType": "contract Lottery[]",
          "name": "",
          "type": "address[]"
        }
      ],
      "stateMutability": "view",
      "type": "function",
      "constant": true
    },
    {
      "inputs": [
        {
          "internalType": "enum State",
          "name": "state",
          "type": "uint8"
        }
      ],
      "name": "getProjectsByState",
      "outputs": [
        {
          "internalType": "contract Lottery[]",
          "name": "",
          "type": "address[]"
        }
      ],
      "stateMutability": "view",
      "type": "function",
      "constant": true
    },
    {
      "inputs": [],
      "name": "returnAllLotteries",
      "outputs": [
        {
          "internalType": "contract Lottery[]",
          "name": "",
          "type": "address[]"
        }
      ],
      "stateMutability": "view",
      "type": "function",
      "constant": true
    }
  ],
  "bytecode": "0x608060405234801561001057600080fd5b50615a37806100206000396000f3fe60806040523480156200001157600080fd5b5060043610620000a05760003560e01c80638b3645ee116200006f5780638b3645ee1462000158578063c5d8668f146200017a578063c934d758146200019c578063e184794c14620001d2578063eb1f0445146200020857620000a0565b8063180a1d1614620000a55780632c9d406014620000e05780632f771ef614620001025780637e5782941462000138575b600080fd5b620000c36004803603810190620000bd9190620018c7565b6200022a565b604051620000d796959493929190620022bd565b60405180910390f35b620000ea62000bd6565b604051620000f9919062002354565b60405180910390f35b6200012060048036038101906200011a919062001b38565b62000c66565b6040516200012f919062002354565b60405180910390f35b6200015660048036038101906200015091906200191f565b62000f1c565b005b6200016262001033565b60405162000171919062002378565b60405180910390f35b620001846200122f565b60405162000193919062002354565b60405180910390f35b620001ba6004803603810190620001b49190620018c7565b620012cb565b604051620001c99190620023b9565b60405180910390f35b620001f06004803603810190620001ea9190620018c7565b620013cb565b604051620001ff9190620023b9565b60405180910390f35b62000212620014cb565b60405162000221919062002354565b60405180910390f35b6060806060806060806000805b600080549050811015620008765760008082815481106200025457fe5b9060005260206000200160009054906101000a900473ffffffffffffffffffffffffffffffffffffffff16905060008173ffffffffffffffffffffffffffffffffffffffff16638b5b9ccc6040518163ffffffff1660e01b815260040160006040518083038186803b158015620002ca57600080fd5b505afa158015620002df573d6000803e3d6000fd5b505050506040513d6000823e3d601f19601f820116820180604052508101906200030a919062001a3b565b905060005b815181101562000865578b73ffffffffffffffffffffffffffffffffffffffff168282815181106200033d57fe5b602002602001015173ffffffffffffffffffffffffffffffffffffffff161415620008575760006002600087815260200190815260200160002090508373ffffffffffffffffffffffffffffffffffffffff166332a2c5d06040518163ffffffff1660e01b815260040160206040518083038186803b158015620003c057600080fd5b505afa158015620003d5573d6000803e3d6000fd5b505050506040513d601f19601f82011682018060405250810190620003fb9190620018f3565b8160000160006101000a81548173ffffffffffffffffffffffffffffffffffffffff021916908373ffffffffffffffffffffffffffffffffffffffff1602179055508373ffffffffffffffffffffffffffffffffffffffff16634de58efe8e6040518263ffffffff1660e01b81526004016200047891906200213d565b60206040518083038186803b1580156200049157600080fd5b505afa158015620004a6573d6000803e3d6000fd5b505050506040513d601f19601f82011682018060405250810190620004cc919062001b90565b81600101819055508373ffffffffffffffffffffffffffffffffffffffff16630e0b0f438e6040518263ffffffff1660e01b81526004016200050f91906200213d565b60206040518083038186803b1580156200052857600080fd5b505afa1580156200053d573d6000803e3d6000fd5b505050506040513d601f19601f8201168201806040525081019062000563919062001b90565b81600201819055508373ffffffffffffffffffffffffffffffffffffffff16631865c57d6040518163ffffffff1660e01b815260040160206040518083038186803b158015620005b257600080fd5b505afa158015620005c7573d6000803e3d6000fd5b505050506040513d601f19601f82011682018060405250810190620005ed919062001b64565b8160030160006101000a81548160ff021916908360028111156200060d57fe5b021790555060008160030160016101000a81548160ff0219169083151502179055506000816004018190555060005b8473ffffffffffffffffffffffffffffffffffffffff16638e33cffc6040518163ffffffff1660e01b815260040160206040518083038186803b1580156200068357600080fd5b505afa15801562000698573d6000803e3d6000fd5b505050506040513d601f19601f82011682018060405250810190620006be919062001b90565b8110156200084c578473ffffffffffffffffffffffffffffffffffffffff16634129b2c9826040518263ffffffff1660e01b8152600401620007019190620023b9565b60206040518083038186803b1580156200071a57600080fd5b505afa1580156200072f573d6000803e3d6000fd5b505050506040513d601f19601f82011682018060405250810190620007559190620018f3565b73ffffffffffffffffffffffffffffffffffffffff168e73ffffffffffffffffffffffffffffffffffffffff1614156200083e5760018260030160016101000a81548160ff0219169083151502179055508473ffffffffffffffffffffffffffffffffffffffff1663f7feb20d826040518263ffffffff1660e01b8152600401620007e19190620023b9565b60206040518083038186803b158015620007fa57600080fd5b505afa1580156200080f573d6000803e3d6000fd5b505050506040513d601f19601f8201168201806040525081019062000835919062001b90565b82600401819055505b80806001019150506200063c565b508580600101965050505b80806001019150506200030f565b505050808060010191505062000237565b5060008167ffffffffffffffff811180156200089157600080fd5b50604051908082528060200260200182016040528015620008c15781602001602082028036833780820191505090505b50905060008267ffffffffffffffff81118015620008de57600080fd5b506040519080825280602002602001820160405280156200090e5781602001602082028036833780820191505090505b50905060008367ffffffffffffffff811180156200092b57600080fd5b506040519080825280602002602001820160405280156200095b5781602001602082028036833780820191505090505b50905060008467ffffffffffffffff811180156200097857600080fd5b50604051908082528060200260200182016040528015620009a85781602001602082028036833780820191505090505b50905060008567ffffffffffffffff81118015620009c557600080fd5b50604051908082528060200260200182016040528015620009f55781602001602082028036833780820191505090505b50905060008667ffffffffffffffff8111801562000a1257600080fd5b5060405190808252806020026020018201604052801562000a425781602001602082028036833780820191505090505b50905060005b8781101562000bb35760006002600083815260200190815260200160002090508060000160009054906101000a900473ffffffffffffffffffffffffffffffffffffffff1688838151811062000a9a57fe5b602002602001019073ffffffffffffffffffffffffffffffffffffffff16908173ffffffffffffffffffffffffffffffffffffffff1681525050806001015487838151811062000ae657fe5b602002602001018181525050806002015486838151811062000b0457fe5b6020026020010181815250508060030160009054906101000a900460ff1685838151811062000b2f57fe5b6020026020010190600281111562000b4357fe5b9081600281111562000b5157fe5b815250508060030160019054906101000a900460ff1684838151811062000b7457fe5b602002602001019015159081151581525050806004015483838151811062000b9857fe5b60200260200101818152505050808060010191505062000a48565b508585858585859c509c509c509c509c509c505050505050505091939550919395565b6060600080548060200260200160405190810160405280929190818152602001828054801562000c5c57602002820191906000526020600020905b8160009054906101000a900473ffffffffffffffffffffffffffffffffffffffff1673ffffffffffffffffffffffffffffffffffffffff168152602001906001019080831162000c11575b5050505050905090565b60606000805b60008054905081101562000d7057600080828154811062000c8957fe5b9060005260206000200160009054906101000a900473ffffffffffffffffffffffffffffffffffffffff16905084600281111562000cc357fe5b8173ffffffffffffffffffffffffffffffffffffffff16631865c57d6040518163ffffffff1660e01b815260040160206040518083038186803b15801562000d0a57600080fd5b505afa15801562000d1f573d6000803e3d6000fd5b505050506040513d601f19601f8201168201806040525081019062000d45919062001b64565b600281111562000d5157fe5b141562000d615782806001019350505b50808060010191505062000c6c565b5060008167ffffffffffffffff8111801562000d8b57600080fd5b5060405190808252806020026020018201604052801562000dbb5781602001602082028036833780820191505090505b5090506000915060005b60008054905081101562000f1157600080828154811062000de257fe5b9060005260206000200160009054906101000a900473ffffffffffffffffffffffffffffffffffffffff16905085600281111562000e1c57fe5b8173ffffffffffffffffffffffffffffffffffffffff16631865c57d6040518163ffffffff1660e01b815260040160206040518083038186803b15801562000e6357600080fd5b505afa15801562000e78573d6000803e3d6000fd5b505050506040513d601f19601f8201168201806040525081019062000e9e919062001b64565b600281111562000eaa57fe5b141562000f02578083858151811062000ebf57fe5b602002602001019073ffffffffffffffffffffffffffffffffffffffff16908173ffffffffffffffffffffffffffffffffffffffff168152505083806001019450505b50808060010191505062000dc5565b508092505050919050565b600086905060008c8c8c8c8c868c8c8c8c8c60405162000f3c9062001567565b62000f529b9a999897969594939291906200215a565b604051809103906000f08015801562000f6f573d6000803e3d6000fd5b5090506000819080600181540180825580915050600190039060005260206000200160009091909190916101000a81548173ffffffffffffffffffffffffffffffffffffffff021916908373ffffffffffffffffffffffffffffffffffffffff1602179055507fc33b89565476136c799a7e92716fc3daaaafd9783944de47647ed9b3ffe122fe818e8e8e8e8e888e8e8e8e8e6040516200101c9c9b9a9998979695949392919062002203565b60405180910390a150505050505050505050505050565b606060003073ffffffffffffffffffffffffffffffffffffffff1663c5d8668f6040518163ffffffff1660e01b815260040160006040518083038186803b1580156200107e57600080fd5b505afa15801562001093573d6000803e3d6000fd5b505050506040513d6000823e3d601f19601f82011682018060405250810190620010be919062001a80565b90506000815167ffffffffffffffff81118015620010db57600080fd5b506040519080825280602002602001820160405280156200111957816020015b6200110562001575565b815260200190600190039081620010fb5790505b5090506000825114620012275760005b8251811015620012255760008382815181106200114257fe5b602002602001015190506000808273ffffffffffffffffffffffffffffffffffffffff1663952587d66040518163ffffffff1660e01b815260040160006040518083038186803b1580156200119657600080fd5b505afa158015620011ab573d6000803e3d6000fd5b505050506040513d6000823e3d601f19601f82011682018060405250810190620011d6919062001ac5565b9150915081858581518110620011e857fe5b602002602001015160000181905250808585815181106200120557fe5b602002602001015160200181905250505050808060010191505062001129565b505b809250505090565b60603073ffffffffffffffffffffffffffffffffffffffff16632f771ef660016040518263ffffffff1660e01b81526004016200126d91906200239c565b60006040518083038186803b1580156200128657600080fd5b505afa1580156200129b573d6000803e3d6000fd5b505050506040513d6000823e3d601f19601f82011682018060405250810190620012c6919062001a80565b905090565b6000806000905060005b600080549050811015620013c1576000808281548110620012f257fe5b9060005260206000200160009054906101000a900473ffffffffffffffffffffffffffffffffffffffff1690508073ffffffffffffffffffffffffffffffffffffffff16634de58efe866040518263ffffffff1660e01b81526004016200135a91906200213d565b60206040518083038186803b1580156200137357600080fd5b505afa15801562001388573d6000803e3d6000fd5b505050506040513d601f19601f82011682018060405250810190620013ae919062001b90565b83019250508080600101915050620012d5565b5080915050919050565b6000806000905060005b600080549050811015620014c1576000808281548110620013f257fe5b9060005260206000200160009054906101000a900473ffffffffffffffffffffffffffffffffffffffff1690508073ffffffffffffffffffffffffffffffffffffffff1663a6a031b9866040518263ffffffff1660e01b81526004016200145a91906200213d565b60206040518083038186803b1580156200147357600080fd5b505afa15801562001488573d6000803e3d6000fd5b505050506040513d601f19601f82011682018060405250810190620014ae919062001b90565b83019250508080600101915050620013d5565b5080915050919050565b60603073ffffffffffffffffffffffffffffffffffffffff16632f771ef660006040518263ffffffff1660e01b81526004016200150991906200239c565b60006040518083038186803b1580156200152257600080fd5b505afa15801562001537573d6000803e3d6000fd5b505050506040513d6000823e3d601f19601f8201168201806040525081019062001562919062001a80565b905090565b61324180620027c183390190565b604051806040016040528060608152602001606081525090565b6000620015a6620015a0846200240a565b620023d6565b90508083825260208201905082856020860282011115620015c657600080fd5b60005b85811015620015fa5781620015df888262001705565b845260208401935060208301925050600181019050620015c9565b5050509392505050565b60006200161b620016158462002439565b620023d6565b905080838252602082019050828560208602820111156200163b57600080fd5b60005b858110156200166f578162001654888262001807565b8452602084019350602083019250506001810190506200163e565b5050509392505050565b6000620016906200168a8462002468565b620023d6565b90508083825260208201905082856020860282011115620016b057600080fd5b60005b85811015620016e45781620016c98882620018b0565b845260208401935060208301925050600181019050620016b3565b5050509392505050565b600081359050620016ff8162002747565b92915050565b600081519050620017168162002747565b92915050565b6000813590506200172d8162002761565b92915050565b600082601f8301126200174557600080fd5b8151620017578482602086016200158f565b91505092915050565b600082601f8301126200177257600080fd5b81516200178484826020860162001604565b91505092915050565b60008083601f840112620017a057600080fd5b8235905067ffffffffffffffff811115620017ba57600080fd5b602083019150836020820283011115620017d357600080fd5b9250929050565b600082601f830112620017ec57600080fd5b8151620017fe84826020860162001679565b91505092915050565b60008151905062001818816200277b565b92915050565b6000813590506200182f8162002795565b92915050565b600081519050620018468162002795565b92915050565b60008083601f8401126200185f57600080fd5b8235905067ffffffffffffffff8111156200187957600080fd5b6020830191508360018202830111156200189257600080fd5b9250929050565b600081359050620018aa81620027a6565b92915050565b600081519050620018c181620027a6565b92915050565b600060208284031215620018da57600080fd5b6000620018ea84828501620016ee565b91505092915050565b6000602082840312156200190657600080fd5b6000620019168482850162001705565b91505092915050565b60008060008060008060008060008060006101008c8e0312156200194257600080fd5b6000620019528e828f016200171c565b9b505060208c013567ffffffffffffffff8111156200197057600080fd5b6200197e8e828f016200184c565b9a509a505060408c013567ffffffffffffffff8111156200199e57600080fd5b620019ac8e828f016200184c565b98509850506060620019c18e828f0162001899565b9650506080620019d48e828f0162001899565b95505060a0620019e78e828f0162001899565b94505060c08c013567ffffffffffffffff81111562001a0557600080fd5b62001a138e828f016200178d565b935093505060e062001a288e828f0162001899565b9150509295989b509295989b9093969950565b60006020828403121562001a4e57600080fd5b600082015167ffffffffffffffff81111562001a6957600080fd5b62001a778482850162001733565b91505092915050565b60006020828403121562001a9357600080fd5b600082015167ffffffffffffffff81111562001aae57600080fd5b62001abc8482850162001760565b91505092915050565b6000806040838503121562001ad957600080fd5b600083015167ffffffffffffffff81111562001af457600080fd5b62001b0285828601620017da565b925050602083015167ffffffffffffffff81111562001b2057600080fd5b62001b2e8582860162001733565b9150509250929050565b60006020828403121562001b4b57600080fd5b600062001b5b848285016200181e565b91505092915050565b60006020828403121562001b7757600080fd5b600062001b878482850162001835565b91505092915050565b60006020828403121562001ba357600080fd5b600062001bb384828501620018b0565b91505092915050565b600062001bca838362001c76565b60208301905092915050565b600062001be483836200205c565b60208301905092915050565b600062001bfe83836200206d565b60208301905092915050565b600062001c1883836200207e565b60208301905092915050565b600062001c328383620020d3565b905092915050565b600062001c4883836200211b565b60208301905092915050565b62001c5f8162002696565b82525050565b62001c708162002623565b82525050565b62001c81816200260f565b82525050565b62001c92816200260f565b82525050565b600062001ca582620024f7565b62001cb1818562002587565b935062001cbe8362002497565b8060005b8381101562001cf557815162001cd9888262001bbc565b975062001ce68362002539565b92505060018101905062001cc2565b5085935050505092915050565b600062001d0f82620024f7565b62001d1b818562002598565b935062001d288362002497565b8060005b8381101562001d5f57815162001d43888262001bbc565b975062001d508362002539565b92505060018101905062001d2c565b5085935050505092915050565b600062001d798262002502565b62001d858185620025a9565b935062001d9283620024a7565b8060005b8381101562001dc957815162001dad888262001bd6565b975062001dba8362002546565b92505060018101905062001d96565b5085935050505092915050565b600062001de3826200250d565b62001def818562002598565b935062001dfc83620024b7565b8060005b8381101562001e3357815162001e17888262001bf0565b975062001e248362002553565b92505060018101905062001e00565b5085935050505092915050565b600062001e4d8262002518565b62001e598185620025ed565b935062001e6683620024c7565b8060005b8381101562001e9d57815162001e81888262001c0a565b975062001e8e8362002560565b92505060018101905062001e6a565b5085935050505092915050565b600062001eb78262002523565b62001ec38185620025ba565b93508360208202850162001ed785620024d7565b8060005b8581101562001f19578484038952815162001ef7858262001c24565b945062001f04836200256d565b925060208a0199505060018101905062001edb565b50829750879550505050505092915050565b600062001f398385620025dc565b93507f07ffffffffffffffffffffffffffffffffffffffffffffffffffffffffffffff83111562001f6957600080fd5b60208302925062001f7c8385846200270e565b82840190509392505050565b600062001f95826200252e565b62001fa18185620025cb565b935062001fae83620024e7565b8060005b8381101562001fe557815162001fc9888262001c3a565b975062001fd6836200257a565b92505060018101905062001fb2565b5085935050505092915050565b600062001fff826200252e565b6200200b8185620025dc565b93506200201883620024e7565b8060005b838110156200204f57815162002033888262001c3a565b975062002040836200257a565b9250506001810190506200201c565b5085935050505092915050565b620020678162002637565b82525050565b6200207881620026aa565b82525050565b6200208981620026d2565b82525050565b6200209a81620026d2565b82525050565b6000620020ae8385620025fe565b9350620020bd8385846200270e565b620020c8836200271f565b840190509392505050565b60006040830160008301518482036000860152620020f2828262001f88565b915050602083015184820360208601526200210e828262001c98565b9150508091505092915050565b62002126816200268c565b82525050565b62002137816200268c565b82525050565b600060208201905062002154600083018462001c87565b92915050565b60006101008201905062002172600083018e62001c65565b818103602083015262002187818c8e620020a0565b905081810360408301526200219e818a8c620020a0565b9050620021af60608301896200212c565b620021be60808301886200212c565b620021cd60a08301876200212c565b81810360c0830152620021e281858762001f2b565b9050620021f360e08301846200212c565b9c9b505050505050505050505050565b6000610120820190506200221b600083018f62001c87565b6200222a602083018e62001c54565b81810360408301526200223f818c8e620020a0565b9050818103606083015262002256818a8c620020a0565b90506200226760808301896200212c565b6200227660a08301886200212c565b6200228560c08301876200212c565b81810360e08301526200229a81858762001f2b565b9050620022ac6101008301846200212c565b9d9c50505050505050505050505050565b600060c0820190508181036000830152620022d9818962001d02565b90508181036020830152620022ef818862001ff2565b9050818103604083015262002305818762001ff2565b905081810360608301526200231b818662001e40565b9050818103608083015262002331818562001d6c565b905081810360a083015262002347818462001ff2565b9050979650505050505050565b6000602082019050818103600083015262002370818462001dd6565b905092915050565b6000602082019050818103600083015262002394818462001eaa565b905092915050565b6000602082019050620023b360008301846200208f565b92915050565b6000602082019050620023d060008301846200212c565b92915050565b6000604051905081810181811067ffffffffffffffff821117156200240057620023ff6200271d565b5b8060405250919050565b600067ffffffffffffffff8211156200242857620024276200271d565b5b602082029050602081019050919050565b600067ffffffffffffffff8211156200245757620024566200271d565b5b602082029050602081019050919050565b600067ffffffffffffffff8211156200248657620024856200271d565b5b602082029050602081019050919050565b6000819050602082019050919050565b6000819050602082019050919050565b6000819050602082019050919050565b6000819050602082019050919050565b6000819050602082019050919050565b6000819050602082019050919050565b600081519050919050565b600081519050919050565b600081519050919050565b600081519050919050565b600081519050919050565b600081519050919050565b6000602082019050919050565b6000602082019050919050565b6000602082019050919050565b6000602082019050919050565b6000602082019050919050565b6000602082019050919050565b600082825260208201905092915050565b600082825260208201905092915050565b600082825260208201905092915050565b600082825260208201905092915050565b600082825260208201905092915050565b600082825260208201905092915050565b600082825260208201905092915050565b600082825260208201905092915050565b60006200261c826200266c565b9050919050565b600062002630826200266c565b9050919050565b60008115159050919050565b600062002650826200260f565b9050919050565b6000819050620026678262002730565b919050565b600073ffffffffffffffffffffffffffffffffffffffff82169050919050565b6000819050919050565b6000620026a382620026e6565b9050919050565b6000620026b782620026be565b9050919050565b6000620026cb826200266c565b9050919050565b6000620026df8262002657565b9050919050565b6000620026f382620026fa565b9050919050565b600062002707826200266c565b9050919050565b82818337600083830152505050565bfe5b6000601f19601f8301169050919050565b600381106200274457620027436200271d565b5b50565b62002752816200260f565b81146200275e57600080fd5b50565b6200276c8162002623565b81146200277857600080fd5b50565b620027868162002643565b81146200279257600080fd5b50565b60038110620027a357600080fd5b50565b620027b1816200268c565b8114620027bd57600080fd5b5056fe60806040526000600760006101000a81548160ff021916908360028111156200002457fe5b02179055503480156200003657600080fd5b50604051620032413803806200324183398181016040528101906200005c91906200036a565b876000806101000a81548173ffffffffffffffffffffffffffffffffffffffff021916908373ffffffffffffffffffffffffffffffffffffffff1602179055508660059080519060200190620000b492919062000120565b508560069080519060200190620000cd92919062000120565b50836001819055508460048190555060006003819055504260028190555082600b8190555081600c90805190602001906200010a929190620001b7565b5080600d819055505050505050505050620005b8565b828054600181600116156101000203166002900490600052602060002090601f016020900481019282620001585760008555620001a4565b82601f106200017357805160ff1916838001178555620001a4565b82800160010185558215620001a4579182015b82811115620001a357825182559160200191906001019062000186565b5b509050620001b3919062000209565b5090565b828054828255906000526020600020908101928215620001f6579160200282015b82811115620001f5578251825591602001919060010190620001d8565b5b50905062000205919062000209565b5090565b5b80821115620002245760008160009055506001016200020a565b5090565b60006200023f6200023984620004ac565b62000478565b905080838252602082019050828560208602820111156200025f57600080fd5b60005b8581101562000293578162000278888262000353565b84526020840193506020830192505060018101905062000262565b5050509392505050565b6000620002b4620002ae84620004db565b62000478565b905082815260208101848484011115620002cd57600080fd5b620002da8482856200054c565b509392505050565b600081519050620002f38162000584565b92915050565b600082601f8301126200030b57600080fd5b81516200031d84826020860162000228565b91505092915050565b600082601f8301126200033857600080fd5b81516200034a8482602086016200029d565b91505092915050565b60008151905062000364816200059e565b92915050565b600080600080600080600080610100898b0312156200038857600080fd5b6000620003988b828c01620002e2565b985050602089015167ffffffffffffffff811115620003b657600080fd5b620003c48b828c0162000326565b975050604089015167ffffffffffffffff811115620003e257600080fd5b620003f08b828c0162000326565b9650506060620004038b828c0162000353565b9550506080620004168b828c0162000353565b94505060a0620004298b828c0162000353565b93505060c089015167ffffffffffffffff8111156200044757600080fd5b620004558b828c01620002f9565b92505060e0620004688b828c0162000353565b9150509295985092959890939650565b6000604051905081810181811067ffffffffffffffff82111715620004a257620004a162000582565b5b8060405250919050565b600067ffffffffffffffff821115620004ca57620004c962000582565b5b602082029050602081019050919050565b600067ffffffffffffffff821115620004f957620004f862000582565b5b601f19601f8301169050602081019050919050565b60006200051b8262000522565b9050919050565b600073ffffffffffffffffffffffffffffffffffffffff82169050919050565b6000819050919050565b60005b838110156200056c5780820151818401526020810190506200054f565b838111156200057c576000848401525b50505050565bfe5b6200058f816200050e565b81146200059b57600080fd5b50565b620005a98162000542565b8114620005b557600080fd5b50565b612c7980620005c86000396000f3fe6080604052600436106101ee5760003560e01c806350b447121161010d5780638e33cffc116100a0578063ce845d1d1161006f578063ce845d1d14610737578063e75582a414610762578063f301af421461078b578063f71d96cb146107c8578063f7feb20d14610805576101ee565b80638e33cffc14610678578063952587d6146106a3578063a6a031b9146106cf578063c19d93fb1461070c576101ee565b80637284e416116100dc5780637284e416146105cc578063893d20e8146105f75780638acfaca9146106225780638b5b9ccc1461064d576101ee565b806350b447121461051d5780635d495aea1461055a57806364c1653414610564578063685f9bf51461058f576101ee565b8063325a19f1116101855780634129b2c9116101545780634129b2c91461044c57806344ed63f6146104895780634a79d50c146104b55780634de58efe146104e0576101ee565b8063325a19f11461037c57806332a2c5d0146103a757806338f14845146103d2578063403d13121461040f576101ee565b806324cc2866116101c157806324cc2866146102c3578063298ec208146102ee57806329dcb0cf1461030a57806330289c6114610335576101ee565b806302d05d3f146101f35780630e0b0f431461021e5780631865c57d1461025b5780631f6d494214610286575b600080fd5b3480156101ff57600080fd5b50610208610842565b60405161021591906127ec565b60405180910390f35b34801561022a57600080fd5b5061024560048036038101906102409190612266565b610866565b6040516102529190612a54565b60405180910390f35b34801561026757600080fd5b50610270610908565b60405161027d9190612957565b60405180910390f35b34801561029257600080fd5b506102ad60048036038101906102a89190612266565b61091f565b6040516102ba9190612a54565b60405180910390f35b3480156102cf57600080fd5b506102d8610937565b6040516102e591906127b6565b60405180910390f35b6103086004803603810190610303919061230a565b6109de565b005b34801561031657600080fd5b5061031f610db1565b60405161032c9190612a54565b60405180910390f35b34801561034157600080fd5b5061035c60048036038101906103579190612266565b610db7565b6040516103739b9a99989796959493929190612807565b60405180910390f35b34801561038857600080fd5b50610391610ff6565b60405161039e9190612a54565b60405180910390f35b3480156103b357600080fd5b506103bc610ffc565b6040516103c991906127b6565b60405180910390f35b3480156103de57600080fd5b506103f960048036038101906103f491906122b8565b611004565b60405161040691906127b6565b60405180910390f35b34801561041b57600080fd5b50610436600480360381019061043191906122b8565b6111a3565b6040516104439190612a54565b60405180910390f35b34801561045857600080fd5b50610473600480360381019061046e91906122b8565b6111c7565b60405161048091906127b6565b60405180910390f35b34801561049557600080fd5b5061049e611207565b6040516104ac9291906128e9565b60405180910390f35b3480156104c157600080fd5b506104ca611320565b6040516104d79190612972565b60405180910390f35b3480156104ec57600080fd5b5061050760048036038101906105029190612266565b6113be565b6040516105149190612a54565b60405180910390f35b34801561052957600080fd5b50610544600480360381019061053f91906122b8565b611407565b60405161055191906127b6565b60405180910390f35b610562611446565b005b34801561057057600080fd5b50610579611903565b6040516105869190612a54565b60405180910390f35b34801561059b57600080fd5b506105b660048036038101906105b19190612266565b611909565b6040516105c39190612a54565b60405180910390f35b3480156105d857600080fd5b506105e16119ad565b6040516105ee9190612972565b60405180910390f35b34801561060357600080fd5b5061060c611a4b565b60405161061991906127b6565b60405180910390f35b34801561062e57600080fd5b50610637611a74565b6040516106449190612a54565b60405180910390f35b34801561065957600080fd5b50610662611a7a565b60405161066f91906128c7565b60405180910390f35b34801561068457600080fd5b5061068d611b08565b60405161069a9190612a54565b60405180910390f35b3480156106af57600080fd5b506106b8611b12565b6040516106c6929190612920565b60405180910390f35b3480156106db57600080fd5b506106f660048036038101906106f19190612266565b611cc3565b6040516107039190612a54565b60405180910390f35b34801561071857600080fd5b50610721611d68565b60405161072e9190612957565b60405180910390f35b34801561074357600080fd5b5061074c611d7b565b6040516107599190612a54565b60405180910390f35b34801561076e57600080fd5b5061078960048036038101906107849190612266565b611d81565b005b34801561079757600080fd5b506107b260048036038101906107ad91906122b8565b611e2c565b6040516107bf9190612a54565b60405180910390f35b3480156107d457600080fd5b506107ef60048036038101906107ea91906122b8565b611e50565b6040516107fc91906127b6565b60405180910390f35b34801561081157600080fd5b5061082c600480360381019061082791906122b8565b611e8f565b6040516108399190612a54565b60405180910390f35b60008054906101000a900473ffffffffffffffffffffffffffffffffffffffff1681565b6000806000905060005b600e805490508110156108fe57600e818154811061088a57fe5b9060005260206000200160009054906101000a900473ffffffffffffffffffffffffffffffffffffffff1673ffffffffffffffffffffffffffffffffffffffff168473ffffffffffffffffffffffffffffffffffffffff1614156108f15781806001019250505b8080600101915050610870565b5080915050919050565b6000600760009054906101000a900460ff16905090565b60086020528060005260406000206000915090505481565b6000600f60009054906101000a900473ffffffffffffffffffffffffffffffffffffffff1673ffffffffffffffffffffffffffffffffffffffff1663893d20e86040518163ffffffff1660e01b815260040160206040518083038186803b1580156109a157600080fd5b505afa1580156109b5573d6000803e3d6000fd5b505050506040513d601f19601f820116820180604052508101906109d9919061228f565b905090565b6004544210610a22576040517f08c379a0000000000000000000000000000000000000000000000000000000008152600401610a19906129f4565b60405180910390fd5b60008211610a65576040517f08c379a0000000000000000000000000000000000000000000000000000000008152600401610a5c90612994565b60405180910390fd5b6000813073ffffffffffffffffffffffffffffffffffffffff16630e0b0f43336040518263ffffffff1660e01b8152600401610aa191906127d1565b60206040518083038186803b158015610ab957600080fd5b505afa158015610acd573d6000803e3d6000fd5b505050506040513d601f19601f82011682018060405250810190610af191906122e1565b01905080600d541015610b39576040517f08c379a0000000000000000000000000000000000000000000000000000000008152600401610b3090612a14565b60405180910390fd5b610b8b83600860003373ffffffffffffffffffffffffffffffffffffffff1673ffffffffffffffffffffffffffffffffffffffff16815260200190815260200160002054611eaf90919063ffffffff16565b600860003373ffffffffffffffffffffffffffffffffffffffff1673ffffffffffffffffffffffffffffffffffffffff16815260200190815260200160002081905550610be383600354611eaf90919063ffffffff16565b60038190555060005b82811015610c6457600e339080600181540180825580915050600190039060005260206000200160009091909190916101000a81548173ffffffffffffffffffffffffffffffffffffffff021916908373ffffffffffffffffffffffffffffffffffffffff1602179055508080600101915050610bec565b506000805b600980549050811015610cf35760098181548110610c8357fe5b9060005260206000200160009054906101000a900473ffffffffffffffffffffffffffffffffffffffff1673ffffffffffffffffffffffffffffffffffffffff163373ffffffffffffffffffffffffffffffffffffffff161415610ce657600191505b8080600101915050610c69565b5080610d5d576009339080600181540180825580915050600190039060005260206000200160009091909190916101000a81548173ffffffffffffffffffffffffffffffffffffffff021916908373ffffffffffffffffffffffffffffffffffffffff1602179055505b3373ffffffffffffffffffffffffffffffffffffffff167f69ca02dd4edd7bf0a4abb9ed3b7af3f14778db5d61921c7dc7cd545266326de285604051610da39190612a54565b60405180910390a250505050565b60045481565b6000606080600080600080600080606060008060009054906101000a900473ffffffffffffffffffffffffffffffffffffffff169a5060058054600181600116156101000203166002900480601f016020809104026020016040519081016040528092919081815260200182805460018160011615610100020316600290048015610e835780601f10610e5857610100808354040283529160200191610e83565b820191906000526020600020905b815481529060010190602001808311610e6657829003601f168201915b5050505050995060068054600181600116156101000203166002900480601f016020809104026020016040519081016040528092919081815260200182805460018160011615610100020316600290048015610f205780601f10610ef557610100808354040283529160200191610f20565b820191906000526020600020905b815481529060010190602001808311610f0357829003601f168201915b505050505098506004549750600760009054906101000a900460ff16965060035495506001549450600a5493506002549250600c805480602002602001604051908101604052809291908181526020018280548015610f9e57602002820191906000526020600020905b815481526020019060010190808311610f8a575b50505050509150600860008d73ffffffffffffffffffffffffffffffffffffffff1673ffffffffffffffffffffffffffffffffffffffff16815260200190815260200160002054905091939597999b90929496989a50565b60025481565b600030905090565b600080600e838154811061101457fe5b9060005260206000200160009054906101000a900473ffffffffffffffffffffffffffffffffffffffff1690506000600e6001600e80549050038154811061105857fe5b9060005260206000200160009054906101000a900473ffffffffffffffffffffffffffffffffffffffff16905060006001600e805490500390505b8273ffffffffffffffffffffffffffffffffffffffff168273ffffffffffffffffffffffffffffffffffffffff16141561114e57600e8054806110d257fe5b6001900381819060005260206000200160006101000a81549073ffffffffffffffffffffffffffffffffffffffff02191690559055600e6001600e80549050038154811061111c57fe5b9060005260206000200160009054906101000a900473ffffffffffffffffffffffffffffffffffffffff169150611093565b6111588582611f37565b600e80548061116357fe5b6001900381819060005260206000200160006101000a81549073ffffffffffffffffffffffffffffffffffffffff02191690559055829350505050919050565b601181815481106111b357600080fd5b906000526020600020016000915090505481565b60006010600083815260200190815260200160002060020160009054906101000a900473ffffffffffffffffffffffffffffffffffffffff169050919050565b606080600980548060200260200160405190810160405280929190818152602001828054801561128c57602002820191906000526020600020905b8160009054906101000a900473ffffffffffffffffffffffffffffffffffffffff1673ffffffffffffffffffffffffffffffffffffffff1681526020019060010190808311611242575b50505050509150600e80548060200260200160405190810160405280929190818152602001828054801561131557602002820191906000526020600020905b8160009054906101000a900473ffffffffffffffffffffffffffffffffffffffff1673ffffffffffffffffffffffffffffffffffffffff16815260200190600101908083116112cb575b505050505090509091565b60058054600181600116156101000203166002900480601f0160208091040260200160405190810160405280929190818152602001828054600181600116156101000203166002900480156113b65780601f1061138b576101008083540402835291602001916113b6565b820191906000526020600020905b81548152906001019060200180831161139957829003601f168201915b505050505081565b6000600860008373ffffffffffffffffffffffffffffffffffffffff1673ffffffffffffffffffffffffffffffffffffffff168152602001908152602001600020549050919050565b600e818154811061141757600080fd5b906000526020600020016000915054906101000a900473ffffffffffffffffffffffffffffffffffffffff1681565b60008054906101000a900473ffffffffffffffffffffffffffffffffffffffff1673ffffffffffffffffffffffffffffffffffffffff163373ffffffffffffffffffffffffffffffffffffffff16146114d4576040517f08c379a00000000000000000000000000000000000000000000000000000000081526004016114cb906129b4565b60405180910390fd5b6004544211611518576040517f08c379a000000000000000000000000000000000000000000000000000000000815260040161150f906129d4565b60405180910390fd5b6000476003819055506000605f905060005b600b548110156118845781612710600354600c848154811061154857fe5b9060005260206000200154028161155b57fe5b040292506115ee600e8054806020026020016040519081016040528092919081815260200182805480156115e457602002820191906000526020600020905b8160009054906101000a900473ffffffffffffffffffffffffffffffffffffffff1673ffffffffffffffffffffffffffffffffffffffff168152602001906001019080831161159a575b505050505061205b565b6000600e80549050611685600e80548060200260200160405190810160405280929190818152602001828054801561167b57602002820191906000526020600020905b8160009054906101000a900473ffffffffffffffffffffffffffffffffffffffff1673ffffffffffffffffffffffffffffffffffffffff1681526020019060010190808311611631575b505050505061216f565b8161168c57fe5b0690506000601060008481526020019081526020016000209050600e82815481106116b357fe5b9060005260206000200160009054906101000a900473ffffffffffffffffffffffffffffffffffffffff168160020160006101000a81548173ffffffffffffffffffffffffffffffffffffffff021916908373ffffffffffffffffffffffffffffffffffffffff160217905550848160010181905550601183908060018154018082558091505060019003906000526020600020016000909190919091505560005b600e80549050811015611809578160020160009054906101000a900473ffffffffffffffffffffffffffffffffffffffff1673ffffffffffffffffffffffffffffffffffffffff16600e82815481106117aa57fe5b9060005260206000200160009054906101000a900473ffffffffffffffffffffffffffffffffffffffff1673ffffffffffffffffffffffffffffffffffffffff1614156117fc576117fa81611004565b505b8080600101915050611755565b508060020160009054906101000a900473ffffffffffffffffffffffffffffffffffffffff1673ffffffffffffffffffffffffffffffffffffffff166108fc869081150290604051600060405180830381858888f19350505050158015611874573d6000803e3d6000fd5b505050808060010191505061152a565b504760038190555060008054906101000a900473ffffffffffffffffffffffffffffffffffffffff1673ffffffffffffffffffffffffffffffffffffffff166108fc6003549081150290604051600060405180830381858888f193505050501580156118f4573d6000803e3d6000fd5b506118ff60016121a6565b5050565b60015481565b6000600e805490506127103073ffffffffffffffffffffffffffffffffffffffff16630e0b0f43856040518263ffffffff1660e01b815260040161194d91906127b6565b60206040518083038186803b15801561196557600080fd5b505afa158015611979573d6000803e3d6000fd5b505050506040513d601f19601f8201168201806040525081019061199d91906122e1565b02816119a557fe5b049050919050565b60068054600181600116156101000203166002900480601f016020809104026020016040519081016040528092919081815260200182805460018160011615610100020316600290048015611a435780601f10611a1857610100808354040283529160200191611a43565b820191906000526020600020905b815481529060010190602001808311611a2657829003601f168201915b505050505081565b60008060009054906101000a900473ffffffffffffffffffffffffffffffffffffffff16905090565b600b5481565b60606009805480602002602001604051908101604052809291908181526020018280548015611afe57602002820191906000526020600020905b8160009054906101000a900473ffffffffffffffffffffffffffffffffffffffff1673ffffffffffffffffffffffffffffffffffffffff1681526020019060010190808311611ab4575b5050505050905090565b6000600b54905090565b6060806004544211611b59576040517f08c379a0000000000000000000000000000000000000000000000000000000008152600401611b5090612a34565b60405180910390fd5b600060118054905067ffffffffffffffff81118015611b7757600080fd5b50604051908082528060200260200182016040528015611ba65781602001602082028036833780820191505090505b509050600060118054905067ffffffffffffffff81118015611bc757600080fd5b50604051908082528060200260200182016040528015611bf65781602001602082028036833780820191505090505b50905060005b601180549050811015611cb65760006010600083815260200190815260200160002090508060020160009054906101000a900473ffffffffffffffffffffffffffffffffffffffff16848381518110611c5157fe5b602002602001019073ffffffffffffffffffffffffffffffffffffffff16908173ffffffffffffffffffffffffffffffffffffffff16815250508060010154838381518110611c9c57fe5b602002602001018181525050508080600101915050611bfc565b5080829350935050509091565b6000806000905060005b600b54811015611d5e5760006010600083815260200190815260200160002090508473ffffffffffffffffffffffffffffffffffffffff168160020160009054906101000a900473ffffffffffffffffffffffffffffffffffffffff1673ffffffffffffffffffffffffffffffffffffffff161415611d50578060010154830192505b508080600101915050611ccd565b5080915050919050565b600760009054906101000a900460ff1681565b60035481565b6004544210611d8f57600080fd5b6000600860003373ffffffffffffffffffffffffffffffffffffffff1673ffffffffffffffffffffffffffffffffffffffff1681526020019081526020016000205490506000811415611de157600080fd5b8173ffffffffffffffffffffffffffffffffffffffff166108fc829081150290604051600060405180830381858888f19350505050158015611e27573d6000803e3d6000fd5b505050565b600c8181548110611e3c57600080fd5b906000526020600020016000915090505481565b60098181548110611e6057600080fd5b906000526020600020016000915054906101000a900473ffffffffffffffffffffffffffffffffffffffff1681565b600060106000838152602001908152602001600020600101549050919050565b600080828401905083811015611f2d576040517f08c379a000000000000000000000000000000000000000000000000000000000815260040180806020018281038252601b8152602001807f536166654d6174683a206164646974696f6e206f766572666c6f77000000000081525060200191505060405180910390fd5b8091505092915050565b6000600e8381548110611f4657fe5b9060005260206000200160009054906101000a900473ffffffffffffffffffffffffffffffffffffffff169050600e8281548110611f8057fe5b9060005260206000200160009054906101000a900473ffffffffffffffffffffffffffffffffffffffff16600e8481548110611fb857fe5b9060005260206000200160006101000a81548173ffffffffffffffffffffffffffffffffffffffff021916908373ffffffffffffffffffffffffffffffffffffffff16021790555080600e838154811061200e57fe5b9060005260206000200160006101000a81548173ffffffffffffffffffffffffffffffffffffffff021916908373ffffffffffffffffffffffffffffffffffffffff160217905550505050565b60005b815181101561216b576000818351034260405160200161207e9190612762565b6040516020818303038152906040528051906020012060001c8161209e57fe5b068201905060008382815181106120b157fe5b602002602001015190508383815181106120c757fe5b60200260200101518483815181106120db57fe5b602002602001019073ffffffffffffffffffffffffffffffffffffffff16908173ffffffffffffffffffffffffffffffffffffffff16815250508084848151811061212257fe5b602002602001019073ffffffffffffffffffffffffffffffffffffffff16908173ffffffffffffffffffffffffffffffffffffffff16815250505050808060010191505061205e565b5050565b60004442836040516020016121869392919061277d565b6040516020818303038152906040528051906020012060001c9050919050565b80600760006101000a81548160ff021916908360028111156121c457fe5b02179055507f1e046fdd2110d82ed3fa7652b41ced17c49cbb9ee4536e65f51ad2a6ed5359a7600760009054906101000a900460ff166040516122079190612957565b60405180910390a150565b60008135905061222181612c15565b92915050565b60008151905061223681612c15565b92915050565b60008135905061224b81612c2c565b92915050565b60008151905061226081612c2c565b92915050565b60006020828403121561227857600080fd5b600061228684828501612212565b91505092915050565b6000602082840312156122a157600080fd5b60006122af84828501612227565b91505092915050565b6000602082840312156122ca57600080fd5b60006122d88482850161223c565b91505092915050565b6000602082840312156122f357600080fd5b600061230184828501612251565b91505092915050565b6000806040838503121561231d57600080fd5b600061232b8582860161223c565b925050602061233c8582860161223c565b9150509250929050565b600061235283836123ac565b60208301905092915050565b600061236a83836123ca565b60208301905092915050565b6000612382838361272d565b60208301905092915050565b61239781612b69565b82525050565b6123a681612b1a565b82525050565b6123b581612b08565b82525050565b6123c481612b08565b82525050565b6123d381612b08565b82525050565b60006123e482612a8f565b6123ee8185612aca565b93506123f983612a6f565b8060005b8381101561242a5781516124118882612346565b975061241c83612ab0565b9250506001810190506123fd565b5085935050505092915050565b600061244282612a8f565b61244c8185612adb565b935061245783612a6f565b8060005b8381101561248857815161246f888261235e565b975061247a83612ab0565b92505060018101905061245b565b5085935050505092915050565b60006124a082612a9a565b6124aa8185612ae6565b93506124b583612a7f565b8060005b838110156124e65781516124cd8882612376565b97506124d883612abd565b9250506001810190506124b9565b5085935050505092915050565b6124fc81612b7b565b82525050565b600061250d82612aa5565b6125178185612af7565b9350612527818560208601612bb1565b61253081612bf0565b840191505092915050565b6000612548601583612af7565b91507f5072696365206d757374206265206f76657220302e00000000000000000000006000830152602082019050919050565b6000612588603283612af7565b91507f4f6e6c792074686520636f6e74726163742063726561746f722063616e20657860008301527f6563757465207468697320616374696f6e2e00000000000000000000000000006020830152604082019050919050565b60006125ee601583612af7565b91507f4c6f7474657279206973207374696c6c206f70656e00000000000000000000006000830152602082019050919050565b600061262e601683612af7565b91507f546865206c6f74746572792068617320656e6465642e000000000000000000006000830152602082019050919050565b600061266e602683612af7565b91507f596f75206172652067657474696e67206f76657220746865206c696d6974207460008301527f69636b65742e00000000000000000000000000000000000000000000000000006020830152604082019050919050565b60006126d4602883612af7565b91507f5468652077696e6e6572732068617665206e6f74206265656e20616e6e6f756e60008301527f636564207965742e0000000000000000000000000000000000000000000000006020830152604082019050919050565b61273681612b5f565b82525050565b61274581612b5f565b82525050565b61275c61275782612b5f565b612be4565b82525050565b600061276e828461274b565b60208201915081905092915050565b6000612789828661274b565b602082019150612799828561274b565b6020820191506127a98284612437565b9150819050949350505050565b60006020820190506127cb60008301846123bb565b92915050565b60006020820190506127e6600083018461238e565b92915050565b6000602082019050612801600083018461239d565b92915050565b60006101608201905061281d600083018e61239d565b818103602083015261282f818d612502565b90508181036040830152612843818c612502565b9050612852606083018b61273c565b61285f608083018a6124f3565b61286c60a083018961273c565b61287960c083018861273c565b61288660e083018761273c565b61289461010083018661273c565b8181036101208301526128a78185612495565b90506128b761014083018461273c565b9c9b505050505050505050505050565b600060208201905081810360008301526128e181846123d9565b905092915050565b6000604082019050818103600083015261290381856123d9565b9050818103602083015261291781846123d9565b90509392505050565b6000604082019050818103600083015261293a8185612495565b9050818103602083015261294e81846123d9565b90509392505050565b600060208201905061296c60008301846124f3565b92915050565b6000602082019050818103600083015261298c8184612502565b905092915050565b600060208201905081810360008301526129ad8161253b565b9050919050565b600060208201905081810360008301526129cd8161257b565b9050919050565b600060208201905081810360008301526129ed816125e1565b9050919050565b60006020820190508181036000830152612a0d81612621565b9050919050565b60006020820190508181036000830152612a2d81612661565b9050919050565b60006020820190508181036000830152612a4d816126c7565b9050919050565b6000602082019050612a69600083018461273c565b92915050565b6000819050602082019050919050565b6000819050602082019050919050565b600081519050919050565b600081519050919050565b600081519050919050565b6000602082019050919050565b6000602082019050919050565b600082825260208201905092915050565b600081905092915050565b600082825260208201905092915050565b600082825260208201905092915050565b6000612b1382612b3f565b9050919050565b6000612b2582612b3f565b9050919050565b6000819050612b3a82612c01565b919050565b600073ffffffffffffffffffffffffffffffffffffffff82169050919050565b6000819050919050565b6000612b7482612b8d565b9050919050565b6000612b8682612b2c565b9050919050565b6000612b9882612b9f565b9050919050565b6000612baa82612b3f565b9050919050565b60005b83811015612bcf578082015181840152602081019050612bb4565b83811115612bde576000848401525b50505050565b6000819050919050565bfe5b6000601f19601f8301169050919050565b60038110612c1257612c11612bee565b5b50565b612c1e81612b08565b8114612c2957600080fd5b50565b612c3581612b5f565b8114612c4057600080fd5b5056fea2646970667358221220781fb8df637f46564f6a7d289cc87717c7ba8975d9c95352c3830663e38770dc64736f6c63430007060033a264697066735822122041bd1b28ea9951c717c7c5d02dcf7426cfffa7a00e91143b037c6e6f4b45124364736f6c63430007060033",
  "immutableReferences": {},
  "source": "// SPDX-License-Identifier: MIT\r\npragma solidity ^0.7.0;\r\nimport \"../node_modules/@openzeppelin/contracts/math/SafeMath.sol\";\r\npragma experimental ABIEncoderV2;\r\n// import \"@openzeppelin/contracts/access/Ownable.sol\";\r\n\r\nimport \"./Migrations.sol\";\r\n\r\nenum State {\r\n    Open,\r\n    Closed,\r\n    Suspended\r\n}\r\n\r\ncontract LotteryBuilder {\r\n    using SafeMath for uint256;\r\n\r\n    // List of existing projects\r\n    Lottery[] private lotteries;\r\n\r\n    // Event that will be emitted whenever a new project is started\r\n    event ProjectStarted(\r\n        address contractAddress,\r\n        address projectStarter,\r\n        string projectTitle,\r\n        string projectDesc,\r\n        uint256 deadline,\r\n        uint256 ticketPrice,\r\n        uint256 numberWinners,\r\n        uint256[] rewards,\r\n        uint256 limitTickets\r\n    );\r\n\r\n    /** @dev Function to start a new project.\r\n     * @param title Title of the project to be created\r\n     * @param description Brief description about the project\r\n     * @param deadlineDate Project deadline in days\r\n     * @param ticketPrice Project goal in wei\r\n     */\r\n    function startProject(\r\n        address payable owner,\r\n        string calldata title,\r\n        string calldata description,\r\n        uint256 deadlineDate,\r\n        uint256 ticketPrice,\r\n        uint256 numberWinners,\r\n        uint256[] calldata rewards,\r\n        uint256 limitTickets\r\n    ) external {\r\n        uint256 raiseUntil = deadlineDate;\r\n        Lottery newProject = new Lottery(\r\n            owner,\r\n            title,\r\n            description,\r\n            raiseUntil,\r\n            ticketPrice,\r\n            numberWinners,\r\n            rewards,\r\n            limitTickets\r\n        );\r\n        lotteries.push(newProject);\r\n        emit ProjectStarted(\r\n            address(newProject),\r\n            owner,\r\n            title,\r\n            description,\r\n            raiseUntil,\r\n            ticketPrice,\r\n            numberWinners,\r\n            rewards,\r\n            limitTickets\r\n        );\r\n    }\r\n\r\n    struct Winners {\r\n        uint256[] values;\r\n        address[] accounts;\r\n    }\r\n    mapping(uint256 => Winners) allWinners;\r\n\r\n    struct participated {\r\n        address lotteryAddress;\r\n        uint256 value;\r\n        uint256 ticketsAmount;\r\n        State state;\r\n        bool won;\r\n        uint256 amountWon;\r\n    }\r\n    mapping(uint256 => participated) participatedList;\r\n\r\n    function participatedByAddress(address _address)\r\n        public\r\n        returns (\r\n            address[] memory,\r\n            uint256[] memory,\r\n            uint256[] memory,\r\n            State[] memory,\r\n            bool[] memory,\r\n            uint256[] memory\r\n        )\r\n    {\r\n        uint256 participatedIndex = 0;\r\n        for (uint256 i = 0; i < lotteries.length; i++) {\r\n            Lottery ltr = lotteries[i];\r\n            address[] memory players = ltr.getPlayers();\r\n            for (uint256 j = 0; j < players.length; j++) {\r\n                if (players[j] == _address) {\r\n                    participated storage par = participatedList[\r\n                        participatedIndex\r\n                    ];\r\n                    par.lotteryAddress = ltr.getContractAddress();\r\n                    par.value = ltr.getContributed(_address);\r\n                    par.ticketsAmount = ltr.getEnteredTicketsByAccount(\r\n                        _address\r\n                    );\r\n                    par.state = ltr.getState();\r\n                    par.won = false;\r\n                    par.amountWon = 0;\r\n\r\n                    for (uint256 k = 0; k < ltr.getNumberOfWinners(); k++) {\r\n                        if (_address == ltr.getWinner(k)) {\r\n                            par.won = true;\r\n                            par.amountWon = ltr.getWinnerAmount(k);\r\n                        }\r\n                    }\r\n                    participatedIndex++;\r\n                }\r\n            }\r\n        }\r\n\r\n        address[] memory addrs = new address[](participatedIndex);\r\n        uint256[] memory funds = new uint256[](participatedIndex);\r\n        uint256[] memory tickets = new uint256[](participatedIndex);\r\n        State[] memory states = new State[](participatedIndex);\r\n        bool[] memory won = new bool[](participatedIndex);\r\n        uint256[] memory amountWon = new uint256[](participatedIndex);\r\n\r\n        for (uint256 i = 0; i < participatedIndex; i++) {\r\n            participated storage pa = participatedList[i];\r\n            addrs[i] = pa.lotteryAddress;\r\n            funds[i] = pa.value;\r\n            tickets[i] = pa.ticketsAmount;\r\n            states[i] = pa.state;\r\n            won[i] = pa.won;\r\n            amountWon[i] = pa.amountWon;\r\n        }\r\n\r\n        return (addrs, funds, tickets, states, won, amountWon);\r\n    }\r\n\r\n    // function getTotalSpent(address _address) external view returns (uint256) {\r\n    //     uint256 totalSpent = 0;\r\n    //     totalSpent = this.getRewardsWonByAddress(_address) - this.getSpentState(_address);\r\n    //     return totalSpent;\r\n    // }\r\n\r\n    function getSpentState(address _address) external view returns (uint256) {\r\n        uint256 spent = 0;\r\n\r\n        for (uint256 i = 0; i < lotteries.length; i++) {\r\n            Lottery ltr = lotteries[i];\r\n            spent = spent + uint256(ltr.getContributed(_address));\r\n        }\r\n\r\n        return spent;\r\n    }\r\n\r\n    function getRewardsWonByAddress(address _address)\r\n        external\r\n        view\r\n        returns (uint256)\r\n    {\r\n        uint256 rewardsWon = 0;\r\n\r\n        for (uint256 i = 0; i < lotteries.length; i++) {\r\n            Lottery ltr = lotteries[i];\r\n            rewardsWon =\r\n                uint256(rewardsWon) +\r\n                uint256(ltr.getRewardsByAccount(_address));\r\n        }\r\n        return rewardsWon;\r\n    }\r\n\r\n    event RevealLatestWinners(Winners[] _a);\r\n\r\n    function getLatestWinners() external view returns (Winners[] memory) {\r\n        Lottery[] memory closedLotteries = this.returnClosedProjects();\r\n\r\n        Winners[] memory winners = new Winners[](closedLotteries.length);\r\n        if (closedLotteries.length != 0) {\r\n            for (uint256 i = 0; i < closedLotteries.length; i++) {\r\n                Lottery ltr = closedLotteries[i];\r\n                (uint256[] memory values, address[] memory accounts) = ltr\r\n                    .revealWinners();\r\n                winners[i].values = values;\r\n                winners[i].accounts = accounts;\r\n            }\r\n        }\r\n        return winners;\r\n    }\r\n\r\n    function returnClosedProjects() external view returns (Lottery[] memory) {\r\n        return this.getProjectsByState(State.Closed);\r\n    }\r\n\r\n    function returnOpenProjects() external view returns (Lottery[] memory) {\r\n        return this.getProjectsByState(State.Open);\r\n    }\r\n\r\n    function getProjectsByState(State state)\r\n        external\r\n        view\r\n        returns (Lottery[] memory)\r\n    {\r\n        uint256 count = 0;\r\n        for (uint256 i = 0; i < lotteries.length; i++) {\r\n            Lottery ltr = lotteries[i];\r\n            if (ltr.getState() == state) {\r\n                count++;\r\n            }\r\n        }\r\n        Lottery[] memory ltrs = new Lottery[](count);\r\n        count = 0;\r\n        for (uint256 i = 0; i < lotteries.length; i++) {\r\n            Lottery ltr = lotteries[i];\r\n            if (ltr.getState() == state) {\r\n                ltrs[count] = ltr;\r\n                count++;\r\n            }\r\n        }\r\n        return ltrs;\r\n    }\r\n\r\n    /** @dev Function to get all projects' contract addresses.\r\n     * @return A list of all projects' contract addreses\r\n     */\r\n    function returnAllLotteries() external view returns (Lottery[] memory) {\r\n        return lotteries;\r\n    }\r\n}\r\n\r\ncontract Lottery {\r\n    using SafeMath for uint256;\r\n    // State variables\r\n    address payable public creator;\r\n    uint256 public priceTicket; // required to reach at least this much, else everyone gets refund\r\n    uint256 public created;\r\n    uint256 public currentBalance;\r\n    uint256 public deadline;\r\n    string public title;\r\n    string public description;\r\n    State public state = State.Open; // initialize on create\r\n    mapping(address => uint256) public contributors;\r\n    address[] public players;\r\n    uint256 playersLength;\r\n    uint256 public numberOfWinners;\r\n    uint256[] public rewards;\r\n    uint256 limitTickets;\r\n    address[] public tickets;\r\n\r\n    Migrations migrations;\r\n\r\n    function getDeployerAddress() public view returns (address) {\r\n        return migrations.getOwner();\r\n    }\r\n\r\n    struct winner {\r\n        uint256 id;\r\n        uint256 amount;\r\n        address account;\r\n    }\r\n    mapping(uint256 => winner) winners;\r\n    uint256[] public winnerIds;\r\n\r\n    // function createTickets(address data) public {\r\n    //     delete tickets; // This should reset the length to zero\r\n    //     tickets.push(data);\r\n    // }\r\n\r\n    // function pushTicket(address data) public {\r\n    //     tickets.push(data);\r\n    // }\r\n\r\n    // function getTickets() public view returns(address[] memory) {\r\n    //     return tickets;\r\n    // }\r\n    event LotteryStateChanged(State newState);\r\n    event Transfer(address indexed _from, uint256 _value);\r\n\r\n    constructor(\r\n        address payable projectStarter,\r\n        string memory projectTitle,\r\n        string memory projectDesc,\r\n        uint256 deadlineTime,\r\n        uint256 projectTicketPrice,\r\n        uint256 numberWinners,\r\n        uint256[] memory lotteryRewards,\r\n        uint256 lotteryLimitTickets\r\n    ) {\r\n        creator = projectStarter;\r\n        title = projectTitle;\r\n        description = projectDesc;\r\n        priceTicket = projectTicketPrice;\r\n        deadline = deadlineTime;\r\n        currentBalance = 0;\r\n        created = block.timestamp;\r\n        numberOfWinners = numberWinners;\r\n        rewards = lotteryRewards;\r\n        limitTickets = lotteryLimitTickets;\r\n    }\r\n\r\n    function getRewardsByAccount(address _address)\r\n        public\r\n        view\r\n        returns (uint256)\r\n    {\r\n        uint256 rewardsWon = 0;\r\n        for (uint256 i = 0; i < numberOfWinners; i++) {\r\n            winner storage ltWinner = winners[i];\r\n            if (ltWinner.account == _address) {\r\n                rewardsWon = uint256(rewardsWon) + uint256(ltWinner.amount);\r\n            }\r\n        }\r\n        return rewardsWon;\r\n    }\r\n\r\n    function getContractAddress() public view returns (address) {\r\n        return address(this);\r\n    }\r\n\r\n    function getContributed(address _address) public view returns (uint256) {\r\n        return contributors[_address];\r\n    }\r\n\r\n    function getState() public view returns (State) {\r\n        return state;\r\n    }\r\n\r\n    function getWinner(uint256 id) public view returns (address) {\r\n        return winners[id].account;\r\n    }\r\n\r\n    function getWinnerAmount(uint256 id) public view returns (uint256) {\r\n        return winners[id].amount;\r\n    }\r\n\r\n    function buyTicket(uint256 overralPrice, uint256 ticketAmount)\r\n        public\r\n        payable\r\n    {\r\n        require(block.timestamp < deadline, \"The lottery has ended.\");\r\n        require(overralPrice > 0, \"Price must be over 0.\");\r\n\r\n        uint256 ticketsByAcc = this.getEnteredTicketsByAccount(msg.sender) +\r\n            ticketAmount;\r\n        require(\r\n            limitTickets >= ticketsByAcc,\r\n            \"You are getting over the limit ticket.\"\r\n        );\r\n\r\n        contributors[msg.sender] = contributors[msg.sender].add(overralPrice);\r\n        currentBalance = currentBalance.add(overralPrice);\r\n\r\n        for (uint256 i = 0; i < ticketAmount; i++) {\r\n            tickets.push(msg.sender);\r\n        }\r\n\r\n        bool doesPlayerEntered = false;\r\n        for (uint256 i = 0; i < players.length; i++) {\r\n            if (msg.sender == players[i]) {\r\n                doesPlayerEntered = true;\r\n            }\r\n        }\r\n\r\n        if (!doesPlayerEntered) {\r\n            players.push(msg.sender);\r\n        }\r\n\r\n        emit Transfer(msg.sender, overralPrice);\r\n    }\r\n\r\n    function getNumberOfWinners() public view returns (uint256) {\r\n        return numberOfWinners;\r\n    }\r\n\r\n    function getOwner() public view returns (address) {\r\n        return creator;\r\n    }\r\n\r\n    function getEnteredTicketsByAccount(address _address)\r\n        public\r\n        view\r\n        returns (uint256)\r\n    {\r\n        uint256 ticketsByAccount = 0;\r\n        for (uint256 i = 0; i < tickets.length; i++) {\r\n            if (_address == tickets[i]) {\r\n                ticketsByAccount++;\r\n            }\r\n        }\r\n        return ticketsByAccount;\r\n    }\r\n\r\n    function getWinProbabiltyByAccount(address _address)\r\n        public\r\n        view\r\n        returns (uint256)\r\n    {\r\n        // vraciam percenta + navyse 2 desatinimi cislami,\r\n        // kvoli tomu ze v Solidity sa neda pracovat s float\r\n        // na frontende ak vstup predelim 100, dostanem percenta\r\n        // napr 21,58\r\n        return\r\n            (this.getEnteredTicketsByAccount(_address) * 10000) /\r\n            tickets.length;\r\n    }\r\n\r\n    function shuffle(address[] memory roundTickets) private view {\r\n        for (uint256 i = 0; i < roundTickets.length; i++) {\r\n            uint256 n = i +\r\n                (uint256(keccak256(abi.encodePacked(block.timestamp))) %\r\n                    (roundTickets.length - i));\r\n            address temp = roundTickets[n];\r\n            roundTickets[n] = roundTickets[i];\r\n            roundTickets[i] = temp;\r\n        }\r\n    }\r\n\r\n    function random(address[] memory roundTickets)\r\n        private\r\n        view\r\n        returns (uint256)\r\n    {\r\n        return\r\n            uint256(\r\n                keccak256(\r\n                    abi.encodePacked(\r\n                        block.difficulty,\r\n                        block.timestamp,\r\n                        roundTickets\r\n                    )\r\n                )\r\n            );\r\n    }\r\n\r\n    function pickWinner() public payable isCreator {\r\n        require(block.timestamp > deadline, \"Lottery is still open\");\r\n\r\n        uint256 reward;\r\n        currentBalance = address(this).balance;\r\n        uint256 winnersReward = 95;\r\n        // uint256 creatorsReward = 5;\r\n        for (uint256 i = 0; i < numberOfWinners; i++) {\r\n            // calculate the REWARD based on draw ROUND\r\n            reward =\r\n                ((uint256(rewards[i]) * currentBalance) / uint256(10000)) *\r\n                uint256(winnersReward);\r\n\r\n            // shuffle tickets in round i\r\n            shuffle(tickets);\r\n\r\n            // get random address from tickets\r\n            uint256 index = random(tickets) % tickets.length;\r\n\r\n            // set the winner properties\r\n            winner storage ltWinner = winners[i];\r\n            ltWinner.account = tickets[index];\r\n            ltWinner.amount = reward;\r\n            winnerIds.push(i);\r\n\r\n            // move out winner tickets\r\n            for (uint256 j = 0; j < tickets.length; j++) {\r\n                if (tickets[j] == ltWinner.account) {\r\n                    deleteUser(j);\r\n                }\r\n            }\r\n\r\n            // send reward to the winner\r\n            payable(ltWinner.account).transfer(reward);\r\n        }\r\n\r\n        // reward for creator 3%\r\n         currentBalance = address(this).balance;\r\n        // reward = ((100 * 3) / creatorsReward) * (currentBalance / 100);\r\n         payable(creator).transfer(currentBalance);\r\n\r\n        // reward for deployer 2%\r\n        //reward = (100*3 / 5) * address(this).balance / 100;\r\n        // payable(getDeployerAddress()).transfer(address(this).balance);\r\n        _changeState(State.Closed);\r\n    }\r\n\r\n    // Modifier to check if the function caller is the project creator\r\n    modifier isCreator() {\r\n        require(\r\n            msg.sender == creator,\r\n            \"Only the contract creator can execute this action.\"\r\n        );\r\n        _;\r\n    }\r\n\r\n    function getPlayers() public view returns (address[] memory) {\r\n        return players;\r\n    }\r\n\r\n    function storno(address sender) public {\r\n        require(block.timestamp < deadline); //is open period\r\n\r\n        uint256 amount = contributors[msg.sender];\r\n        require(amount != 0);\r\n\r\n        payable(sender).transfer(amount); //payment return\r\n    }\r\n\r\n    event LogDeleteUser(address indexed userAddress, uint256 index);\r\n\r\n    function deleteUser(uint256 userIndex) public returns (address index) {\r\n        address toDelete = tickets[userIndex];\r\n        address toMove = tickets[tickets.length - 1];\r\n        uint256 lastIndex = tickets.length - 1;\r\n        while (toMove == toDelete) {\r\n            tickets.pop();\r\n            toMove = tickets[tickets.length - 1];\r\n        }\r\n        swap(userIndex, lastIndex);\r\n        tickets.pop();\r\n\r\n        return toDelete;\r\n    }\r\n\r\n     function swap(uint256 userIndex, uint256 lastIndex) private {\r\n        address toDelete = tickets[userIndex];\r\n        tickets[userIndex] = tickets[lastIndex];\r\n        tickets[lastIndex] = toDelete;\r\n    }\r\n\r\n    function revealWinners()\r\n        public\r\n        view\r\n        returns (uint256[] memory, address[] memory)\r\n    {\r\n        require(\r\n            block.timestamp > deadline,\r\n            \"The winners have not been announced yet.\"\r\n        );\r\n\r\n        address[] memory addrs = new address[](winnerIds.length);\r\n        uint256[] memory amounts = new uint256[](winnerIds.length);\r\n\r\n        for (uint256 i = 0; i < winnerIds.length; i++) {\r\n            winner storage ltWinner = winners[i];\r\n            addrs[i] = ltWinner.account;\r\n            amounts[i] = ltWinner.amount;\r\n        }\r\n        return (amounts, addrs);\r\n    }\r\n\r\n    /** @dev Function to get specific information about the project.\r\n     * @return projectStarter Returns all the project's details\r\n     */\r\n    function getDetails(address account)\r\n        public\r\n        view\r\n        returns (\r\n            address payable projectStarter,\r\n            string memory projectTitle,\r\n            string memory projectDesc,\r\n            uint256 deadlineTime,\r\n            State currentState,\r\n            uint256 currentAmount,\r\n            uint256 ticketPrice,\r\n            uint256 lotteryPlayersLength,\r\n            uint256 lotteryDateCreated,\r\n            uint256[] memory lotteryRewards,\r\n            uint256 purchased\r\n        )\r\n    {\r\n        projectStarter = creator;\r\n        projectTitle = title;\r\n        projectDesc = description;\r\n        deadlineTime = deadline;\r\n        currentState = state;\r\n        currentAmount = currentBalance;\r\n        ticketPrice = priceTicket;\r\n        lotteryPlayersLength = playersLength;\r\n        lotteryDateCreated = created;\r\n        lotteryRewards = rewards;\r\n        purchased = contributors[account];\r\n    }\r\n\r\n    // function purchasedByAddress(address _key) public view returns (uint256) {\r\n    //     return contributors[_key];\r\n    // }\r\n    function _changeState(State _newState) private {\r\n        state = _newState;\r\n        emit LotteryStateChanged(state);\r\n    }\r\n\r\n    function getPlayersDetails()\r\n        public\r\n        view\r\n        returns (\r\n            address[] memory lotteryPlayers,\r\n            address[] memory lotteryTickets\r\n        )\r\n    {\r\n        lotteryPlayers = players;\r\n        lotteryTickets = tickets;\r\n    }\r\n}\r\n",
  "sourcePath": "C:\\fei\\projects\\lottery\\contracts\\Lottery.sol",
  "compiler": {
    "name": "solc",
    "version": "0.7.6+commit.7338295f.Emscripten.clang"
  },
  "schemaVersion": "3.4.7",
  "updatedAt": "2022-04-24T19:52:27.813Z",
  "networkType": "ethereum",
  "devdoc": {
    "kind": "dev",
    "methods": {
      "returnAllLotteries()": {
        "details": "Function to get all projects' contract addresses.",
        "returns": {
          "_0": "A list of all projects' contract addreses"
        }
      },
      "startProject(address,string,string,uint256,uint256,uint256,uint256[],uint256)": {
        "details": "Function to start a new project.",
        "params": {
          "deadlineDate": "Project deadline in days",
          "description": "Brief description about the project",
          "ticketPrice": "Project goal in wei",
          "title": "Title of the project to be created"
        }
      }
    },
    "version": 1
  },
  "userdoc": {
    "kind": "user",
    "methods": {},
    "version": 1
  }
}