{
  "contractName": "LotteryBuilder",
  "abi": [
    {
      "inputs": [],
      "stateMutability": "nonpayable",
      "type": "constructor"
    },
    {
      "anonymous": false,
      "inputs": [
        {
          "indexed": false,
          "internalType": "address",
          "name": "contractAddress",
          "type": "address"
        },
        {
          "indexed": false,
          "internalType": "address",
          "name": "deployer",
          "type": "address"
        },
        {
          "indexed": false,
          "internalType": "address",
          "name": "creator",
          "type": "address"
        },
        {
          "indexed": false,
          "internalType": "uint256",
          "name": "id",
          "type": "uint256"
        },
        {
          "indexed": false,
          "internalType": "uint256",
          "name": "deadline",
          "type": "uint256"
        },
        {
          "indexed": false,
          "internalType": "uint256",
          "name": "ticketPrice",
          "type": "uint256"
        },
        {
          "indexed": false,
          "internalType": "uint256[]",
          "name": "rewards",
          "type": "uint256[]"
        },
        {
          "indexed": false,
          "internalType": "uint256",
          "name": "limitTickets",
          "type": "uint256"
        }
      ],
      "name": "ProjectStarted",
      "type": "event"
    },
    {
      "anonymous": false,
      "inputs": [
        {
          "components": [
            {
              "internalType": "uint256[]",
              "name": "values",
              "type": "uint256[]"
            },
            {
              "internalType": "address[]",
              "name": "accounts",
              "type": "address[]"
            }
          ],
          "indexed": false,
          "internalType": "struct LotteryBuilder.Winners[]",
          "name": "_a",
          "type": "tuple[]"
        }
      ],
      "name": "RevealLatestWinners",
      "type": "event"
    },
    {
      "inputs": [],
      "name": "owner",
      "outputs": [
        {
          "internalType": "address payable",
          "name": "",
          "type": "address"
        }
      ],
      "stateMutability": "view",
      "type": "function",
      "constant": true
    },
    {
      "inputs": [
        {
          "internalType": "address payable",
          "name": "creator",
          "type": "address"
        },
        {
          "internalType": "uint256",
          "name": "deadlineDate",
          "type": "uint256"
        },
        {
          "internalType": "uint256",
          "name": "ticketPrice",
          "type": "uint256"
        },
        {
          "internalType": "uint256[]",
          "name": "rewards",
          "type": "uint256[]"
        },
        {
          "internalType": "uint256",
          "name": "limitTickets",
          "type": "uint256"
        }
      ],
      "name": "startProject",
      "outputs": [],
      "stateMutability": "nonpayable",
      "type": "function"
    },
    {
      "inputs": [],
      "name": "getOwner",
      "outputs": [
        {
          "internalType": "address",
          "name": "",
          "type": "address"
        }
      ],
      "stateMutability": "view",
      "type": "function",
      "constant": true
    },
    {
      "inputs": [
        {
          "internalType": "address",
          "name": "_address",
          "type": "address"
        }
      ],
      "name": "participatedByAddress",
      "outputs": [
        {
          "internalType": "address[]",
          "name": "",
          "type": "address[]"
        },
        {
          "internalType": "uint256[]",
          "name": "",
          "type": "uint256[]"
        },
        {
          "internalType": "uint256[]",
          "name": "",
          "type": "uint256[]"
        },
        {
          "internalType": "enum State[]",
          "name": "",
          "type": "uint8[]"
        },
        {
          "internalType": "bool[]",
          "name": "",
          "type": "bool[]"
        },
        {
          "internalType": "uint256[]",
          "name": "",
          "type": "uint256[]"
        }
      ],
      "stateMutability": "nonpayable",
      "type": "function"
    },
    {
      "inputs": [
        {
          "internalType": "address",
          "name": "_address",
          "type": "address"
        }
      ],
      "name": "getSpentState",
      "outputs": [
        {
          "internalType": "uint256",
          "name": "",
          "type": "uint256"
        }
      ],
      "stateMutability": "view",
      "type": "function",
      "constant": true
    },
    {
      "inputs": [
        {
          "internalType": "address",
          "name": "_address",
          "type": "address"
        }
      ],
      "name": "getRewardsWonByAddress",
      "outputs": [
        {
          "internalType": "uint256",
          "name": "",
          "type": "uint256"
        }
      ],
      "stateMutability": "view",
      "type": "function",
      "constant": true
    },
    {
      "inputs": [],
      "name": "getLatestWinners",
      "outputs": [
        {
          "components": [
            {
              "internalType": "uint256[]",
              "name": "values",
              "type": "uint256[]"
            },
            {
              "internalType": "address[]",
              "name": "accounts",
              "type": "address[]"
            }
          ],
          "internalType": "struct LotteryBuilder.Winners[]",
          "name": "",
          "type": "tuple[]"
        }
      ],
      "stateMutability": "view",
      "type": "function",
      "constant": true
    },
    {
      "inputs": [],
      "name": "returnClosedProjects",
      "outputs": [
        {
          "internalType": "contract Lottery[]",
          "name": "",
          "type": "address[]"
        }
      ],
      "stateMutability": "view",
      "type": "function",
      "constant": true
    },
    {
      "inputs": [],
      "name": "returnOpenProjects",
      "outputs": [
        {
          "internalType": "contract Lottery[]",
          "name": "",
          "type": "address[]"
        }
      ],
      "stateMutability": "view",
      "type": "function",
      "constant": true
    },
    {
      "inputs": [
        {
          "internalType": "enum State",
          "name": "state",
          "type": "uint8"
        }
      ],
      "name": "getProjectsByState",
      "outputs": [
        {
          "internalType": "contract Lottery[]",
          "name": "",
          "type": "address[]"
        }
      ],
      "stateMutability": "view",
      "type": "function",
      "constant": true
    },
    {
      "inputs": [],
      "name": "returnAllLotteries",
      "outputs": [
        {
          "internalType": "contract Lottery[]",
          "name": "",
          "type": "address[]"
        }
      ],
      "stateMutability": "view",
      "type": "function",
      "constant": true
    }
  ],
  "bytecode": "0x608060405234801561001057600080fd5b50600180546001600160a01b03191633179055613bd9806100326000396000f3fe60806040523480156200001157600080fd5b5060043610620000dc5760003560e01c80638da5cb5b116200008d578063c934d7581162000063578063c934d75814620001a4578063e184794c14620001ca578063eb1f044514620001e157620000dc565b80638da5cb5b146200017757806392925a551462000181578063c5d8668f146200019a57620000dc565b80632f771ef611620000c35780632f771ef6146200012e578063893d20e814620001455780638b3645ee146200015e57620000dc565b8063180a1d1614620000e15780632c9d40601462000115575b600080fd5b620000f8620000f23660046200138e565b620001eb565b6040516200010c9695949392919062001849565b60405180910390f35b6200011f62000a59565b6040516200010c919062001903565b6200011f6200013f36600462001621565b62000abd565b6200014f62000cef565b6040516200010c91906200177e565b6200016862000cfe565b6040516200010c919062001952565b6200014f62000ed6565b6200019862000192366004620013d3565b62000ee5565b005b6200011f62001081565b620001bb620001b53660046200138e565b62001107565b6040516200010c919062001a4d565b620001bb620001db3660046200138e565b620011e6565b6200011f620012be565b6060806060806060806000805b600054811015620007685760008082815481106200021257fe5b9060005260206000200160009054906101000a90046001600160a01b031690506000816001600160a01b0316638b5b9ccc6040518163ffffffff1660e01b815260040160006040518083038186803b1580156200026e57600080fd5b505afa15801562000283573d6000803e3d6000fd5b505050506040513d6000823e601f3d908101601f19168201604052620002ad919081019062001478565b905060005b81518110156200075c578b6001600160a01b0316828281518110620002d357fe5b60200260200101516001600160a01b0316141562000753576000600360008781526020019081526020016000209050836001600160a01b03166332a2c5d06040518163ffffffff1660e01b815260040160206040518083038186803b1580156200033c57600080fd5b505afa15801562000351573d6000803e3d6000fd5b505050506040513d601f19601f82011682018060405250810190620003779190620013b4565b8160000160006101000a8154816001600160a01b0302191690836001600160a01b03160217905550836001600160a01b0316634de58efe8e6040518263ffffffff1660e01b8152600401620003cd91906200177e565b60206040518083038186803b158015620003e657600080fd5b505afa158015620003fb573d6000803e3d6000fd5b505050506040513d601f19601f820116820180604052508101906200042191906200165f565b8160010181905550836001600160a01b0316630e0b0f438e6040518263ffffffff1660e01b81526004016200045791906200177e565b60206040518083038186803b1580156200047057600080fd5b505afa15801562000485573d6000803e3d6000fd5b505050506040513d601f19601f82011682018060405250810190620004ab91906200165f565b8160020181905550836001600160a01b0316631865c57d6040518163ffffffff1660e01b815260040160206040518083038186803b158015620004ed57600080fd5b505afa15801562000502573d6000803e3d6000fd5b505050506040513d601f19601f8201168201806040525081019062000528919062001640565b60038201805460ff191660018360028111156200054157fe5b021790555060038101805461ff00191690556000600482018190555b846001600160a01b0316638e33cffc6040518163ffffffff1660e01b815260040160206040518083038186803b1580156200059757600080fd5b505afa158015620005ac573d6000803e3d6000fd5b505050506040513d601f19601f82011682018060405250810190620005d291906200165f565b8110156200074a576040517f4129b2c90000000000000000000000000000000000000000000000000000000081526001600160a01b03861690634129b2c9906200062190849060040162001a4d565b60206040518083038186803b1580156200063a57600080fd5b505afa1580156200064f573d6000803e3d6000fd5b505050506040513d601f19601f82011682018060405250810190620006759190620013b4565b6001600160a01b03168e6001600160a01b03161415620007415760038201805461ff0019166101001790556040517ff7feb20d0000000000000000000000000000000000000000000000000000000081526001600160a01b0386169063f7feb20d90620006e790849060040162001a4d565b60206040518083038186803b1580156200070057600080fd5b505afa15801562000715573d6000803e3d6000fd5b505050506040513d601f19601f820116820180604052508101906200073b91906200165f565b60048301555b6001016200055d565b50506001909401935b600101620002b2565b505050600101620001f8565b5060008167ffffffffffffffff811180156200078357600080fd5b50604051908082528060200260200182016040528015620007ae578160200160208202803683370190505b50905060008267ffffffffffffffff81118015620007cb57600080fd5b50604051908082528060200260200182016040528015620007f6578160200160208202803683370190505b50905060008367ffffffffffffffff811180156200081357600080fd5b506040519080825280602002602001820160405280156200083e578160200160208202803683370190505b50905060008467ffffffffffffffff811180156200085b57600080fd5b5060405190808252806020026020018201604052801562000886578160200160208202803683370190505b50905060008567ffffffffffffffff81118015620008a357600080fd5b50604051908082528060200260200182016040528015620008ce578160200160208202803683370190505b50905060008667ffffffffffffffff81118015620008eb57600080fd5b5060405190808252806020026020018201604052801562000916578160200160208202803683370190505b50905060005b8781101562000a43576000818152600360205260409020805488516001600160a01b03909116908990849081106200095057fe5b60200260200101906001600160a01b031690816001600160a01b03168152505080600101548783815181106200098257fe5b6020026020010181815250508060020154868381518110620009a057fe5b60209081029190910101526003810154855160ff90911690869084908110620009c557fe5b60200260200101906002811115620009d957fe5b90816002811115620009e757fe5b815250508060030160019054906101000a900460ff1684838151811062000a0a57fe5b602002602001019015159081151581525050806004015483838151811062000a2e57fe5b6020908102919091010152506001016200091c565b50949d939c50919a509850965090945092505050565b6060600080548060200260200160405190810160405280929190818152602001828054801562000ab357602002820191906000526020600020905b81546001600160a01b0316815260019091019060200180831162000a94575b5050505050905090565b60606000805b60005481101562000b9a57600080828154811062000add57fe5b6000918252602090912001546001600160a01b0316905084600281111562000b0157fe5b816001600160a01b0316631865c57d6040518163ffffffff1660e01b815260040160206040518083038186803b15801562000b3b57600080fd5b505afa15801562000b50573d6000803e3d6000fd5b505050506040513d601f19601f8201168201806040525081019062000b76919062001640565b600281111562000b8257fe5b141562000b90576001909201915b5060010162000ac3565b5060008167ffffffffffffffff8111801562000bb557600080fd5b5060405190808252806020026020018201604052801562000be0578160200160208202803683370190505b5090506000915060005b60005481101562000ce757600080828154811062000c0457fe5b6000918252602090912001546001600160a01b0316905085600281111562000c2857fe5b816001600160a01b0316631865c57d6040518163ffffffff1660e01b815260040160206040518083038186803b15801562000c6257600080fd5b505afa15801562000c77573d6000803e3d6000fd5b505050506040513d601f19601f8201168201806040525081019062000c9d919062001640565b600281111562000ca957fe5b141562000cdd578083858151811062000cbe57fe5b6001600160a01b03909216602092830291909101909101526001909301925b5060010162000bea565b509392505050565b6001546001600160a01b031690565b60606000306001600160a01b031663c5d8668f6040518163ffffffff1660e01b815260040160006040518083038186803b15801562000d3c57600080fd5b505afa15801562000d51573d6000803e3d6000fd5b505050506040513d6000823e601f3d908101601f1916820160405262000d7b9190810190620014b7565b90506000815167ffffffffffffffff8111801562000d9857600080fd5b5060405190808252806020026020018201604052801562000dd657816020015b62000dc2620012e7565b81526020019060019003908162000db85790505b509050815160001462000ed05760005b825181101562000ece57600083828151811062000dff57fe5b60200260200101519050600080826001600160a01b031663952587d66040518163ffffffff1660e01b815260040160006040518083038186803b15801562000e4657600080fd5b505afa15801562000e5b573d6000803e3d6000fd5b505050506040513d6000823e601f3d908101601f1916820160405262000e8591908101906200155b565b915091508185858151811062000e9757fe5b6020026020010151600001819052508085858151811062000eb457fe5b602090810291909101810151015250505060010162000de6565b505b91505090565b6001546001600160a01b031681565b6000805b8381101562000f165784848281811062000eff57fe5b602002919091013592909201915060010162000ee9565b508060641462000f5d576040517f08c379a000000000000000000000000000000000000000000000000000000000815260040162000f5490620019f0565b60405180910390fd5b600080546001546040518993916001600160a01b0316908b90849086908c908c908c908c9062000f8d9062001301565b62000fa098979695949392919062001792565b604051809103906000f08015801562000fbd573d6000803e3d6000fd5b5060008054600180820183558280527f290decd9548b62a8d60345a988386fc84ba6bc95484008f6362f93160ef3e56390910180547fffffffffffffffffffffffff0000000000000000000000000000000000000000166001600160a01b0385811691909117909155905491546040519394507f010c75df701e8aeb2bdb428c7e92503c573b876432663440f9dd80b597e7d0b8936200106d93869316918f9189908f908f908f908f90620017e8565b60405180910390a150505050505050505050565b6040516317bb8f7b60e11b81526060903090632f771ef690620010aa90600190600401620019da565b60006040518083038186803b158015620010c357600080fd5b505afa158015620010d8573d6000803e3d6000fd5b505050506040513d6000823e601f3d908101601f19168201604052620011029190810190620014b7565b905090565b600080805b600054811015620011df5760008082815481106200112657fe5b6000918252602090912001546040517f4de58efe0000000000000000000000000000000000000000000000000000000081526001600160a01b0390911691508190634de58efe906200117d9088906004016200177e565b60206040518083038186803b1580156200119657600080fd5b505afa158015620011ab573d6000803e3d6000fd5b505050506040513d601f19601f82011682018060405250810190620011d191906200165f565b90920191506001016200110c565b5092915050565b600080805b600054811015620011df5760008082815481106200120557fe5b6000918252602090912001546040517fa6a031b90000000000000000000000000000000000000000000000000000000081526001600160a01b039091169150819063a6a031b9906200125c9088906004016200177e565b60206040518083038186803b1580156200127557600080fd5b505afa1580156200128a573d6000803e3d6000fd5b505050506040513d601f19601f82011682018060405250810190620012b091906200165f565b9092019150600101620011eb565b6040516317bb8f7b60e11b81526060903090632f771ef690620010aa90600090600401620019da565b604051806040016040528060608152602001606081525090565b6120e28062001ac283390190565b600082601f83011262001320578081fd5b8151602062001339620013338362001a7b565b62001a56565b828152818101908583018385028701840188101562001356578586fd5b855b85811015620013815781516200136e8162001a9a565b8452928401929084019060010162001358565b5090979650505050505050565b600060208284031215620013a0578081fd5b8135620013ad8162001a9a565b9392505050565b600060208284031215620013c6578081fd5b8151620013ad8162001a9a565b60008060008060008060a08789031215620013ec578182fd5b8635620013f98162001a9a565b95506020870135945060408701359350606087013567ffffffffffffffff8082111562001424578384fd5b818901915089601f83011262001438578384fd5b81358181111562001447578485fd5b8a602080830285010111156200145b578485fd5b602083019550809450505050608087013590509295509295509295565b6000602082840312156200148a578081fd5b815167ffffffffffffffff811115620014a1578182fd5b620014af848285016200130f565b949350505050565b60006020808385031215620014ca578182fd5b825167ffffffffffffffff811115620014e1578283fd5b8301601f81018513620014f2578283fd5b805162001503620013338262001a7b565b818152838101908385018584028501860189101562001520578687fd5b8694505b838510156200154f5780516200153a8162001a9a565b83526001949094019391850191850162001524565b50979650505050505050565b600080604083850312156200156e578182fd5b825167ffffffffffffffff8082111562001586578384fd5b818501915085601f8301126200159a578384fd5b81516020620015ad620013338362001a7b565b82815281810190858301838502870184018b1015620015ca578889fd5b8896505b84871015620015ee578051835260019690960195918301918301620015ce565b509188015191965090935050508082111562001608578283fd5b5062001617858286016200130f565b9150509250929050565b60006020828403121562001633578081fd5b8135620013ad8162001ab3565b60006020828403121562001652578081fd5b8151620013ad8162001ab3565b60006020828403121562001671578081fd5b5051919050565b6000815180845260208085019450808401835b83811015620016b25781516001600160a01b0316875295820195908201906001016200168b565b509495945050505050565b6000815180845260208085019450808401835b83811015620016b2578151151587529582019590820190600101620016d0565b60008284527f07ffffffffffffffffffffffffffffffffffffffffffffffffffffffffffffff83111562001722578081fd5b6020830280836020870137939093016020019283525090919050565b6000815180845260208085019450808401835b83811015620016b25781518752958201959082019060010162001751565b600381106200177a57fe5b9052565b6001600160a01b0391909116815260200190565b60006001600160a01b03808b168352808a1660208401525087604083015286606083015285608083015260e060a0830152620017d360e083018587620016f0565b90508260c08301529998505050505050505050565b60006101006001600160a01b03808d168452808c166020850152808b166040850152508860608401528760808401528660a08401528060c0840152620018328184018688620016f0565b9150508260e08301529a9950505050505050505050565b600060c082526200185e60c083018962001678565b60208382038185015262001873828a6200173e565b915083820360408501526200188982896200173e565b84810360608601528751808252828901935090820190845b81811015620018c857620018b78386516200176f565b9383019391830191600101620018a1565b50508481036080860152620018de8188620016bd565b9250505082810360a0840152620018f681856200173e565b9998505050505050505050565b6020808252825182820181905260009190848201906040850190845b81811015620019465783516001600160a01b0316835292840192918401916001016200191f565b50909695505050505050565b60208082528251828201819052600091906040908185019080840286018301878501865b83811015620019cc57888303603f19018552815180518785526200199d888601826200173e565b91890151858303868b0152919050620019b7818362001678565b96890196945050509086019060010162001976565b509098975050505050505050565b60208101620019ea82846200176f565b92915050565b60208082526026908201527f5468652073756d206f66207072697a6573206973206e6f74203130302028706560408201527f7263656e74290000000000000000000000000000000000000000000000000000606082015260800190565b90815260200190565b60405181810167ffffffffffffffff8111828210171562001a7357fe5b604052919050565b600067ffffffffffffffff82111562001a9057fe5b5060209081020190565b6001600160a01b038116811462001ab057600080fd5b50565b6003811062001ab057600080fdfe60806040526007805460ff191690556000600f553480156200002057600080fd5b50604051620020e2380380620020e2833981016040819052620000439162000134565b600080546001600160a01b03808a166001600160a01b031992831617835560018054918a1691909216179055600686905560028490556005859055600455426003558151600b8190556200009f90600c906020850190620000b0565b50600d55506200023e945050505050565b828054828255906000526020600020908101928215620000ee579160200282015b82811115620000ee578251825591602001919060010190620000d1565b50620000fc92915062000100565b5090565b5b80821115620000fc576000815560010162000101565b80516001600160a01b03811681146200012f57600080fd5b919050565b600080600080600080600060e0888a0312156200014f578283fd5b6200015a8862000117565b965060206200016b818a0162000117565b60408a015160608b015160808c015160a08d0151939a50919850965094506001600160401b03808211156200019e578485fd5b818b0191508b601f830112620001b2578485fd5b815181811115620001bf57fe5b83810260405185828201018181108582111715620001d957fe5b806040525080935082815285810193508585018f87848801011115620001fd578889fd5b8895505b838610156200022157805185526001959095019493860193860162000201565b5080975050505050505060c0880151905092959891949750929550565b611e94806200024e6000396000f3fe6080604052600436106102c65760003560e01c80635d495aea116101795780638b5b9ccc116100d6578063c19d93fb1161008a578063f301af4211610064578063f301af42146106c7578063f71d96cb146106e7578063f7feb20d14610707576102c6565b8063c19d93fb14610688578063ce845d1d1461069d578063d5f39488146106b2576102c6565b8063952587d6116100bb578063952587d614610630578063a6a031b914610653578063af640d0f14610673576102c6565b80638b5b9ccc146106065780638e33cffc1461061b576102c6565b806376d6b4ed1161012d57806387bb7ae01161011257806387bb7ae0146105c7578063893d20e8146105dc5780638acfaca9146105f1576102c6565b806376d6b4ed1461059d578063790b6209146105b2576102c6565b806364c165341161015e57806364c165341461055557806367dd74ca1461056a578063685f9bf51461057d576102c6565b80635d495aea146105385780635f8d96de14610540576102c6565b8063325a19f11161022757806341c0e1b5116101db5780634de58efe116101c05780634de58efe146104d65780634ed02622146104f657806350b4471214610518576102c6565b806341c0e1b51461049c57806344ed63f6146104b3576102c6565b806338f148451161020c57806338f148451461043c578063403d13121461045c5780634129b2c91461047c576102c6565b8063325a19f11461041257806332a2c5d014610427576102c6565b80631865c57d1161027e57806324cc28661161026357806324cc2866146103b157806329dcb0cf146103c657806330289c61146103db576102c6565b80631865c57d1461036f5780631f6d494214610391576102c6565b8063080b2a86116102af578063080b2a86146103185780630e0b0f431461033a57806312065fe01461035a576102c6565b806302d05d3f146102cb5780630572b0cc146102f6575b600080fd5b3480156102d757600080fd5b506102e0610727565b6040516102ed91906119fd565b60405180910390f35b34801561030257600080fd5b5061030b610736565b6040516102ed9190611acf565b34801561032457600080fd5b5061032d61078e565b6040516102ed91906119aa565b34801561034657600080fd5b5061032d61035536600461187c565b610794565b34801561036657600080fd5b5061032d6107e5565b34801561037b57600080fd5b506103846107eb565b6040516102ed9190611af5565b34801561039d57600080fd5b5061032d6103ac36600461187c565b6107f4565b3480156103bd57600080fd5b506102e0610806565b3480156103d257600080fd5b5061032d610815565b3480156103e757600080fd5b506103fb6103f636600461187c565b61081b565b6040516102ed9b9a99989796959493929190611a11565b34801561041e57600080fd5b5061032d6108db565b34801561043357600080fd5b506102e06108e1565b34801561044857600080fd5b506102e06104573660046118a3565b6108e5565b34801561046857600080fd5b5061032d6104773660046118a3565b610953565b34801561048857600080fd5b506102e06104973660046118a3565b610974565b3480156104a857600080fd5b506104b1610992565b005b3480156104bf57600080fd5b506104c86109d3565b6040516102ed929190611aa1565b3480156104e257600080fd5b5061032d6104f136600461187c565b610a94565b34801561050257600080fd5b5061050b610aaf565b6040516102ed9190611a87565b34801561052457600080fd5b506102e06105333660046118a3565b610b10565b6104b1610b3a565b34801561054c57600080fd5b5061032d610ffe565b34801561056157600080fd5b5061032d611004565b61032d6105783660046118a3565b61100a565b34801561058957600080fd5b5061032d61059836600461187c565b611281565b3480156105a957600080fd5b5061032d61130d565b3480156105be57600080fd5b5061032d611313565b3480156105d357600080fd5b5061032d611319565b3480156105e857600080fd5b506102e061131f565b3480156105fd57600080fd5b5061032d61132e565b34801561061257600080fd5b5061050b611334565b34801561062757600080fd5b5061032d611394565b34801561063c57600080fd5b5061064561139a565b6040516102ed929190611ae2565b34801561065f57600080fd5b5061032d61066e36600461187c565b6114d9565b34801561067f57600080fd5b5061032d611521565b34801561069457600080fd5b50610384611527565b3480156106a957600080fd5b5061032d611530565b3480156106be57600080fd5b506102e0611536565b3480156106d357600080fd5b5061032d6106e23660046118a3565b611545565b3480156106f357600080fd5b506102e06107023660046118a3565b611555565b34801561071357600080fd5b5061032d6107223660046118a3565b611565565b6001546001600160a01b031681565b6060600c80548060200260200160405190810160405280929190818152602001828054801561078457602002820191906000526020600020905b815481526020019060010190808311610770575b5050505050905090565b600e5490565b600080805b600e548110156107de57600e81815481106107b057fe5b6000918252602090912001546001600160a01b03858116911614156107d6576001909101905b600101610799565b5092915050565b60045490565b60075460ff1690565b60086020526000908152604090205481565b6000546001600160a01b031690565b60055481565b600154600654600554600754600454600254600a54600354600f54600c8054604080516020808402820181019092528281526001600160a01b03909c169b60ff9099169893959493606093600093919290919083018282801561089d57602002820191906000526020600020905b815481526020019060010190808311610889575b50505050509150600860008d6001600160a01b03166001600160a01b0316815260200190815260200160002054905091939597999b90929496989a50565b60035481565b3090565b600080600e83815481106108f557fe5b600091825260209091200154600e546001600160a01b0390911691506000190161091f848261157a565b600e80548061092a57fe5b600082815260209020600019908201810180546001600160a01b03191690550190555092915050565b6011818154811061096357600080fd5b600091825260209091200154905081565b6000908152601060205260409020600201546001600160a01b031690565b6001546001600160a01b031633146109c55760405162461bcd60e51b81526004016109bc90611e01565b60405180910390fd5b6001546001600160a01b0316ff5b6060806009805480602002602001604051908101604052809291908181526020018280548015610a2c57602002820191906000526020600020905b81546001600160a01b03168152600190910190602001808311610a0e575b50505050509150600e805480602002602001604051908101604052809291908181526020018280548015610a8957602002820191906000526020600020905b81546001600160a01b03168152600190910190602001808311610a6b575b505050505090509091565b6001600160a01b031660009081526008602052604090205490565b6060600e80548060200260200160405190810160405280929190818152602001828054801561078457602002820191906000526020600020905b81546001600160a01b03168152600190910190602001808311610ae9575050505050905090565b600e8181548110610b2057600080fd5b6000918252602090912001546001600160a01b0316905081565b6001546001600160a01b03163314610b645760405162461bcd60e51b81526004016109bc90611bea565b6005544211610b855760405162461bcd60e51b81526004016109bc90611ca4565b610b8d611646565b610ba95760405162461bcd60e51b81526004016109bc90611d6f565b610bb161164d565b15610bce5760405162461bcd60e51b81526004016109bc90611d12565b610bd86002611668565b476004556000605f606447820204600f55600b5460095411610c715760005b600954811015610c6b57600060098281548110610c1057fe5b60009182526020808320909101546001600160a01b031680835260089091526040808320549051919350839281156108fc029290818181858888f19350505050158015610c61573d6000803e3d6000fd5b5050600101610bf7565b50610f60565b60005b600b54811015610f5e57600e54610c8a57610f5e565b7faf4ec89c92b2378c5281acbbdbd9184d1dddf5382f07d8bdaf42196683e206f381600101604051602001610cbf9190611953565b60408051601f1981840301815290829052610cd991611b03565b60405180910390a181612710600454600c8481548110610cf557fe5b90600052602060002001540281610d0857fe5b04029250610d146116c8565b600e805460408051602080840282018101909252828152600093610d77928490830182828015610d6d57602002820191906000526020600020905b81546001600160a01b03168152600190910190602001808311610d4f575b50505050506117e4565b81610d7e57fe5b6000848152601060205260409020600e80549390920693509183908110610da157fe5b60009182526020822001546002830180546001600160a01b0319166001600160a01b03909216919091179055600182810187905560118054918201815582527f31ecc21a745e3968a04e9570e4425bc18fa8019c68028196b546d1669c200c68018490555b600e54600019018111610f16576002820154600e80546001600160a01b039092169183908110610e3257fe5b6000918252602090912001546001600160a01b03161415610f0e57600e8054600091906000198101908110610e6357fe5b6000918252602090912001546001600160a01b031690505b60028301546001600160a01b038281169116148015610ea05750600e54600019018214155b15610f0257600e805480610eb057fe5b600082815260209020810160001990810180546001600160a01b0319169055908101909155600e805490918101908110610ee657fe5b6000918252602090912001546001600160a01b03169050610e7b565b610f0b826108e5565b50505b600101610e06565b5060028101546040516001600160a01b039091169086156108fc029087906000818181858888f19350505050158015610f53573d6000803e3d6000fd5b505050600101610c74565b505b476004819055606490603c026001546040519290910493506001600160a01b03169083156108fc029084906000818181858888f19350505050158015610faa573d6000803e3d6000fd5b50610fb3610806565b6001600160a01b03166108fc479081150290604051600060405180830381858888f19350505050158015610feb573d6000803e3d6000fd5b5047600455610ffa6001611668565b5050565b60055490565b60025481565b6000600554421061102d5760405162461bcd60e51b81526004016109bc90611cdb565b60025434101561104f5760405162461bcd60e51b81526004016109bc90611b56565b611057611646565b6110735760405162461bcd60e51b81526004016109bc90611c47565b604051630e0b0f4360e01b815260009083903090630e0b0f439061109b9033906004016119fd565b60206040518083038186803b1580156110b357600080fd5b505afa1580156110c7573d6000803e3d6000fd5b505050506040513d601f19601f820116820180604052508101906110eb91906118bb565b01905080600d5410156111105760405162461bcd60e51b81526004016109bc90611b8d565b3360009081526008602052604090205461112a9034611819565b336000908152600860205260409020556004546111479034611819565b60045560005b8381101561119e57600e8054600181810183556000929092527fbb7b4a454dc3493923482f07822329ed19e8244eff582cc204f8554c3620c3fd0180546001600160a01b031916331790550161114d565b506000805b6009548110156111e357600981815481106111ba57fe5b6000918252602090912001546001600160a01b03163314156111db57600191505b6001016111a3565b508061122c57600980546001810182556000919091527f6e1540171b6c0c960b71a7020d9f60077f6af931a8bbf590da0223dacf75c7af0180546001600160a01b031916331790555b336001600160a01b03167f69ca02dd4edd7bf0a4abb9ed3b7af3f14778db5d61921c7dc7cd545266326de23460405161126591906119aa565b60405180910390a2505050606447605f0204600f5550600e5490565b600e54604051630e0b0f4360e01b8152600091903090630e0b0f43906112ab9086906004016119fd565b60206040518083038186803b1580156112c357600080fd5b505afa1580156112d7573d6000803e3d6000fd5b505050506040513d601f19601f820116820180604052508101906112fb91906118bb565b612710028161130657fe5b0492915050565b600d5490565b60095490565b60025490565b6001546001600160a01b031690565b600b5481565b60606009805480602002602001604051908101604052809291908181526020018280548015610784576020028201919060005260206000209081546001600160a01b03168152600190910190602001808311610ae9575050505050905090565b600c5490565b60608060055442116113be5760405162461bcd60e51b81526004016109bc90611da4565b60115460009067ffffffffffffffff811180156113da57600080fd5b50604051908082528060200260200182016040528015611404578160200160208202803683370190505b5060115490915060009067ffffffffffffffff8111801561142457600080fd5b5060405190808252806020026020018201604052801561144e578160200160208202803683370190505b50905060005b6011548110156114d0576000818152601060205260409020600281015484516001600160a01b039091169085908490811061148b57fe5b60200260200101906001600160a01b031690816001600160a01b03168152505080600101548383815181106114bc57fe5b602090810291909101015250600101611454565b50925090509091565b600080805b600b548110156107de57600081815260106020526040902060028101546001600160a01b0386811691161415611518578060010154830192505b506001016114de565b60065481565b60075460ff1681565b60045481565b6000546001600160a01b031681565b600c818154811061096357600080fd5b60098181548110610b2057600080fd5b60009081526010602052604090206001015490565b6000600e838154811061158957fe5b600091825260209091200154600e80546001600160a01b03909216925090839081106115b157fe5b600091825260209091200154600e80546001600160a01b0390921691859081106115d757fe5b9060005260206000200160006101000a8154816001600160a01b0302191690836001600160a01b0316021790555080600e838154811061161357fe5b9060005260206000200160006101000a8154816001600160a01b0302191690836001600160a01b03160217905550505050565b6011541590565b6000600260075460ff16600281111561166257fe5b14905090565b6007805482919060ff1916600183600281111561168157fe5b02179055506007546040517f1e046fdd2110d82ed3fa7652b41ced17c49cbb9ee4536e65f51ad2a6ed5359a7916116bd9160ff90911690611af5565b60405180910390a150565b60005b600e548110156117e157600081600e8054905003426040516020016116f091906119aa565b6040516020818303038152906040528051906020012060001c8161171057fe5b06820190506000600e828154811061172457fe5b600091825260209091200154600e80546001600160a01b039092169250908490811061174c57fe5b600091825260209091200154600e80546001600160a01b03909216918490811061177257fe5b9060005260206000200160006101000a8154816001600160a01b0302191690836001600160a01b0316021790555080600e84815481106117ae57fe5b600091825260209091200180546001600160a01b0319166001600160a01b039290921691909117905550506001016116cb565b50565b60004442836040516020016117fb939291906119b3565b60408051601f19818403018152919052805160209091012092915050565b600082820183811015611873576040805162461bcd60e51b815260206004820152601b60248201527f536166654d6174683a206164646974696f6e206f766572666c6f770000000000604482015290519081900360640190fd5b90505b92915050565b60006020828403121561188d578081fd5b81356001600160a01b0381168114611873578182fd5b6000602082840312156118b4578081fd5b5035919050565b6000602082840312156118cc578081fd5b5051919050565b6000815180845260208085019450808401835b8381101561190b5781516001600160a01b0316875295820195908201906001016118e6565b509495945050505050565b6000815180845260208085019450808401835b8381101561190b57815187529582019590820190600101611929565b6003811061194f57fe5b9052565b7f57696e6e65722000000000000000000000000000000000000000000000000000815260078101919091527f2073656c656374696f6e206861732073746172746564210000000000000000006027820152603e0190565b90815260200190565b600084825260208481840152604083018451828601845b828110156119ef5781516001600160a01b0316845292840192908401906001016119ca565b509198975050505050505050565b6001600160a01b0391909116815260200190565b60006101606001600160a01b038e1683528c60208401528b6040840152611a3b606084018c611945565b8960808401528860a08401528760c08401528660e08401528561010084015280610120840152611a6d81840186611916565b915050826101408301529c9b505050505050505050505050565b600060208252611a9a60208301846118d3565b9392505050565b600060408252611ab460408301856118d3565b8281036020840152611ac681856118d3565b95945050505050565b600060208252611a9a6020830184611916565b600060408252611ab46040830185611916565b602081016118768284611945565b6000602080835283518082850152825b81811015611b2f57858101830151858201604001528201611b13565b81811115611b405783604083870101525b50601f01601f1916929092016040019392505050565b6020808252601a908201527f496e76616c696420656e747279206665652070726f7669646564000000000000604082015260600190565b6020808252603f908201527f456e7465726564207469636b6574732073686f756c64206e6f74206265206f7660408201527f657220746865206c696d6974207469636b657420627920616464726573732e00606082015260800190565b60208082526031908201527f4f6e6c792074686520636f6e74726163742063726561746f722063616e20657860408201527f6563757465207468697320616374696f6e000000000000000000000000000000606082015260800190565b6020808252603f908201527f4c6f74746572792068617320616c7265616479206265656e20636c6f7365642e60408201527f2057696e6e657273207765726520616c72656164792073656c65637465642e00606082015260800190565b6020808252600f908201527f4c6f7474657279206973206f70656e0000000000000000000000000000000000604082015260600190565b60208082526015908201527f546865206c6f74746572792068617320656e6465640000000000000000000000604082015260600190565b60208082526025908201527f57696e6e6572732073656c656374696f6e20616c726561647920696e2070726f60408201527f6772657373000000000000000000000000000000000000000000000000000000606082015260800190565b6020808252818101527f57696e6e65722068617320616c7265616479206265656e2073656c6563746564604082015260600190565b60208082526028908201527f5468652077696e6e6572732068617665206e6f74206265656e20616e6e6f756e60408201527f636564207965742e000000000000000000000000000000000000000000000000606082015260800190565b60208082526025908201527f4f6e6c7920746865206f776e65722063616e206b696c6c207468697320636f6e60408201527f747261637400000000000000000000000000000000000000000000000000000060608201526080019056fea2646970667358221220f40a403c464b02ad5314c441387826d3e445fce096fc8356b0a76b0dea7846d864736f6c63430007060033a2646970667358221220599e4e02cff8ca43f20d72844d99eb15331a042ef8112a63d4dd240f1fce78ab64736f6c63430007060033",
  "immutableReferences": {},
  "source": "// SPDX-License-Identifier: MIT\npragma solidity ^0.7.0;\nimport \"../node_modules/@openzeppelin/contracts/math/SafeMath.sol\";\npragma experimental ABIEncoderV2;\nimport \"./Lottery.sol\";\n\ncontract LotteryBuilder {\n    using SafeMath for uint256;\n\n    // List of existing projects\n    Lottery[] private lotteries;\n    address payable public owner;\n\n    constructor() {\n        owner = msg.sender;\n    }\n\n    // Event that will be emitted whenever a new project is started\n    event ProjectStarted(\n        address contractAddress,\n        address deployer,\n        address creator,\n        uint256 id,\n        uint256 deadline,\n        uint256 ticketPrice,\n        uint256[] rewards,\n        uint256 limitTickets\n    );\n\n    /** @dev Function to start a new project.\n     * @param deadlineDate Project deadline in days\n     * @param ticketPrice Project goal in wei\n     */\n    function startProject(\n        address payable creator,\n        uint256 deadlineDate,\n        uint256 ticketPrice,\n        uint256[] calldata rewards,\n        uint256 limitTickets\n    ) external {\n        uint256 totalPercent = 0;\n        for (uint256 i = 0; i < rewards.length; i++) {\n            totalPercent += rewards[i];\n        }\n        require(totalPercent == 100, \"The sum of prizes is not 100 (percent)\");\n        uint256 raiseUntil = deadlineDate;\n        uint256 id = lotteries.length;\n        Lottery newProject = new Lottery(\n            owner,\n            creator,\n            id,\n            raiseUntil,\n            ticketPrice,\n            rewards,\n            limitTickets\n        );\n        lotteries.push(newProject);\n        emit ProjectStarted(\n            address(newProject),\n            owner,\n            creator,\n            lotteries.length,\n            raiseUntil,\n            ticketPrice,\n            rewards,\n            limitTickets\n        );\n    }\n\n    struct Winners {\n        uint256[] values;\n        address[] accounts;\n    }\n    mapping(uint256 => Winners) allWinners;\n\n    struct participated {\n        address lotteryAddress;\n        uint256 value;\n        uint256 ticketsAmount;\n        State state;\n        bool won;\n        uint256 amountWon;\n    }\n    mapping(uint256 => participated) participatedList;\n\n    function getOwner() public view returns (address) {\n        return owner;\n    }\n\n    function participatedByAddress(address _address)\n        public\n        returns (\n            address[] memory,\n            uint256[] memory,\n            uint256[] memory,\n            State[] memory,\n            bool[] memory,\n            uint256[] memory\n        )\n    {\n        uint256 participatedIndex = 0;\n        for (uint256 i = 0; i < lotteries.length; i++) {\n            Lottery ltr = lotteries[i];\n            address[] memory players = ltr.getPlayers();\n            for (uint256 j = 0; j < players.length; j++) {\n                if (players[j] == _address) {\n                    participated storage par = participatedList[\n                        participatedIndex\n                    ];\n                    par.lotteryAddress = ltr.getContractAddress();\n                    par.value = ltr.getContributed(_address);\n                    par.ticketsAmount = ltr.getEnteredTicketsByAccount(\n                        _address\n                    );\n                    par.state = ltr.getState();\n                    par.won = false;\n                    par.amountWon = 0;\n\n                    for (uint256 k = 0; k < ltr.getNumberOfWinners(); k++) {\n                        if (_address == ltr.getWinner(k)) {\n                            par.won = true;\n                            par.amountWon = ltr.getWinnerAmount(k);\n                        }\n                    }\n                    participatedIndex++;\n                }\n            }\n        }\n\n        address[] memory addrs = new address[](participatedIndex);\n        uint256[] memory funds = new uint256[](participatedIndex);\n        uint256[] memory tickets = new uint256[](participatedIndex);\n        State[] memory states = new State[](participatedIndex);\n        bool[] memory won = new bool[](participatedIndex);\n        uint256[] memory amountWon = new uint256[](participatedIndex);\n\n        for (uint256 i = 0; i < participatedIndex; i++) {\n            participated storage pa = participatedList[i];\n            addrs[i] = pa.lotteryAddress;\n            funds[i] = pa.value;\n            tickets[i] = pa.ticketsAmount;\n            states[i] = pa.state;\n            won[i] = pa.won;\n            amountWon[i] = pa.amountWon;\n        }\n\n        return (addrs, funds, tickets, states, won, amountWon);\n    }\n\n    // function getTotalSpent(address _address) external view returns (uint256) {\n    //     uint256 totalSpent = 0;\n    //     totalSpent = this.getRewardsWonByAddress(_address) - this.getSpentState(_address);\n    //     return totalSpent;\n    // }\n\n    function getSpentState(address _address) external view returns (uint256) {\n        uint256 spent = 0;\n\n        for (uint256 i = 0; i < lotteries.length; i++) {\n            Lottery ltr = lotteries[i];\n            spent = spent + uint256(ltr.getContributed(_address));\n        }\n\n        return spent;\n    }\n\n    function getRewardsWonByAddress(address _address)\n        external\n        view\n        returns (uint256)\n    {\n        uint256 rewardsWon = 0;\n\n        for (uint256 i = 0; i < lotteries.length; i++) {\n            Lottery ltr = lotteries[i];\n            rewardsWon =\n                uint256(rewardsWon) +\n                uint256(ltr.getRewardsByAccount(_address));\n        }\n        return rewardsWon;\n    }\n\n    event RevealLatestWinners(Winners[] _a);\n\n    function getLatestWinners() external view returns (Winners[] memory) {\n        Lottery[] memory closedLotteries = this.returnClosedProjects();\n\n        Winners[] memory winners = new Winners[](closedLotteries.length);\n        if (closedLotteries.length != 0) {\n            for (uint256 i = 0; i < closedLotteries.length; i++) {\n                Lottery ltr = closedLotteries[i];\n                (uint256[] memory values, address[] memory accounts) = ltr\n                    .revealWinners();\n                winners[i].values = values;\n                winners[i].accounts = accounts;\n            }\n        }\n        return winners;\n    }\n\n    function returnClosedProjects() external view returns (Lottery[] memory) {\n        return this.getProjectsByState(State.Closed);\n    }\n\n    function returnOpenProjects() external view returns (Lottery[] memory) {\n        return this.getProjectsByState(State.Open);\n    }\n\n    function getProjectsByState(State state)\n        external\n        view\n        returns (Lottery[] memory)\n    {\n        uint256 count = 0;\n        for (uint256 i = 0; i < lotteries.length; i++) {\n            Lottery ltr = lotteries[i];\n            if (ltr.getState() == state) {\n                count++;\n            }\n        }\n        Lottery[] memory ltrs = new Lottery[](count);\n        count = 0;\n        for (uint256 i = 0; i < lotteries.length; i++) {\n            Lottery ltr = lotteries[i];\n            if (ltr.getState() == state) {\n                ltrs[count] = ltr;\n                count++;\n            }\n        }\n        return ltrs;\n    }\n\n    /** @dev Function to get all projects' contract addresses.\n     * @return A list of all projects' contract addreses\n     */\n    function returnAllLotteries() external view returns (Lottery[] memory) {\n        return lotteries;\n    }\n}\n",
  "sourcePath": "/Users/jakub/Documents/Skola/lottery/contracts/LotteryBuilder.sol",
  "compiler": {
    "name": "solc",
    "version": "0.7.6+commit.7338295f.Emscripten.clang"
  },
  "schemaVersion": "3.4.7",
  "updatedAt": "2023-06-03T10:31:55.730Z",
  "networkType": "ethereum",
  "devdoc": {
    "kind": "dev",
    "methods": {
      "returnAllLotteries()": {
        "details": "Function to get all projects' contract addresses.",
        "returns": {
          "_0": "A list of all projects' contract addreses"
        }
      },
      "startProject(address,uint256,uint256,uint256[],uint256)": {
        "details": "Function to start a new project.",
        "params": {
          "deadlineDate": "Project deadline in days",
          "ticketPrice": "Project goal in wei"
        }
      }
    },
    "version": 1
  },
  "userdoc": {
    "kind": "user",
    "methods": {},
    "version": 1
  }
}