{
  "contractName": "Lottery",
  "abi": [
    {
      "inputs": [
        {
          "internalType": "address payable",
          "name": "projectStarter",
          "type": "address"
        },
        {
          "internalType": "string",
          "name": "projectTitle",
          "type": "string"
        },
        {
          "internalType": "string",
          "name": "projectDesc",
          "type": "string"
        },
        {
          "internalType": "uint256",
          "name": "deadlineTime",
          "type": "uint256"
        },
        {
          "internalType": "uint256",
          "name": "projectTicketPrice",
          "type": "uint256"
        }
      ],
      "stateMutability": "nonpayable",
      "type": "constructor"
    },
    {
      "anonymous": false,
      "inputs": [
        {
          "indexed": true,
          "internalType": "address",
          "name": "_from",
          "type": "address"
        },
        {
          "indexed": false,
          "internalType": "uint256",
          "name": "_value",
          "type": "uint256"
        }
      ],
      "name": "Transfer",
      "type": "event"
    },
    {
      "inputs": [
        {
          "internalType": "address",
          "name": "",
          "type": "address"
        }
      ],
      "name": "contributors",
      "outputs": [
        {
          "internalType": "uint256",
          "name": "",
          "type": "uint256"
        }
      ],
      "stateMutability": "view",
      "type": "function"
    },
    {
      "inputs": [],
      "name": "created",
      "outputs": [
        {
          "internalType": "uint256",
          "name": "",
          "type": "uint256"
        }
      ],
      "stateMutability": "view",
      "type": "function"
    },
    {
      "inputs": [],
      "name": "creator",
      "outputs": [
        {
          "internalType": "address payable",
          "name": "",
          "type": "address"
        }
      ],
      "stateMutability": "view",
      "type": "function"
    },
    {
      "inputs": [],
      "name": "currentBalance",
      "outputs": [
        {
          "internalType": "uint256",
          "name": "",
          "type": "uint256"
        }
      ],
      "stateMutability": "view",
      "type": "function"
    },
    {
      "inputs": [],
      "name": "deadline",
      "outputs": [
        {
          "internalType": "uint256",
          "name": "",
          "type": "uint256"
        }
      ],
      "stateMutability": "view",
      "type": "function"
    },
    {
      "inputs": [],
      "name": "description",
      "outputs": [
        {
          "internalType": "string",
          "name": "",
          "type": "string"
        }
      ],
      "stateMutability": "view",
      "type": "function"
    },
    {
      "inputs": [
        {
          "internalType": "uint256",
          "name": "",
          "type": "uint256"
        }
      ],
      "name": "players",
      "outputs": [
        {
          "internalType": "address",
          "name": "",
          "type": "address"
        }
      ],
      "stateMutability": "view",
      "type": "function"
    },
    {
      "inputs": [],
      "name": "priceTicket",
      "outputs": [
        {
          "internalType": "uint256",
          "name": "",
          "type": "uint256"
        }
      ],
      "stateMutability": "view",
      "type": "function"
    },
    {
      "inputs": [],
      "name": "state",
      "outputs": [
        {
          "internalType": "enum Lottery.State",
          "name": "",
          "type": "uint8"
        }
      ],
      "stateMutability": "view",
      "type": "function"
    },
    {
      "inputs": [],
      "name": "title",
      "outputs": [
        {
          "internalType": "string",
          "name": "",
          "type": "string"
        }
      ],
      "stateMutability": "view",
      "type": "function"
    },
    {
      "inputs": [],
      "name": "winner",
      "outputs": [
        {
          "internalType": "address",
          "name": "",
          "type": "address"
        }
      ],
      "stateMutability": "view",
      "type": "function"
    },
    {
      "inputs": [
        {
          "internalType": "uint256",
          "name": "overralPrice",
          "type": "uint256"
        }
      ],
      "name": "buyTicket",
      "outputs": [],
      "stateMutability": "payable",
      "type": "function"
    },
    {
      "inputs": [],
      "name": "isLotteryOpen",
      "outputs": [],
      "stateMutability": "nonpayable",
      "type": "function"
    },
    {
      "inputs": [],
      "name": "getOwner",
      "outputs": [
        {
          "internalType": "address",
          "name": "",
          "type": "address"
        }
      ],
      "stateMutability": "view",
      "type": "function"
    },
    {
      "inputs": [],
      "name": "pickWinner",
      "outputs": [],
      "stateMutability": "payable",
      "type": "function"
    },
    {
      "inputs": [],
      "name": "getPlayers",
      "outputs": [
        {
          "internalType": "address[]",
          "name": "",
          "type": "address[]"
        }
      ],
      "stateMutability": "view",
      "type": "function"
    },
    {
      "inputs": [
        {
          "internalType": "address",
          "name": "sender",
          "type": "address"
        }
      ],
      "name": "storno",
      "outputs": [],
      "stateMutability": "nonpayable",
      "type": "function"
    },
    {
      "inputs": [
        {
          "internalType": "address",
          "name": "player",
          "type": "address"
        }
      ],
      "name": "deletePlayer",
      "outputs": [
        {
          "internalType": "bool",
          "name": "",
          "type": "bool"
        }
      ],
      "stateMutability": "nonpayable",
      "type": "function"
    },
    {
      "inputs": [],
      "name": "getCurrentState",
      "outputs": [
        {
          "internalType": "enum Lottery.State",
          "name": "",
          "type": "uint8"
        }
      ],
      "stateMutability": "view",
      "type": "function"
    },
    {
      "inputs": [],
      "name": "getDetails",
      "outputs": [
        {
          "internalType": "address payable",
          "name": "projectStarter",
          "type": "address"
        },
        {
          "internalType": "string",
          "name": "projectTitle",
          "type": "string"
        },
        {
          "internalType": "string",
          "name": "projectDesc",
          "type": "string"
        },
        {
          "internalType": "uint256",
          "name": "deadlineTime",
          "type": "uint256"
        },
        {
          "internalType": "enum Lottery.State",
          "name": "currentState",
          "type": "uint8"
        },
        {
          "internalType": "uint256",
          "name": "currentAmount",
          "type": "uint256"
        },
        {
          "internalType": "uint256",
          "name": "ticketPrice",
          "type": "uint256"
        },
        {
          "internalType": "address",
          "name": "lotteryWinner",
          "type": "address"
        },
        {
          "internalType": "uint256",
          "name": "lotteryPlayersLength",
          "type": "uint256"
        },
        {
          "internalType": "uint256",
          "name": "lotteryDateCreated",
          "type": "uint256"
        }
      ],
      "stateMutability": "view",
      "type": "function"
    }
  ],
  "bytecode": "0x60806040526000600760006101000a81548160ff021916908360018111156200002457fe5b02179055503480156200003657600080fd5b50604051620018dc380380620018dc833981810160405260a08110156200005c57600080fd5b8101908080519060200190929190805160405193929190846401000000008211156200008757600080fd5b838201915060208201858111156200009e57600080fd5b8251866001820283011164010000000082111715620000bc57600080fd5b8083526020830192505050908051906020019080838360005b83811015620000f2578082015181840152602081019050620000d5565b50505050905090810190601f168015620001205780820380516001836020036101000a031916815260200191505b50604052602001805160405193929190846401000000008211156200014457600080fd5b838201915060208201858111156200015b57600080fd5b82518660018202830111640100000000821117156200017957600080fd5b8083526020830192505050908051906020019080838360005b83811015620001af57808201518184015260208101905062000192565b50505050905090810190601f168015620001dd5780820380516001836020036101000a031916815260200191505b506040526020018051906020019092919080519060200190929190505050846000806101000a81548173ffffffffffffffffffffffffffffffffffffffff021916908373ffffffffffffffffffffffffffffffffffffffff16021790555083600590805190602001906200025392919062000295565b5082600690805190602001906200026c92919062000295565b50806001819055508160048190555060006003819055504260028190555050505050506200034b565b828054600181600116156101000203166002900490600052602060002090601f016020900481019282620002cd576000855562000319565b82601f10620002e857805160ff191683800117855562000319565b8280016001018555821562000319579182015b8281111562000318578251825591602001919060010190620002fb565b5b5090506200032891906200032c565b5090565b5b80821115620003475760008160009055506001016200032d565b5090565b611581806200035b6000396000f3fe60806040526004361061011f5760003560e01c80637284e416116100a0578063ce845d1d11610064578063ce845d1d1461053a578063dfbf53ae14610565578063e75582a4146105a6578063f71d96cb146105f7578063fbbf93a01461065c5761011f565b80637284e416146103b0578063893d20e8146104405780638b5b9ccc14610481578063c19d93fb146104ed578063cabc0f43146105235761011f565b8063378aa701116100e7578063378aa701146102875780634a79d50c146102bd5780635d495aea1461034d57806364c165341461035757806367dd74ca146103825761011f565b806302d05d3f1461012457806312243b67146101655780631f6d4942146101cc57806329dcb0cf14610231578063325a19f11461025c575b600080fd5b34801561013057600080fd5b506101396107c7565b604051808273ffffffffffffffffffffffffffffffffffffffff16815260200191505060405180910390f35b34801561017157600080fd5b506101b46004803603602081101561018857600080fd5b81019080803573ffffffffffffffffffffffffffffffffffffffff1690602001909291905050506107eb565b60405180821515815260200191505060405180910390f35b3480156101d857600080fd5b5061021b600480360360208110156101ef57600080fd5b81019080803573ffffffffffffffffffffffffffffffffffffffff1690602001909291905050506108c7565b6040518082815260200191505060405180910390f35b34801561023d57600080fd5b506102466108df565b6040518082815260200191505060405180910390f35b34801561026857600080fd5b506102716108e5565b6040518082815260200191505060405180910390f35b34801561029357600080fd5b5061029c6108eb565b604051808260018111156102ac57fe5b815260200191505060405180910390f35b3480156102c957600080fd5b506102d2610908565b6040518080602001828103825283818151815260200191508051906020019080838360005b838110156103125780820151818401526020810190506102f7565b50505050905090810190601f16801561033f5780820380516001836020036101000a031916815260200191505b509250505060405180910390f35b6103556109a6565b005b34801561036357600080fd5b5061036c610b5a565b6040518082815260200191505060405180910390f35b6103ae6004803603602081101561039857600080fd5b8101908080359060200190929190505050610b60565b005b3480156103bc57600080fd5b506103c5610da6565b6040518080602001828103825283818151815260200191508051906020019080838360005b838110156104055780820151818401526020810190506103ea565b50505050905090810190601f1680156104325780820380516001836020036101000a031916815260200191505b509250505060405180910390f35b34801561044c57600080fd5b50610455610e44565b604051808273ffffffffffffffffffffffffffffffffffffffff16815260200191505060405180910390f35b34801561048d57600080fd5b50610496610e6d565b6040518080602001828103825283818151815260200191508051906020019060200280838360005b838110156104d95780820151818401526020810190506104be565b505050509050019250505060405180910390f35b3480156104f957600080fd5b50610502610efb565b6040518082600181111561051257fe5b815260200191505060405180910390f35b34801561052f57600080fd5b50610538610f0e565b005b34801561054657600080fd5b5061054f610f68565b6040518082815260200191505060405180910390f35b34801561057157600080fd5b5061057a610f6e565b604051808273ffffffffffffffffffffffffffffffffffffffff16815260200191505060405180910390f35b3480156105b257600080fd5b506105f5600480360360208110156105c957600080fd5b81019080803573ffffffffffffffffffffffffffffffffffffffff169060200190929190505050610f94565b005b34801561060357600080fd5b506106306004803603602081101561061a57600080fd5b8101908080359060200190929190505050611049565b604051808273ffffffffffffffffffffffffffffffffffffffff16815260200191505060405180910390f35b34801561066857600080fd5b50610671611088565b604051808b73ffffffffffffffffffffffffffffffffffffffff16815260200180602001806020018a81526020018960018111156106ab57fe5b81526020018881526020018781526020018673ffffffffffffffffffffffffffffffffffffffff16815260200185815260200184815260200183810383528c818151815260200191508051906020019080838360005b8381101561071c578082015181840152602081019050610701565b50505050905090810190601f1680156107495780820380516001836020036101000a031916815260200191505b5083810382528b818151815260200191508051906020019080838360005b83811015610782578082015181840152602081019050610767565b50505050905090810190601f1680156107af5780820380516001836020036101000a031916815260200191505b509c5050505050505050505050505060405180910390f35b60008054906101000a900473ffffffffffffffffffffffffffffffffffffffff1681565b600080600090505b6009805490508110156108bc578273ffffffffffffffffffffffffffffffffffffffff166009828154811061082457fe5b9060005260206000200160009054906101000a900473ffffffffffffffffffffffffffffffffffffffff1673ffffffffffffffffffffffffffffffffffffffff1614156108af576009818154811061087857fe5b9060005260206000200160006101000a81549073ffffffffffffffffffffffffffffffffffffffff021916905560019150506108c2565b80806001019150506107f3565b50600090505b919050565b60086020528060005260406000206000915090505481565b60045481565b60025481565b60006004544211156109005760019050610905565b600090505b90565b60058054600181600116156101000203166002900480601f01602080910402602001604051908101604052809291908181526020018280546001816001161561010002031660029004801561099e5780601f106109735761010080835404028352916020019161099e565b820191906000526020600020905b81548152906001019060200180831161098157829003601f168201915b505050505081565b60008054906101000a900473ffffffffffffffffffffffffffffffffffffffff1673ffffffffffffffffffffffffffffffffffffffff163373ffffffffffffffffffffffffffffffffffffffff16146109fe57600080fd5b6000600980549050610a0e61124a565b81610a1557fe5b06905060098181548110610a2557fe5b9060005260206000200160009054906101000a900473ffffffffffffffffffffffffffffffffffffffff16600b60006101000a81548173ffffffffffffffffffffffffffffffffffffffff021916908373ffffffffffffffffffffffffffffffffffffffff160217905550600b60009054906101000a900473ffffffffffffffffffffffffffffffffffffffff1673ffffffffffffffffffffffffffffffffffffffff166108fc479081150290604051600060405180830381858888f19350505050158015610af8573d6000803e3d6000fd5b50600067ffffffffffffffff81118015610b1157600080fd5b50604051908082528060200260200182016040528015610b405781602001602082028036833780820191505090505b5060099080519060200190610b569291906114a4565b5050565b60015481565b6004544210610b6e57600080fd5b60008111610b7b57600080fd5b610bba6040518060400160405280601381526020017f426c6f636b2074696d657374616d703a20257300000000000000000000000000815250426112ec565b610bfb6040518060400160405280600c81526020017f446561646c696e653a20257300000000000000000000000000000000000000008152506004546112ec565b610c3a6040518060400160405280601081526020017f6f76657272616c50726963653a20257300000000000000000000000000000000815250826112ec565b610c8c81600860003373ffffffffffffffffffffffffffffffffffffffff1673ffffffffffffffffffffffffffffffffffffffff168152602001908152602001600020546113f390919063ffffffff16565b600860003373ffffffffffffffffffffffffffffffffffffffff1673ffffffffffffffffffffffffffffffffffffffff16815260200190815260200160002081905550610ce4816003546113f390919063ffffffff16565b6003819055506009339080600181540180825580915050600190039060005260206000200160009091909190916101000a81548173ffffffffffffffffffffffffffffffffffffffff021916908373ffffffffffffffffffffffffffffffffffffffff1602179055503373ffffffffffffffffffffffffffffffffffffffff167f69ca02dd4edd7bf0a4abb9ed3b7af3f14778db5d61921c7dc7cd545266326de2826040518082815260200191505060405180910390a2610da3610f0e565b50565b60068054600181600116156101000203166002900480601f016020809104026020016040519081016040528092919081815260200182805460018160011615610100020316600290048015610e3c5780601f10610e1157610100808354040283529160200191610e3c565b820191906000526020600020905b815481529060010190602001808311610e1f57829003601f168201915b505050505081565b60008060009054906101000a900473ffffffffffffffffffffffffffffffffffffffff16905090565b60606009805480602002602001604051908101604052809291908181526020018280548015610ef157602002820191906000526020600020905b8160009054906101000a900473ffffffffffffffffffffffffffffffffffffffff1673ffffffffffffffffffffffffffffffffffffffff1681526020019060010190808311610ea7575b5050505050905090565b600760009054906101000a900460ff1681565b600454421115610f41576001600760006101000a81548160ff02191690836001811115610f3757fe5b0217905550610f66565b6000600760006101000a81548160ff02191690836001811115610f6057fe5b02179055505b565b60035481565b600b60009054906101000a900473ffffffffffffffffffffffffffffffffffffffff1681565b6004544210610fa257600080fd5b6000600860003373ffffffffffffffffffffffffffffffffffffffff1673ffffffffffffffffffffffffffffffffffffffff1681526020019081526020016000205490506000811415610ff457600080fd5b8173ffffffffffffffffffffffffffffffffffffffff166108fc829081150290604051600060405180830381858888f1935050505015801561103a573d6000803e3d6000fd5b50611044826107eb565b505050565b6009818154811061105957600080fd5b906000526020600020016000915054906101000a900473ffffffffffffffffffffffffffffffffffffffff1681565b600060608060008060008060008060008060009054906101000a900473ffffffffffffffffffffffffffffffffffffffff16995060058054600181600116156101000203166002900480601f0160208091040260200160405190810160405280929190818152602001828054600181600116156101000203166002900480156111525780601f1061112757610100808354040283529160200191611152565b820191906000526020600020905b81548152906001019060200180831161113557829003601f168201915b5050505050985060068054600181600116156101000203166002900480601f0160208091040260200160405190810160405280929190818152602001828054600181600116156101000203166002900480156111ef5780601f106111c4576101008083540402835291602001916111ef565b820191906000526020600020905b8154815290600101906020018083116111d257829003601f168201915b5050505050975060045496506112036108eb565b955060035494506001549350600b60009054906101000a900473ffffffffffffffffffffffffffffffffffffffff169250600a549150600254905090919293949596979899565b6000444260096040516020018084815260200183815260200182805480156112c757602002820191906000526020600020905b8160009054906101000a900473ffffffffffffffffffffffffffffffffffffffff1673ffffffffffffffffffffffffffffffffffffffff168152602001906001019080831161127d575b505093505050506040516020818303038152906040528051906020012060001c905090565b6113ef82826040516024018080602001838152602001828103825284818151815260200191508051906020019080838360005b8381101561133a57808201518184015260208101905061131f565b50505050905090810190601f1680156113675780820380516001836020036101000a031916815260200191505b5093505050506040516020818303038152906040527f9710a9d0000000000000000000000000000000000000000000000000000000007bffffffffffffffffffffffffffffffffffffffffffffffffffffffff19166020820180517bffffffffffffffffffffffffffffffffffffffffffffffffffffffff838183161783525050505061147b565b5050565b600080828401905083811015611471576040517f08c379a000000000000000000000000000000000000000000000000000000000815260040180806020018281038252601b8152602001807f536166654d6174683a206164646974696f6e206f766572666c6f77000000000081525060200191505060405180910390fd5b8091505092915050565b60008151905060006a636f6e736f6c652e6c6f679050602083016000808483855afa5050505050565b82805482825590600052602060002090810192821561151d579160200282015b8281111561151c5782518260006101000a81548173ffffffffffffffffffffffffffffffffffffffff021916908373ffffffffffffffffffffffffffffffffffffffff160217905550916020019190600101906114c4565b5b50905061152a919061152e565b5090565b5b8082111561154757600081600090555060010161152f565b509056fea264697066735822122026a43d8865345f2b1ee5193cdb0645a75f377acc74ee6beb2322310df2bed91464736f6c63430007060033",
  "immutableReferences": {},
  "source": "// SPDX-License-Identifier: MIT\r\npragma solidity ^0.7.0;\r\n\r\nimport \"../node_modules/@openzeppelin/contracts/math/SafeMath.sol\";\r\nimport \"../console.sol\";\r\n\r\ncontract lotteryCreator {\r\n    using SafeMath for uint256;\r\n\r\n    // List of existing projects\r\n    Lottery[] private lotteries;\r\n    address payable superadmin;\r\n\r\n    // Event that will be emitted whenever a new project is started\r\n    event ProjectStarted(\r\n        address contractAddress,\r\n        address projectStarter,\r\n        string projectTitle,\r\n        string projectDesc,\r\n        uint256 deadline,\r\n        uint256 ticketPrice\r\n    );\r\n\r\n    /** @dev Function to start a new project.\r\n     * @param title Title of the project to be created\r\n     * @param description Brief description about the project\r\n     * @param deadlineDate Project deadline in days\r\n     * @param ticketPrice Project goal in wei\r\n     */\r\n    function startProject(\r\n        address payable owner,\r\n        string calldata title,\r\n        string calldata description,\r\n        uint256 deadlineDate,\r\n        uint256 ticketPrice\r\n    ) external {\r\n        uint256 raiseUntil = deadlineDate;\r\n        Lottery newProject = new Lottery(\r\n            owner,\r\n            title,\r\n            description,\r\n            raiseUntil,\r\n            ticketPrice\r\n        );\r\n        lotteries.push(newProject);\r\n        emit ProjectStarted(\r\n            address(newProject),\r\n            owner,\r\n            title,\r\n            description,\r\n            raiseUntil,\r\n            ticketPrice\r\n        );\r\n    }\r\n\r\n    /** @dev Function to get all projects' contract addresses.\r\n     * @return A list of all projects' contract addreses\r\n     */\r\n    function returnAllLotteries() external view returns (Lottery[] memory) {\r\n        return lotteries;\r\n    }\r\n}\r\n\r\ncontract Lottery {\r\n    using SafeMath for uint256;\r\n    // State variables\r\n    address payable public creator;\r\n    uint256 public priceTicket; // required to reach at least this much, else everyone gets refund\r\n    uint256 public created;\r\n    uint256 public currentBalance;\r\n    uint256 public deadline;\r\n    string public title;\r\n    string public description;\r\n    State public state = State.Open; // initialize on create\r\n    mapping(address => uint256) public contributors;\r\n    address[] public players;\r\n    uint256 playersLength;\r\n    address public winner;\r\n\r\n    enum State {\r\n        Open,\r\n        Closed\r\n    }\r\n\r\n    // Modifier to check if the function caller is the project creator\r\n    modifier isCreator() {\r\n        require(msg.sender == creator);\r\n        _;\r\n    }\r\n\r\n    event Transfer(address indexed _from, uint256 _value);\r\n\r\n    constructor(\r\n        address payable projectStarter,\r\n        string memory projectTitle,\r\n        string memory projectDesc,\r\n        uint256 deadlineTime,\r\n        uint256 projectTicketPrice\r\n    ) public {\r\n        creator = projectStarter;\r\n        title = projectTitle;\r\n        description = projectDesc;\r\n        priceTicket = projectTicketPrice;\r\n        deadline = deadlineTime;\r\n        currentBalance = 0;\r\n        created = block.timestamp;\r\n    }\r\n\r\n    function buyTicket(uint256 overralPrice) public payable {\r\n        require(block.timestamp < deadline); // in the fundraising period\r\n        require(overralPrice > 0);\r\n        console.log(\"Block timestamp: %s\", block.timestamp);\r\n        console.log(\"Deadline: %s\", deadline);\r\n        console.log(\"overralPrice: %s\", overralPrice);\r\n\r\n        contributors[msg.sender] = contributors[msg.sender].add(overralPrice);\r\n        currentBalance = currentBalance.add(overralPrice);\r\n\r\n        players.push(msg.sender);\r\n        emit Transfer(msg.sender, overralPrice);\r\n        isLotteryOpen();\r\n    }\r\n\r\n    /** @dev Function to change the project state depending on conditions.\r\n     */\r\n    function isLotteryOpen() public {\r\n        if (block.timestamp > deadline) {\r\n            state = State.Closed;\r\n        } else {\r\n            state = State.Open;\r\n        }\r\n    }\r\n\r\n    function getOwner() public view returns (address) {\r\n        return creator;\r\n    }\r\n\r\n    function random() private view returns (uint256) {\r\n        return\r\n            uint256(\r\n                keccak256(\r\n                    abi.encodePacked(block.difficulty, block.timestamp, players)\r\n                )\r\n            );\r\n    }\r\n\r\n    function pickWinner() public payable restricted {\r\n        uint256 index = random() % players.length;\r\n        winner = players[index];\r\n        payable(winner).transfer(address(this).balance);\r\n        players = new address[](0);\r\n    }\r\n\r\n    modifier restricted() {\r\n        require(msg.sender == creator);\r\n        _;\r\n    }\r\n\r\n    function getPlayers() public view returns (address[] memory) {\r\n        return players;\r\n    }\r\n\r\n    function storno(address sender) public {\r\n        require(block.timestamp < deadline); //is open period\r\n\r\n        uint256 amount = contributors[msg.sender];\r\n        require(amount != 0);\r\n\r\n        payable(sender).transfer(amount); //payment return\r\n        deletePlayer(sender); //remove from lottery\r\n    }\r\n\r\n    function deletePlayer(address player) public returns (bool) {\r\n        for (uint256 i = 0; i < players.length; i++) {\r\n            if (players[i] == player) {\r\n                delete players[i];\r\n                return true;\r\n            }\r\n        }\r\n        return false;\r\n    }\r\n\r\n    function getCurrentState() public view returns (State){\r\n        if(block.timestamp > deadline){\r\n            return State.Closed;\r\n        }else{\r\n            return State.Open;\r\n        }\r\n    }\r\n\r\n    /** @dev Function to get specific information about the project.\r\n     * @return projectStarter Returns all the project's details\r\n     */\r\n    function getDetails()\r\n        public\r\n        view\r\n        returns (\r\n            address payable projectStarter,\r\n            string memory projectTitle,\r\n            string memory projectDesc,\r\n            uint256 deadlineTime,\r\n            State currentState,\r\n            uint256 currentAmount,\r\n            uint256 ticketPrice,\r\n            address lotteryWinner,\r\n            uint256 lotteryPlayersLength,\r\n            uint256 lotteryDateCreated\r\n        )\r\n    {\r\n        projectStarter = creator;\r\n        projectTitle = title;\r\n        projectDesc = description;\r\n        deadlineTime = deadline;\r\n        currentState = getCurrentState();\r\n        currentAmount = currentBalance;\r\n        ticketPrice = priceTicket;\r\n        lotteryWinner = winner;\r\n        lotteryPlayersLength = playersLength;\r\n        lotteryDateCreated = created;\r\n    }\r\n}\r\n",
  "sourcePath": "C:\\Users\\j4jan\\Documents\\Ethereum\\workspace\\vueportal2\\contracts\\CrowdFunding.sol",
  "compiler": {
    "name": "solc",
    "version": "0.7.6+commit.7338295f.Emscripten.clang"
  },
  "schemaVersion": "3.4.3",
  "updatedAt": "2021-11-16T12:54:43.389Z",
  "devdoc": {
    "kind": "dev",
    "methods": {
      "getDetails()": {
        "details": "Function to get specific information about the project.",
        "returns": {
          "projectStarter": "Returns all the project's details"
        }
      },
      "isLotteryOpen()": {
        "details": "Function to change the project state depending on conditions."
      }
    },
    "version": 1
  },
  "userdoc": {
    "kind": "user",
    "methods": {},
    "version": 1
  }
}