{
  "contractName": "Lottery",
  "abi": [
    {
      "inputs": [
        {
          "internalType": "address payable",
          "name": "projectStarter",
          "type": "address"
        },
        {
          "internalType": "string",
          "name": "projectTitle",
          "type": "string"
        },
        {
          "internalType": "string",
          "name": "projectDesc",
          "type": "string"
        },
        {
          "internalType": "uint256",
          "name": "deadlineTime",
          "type": "uint256"
        },
        {
          "internalType": "uint256",
          "name": "projectTicketPrice",
          "type": "uint256"
        },
        {
          "internalType": "uint256",
          "name": "numberWinners",
          "type": "uint256"
        },
        {
          "internalType": "uint256[]",
          "name": "lotteryRewards",
          "type": "uint256[]"
        },
        {
          "internalType": "uint256",
          "name": "lotteryLimitTickets",
          "type": "uint256"
        }
      ],
      "stateMutability": "nonpayable",
      "type": "constructor"
    },
    {
      "anonymous": false,
      "inputs": [
        {
          "indexed": false,
          "internalType": "enum State",
          "name": "newState",
          "type": "uint8"
        }
      ],
      "name": "LotteryStateChanged",
      "type": "event"
    },
    {
      "anonymous": false,
      "inputs": [
        {
          "indexed": true,
          "internalType": "address",
          "name": "_from",
          "type": "address"
        },
        {
          "indexed": false,
          "internalType": "uint256",
          "name": "_value",
          "type": "uint256"
        }
      ],
      "name": "Transfer",
      "type": "event"
    },
    {
      "inputs": [
        {
          "internalType": "address",
          "name": "",
          "type": "address"
        }
      ],
      "name": "contributors",
      "outputs": [
        {
          "internalType": "uint256",
          "name": "",
          "type": "uint256"
        }
      ],
      "stateMutability": "view",
      "type": "function"
    },
    {
      "inputs": [],
      "name": "created",
      "outputs": [
        {
          "internalType": "uint256",
          "name": "",
          "type": "uint256"
        }
      ],
      "stateMutability": "view",
      "type": "function"
    },
    {
      "inputs": [],
      "name": "creator",
      "outputs": [
        {
          "internalType": "address payable",
          "name": "",
          "type": "address"
        }
      ],
      "stateMutability": "view",
      "type": "function"
    },
    {
      "inputs": [],
      "name": "currentBalance",
      "outputs": [
        {
          "internalType": "uint256",
          "name": "",
          "type": "uint256"
        }
      ],
      "stateMutability": "view",
      "type": "function"
    },
    {
      "inputs": [],
      "name": "deadline",
      "outputs": [
        {
          "internalType": "uint256",
          "name": "",
          "type": "uint256"
        }
      ],
      "stateMutability": "view",
      "type": "function"
    },
    {
      "inputs": [],
      "name": "description",
      "outputs": [
        {
          "internalType": "string",
          "name": "",
          "type": "string"
        }
      ],
      "stateMutability": "view",
      "type": "function"
    },
    {
      "inputs": [],
      "name": "numberOfWinners",
      "outputs": [
        {
          "internalType": "uint256",
          "name": "",
          "type": "uint256"
        }
      ],
      "stateMutability": "view",
      "type": "function"
    },
    {
      "inputs": [
        {
          "internalType": "uint256",
          "name": "",
          "type": "uint256"
        }
      ],
      "name": "players",
      "outputs": [
        {
          "internalType": "address",
          "name": "",
          "type": "address"
        }
      ],
      "stateMutability": "view",
      "type": "function"
    },
    {
      "inputs": [],
      "name": "priceTicket",
      "outputs": [
        {
          "internalType": "uint256",
          "name": "",
          "type": "uint256"
        }
      ],
      "stateMutability": "view",
      "type": "function"
    },
    {
      "inputs": [
        {
          "internalType": "uint256",
          "name": "",
          "type": "uint256"
        }
      ],
      "name": "rewards",
      "outputs": [
        {
          "internalType": "uint256",
          "name": "",
          "type": "uint256"
        }
      ],
      "stateMutability": "view",
      "type": "function"
    },
    {
      "inputs": [],
      "name": "state",
      "outputs": [
        {
          "internalType": "enum State",
          "name": "",
          "type": "uint8"
        }
      ],
      "stateMutability": "view",
      "type": "function"
    },
    {
      "inputs": [
        {
          "internalType": "uint256",
          "name": "",
          "type": "uint256"
        }
      ],
      "name": "tickets",
      "outputs": [
        {
          "internalType": "address",
          "name": "",
          "type": "address"
        }
      ],
      "stateMutability": "view",
      "type": "function"
    },
    {
      "inputs": [],
      "name": "title",
      "outputs": [
        {
          "internalType": "string",
          "name": "",
          "type": "string"
        }
      ],
      "stateMutability": "view",
      "type": "function"
    },
    {
      "inputs": [
        {
          "internalType": "uint256",
          "name": "",
          "type": "uint256"
        }
      ],
      "name": "winnerIds",
      "outputs": [
        {
          "internalType": "uint256",
          "name": "",
          "type": "uint256"
        }
      ],
      "stateMutability": "view",
      "type": "function"
    },
    {
      "inputs": [
        {
          "internalType": "address",
          "name": "_address",
          "type": "address"
        }
      ],
      "name": "getRewardsByAccount",
      "outputs": [
        {
          "internalType": "uint256",
          "name": "",
          "type": "uint256"
        }
      ],
      "stateMutability": "view",
      "type": "function"
    },
    {
      "inputs": [],
      "name": "getContractAddress",
      "outputs": [
        {
          "internalType": "address",
          "name": "",
          "type": "address"
        }
      ],
      "stateMutability": "view",
      "type": "function"
    },
    {
      "inputs": [
        {
          "internalType": "address",
          "name": "_address",
          "type": "address"
        }
      ],
      "name": "getContributed",
      "outputs": [
        {
          "internalType": "uint256",
          "name": "",
          "type": "uint256"
        }
      ],
      "stateMutability": "view",
      "type": "function"
    },
    {
      "inputs": [],
      "name": "getState",
      "outputs": [
        {
          "internalType": "enum State",
          "name": "",
          "type": "uint8"
        }
      ],
      "stateMutability": "view",
      "type": "function"
    },
    {
      "inputs": [
        {
          "internalType": "uint256",
          "name": "id",
          "type": "uint256"
        }
      ],
      "name": "getWinner",
      "outputs": [
        {
          "internalType": "address",
          "name": "",
          "type": "address"
        }
      ],
      "stateMutability": "view",
      "type": "function"
    },
    {
      "inputs": [
        {
          "internalType": "uint256",
          "name": "id",
          "type": "uint256"
        }
      ],
      "name": "getWinnerAmount",
      "outputs": [
        {
          "internalType": "uint256",
          "name": "",
          "type": "uint256"
        }
      ],
      "stateMutability": "view",
      "type": "function"
    },
    {
      "inputs": [
        {
          "internalType": "uint256",
          "name": "overralPrice",
          "type": "uint256"
        },
        {
          "internalType": "uint256",
          "name": "ticketAmount",
          "type": "uint256"
        }
      ],
      "name": "buyTicket",
      "outputs": [],
      "stateMutability": "payable",
      "type": "function"
    },
    {
      "inputs": [],
      "name": "getNumberOfWinners",
      "outputs": [
        {
          "internalType": "uint256",
          "name": "",
          "type": "uint256"
        }
      ],
      "stateMutability": "view",
      "type": "function"
    },
    {
      "inputs": [],
      "name": "getOwner",
      "outputs": [
        {
          "internalType": "address",
          "name": "",
          "type": "address"
        }
      ],
      "stateMutability": "view",
      "type": "function"
    },
    {
      "inputs": [
        {
          "internalType": "address",
          "name": "_address",
          "type": "address"
        }
      ],
      "name": "getEnteredTicketsByAccount",
      "outputs": [
        {
          "internalType": "uint256",
          "name": "",
          "type": "uint256"
        }
      ],
      "stateMutability": "view",
      "type": "function"
    },
    {
      "inputs": [
        {
          "internalType": "address",
          "name": "_address",
          "type": "address"
        }
      ],
      "name": "getWinProbabiltyByAccount",
      "outputs": [
        {
          "internalType": "uint256",
          "name": "",
          "type": "uint256"
        }
      ],
      "stateMutability": "view",
      "type": "function"
    },
    {
      "inputs": [],
      "name": "pickWinner",
      "outputs": [],
      "stateMutability": "payable",
      "type": "function"
    },
    {
      "inputs": [],
      "name": "getPlayers",
      "outputs": [
        {
          "internalType": "address[]",
          "name": "",
          "type": "address[]"
        }
      ],
      "stateMutability": "view",
      "type": "function"
    },
    {
      "inputs": [
        {
          "internalType": "address",
          "name": "sender",
          "type": "address"
        }
      ],
      "name": "storno",
      "outputs": [],
      "stateMutability": "nonpayable",
      "type": "function"
    },
    {
      "inputs": [
        {
          "internalType": "address",
          "name": "player",
          "type": "address"
        }
      ],
      "name": "deletePlayer",
      "outputs": [
        {
          "internalType": "bool",
          "name": "",
          "type": "bool"
        }
      ],
      "stateMutability": "nonpayable",
      "type": "function"
    },
    {
      "inputs": [],
      "name": "revealWinners",
      "outputs": [
        {
          "internalType": "uint256[]",
          "name": "",
          "type": "uint256[]"
        },
        {
          "internalType": "address[]",
          "name": "",
          "type": "address[]"
        }
      ],
      "stateMutability": "view",
      "type": "function"
    },
    {
      "inputs": [
        {
          "internalType": "address",
          "name": "account",
          "type": "address"
        }
      ],
      "name": "getDetails",
      "outputs": [
        {
          "internalType": "address payable",
          "name": "projectStarter",
          "type": "address"
        },
        {
          "internalType": "string",
          "name": "projectTitle",
          "type": "string"
        },
        {
          "internalType": "string",
          "name": "projectDesc",
          "type": "string"
        },
        {
          "internalType": "uint256",
          "name": "deadlineTime",
          "type": "uint256"
        },
        {
          "internalType": "enum State",
          "name": "currentState",
          "type": "uint8"
        },
        {
          "internalType": "uint256",
          "name": "currentAmount",
          "type": "uint256"
        },
        {
          "internalType": "uint256",
          "name": "ticketPrice",
          "type": "uint256"
        },
        {
          "internalType": "uint256",
          "name": "lotteryPlayersLength",
          "type": "uint256"
        },
        {
          "internalType": "uint256",
          "name": "lotteryDateCreated",
          "type": "uint256"
        },
        {
          "internalType": "uint256[]",
          "name": "lotteryRewards",
          "type": "uint256[]"
        },
        {
          "internalType": "uint256",
          "name": "purchased",
          "type": "uint256"
        }
      ],
      "stateMutability": "view",
      "type": "function"
    },
    {
      "inputs": [],
      "name": "getPlayersDetails",
      "outputs": [
        {
          "internalType": "address[]",
          "name": "lotteryPlayers",
          "type": "address[]"
        },
        {
          "internalType": "address[]",
          "name": "lotteryTickets",
          "type": "address[]"
        }
      ],
      "stateMutability": "view",
      "type": "function"
    }
  ],
  "bytecode": "0x60806040526000600760006101000a81548160ff021916908360028111156200002457fe5b02179055503480156200003657600080fd5b50604051620029f2380380620029f283398181016040528101906200005c91906200036a565b876000806101000a81548173ffffffffffffffffffffffffffffffffffffffff021916908373ffffffffffffffffffffffffffffffffffffffff1602179055508660059080519060200190620000b492919062000120565b508560069080519060200190620000cd92919062000120565b50836001819055508460048190555060006003819055504260028190555082600c8190555081600d90805190602001906200010a929190620001b7565b5080600e819055505050505050505050620005b8565b828054600181600116156101000203166002900490600052602060002090601f016020900481019282620001585760008555620001a4565b82601f106200017357805160ff1916838001178555620001a4565b82800160010185558215620001a4579182015b82811115620001a357825182559160200191906001019062000186565b5b509050620001b3919062000209565b5090565b828054828255906000526020600020908101928215620001f6579160200282015b82811115620001f5578251825591602001919060010190620001d8565b5b50905062000205919062000209565b5090565b5b80821115620002245760008160009055506001016200020a565b5090565b60006200023f6200023984620004ac565b62000478565b905080838252602082019050828560208602820111156200025f57600080fd5b60005b8581101562000293578162000278888262000353565b84526020840193506020830192505060018101905062000262565b5050509392505050565b6000620002b4620002ae84620004db565b62000478565b905082815260208101848484011115620002cd57600080fd5b620002da8482856200054c565b509392505050565b600081519050620002f38162000584565b92915050565b600082601f8301126200030b57600080fd5b81516200031d84826020860162000228565b91505092915050565b600082601f8301126200033857600080fd5b81516200034a8482602086016200029d565b91505092915050565b60008151905062000364816200059e565b92915050565b600080600080600080600080610100898b0312156200038857600080fd5b6000620003988b828c01620002e2565b985050602089015167ffffffffffffffff811115620003b657600080fd5b620003c48b828c0162000326565b975050604089015167ffffffffffffffff811115620003e257600080fd5b620003f08b828c0162000326565b9650506060620004038b828c0162000353565b9550506080620004168b828c0162000353565b94505060a0620004298b828c0162000353565b93505060c089015167ffffffffffffffff8111156200044757600080fd5b620004558b828c01620002f9565b92505060e0620004688b828c0162000353565b9150509295985092959890939650565b6000604051905081810181811067ffffffffffffffff82111715620004a257620004a162000582565b5b8060405250919050565b600067ffffffffffffffff821115620004ca57620004c962000582565b5b602082029050602081019050919050565b600067ffffffffffffffff821115620004f957620004f862000582565b5b601f19601f8301169050602081019050919050565b60006200051b8262000522565b9050919050565b600073ffffffffffffffffffffffffffffffffffffffff82169050919050565b6000819050919050565b60005b838110156200056c5780820151818401526020810190506200054f565b838111156200057c576000848401525b50505050565bfe5b6200058f816200050e565b81146200059b57600080fd5b50565b620005a98162000542565b8114620005b557600080fd5b50565b61242a80620005c86000396000f3fe6080604052600436106101e35760003560e01c80635d495aea11610102578063952587d611610095578063e75582a411610064578063e75582a41461072c578063f301af4214610755578063f71d96cb14610792578063f7feb20d146107cf576101e3565b8063952587d61461066d578063a6a031b914610699578063c19d93fb146106d6578063ce845d1d14610701576101e3565b8063893d20e8116100d1578063893d20e8146105c15780638acfaca9146105ec5780638b5b9ccc146106175780638e33cffc14610642576101e3565b80635d495aea1461052457806364c165341461052e578063685f9bf5146105595780637284e41614610596576101e3565b8063325a19f11161017a57806344ed63f61161014957806344ed63f6146104535780634a79d50c1461047f5780634de58efe146104aa57806350b44712146104e7576101e3565b8063325a19f11461038357806332a2c5d0146103ae578063403d1312146103d95780634129b2c914610416576101e3565b80631f6d4942116101b65780631f6d4942146102b8578063298ec208146102f557806329dcb0cf1461031157806330289c611461033c576101e3565b806302d05d3f146101e85780630e0b0f431461021357806312243b67146102505780631865c57d1461028d575b600080fd5b3480156101f457600080fd5b506101fd61080c565b60405161020a9190611faf565b60405180910390f35b34801561021f57600080fd5b5061023a60048036038101906102359190611c49565b610830565b6040516102479190612172565b60405180910390f35b34801561025c57600080fd5b5061027760048036038101906102729190611c49565b6108d2565b604051610284919061211a565b60405180910390f35b34801561029957600080fd5b506102a26109ae565b6040516102af9190612135565b60405180910390f35b3480156102c457600080fd5b506102df60048036038101906102da9190611c49565b6109c5565b6040516102ec9190612172565b60405180910390f35b61030f600480360381019061030a9190611cc4565b6109dd565b005b34801561031d57600080fd5b50610326610d0e565b6040516103339190612172565b60405180910390f35b34801561034857600080fd5b50610363600480360381019061035e9190611c49565b610d14565b60405161037a9b9a99989796959493929190611fca565b60405180910390f35b34801561038f57600080fd5b50610398610f53565b6040516103a59190612172565b60405180910390f35b3480156103ba57600080fd5b506103c3610f59565b6040516103d09190611f79565b60405180910390f35b3480156103e557600080fd5b5061040060048036038101906103fb9190611c72565b610f61565b60405161040d9190612172565b60405180910390f35b34801561042257600080fd5b5061043d60048036038101906104389190611c72565b610f85565b60405161044a9190611f79565b60405180910390f35b34801561045f57600080fd5b50610468610fc5565b6040516104769291906120ac565b60405180910390f35b34801561048b57600080fd5b506104946110de565b6040516104a19190612150565b60405180910390f35b3480156104b657600080fd5b506104d160048036038101906104cc9190611c49565b61117c565b6040516104de9190612172565b60405180910390f35b3480156104f357600080fd5b5061050e60048036038101906105099190611c72565b6111c5565b60405161051b9190611f79565b60405180910390f35b61052c611204565b005b34801561053a57600080fd5b50610543611560565b6040516105509190612172565b60405180910390f35b34801561056557600080fd5b50610580600480360381019061057b9190611c49565b611566565b60405161058d9190612172565b60405180910390f35b3480156105a257600080fd5b506105ab61160a565b6040516105b89190612150565b60405180910390f35b3480156105cd57600080fd5b506105d66116a8565b6040516105e39190611f79565b60405180910390f35b3480156105f857600080fd5b506106016116d1565b60405161060e9190612172565b60405180910390f35b34801561062357600080fd5b5061062c6116d7565b604051610639919061208a565b60405180910390f35b34801561064e57600080fd5b50610657611765565b6040516106649190612172565b60405180910390f35b34801561067957600080fd5b5061068261176f565b6040516106909291906120e3565b60405180910390f35b3480156106a557600080fd5b506106c060048036038101906106bb9190611c49565b6118ea565b6040516106cd9190612172565b60405180910390f35b3480156106e257600080fd5b506106eb61198f565b6040516106f89190612135565b60405180910390f35b34801561070d57600080fd5b506107166119a2565b6040516107239190612172565b60405180910390f35b34801561073857600080fd5b50610753600480360381019061074e9190611c49565b6119a8565b005b34801561076157600080fd5b5061077c60048036038101906107779190611c72565b611a5d565b6040516107899190612172565b60405180910390f35b34801561079e57600080fd5b506107b960048036038101906107b49190611c72565b611a81565b6040516107c69190611f79565b60405180910390f35b3480156107db57600080fd5b506107f660048036038101906107f19190611c72565b611ac0565b6040516108039190612172565b60405180910390f35b60008054906101000a900473ffffffffffffffffffffffffffffffffffffffff1681565b6000806000905060005b600a805490508110156108c857600a818154811061085457fe5b9060005260206000200160009054906101000a900473ffffffffffffffffffffffffffffffffffffffff1673ffffffffffffffffffffffffffffffffffffffff168473ffffffffffffffffffffffffffffffffffffffff1614156108bb5781806001019250505b808060010191505061083a565b5080915050919050565b600080600090505b6009805490508110156109a3578273ffffffffffffffffffffffffffffffffffffffff166009828154811061090b57fe5b9060005260206000200160009054906101000a900473ffffffffffffffffffffffffffffffffffffffff1673ffffffffffffffffffffffffffffffffffffffff161415610996576009818154811061095f57fe5b9060005260206000200160006101000a81549073ffffffffffffffffffffffffffffffffffffffff021916905560019150506109a9565b80806001019150506108da565b50600090505b919050565b6000600760009054906101000a900460ff16905090565b60086020528060005260406000206000915090505481565b60045442106109eb57600080fd5b600082116109f857600080fd5b6000813073ffffffffffffffffffffffffffffffffffffffff16630e0b0f43336040518263ffffffff1660e01b8152600401610a349190611f94565b60206040518083038186803b158015610a4c57600080fd5b505afa158015610a60573d6000803e3d6000fd5b505050506040513d601f19601f82011682018060405250810190610a849190611c9b565b01905080600e541015610a9657600080fd5b610ae883600860003373ffffffffffffffffffffffffffffffffffffffff1673ffffffffffffffffffffffffffffffffffffffff16815260200190815260200160002054611ae090919063ffffffff16565b600860003373ffffffffffffffffffffffffffffffffffffffff1673ffffffffffffffffffffffffffffffffffffffff16815260200190815260200160002081905550610b4083600354611ae090919063ffffffff16565b60038190555060005b82811015610bc157600a339080600181540180825580915050600190039060005260206000200160009091909190916101000a81548173ffffffffffffffffffffffffffffffffffffffff021916908373ffffffffffffffffffffffffffffffffffffffff1602179055508080600101915050610b49565b506000805b600980549050811015610c505760098181548110610be057fe5b9060005260206000200160009054906101000a900473ffffffffffffffffffffffffffffffffffffffff1673ffffffffffffffffffffffffffffffffffffffff163373ffffffffffffffffffffffffffffffffffffffff161415610c4357600191505b8080600101915050610bc6565b5080610cba576009339080600181540180825580915050600190039060005260206000200160009091909190916101000a81548173ffffffffffffffffffffffffffffffffffffffff021916908373ffffffffffffffffffffffffffffffffffffffff1602179055505b3373ffffffffffffffffffffffffffffffffffffffff167f69ca02dd4edd7bf0a4abb9ed3b7af3f14778db5d61921c7dc7cd545266326de285604051610d009190612172565b60405180910390a250505050565b60045481565b6000606080600080600080600080606060008060009054906101000a900473ffffffffffffffffffffffffffffffffffffffff169a5060058054600181600116156101000203166002900480601f016020809104026020016040519081016040528092919081815260200182805460018160011615610100020316600290048015610de05780601f10610db557610100808354040283529160200191610de0565b820191906000526020600020905b815481529060010190602001808311610dc357829003601f168201915b5050505050995060068054600181600116156101000203166002900480601f016020809104026020016040519081016040528092919081815260200182805460018160011615610100020316600290048015610e7d5780601f10610e5257610100808354040283529160200191610e7d565b820191906000526020600020905b815481529060010190602001808311610e6057829003601f168201915b505050505098506004549750600760009054906101000a900460ff16965060035495506001549450600b5493506002549250600d805480602002602001604051908101604052809291908181526020018280548015610efb57602002820191906000526020600020905b815481526020019060010190808311610ee7575b50505050509150600860008d73ffffffffffffffffffffffffffffffffffffffff1673ffffffffffffffffffffffffffffffffffffffff16815260200190815260200160002054905091939597999b90929496989a50565b60025481565b600030905090565b60108181548110610f7157600080fd5b906000526020600020016000915090505481565b6000600f600083815260200190815260200160002060020160009054906101000a900473ffffffffffffffffffffffffffffffffffffffff169050919050565b606080600980548060200260200160405190810160405280929190818152602001828054801561104a57602002820191906000526020600020905b8160009054906101000a900473ffffffffffffffffffffffffffffffffffffffff1673ffffffffffffffffffffffffffffffffffffffff1681526020019060010190808311611000575b50505050509150600a8054806020026020016040519081016040528092919081815260200182805480156110d357602002820191906000526020600020905b8160009054906101000a900473ffffffffffffffffffffffffffffffffffffffff1673ffffffffffffffffffffffffffffffffffffffff1681526020019060010190808311611089575b505050505090509091565b60058054600181600116156101000203166002900480601f0160208091040260200160405190810160405280929190818152602001828054600181600116156101000203166002900480156111745780601f1061114957610100808354040283529160200191611174565b820191906000526020600020905b81548152906001019060200180831161115757829003601f168201915b505050505081565b6000600860008373ffffffffffffffffffffffffffffffffffffffff1673ffffffffffffffffffffffffffffffffffffffff168152602001908152602001600020549050919050565b600a81815481106111d557600080fd5b906000526020600020016000915054906101000a900473ffffffffffffffffffffffffffffffffffffffff1681565b60008054906101000a900473ffffffffffffffffffffffffffffffffffffffff1673ffffffffffffffffffffffffffffffffffffffff163373ffffffffffffffffffffffffffffffffffffffff161461125c57600080fd5b600454421161126a57600080fd5b60004760038190555060005b600c548110156114eb57605d612710600354600d848154811061129557fe5b906000526020600020015402816112a857fe5b040291506000600a805490506112bc611b68565b816112c357fe5b0690506000600f60008481526020019081526020016000209050600a82815481106112ea57fe5b9060005260206000200160009054906101000a900473ffffffffffffffffffffffffffffffffffffffff168160020160006101000a81548173ffffffffffffffffffffffffffffffffffffffff021916908373ffffffffffffffffffffffffffffffffffffffff160217905550838160010181905550601083908060018154018082558091505060019003906000526020600020016000909190919091505560005b600a80549050811015611470578160020160009054906101000a900473ffffffffffffffffffffffffffffffffffffffff1673ffffffffffffffffffffffffffffffffffffffff16600a82815481106113e157fe5b9060005260206000200160009054906101000a900473ffffffffffffffffffffffffffffffffffffffff1673ffffffffffffffffffffffffffffffffffffffff16141561146357600a818154811061143557fe5b9060005260206000200160006101000a81549073ffffffffffffffffffffffffffffffffffffffff02191690555b808060010191505061138c565b508060020160009054906101000a900473ffffffffffffffffffffffffffffffffffffffff1673ffffffffffffffffffffffffffffffffffffffff166108fc859081150290604051600060405180830381858888f193505050501580156114db573d6000803e3d6000fd5b5050508080600101915050611276565b5060008054906101000a900473ffffffffffffffffffffffffffffffffffffffff1673ffffffffffffffffffffffffffffffffffffffff166108fc479081150290604051600060405180830381858888f19350505050158015611552573d6000803e3d6000fd5b5061155d6001611b9e565b50565b60015481565b6000600a805490506127103073ffffffffffffffffffffffffffffffffffffffff16630e0b0f43856040518263ffffffff1660e01b81526004016115aa9190611f79565b60206040518083038186803b1580156115c257600080fd5b505afa1580156115d6573d6000803e3d6000fd5b505050506040513d601f19601f820116820180604052508101906115fa9190611c9b565b028161160257fe5b049050919050565b60068054600181600116156101000203166002900480601f0160208091040260200160405190810160405280929190818152602001828054600181600116156101000203166002900480156116a05780601f10611675576101008083540402835291602001916116a0565b820191906000526020600020905b81548152906001019060200180831161168357829003601f168201915b505050505081565b60008060009054906101000a900473ffffffffffffffffffffffffffffffffffffffff16905090565b600c5481565b6060600980548060200260200160405190810160405280929190818152602001828054801561175b57602002820191906000526020600020905b8160009054906101000a900473ffffffffffffffffffffffffffffffffffffffff1673ffffffffffffffffffffffffffffffffffffffff1681526020019060010190808311611711575b5050505050905090565b6000600c54905090565b606080600454421161178057600080fd5b600060108054905067ffffffffffffffff8111801561179e57600080fd5b506040519080825280602002602001820160405280156117cd5781602001602082028036833780820191505090505b509050600060108054905067ffffffffffffffff811180156117ee57600080fd5b5060405190808252806020026020018201604052801561181d5781602001602082028036833780820191505090505b50905060005b6010805490508110156118dd576000600f600083815260200190815260200160002090508060020160009054906101000a900473ffffffffffffffffffffffffffffffffffffffff1684838151811061187857fe5b602002602001019073ffffffffffffffffffffffffffffffffffffffff16908173ffffffffffffffffffffffffffffffffffffffff168152505080600101548383815181106118c357fe5b602002602001018181525050508080600101915050611823565b5080829350935050509091565b6000806000905060005b600c54811015611985576000600f600083815260200190815260200160002090508473ffffffffffffffffffffffffffffffffffffffff168160020160009054906101000a900473ffffffffffffffffffffffffffffffffffffffff1673ffffffffffffffffffffffffffffffffffffffff161415611977578060010154830192505b5080806001019150506118f4565b5080915050919050565b600760009054906101000a900460ff1681565b60035481565b60045442106119b657600080fd5b6000600860003373ffffffffffffffffffffffffffffffffffffffff1673ffffffffffffffffffffffffffffffffffffffff1681526020019081526020016000205490506000811415611a0857600080fd5b8173ffffffffffffffffffffffffffffffffffffffff166108fc829081150290604051600060405180830381858888f19350505050158015611a4e573d6000803e3d6000fd5b50611a58826108d2565b505050565b600d8181548110611a6d57600080fd5b906000526020600020016000915090505481565b60098181548110611a9157600080fd5b906000526020600020016000915054906101000a900473ffffffffffffffffffffffffffffffffffffffff1681565b6000600f6000838152602001908152602001600020600101549050919050565b600080828401905083811015611b5e576040517f08c379a000000000000000000000000000000000000000000000000000000000815260040180806020018281038252601b8152602001807f536166654d6174683a206164646974696f6e206f766572666c6f77000000000081525060200191505060405180910390fd5b8091505092915050565b60004442600a604051602001611b8093929190611f40565b6040516020818303038152906040528051906020012060001c905090565b80600760006101000a81548160ff02191690836002811115611bbc57fe5b02179055507f1e046fdd2110d82ed3fa7652b41ced17c49cbb9ee4536e65f51ad2a6ed5359a7600760009054906101000a900460ff16604051611bff9190612135565b60405180910390a150565b600081359050611c19816123c6565b92915050565b600081359050611c2e816123dd565b92915050565b600081519050611c43816123dd565b92915050565b600060208284031215611c5b57600080fd5b6000611c6984828501611c0a565b91505092915050565b600060208284031215611c8457600080fd5b6000611c9284828501611c1f565b91505092915050565b600060208284031215611cad57600080fd5b6000611cbb84828501611c34565b91505092915050565b60008060408385031215611cd757600080fd5b6000611ce585828601611c1f565b9250506020611cf685828601611c1f565b9150509250929050565b6000611d0c8383611d66565b60208301905092915050565b6000611d248383611d84565b60208301905092915050565b6000611d3c8383611f0b565b60208301905092915050565b611d51816122e0565b82525050565b611d6081612285565b82525050565b611d6f81612273565b82525050565b611d7e81612273565b82525050565b611d8d81612273565b82525050565b6000611d9e826121c2565b611da88185612215565b9350611db38361218d565b8060005b83811015611de4578151611dcb8882611d00565b9750611dd6836121ee565b925050600181019050611db7565b5085935050505092915050565b6000611dfc826121cd565b611e068185612226565b9350611e118361219d565b8060005b83811015611e4957611e2682612381565b611e308882611d18565b9750611e3b836121fb565b925050600181019050611e15565b5085935050505092915050565b6000611e61826121d8565b611e6b8185612231565b9350611e76836121b2565b8060005b83811015611ea7578151611e8e8882611d30565b9750611e9983612208565b925050600181019050611e7a565b5085935050505092915050565b611ebd81612297565b82525050565b611ecc816122f2565b82525050565b6000611edd826121e3565b611ee78185612242565b9350611ef7818560208601612328565b611f0081612394565b840191505092915050565b611f14816122d6565b82525050565b611f23816122d6565b82525050565b611f3a611f35826122d6565b612375565b82525050565b6000611f4c8286611f29565b602082019150611f5c8285611f29565b602082019150611f6c8284611df1565b9150819050949350505050565b6000602082019050611f8e6000830184611d75565b92915050565b6000602082019050611fa96000830184611d48565b92915050565b6000602082019050611fc46000830184611d57565b92915050565b600061016082019050611fe0600083018e611d57565b8181036020830152611ff2818d611ed2565b90508181036040830152612006818c611ed2565b9050612015606083018b611f1a565b612022608083018a611ec3565b61202f60a0830189611f1a565b61203c60c0830188611f1a565b61204960e0830187611f1a565b612057610100830186611f1a565b81810361012083015261206a8185611e56565b905061207a610140830184611f1a565b9c9b505050505050505050505050565b600060208201905081810360008301526120a48184611d93565b905092915050565b600060408201905081810360008301526120c68185611d93565b905081810360208301526120da8184611d93565b90509392505050565b600060408201905081810360008301526120fd8185611e56565b905081810360208301526121118184611d93565b90509392505050565b600060208201905061212f6000830184611eb4565b92915050565b600060208201905061214a6000830184611ec3565b92915050565b6000602082019050818103600083015261216a8184611ed2565b905092915050565b60006020820190506121876000830184611f1a565b92915050565b6000819050602082019050919050565b60008190508160005260206000209050919050565b6000819050602082019050919050565b600081519050919050565b600081549050919050565b600081519050919050565b600081519050919050565b6000602082019050919050565b6000600182019050919050565b6000602082019050919050565b600082825260208201905092915050565b600081905092915050565b600082825260208201905092915050565b600082825260208201905092915050565b600073ffffffffffffffffffffffffffffffffffffffff82169050919050565b600061227e826122b6565b9050919050565b6000612290826122b6565b9050919050565b60008115159050919050565b60008190506122b1826123b2565b919050565b600073ffffffffffffffffffffffffffffffffffffffff82169050919050565b6000819050919050565b60006122eb82612304565b9050919050565b60006122fd826122a3565b9050919050565b600061230f82612316565b9050919050565b6000612321826122b6565b9050919050565b60005b8381101561234657808201518184015260208101905061232b565b83811115612355576000848401525b50505050565b600061236e612369836123a5565b612253565b9050919050565b6000819050919050565bfe5b600061238d825461235b565b9050919050565b6000601f19601f8301169050919050565b60008160001c9050919050565b600381106123c3576123c261237f565b5b50565b6123cf81612273565b81146123da57600080fd5b50565b6123e6816122d6565b81146123f157600080fd5b5056fea26469706673582212202966a61d8efe46bfc1b40f651489dc00f1b47e6deaffd5a5dcc7b88cd7ed026e64736f6c63430007060033",
  "immutableReferences": {},
  "source": "// SPDX-License-Identifier: MIT\npragma solidity ^0.7.0;\nimport \"../node_modules/@openzeppelin/contracts/math/SafeMath.sol\";\npragma experimental ABIEncoderV2;\n\nenum State {\n    Open,\n    Closed,\n    Suspended\n}\n\ncontract lotteryCreator {\n    using SafeMath for uint256;\n\n    // List of existing projects\n    Lottery[] private lotteries;\n    address payable creator;\n\n    // Event that will be emitted whenever a new project is started\n    event ProjectStarted(\n        address contractAddress,\n        address projectStarter,\n        string projectTitle,\n        string projectDesc,\n        uint256 deadline,\n        uint256 ticketPrice,\n        uint256 numberWinners,\n        uint256[] rewards,\n        uint256 limitTickets\n    );\n\n    /** @dev Function to start a new project.\n     * @param title Title of the project to be created\n     * @param description Brief description about the project\n     * @param deadlineDate Project deadline in days\n     * @param ticketPrice Project goal in wei\n     */\n    function startProject(\n        address payable owner,\n        string calldata title,\n        string calldata description,\n        uint256 deadlineDate,\n        uint256 ticketPrice,\n        uint256 numberWinners,\n        uint256[] calldata rewards,\n        uint256 limitTickets\n    ) external {\n        uint256 raiseUntil = deadlineDate;\n        Lottery newProject = new Lottery(\n            owner,\n            title,\n            description,\n            raiseUntil,\n            ticketPrice,\n            numberWinners,\n            rewards,\n            limitTickets\n        );\n        lotteries.push(newProject);\n        emit ProjectStarted(\n            address(newProject),\n            owner,\n            title,\n            description,\n            raiseUntil,\n            ticketPrice,\n            numberWinners,\n            rewards,\n            limitTickets\n        );\n    }\n\n    struct Winners {\n        uint256[] values;\n        address[] accounts;\n    }\n    mapping(uint256 => Winners) allWinners;\n\n    struct participated {\n        address lotteryAddress;\n        uint256 value;\n        uint256 ticketsAmount;\n        State state;\n        bool won;\n        uint256 amountWon;\n    }\n    mapping(uint256 => participated) participatedList;\n\n    function participatedByAddress(address _address)\n        public\n        returns (\n            address[] memory,\n            uint256[] memory,\n            uint256[] memory,\n            State[] memory,\n            bool[] memory,\n            uint256[] memory\n        )\n    {\n        uint256 participatedIndex = 0;\n        for (uint256 i = 0; i < lotteries.length; i++) {\n            Lottery ltr = lotteries[i];\n            address[] memory players = ltr.getPlayers();\n            for (uint256 j = 0; j < players.length; j++) {\n                if (players[j] == _address) {\n                    participated storage par = participatedList[\n                        participatedIndex\n                    ];\n                    par.lotteryAddress = ltr.getContractAddress();\n                    par.value = ltr.getContributed(_address);\n                    par.ticketsAmount = ltr.getEnteredTicketsByAccount(\n                        _address\n                    );\n                    par.state = ltr.getState();\n                    par.won = false;\n                    par.amountWon = 0;\n\n                    for (uint256 k = 0; k < ltr.getNumberOfWinners(); k++) {\n                        if (_address == ltr.getWinner(k)) {\n                            par.won = true;\n                            par.amountWon = ltr.getWinnerAmount(k);\n                        }\n                    }\n                    participatedIndex++;\n                }\n            }\n        }\n\n        address[] memory addrs = new address[](participatedIndex);\n        uint256[] memory funds = new uint256[](participatedIndex);\n        uint256[] memory tickets = new uint256[](participatedIndex);\n        State[] memory states = new State[](participatedIndex);\n        bool[] memory won = new bool[](participatedIndex);\n        uint256[] memory amountWon = new uint256[](participatedIndex);\n\n        for (uint256 i = 0; i < participatedIndex; i++) {\n            participated storage pa = participatedList[i];\n            addrs[i] = pa.lotteryAddress;\n            funds[i] = pa.value;\n            tickets[i] = pa.ticketsAmount;\n            states[i] = pa.state;\n            won[i] = pa.won;\n            amountWon[i] = pa.amountWon;\n        }\n\n        return (addrs, funds, tickets, states, won, amountWon);\n    }\n\n    // function getTotalSpent(address _address) external view returns (uint256) {\n    //     uint256 totalSpent = 0;\n    //     totalSpent = this.getRewardsWonByAddress(_address) - this.getSpentState(_address);\n    //     return totalSpent;\n    // }\n\n    function getSpentState(address _address) external view returns (uint256) {\n        uint256 spent = 0;\n\n        for (uint256 i = 0; i < lotteries.length; i++) {\n            Lottery ltr = lotteries[i];\n            spent = spent + uint256(ltr.getContributed(_address));\n        }\n\n        return spent;\n    }\n\n    function getRewardsWonByAddress(address _address)\n        external\n        view\n        returns (uint256)\n    {\n        uint256 rewardsWon = 0;\n\n        for (uint256 i = 0; i < lotteries.length; i++) {\n            Lottery ltr = lotteries[i];\n            rewardsWon =\n                uint256(rewardsWon) +\n                uint256(ltr.getRewardsByAccount(_address));\n        }\n        return rewardsWon;\n    }\n\n    event RevealLatestWinners(Winners[] _a);\n\n    function getLatestWinners() external view returns (Winners[] memory) {\n        Lottery[] memory closedLotteries = this.returnClosedProjects();\n\n        Winners[] memory winners = new Winners[](closedLotteries.length);\n        if (closedLotteries.length != 0) {\n            for (uint256 i = 0; i < closedLotteries.length; i++) {\n                Lottery ltr = closedLotteries[i];\n                (uint256[] memory values, address[] memory accounts) = ltr\n                    .revealWinners();\n                winners[i].values = values;\n                winners[i].accounts = accounts;\n            }\n        }\n        return winners;\n    }\n\n    function returnClosedProjects() external view returns (Lottery[] memory) {\n        return this.getProjectsByState(State.Closed);\n    }\n\n    function returnOpenProjects() external view returns (Lottery[] memory) {\n        return this.getProjectsByState(State.Open);\n    }\n\n    function getProjectsByState(State state)\n        external\n        view\n        returns (Lottery[] memory)\n    {\n        uint256 count = 0;\n        for (uint256 i = 0; i < lotteries.length; i++) {\n            Lottery ltr = lotteries[i];\n            if (ltr.getState() == state) {\n                count++;\n            }\n        }\n        Lottery[] memory ltrs = new Lottery[](count);\n        count = 0;\n        for (uint256 i = 0; i < lotteries.length; i++) {\n            Lottery ltr = lotteries[i];\n            if (ltr.getState() == state) {\n                ltrs[count] = ltr;\n                count++;\n            }\n        }\n        return ltrs;\n    }\n\n    /** @dev Function to get all projects' contract addresses.\n     * @return A list of all projects' contract addreses\n     */\n    function returnAllLotteries() external view returns (Lottery[] memory) {\n        return lotteries;\n    }\n}\n\ncontract Lottery {\n    using SafeMath for uint256;\n    // State variables\n    address payable public creator;\n    uint256 public priceTicket; // required to reach at least this much, else everyone gets refund\n    uint256 public created;\n    uint256 public currentBalance;\n    uint256 public deadline;\n    string public title;\n    string public description;\n    State public state = State.Open; // initialize on create\n    mapping(address => uint256) public contributors;\n    address[] public players;\n    address[] public tickets;\n    uint256 playersLength;\n    uint256 public numberOfWinners;\n    uint256[] public rewards;\n    uint256 limitTickets;\n\n    struct winner {\n        uint256 id;\n        uint256 amount;\n        address account;\n    }\n    mapping(uint256 => winner) winners;\n    uint256[] public winnerIds;\n\n    // Modifier to check if the function caller is the project creator\n    modifier isCreator() {\n        require(msg.sender == creator);\n        _;\n    }\n\n    event LotteryStateChanged(State newState);\n    event Transfer(address indexed _from, uint256 _value);\n\n    constructor(\n        address payable projectStarter,\n        string memory projectTitle,\n        string memory projectDesc,\n        uint256 deadlineTime,\n        uint256 projectTicketPrice,\n        uint256 numberWinners,\n        uint256[] memory lotteryRewards,\n        uint256 lotteryLimitTickets\n    ) public {\n        creator = projectStarter;\n        title = projectTitle;\n        description = projectDesc;\n        priceTicket = projectTicketPrice;\n        deadline = deadlineTime;\n        currentBalance = 0;\n        created = block.timestamp;\n        numberOfWinners = numberWinners;\n        rewards = lotteryRewards;\n        limitTickets = lotteryLimitTickets;\n    }\n\n    function getRewardsByAccount(address _address)\n        public\n        view\n        returns (uint256)\n    {\n        uint256 rewardsWon = 0;\n        for (uint256 i = 0; i < numberOfWinners; i++) {\n            winner storage ltWinner = winners[i];\n            if (ltWinner.account == _address) {\n                rewardsWon = uint256(rewardsWon) + uint256(ltWinner.amount);\n            }\n        }\n        return rewardsWon;\n    }\n\n    function getContractAddress() public view returns (address) {\n        return address(this);\n    }\n\n    function getContributed(address _address) public view returns (uint256) {\n        return contributors[_address];\n    }\n\n    function getState() public view returns (State) {\n        return state;\n    }\n\n    function getWinner(uint256 id) public view returns (address) {\n        return winners[id].account;\n    }\n\n    function getWinnerAmount(uint256 id) public view returns (uint256) {\n        return winners[id].amount;\n    }\n\n    function buyTicket(uint256 overralPrice, uint256 ticketAmount)\n        public\n        payable\n    {\n        require(block.timestamp < deadline); // in the fundraising period\n        require(overralPrice > 0);\n\n        uint256 ticketsByAcc = this.getEnteredTicketsByAccount(msg.sender) +\n            ticketAmount;\n        require(limitTickets >= ticketsByAcc);\n\n        contributors[msg.sender] = contributors[msg.sender].add(overralPrice);\n        currentBalance = currentBalance.add(overralPrice);\n\n        for (uint256 i = 0; i < ticketAmount; i++) {\n            tickets.push(msg.sender);\n        }\n\n        bool doesPlayerEntered = false;\n        for (uint256 i = 0; i < players.length; i++) {\n            if (msg.sender == players[i]) {\n                doesPlayerEntered = true;\n            }\n        }\n\n        if (!doesPlayerEntered) {\n            players.push(msg.sender);\n        }\n\n        emit Transfer(msg.sender, overralPrice);\n    }\n\n    function getNumberOfWinners() public view returns (uint256) {\n        return numberOfWinners;\n    }\n\n    function getOwner() public view returns (address) {\n        return creator;\n    }\n\n    function random() private view returns (uint256) {\n        return\n            uint256(\n                keccak256(\n                    abi.encodePacked(block.difficulty, block.timestamp, tickets)\n                )\n            );\n    }\n\n    function getEnteredTicketsByAccount(address _address)\n        public\n        view\n        returns (uint256)\n    {\n        uint256 ticketsByAccount = 0;\n        for (uint256 i = 0; i < tickets.length; i++) {\n            if (_address == tickets[i]) {\n                ticketsByAccount++;\n            }\n        }\n        return ticketsByAccount;\n    }\n\n    function getWinProbabiltyByAccount(address _address)\n        public\n        view\n        returns (uint256)\n    {\n        // vraciam percenta + navyse 2 desatinimi cislami,\n        // kvoli tomu ze v Solidity sa neda pracovat s float\n        // na frontende ak vstup predelim 100, dostanem percenta\n        // napr 21,58\n        return\n            (this.getEnteredTicketsByAccount(_address) * 10000) /\n            tickets.length;\n    }\n\n    function pickWinner() public payable restricted {\n        // po casovom limite, admin spusti losovanie a nasledne\n        // vyhodnotenie vyhercov\n        require(block.timestamp > deadline);\n\n        uint256 reward;\n        currentBalance = address(this).balance;\n        for (uint256 i = 0; i < numberOfWinners; i++) {\n            reward =\n                ((uint256(rewards[i]) * currentBalance) / uint256(10000)) *\n                uint256(93);\n            uint256 index = random() % tickets.length;\n            winner storage ltWinner = winners[i];\n            ltWinner.account = tickets[index];\n            ltWinner.amount = reward;\n            winnerIds.push(i);\n            for (uint256 j = 0; j < tickets.length; j++) {\n                if (tickets[j] == ltWinner.account) {\n                    delete tickets[j];\n                }\n            }\n            payable(ltWinner.account).transfer(reward);\n        }\n        // reward for creator 7%\n        payable(creator).transfer(address(this).balance);\n        _changeState(State.Closed);\n    }\n\n    modifier restricted() {\n        require(msg.sender == creator);\n        _;\n    }\n\n    function getPlayers() public view returns (address[] memory) {\n        return players;\n    }\n\n    function storno(address sender) public {\n        require(block.timestamp < deadline); //is open period\n\n        uint256 amount = contributors[msg.sender];\n        require(amount != 0);\n\n        payable(sender).transfer(amount); //payment return\n        deletePlayer(sender); //remove from lottery\n    }\n\n    function deletePlayer(address player) public returns (bool) {\n        for (uint256 i = 0; i < players.length; i++) {\n            if (players[i] == player) {\n                delete players[i];\n                return true;\n            }\n        }\n        return false;\n    }\n\n    function revealWinners()\n        public\n        view\n        returns (uint256[] memory, address[] memory)\n    {\n        require(block.timestamp > deadline);\n\n        address[] memory addrs = new address[](winnerIds.length);\n        uint256[] memory amounts = new uint256[](winnerIds.length);\n\n        for (uint256 i = 0; i < winnerIds.length; i++) {\n            winner storage ltWinner = winners[i];\n            addrs[i] = ltWinner.account;\n            amounts[i] = ltWinner.amount;\n        }\n        return (amounts, addrs);\n    }\n\n    /** @dev Function to get specific information about the project.\n     * @return projectStarter Returns all the project's details\n     */\n    function getDetails(address account)\n        public\n        view\n        returns (\n            address payable projectStarter,\n            string memory projectTitle,\n            string memory projectDesc,\n            uint256 deadlineTime,\n            State currentState,\n            uint256 currentAmount,\n            uint256 ticketPrice,\n            uint256 lotteryPlayersLength,\n            uint256 lotteryDateCreated,\n            uint256[] memory lotteryRewards,\n            uint256 purchased\n        )\n    {\n        projectStarter = creator;\n        projectTitle = title;\n        projectDesc = description;\n        deadlineTime = deadline;\n        currentState = state;\n        currentAmount = currentBalance;\n        ticketPrice = priceTicket;\n        lotteryPlayersLength = playersLength;\n        lotteryDateCreated = created;\n        lotteryRewards = rewards;\n        purchased = contributors[account];\n    }\n\n    // function purchasedByAddress(address _key) public view returns (uint256) {\n    //     return contributors[_key];\n    // }\n    function _changeState(State _newState) private {\n        state = _newState;\n        emit LotteryStateChanged(state);\n    }\n\n    function getPlayersDetails()\n        public\n        view\n        returns (\n            address[] memory lotteryPlayers,\n            address[] memory lotteryTickets\n        )\n    {\n        lotteryPlayers = players;\n        lotteryTickets = tickets;\n    }\n}\n",
  "sourcePath": "/Users/jakub/Documents/Skola/lottery/contracts/Lottery.sol",
  "compiler": {
    "name": "solc",
    "version": "0.7.6+commit.7338295f.Emscripten.clang"
  },
  "schemaVersion": "3.4.4",
  "updatedAt": "2022-03-28T20:03:36.650Z",
  "devdoc": {
    "kind": "dev",
    "methods": {
      "getDetails(address)": {
        "details": "Function to get specific information about the project.",
        "returns": {
          "projectStarter": "Returns all the project's details"
        }
      }
    },
    "version": 1
  },
  "userdoc": {
    "kind": "user",
    "methods": {},
    "version": 1
  }
}