{
  "contractName": "LotteryBuilder",
  "abi": [
    {
      "inputs": [
        {
          "internalType": "address payable",
          "name": "deployer",
          "type": "address"
        }
      ],
      "stateMutability": "nonpayable",
      "type": "constructor"
    },
    {
      "anonymous": false,
      "inputs": [
        {
          "indexed": false,
          "internalType": "address",
          "name": "contractAddress",
          "type": "address"
        },
        {
          "indexed": false,
          "internalType": "address",
          "name": "projectStarter",
          "type": "address"
        },
        {
          "indexed": false,
          "internalType": "string",
          "name": "projectTitle",
          "type": "string"
        },
        {
          "indexed": false,
          "internalType": "string",
          "name": "projectDesc",
          "type": "string"
        },
        {
          "indexed": false,
          "internalType": "uint256",
          "name": "deadline",
          "type": "uint256"
        },
        {
          "indexed": false,
          "internalType": "uint256",
          "name": "ticketPrice",
          "type": "uint256"
        },
        {
          "indexed": false,
          "internalType": "uint256",
          "name": "numberWinners",
          "type": "uint256"
        },
        {
          "indexed": false,
          "internalType": "uint256[]",
          "name": "rewards",
          "type": "uint256[]"
        },
        {
          "indexed": false,
          "internalType": "uint256",
          "name": "limitTickets",
          "type": "uint256"
        }
      ],
      "name": "ProjectStarted",
      "type": "event"
    },
    {
      "anonymous": false,
      "inputs": [
        {
          "components": [
            {
              "internalType": "uint256[]",
              "name": "values",
              "type": "uint256[]"
            },
            {
              "internalType": "address[]",
              "name": "accounts",
              "type": "address[]"
            }
          ],
          "indexed": false,
          "internalType": "struct LotteryBuilder.Winners[]",
          "name": "_a",
          "type": "tuple[]"
        }
      ],
      "name": "RevealLatestWinners",
      "type": "event"
    },
    {
      "inputs": [
        {
          "internalType": "address payable",
          "name": "owner",
          "type": "address"
        },
        {
          "internalType": "string",
          "name": "title",
          "type": "string"
        },
        {
          "internalType": "string",
          "name": "description",
          "type": "string"
        },
        {
          "internalType": "uint256",
          "name": "deadlineDate",
          "type": "uint256"
        },
        {
          "internalType": "uint256",
          "name": "ticketPrice",
          "type": "uint256"
        },
        {
          "internalType": "uint256",
          "name": "numberWinners",
          "type": "uint256"
        },
        {
          "internalType": "uint256[]",
          "name": "rewards",
          "type": "uint256[]"
        },
        {
          "internalType": "uint256",
          "name": "limitTickets",
          "type": "uint256"
        }
      ],
      "name": "startProject",
      "outputs": [],
      "stateMutability": "nonpayable",
      "type": "function"
    },
    {
      "inputs": [
        {
          "internalType": "address",
          "name": "_address",
          "type": "address"
        }
      ],
      "name": "participatedByAddress",
      "outputs": [
        {
          "internalType": "address[]",
          "name": "",
          "type": "address[]"
        },
        {
          "internalType": "uint256[]",
          "name": "",
          "type": "uint256[]"
        },
        {
          "internalType": "uint256[]",
          "name": "",
          "type": "uint256[]"
        },
        {
          "internalType": "enum State[]",
          "name": "",
          "type": "uint8[]"
        },
        {
          "internalType": "bool[]",
          "name": "",
          "type": "bool[]"
        },
        {
          "internalType": "uint256[]",
          "name": "",
          "type": "uint256[]"
        }
      ],
      "stateMutability": "nonpayable",
      "type": "function"
    },
    {
      "inputs": [],
      "name": "getCreator",
      "outputs": [
        {
          "internalType": "address",
          "name": "",
          "type": "address"
        }
      ],
      "stateMutability": "view",
      "type": "function",
      "constant": true
    },
    {
      "inputs": [
        {
          "internalType": "address",
          "name": "_address",
          "type": "address"
        }
      ],
      "name": "getSpentState",
      "outputs": [
        {
          "internalType": "uint256",
          "name": "",
          "type": "uint256"
        }
      ],
      "stateMutability": "view",
      "type": "function",
      "constant": true
    },
    {
      "inputs": [
        {
          "internalType": "address",
          "name": "_address",
          "type": "address"
        }
      ],
      "name": "getRewardsWonByAddress",
      "outputs": [
        {
          "internalType": "uint256",
          "name": "",
          "type": "uint256"
        }
      ],
      "stateMutability": "view",
      "type": "function",
      "constant": true
    },
    {
      "inputs": [],
      "name": "getLatestWinners",
      "outputs": [
        {
          "components": [
            {
              "internalType": "uint256[]",
              "name": "values",
              "type": "uint256[]"
            },
            {
              "internalType": "address[]",
              "name": "accounts",
              "type": "address[]"
            }
          ],
          "internalType": "struct LotteryBuilder.Winners[]",
          "name": "",
          "type": "tuple[]"
        }
      ],
      "stateMutability": "view",
      "type": "function",
      "constant": true
    },
    {
      "inputs": [],
      "name": "returnClosedProjects",
      "outputs": [
        {
          "internalType": "contract Lottery[]",
          "name": "",
          "type": "address[]"
        }
      ],
      "stateMutability": "view",
      "type": "function",
      "constant": true
    },
    {
      "inputs": [],
      "name": "returnOpenProjects",
      "outputs": [
        {
          "internalType": "contract Lottery[]",
          "name": "",
          "type": "address[]"
        }
      ],
      "stateMutability": "view",
      "type": "function",
      "constant": true
    },
    {
      "inputs": [
        {
          "internalType": "enum State",
          "name": "state",
          "type": "uint8"
        }
      ],
      "name": "getProjectsByState",
      "outputs": [
        {
          "internalType": "contract Lottery[]",
          "name": "",
          "type": "address[]"
        }
      ],
      "stateMutability": "view",
      "type": "function",
      "constant": true
    },
    {
      "inputs": [],
      "name": "returnAllLotteries",
      "outputs": [
        {
          "internalType": "contract Lottery[]",
          "name": "",
          "type": "address[]"
        }
      ],
      "stateMutability": "view",
      "type": "function",
      "constant": true
    }
  ],
  "bytecode": "0x60806040523480156200001157600080fd5b5060405162005c0e38038062005c0e833981810160405281019062000037919062000096565b80600160006101000a81548173ffffffffffffffffffffffffffffffffffffffff021916908373ffffffffffffffffffffffffffffffffffffffff1602179055505062000110565b6000815190506200009081620000f6565b92915050565b600060208284031215620000a957600080fd5b6000620000b9848285016200007f565b91505092915050565b6000620000cf82620000d6565b9050919050565b600073ffffffffffffffffffffffffffffffffffffffff82169050919050565b6200010181620000c2565b81146200010d57600080fd5b50565b615aee80620001206000396000f3fe60806040523480156200001157600080fd5b5060043610620000ac5760003560e01c80638b3645ee116200006f5780638b3645ee1462000186578063c5d8668f14620001a8578063c934d75814620001ca578063e184794c1462000200578063eb1f0445146200023657620000ac565b80630ee2cb1014620000b1578063180a1d1614620000d35780632c9d4060146200010e5780632f771ef614620001305780637e5782941462000166575b600080fd5b620000bb62000258565b604051620000ca919062002195565b60405180910390f35b620000f16004803603810190620000eb91906200191f565b62000282565b604051620001059695949392919062002315565b60405180910390f35b6200011862000c2e565b604051620001279190620023ac565b60405180910390f35b6200014e600480360381019062000148919062001b90565b62000cbe565b6040516200015d9190620023ac565b60405180910390f35b6200018460048036038101906200017e919062001977565b62000f74565b005b620001906200108b565b6040516200019f9190620023d0565b60405180910390f35b620001b262001287565b604051620001c19190620023ac565b60405180910390f35b620001e86004803603810190620001e291906200191f565b62001323565b604051620001f7919062002411565b60405180910390f35b6200021e60048036038101906200021891906200191f565b62001423565b6040516200022d919062002411565b60405180910390f35b6200024062001523565b6040516200024f9190620023ac565b60405180910390f35b6000600160009054906101000a900473ffffffffffffffffffffffffffffffffffffffff16905090565b6060806060806060806000805b600080549050811015620008ce576000808281548110620002ac57fe5b9060005260206000200160009054906101000a900473ffffffffffffffffffffffffffffffffffffffff16905060008173ffffffffffffffffffffffffffffffffffffffff16638b5b9ccc6040518163ffffffff1660e01b815260040160006040518083038186803b1580156200032257600080fd5b505afa15801562000337573d6000803e3d6000fd5b505050506040513d6000823e3d601f19601f8201168201806040525081019062000362919062001a93565b905060005b8151811015620008bd578b73ffffffffffffffffffffffffffffffffffffffff168282815181106200039557fe5b602002602001015173ffffffffffffffffffffffffffffffffffffffff161415620008af5760006003600087815260200190815260200160002090508373ffffffffffffffffffffffffffffffffffffffff166332a2c5d06040518163ffffffff1660e01b815260040160206040518083038186803b1580156200041857600080fd5b505afa1580156200042d573d6000803e3d6000fd5b505050506040513d601f19601f820116820180604052508101906200045391906200194b565b8160000160006101000a81548173ffffffffffffffffffffffffffffffffffffffff021916908373ffffffffffffffffffffffffffffffffffffffff1602179055508373ffffffffffffffffffffffffffffffffffffffff16634de58efe8e6040518263ffffffff1660e01b8152600401620004d0919062002195565b60206040518083038186803b158015620004e957600080fd5b505afa158015620004fe573d6000803e3d6000fd5b505050506040513d601f19601f8201168201806040525081019062000524919062001be8565b81600101819055508373ffffffffffffffffffffffffffffffffffffffff16630e0b0f438e6040518263ffffffff1660e01b815260040162000567919062002195565b60206040518083038186803b1580156200058057600080fd5b505afa15801562000595573d6000803e3d6000fd5b505050506040513d601f19601f82011682018060405250810190620005bb919062001be8565b81600201819055508373ffffffffffffffffffffffffffffffffffffffff16631865c57d6040518163ffffffff1660e01b815260040160206040518083038186803b1580156200060a57600080fd5b505afa1580156200061f573d6000803e3d6000fd5b505050506040513d601f19601f8201168201806040525081019062000645919062001bbc565b8160030160006101000a81548160ff021916908360028111156200066557fe5b021790555060008160030160016101000a81548160ff0219169083151502179055506000816004018190555060005b8473ffffffffffffffffffffffffffffffffffffffff16638e33cffc6040518163ffffffff1660e01b815260040160206040518083038186803b158015620006db57600080fd5b505afa158015620006f0573d6000803e3d6000fd5b505050506040513d601f19601f8201168201806040525081019062000716919062001be8565b811015620008a4578473ffffffffffffffffffffffffffffffffffffffff16634129b2c9826040518263ffffffff1660e01b815260040162000759919062002411565b60206040518083038186803b1580156200077257600080fd5b505afa15801562000787573d6000803e3d6000fd5b505050506040513d601f19601f82011682018060405250810190620007ad91906200194b565b73ffffffffffffffffffffffffffffffffffffffff168e73ffffffffffffffffffffffffffffffffffffffff161415620008965760018260030160016101000a81548160ff0219169083151502179055508473ffffffffffffffffffffffffffffffffffffffff1663f7feb20d826040518263ffffffff1660e01b815260040162000839919062002411565b60206040518083038186803b1580156200085257600080fd5b505afa15801562000867573d6000803e3d6000fd5b505050506040513d601f19601f820116820180604052508101906200088d919062001be8565b82600401819055505b808060010191505062000694565b508580600101965050505b808060010191505062000367565b50505080806001019150506200028f565b5060008167ffffffffffffffff81118015620008e957600080fd5b50604051908082528060200260200182016040528015620009195781602001602082028036833780820191505090505b50905060008267ffffffffffffffff811180156200093657600080fd5b50604051908082528060200260200182016040528015620009665781602001602082028036833780820191505090505b50905060008367ffffffffffffffff811180156200098357600080fd5b50604051908082528060200260200182016040528015620009b35781602001602082028036833780820191505090505b50905060008467ffffffffffffffff81118015620009d057600080fd5b5060405190808252806020026020018201604052801562000a005781602001602082028036833780820191505090505b50905060008567ffffffffffffffff8111801562000a1d57600080fd5b5060405190808252806020026020018201604052801562000a4d5781602001602082028036833780820191505090505b50905060008667ffffffffffffffff8111801562000a6a57600080fd5b5060405190808252806020026020018201604052801562000a9a5781602001602082028036833780820191505090505b50905060005b8781101562000c0b5760006003600083815260200190815260200160002090508060000160009054906101000a900473ffffffffffffffffffffffffffffffffffffffff1688838151811062000af257fe5b602002602001019073ffffffffffffffffffffffffffffffffffffffff16908173ffffffffffffffffffffffffffffffffffffffff1681525050806001015487838151811062000b3e57fe5b602002602001018181525050806002015486838151811062000b5c57fe5b6020026020010181815250508060030160009054906101000a900460ff1685838151811062000b8757fe5b6020026020010190600281111562000b9b57fe5b9081600281111562000ba957fe5b815250508060030160019054906101000a900460ff1684838151811062000bcc57fe5b602002602001019015159081151581525050806004015483838151811062000bf057fe5b60200260200101818152505050808060010191505062000aa0565b508585858585859c509c509c509c509c509c505050505050505091939550919395565b6060600080548060200260200160405190810160405280929190818152602001828054801562000cb457602002820191906000526020600020905b8160009054906101000a900473ffffffffffffffffffffffffffffffffffffffff1673ffffffffffffffffffffffffffffffffffffffff168152602001906001019080831162000c69575b5050505050905090565b60606000805b60008054905081101562000dc857600080828154811062000ce157fe5b9060005260206000200160009054906101000a900473ffffffffffffffffffffffffffffffffffffffff16905084600281111562000d1b57fe5b8173ffffffffffffffffffffffffffffffffffffffff16631865c57d6040518163ffffffff1660e01b815260040160206040518083038186803b15801562000d6257600080fd5b505afa15801562000d77573d6000803e3d6000fd5b505050506040513d601f19601f8201168201806040525081019062000d9d919062001bbc565b600281111562000da957fe5b141562000db95782806001019350505b50808060010191505062000cc4565b5060008167ffffffffffffffff8111801562000de357600080fd5b5060405190808252806020026020018201604052801562000e135781602001602082028036833780820191505090505b5090506000915060005b60008054905081101562000f6957600080828154811062000e3a57fe5b9060005260206000200160009054906101000a900473ffffffffffffffffffffffffffffffffffffffff16905085600281111562000e7457fe5b8173ffffffffffffffffffffffffffffffffffffffff16631865c57d6040518163ffffffff1660e01b815260040160206040518083038186803b15801562000ebb57600080fd5b505afa15801562000ed0573d6000803e3d6000fd5b505050506040513d601f19601f8201168201806040525081019062000ef6919062001bbc565b600281111562000f0257fe5b141562000f5a578083858151811062000f1757fe5b602002602001019073ffffffffffffffffffffffffffffffffffffffff16908173ffffffffffffffffffffffffffffffffffffffff168152505083806001019450505b50808060010191505062000e1d565b508092505050919050565b600086905060008c8c8c8c8c868c8c8c8c8c60405162000f9490620015bf565b62000faa9b9a99989796959493929190620021b2565b604051809103906000f08015801562000fc7573d6000803e3d6000fd5b5090506000819080600181540180825580915050600190039060005260206000200160009091909190916101000a81548173ffffffffffffffffffffffffffffffffffffffff021916908373ffffffffffffffffffffffffffffffffffffffff1602179055507fc33b89565476136c799a7e92716fc3daaaafd9783944de47647ed9b3ffe122fe818e8e8e8e8e888e8e8e8e8e604051620010749c9b9a999897969594939291906200225b565b60405180910390a150505050505050505050505050565b606060003073ffffffffffffffffffffffffffffffffffffffff1663c5d8668f6040518163ffffffff1660e01b815260040160006040518083038186803b158015620010d657600080fd5b505afa158015620010eb573d6000803e3d6000fd5b505050506040513d6000823e3d601f19601f8201168201806040525081019062001116919062001ad8565b90506000815167ffffffffffffffff811180156200113357600080fd5b506040519080825280602002602001820160405280156200117157816020015b6200115d620015cd565b815260200190600190039081620011535790505b50905060008251146200127f5760005b82518110156200127d5760008382815181106200119a57fe5b602002602001015190506000808273ffffffffffffffffffffffffffffffffffffffff1663952587d66040518163ffffffff1660e01b815260040160006040518083038186803b158015620011ee57600080fd5b505afa15801562001203573d6000803e3d6000fd5b505050506040513d6000823e3d601f19601f820116820180604052508101906200122e919062001b1d565b91509150818585815181106200124057fe5b602002602001015160000181905250808585815181106200125d57fe5b602002602001015160200181905250505050808060010191505062001181565b505b809250505090565b60603073ffffffffffffffffffffffffffffffffffffffff16632f771ef660016040518263ffffffff1660e01b8152600401620012c59190620023f4565b60006040518083038186803b158015620012de57600080fd5b505afa158015620012f3573d6000803e3d6000fd5b505050506040513d6000823e3d601f19601f820116820180604052508101906200131e919062001ad8565b905090565b6000806000905060005b600080549050811015620014195760008082815481106200134a57fe5b9060005260206000200160009054906101000a900473ffffffffffffffffffffffffffffffffffffffff1690508073ffffffffffffffffffffffffffffffffffffffff16634de58efe866040518263ffffffff1660e01b8152600401620013b2919062002195565b60206040518083038186803b158015620013cb57600080fd5b505afa158015620013e0573d6000803e3d6000fd5b505050506040513d601f19601f8201168201806040525081019062001406919062001be8565b830192505080806001019150506200132d565b5080915050919050565b6000806000905060005b600080549050811015620015195760008082815481106200144a57fe5b9060005260206000200160009054906101000a900473ffffffffffffffffffffffffffffffffffffffff1690508073ffffffffffffffffffffffffffffffffffffffff1663a6a031b9866040518263ffffffff1660e01b8152600401620014b2919062002195565b60206040518083038186803b158015620014cb57600080fd5b505afa158015620014e0573d6000803e3d6000fd5b505050506040513d601f19601f8201168201806040525081019062001506919062001be8565b830192505080806001019150506200142d565b5080915050919050565b60603073ffffffffffffffffffffffffffffffffffffffff16632f771ef660006040518263ffffffff1660e01b8152600401620015619190620023f4565b60006040518083038186803b1580156200157a57600080fd5b505afa1580156200158f573d6000803e3d6000fd5b505050506040513d6000823e3d601f19601f82011682018060405250810190620015ba919062001ad8565b905090565b6132a0806200281983390190565b604051806040016040528060608152602001606081525090565b6000620015fe620015f88462002462565b6200242e565b905080838252602082019050828560208602820111156200161e57600080fd5b60005b858110156200165257816200163788826200175d565b84526020840193506020830192505060018101905062001621565b5050509392505050565b6000620016736200166d8462002491565b6200242e565b905080838252602082019050828560208602820111156200169357600080fd5b60005b85811015620016c75781620016ac88826200185f565b84526020840193506020830192505060018101905062001696565b5050509392505050565b6000620016e8620016e284620024c0565b6200242e565b905080838252602082019050828560208602820111156200170857600080fd5b60005b858110156200173c578162001721888262001908565b8452602084019350602083019250506001810190506200170b565b5050509392505050565b60008135905062001757816200279f565b92915050565b6000815190506200176e816200279f565b92915050565b6000813590506200178581620027b9565b92915050565b600082601f8301126200179d57600080fd5b8151620017af848260208601620015e7565b91505092915050565b600082601f830112620017ca57600080fd5b8151620017dc8482602086016200165c565b91505092915050565b60008083601f840112620017f857600080fd5b8235905067ffffffffffffffff8111156200181257600080fd5b6020830191508360208202830111156200182b57600080fd5b9250929050565b600082601f8301126200184457600080fd5b815162001856848260208601620016d1565b91505092915050565b6000815190506200187081620027d3565b92915050565b6000813590506200188781620027ed565b92915050565b6000815190506200189e81620027ed565b92915050565b60008083601f840112620018b757600080fd5b8235905067ffffffffffffffff811115620018d157600080fd5b602083019150836001820283011115620018ea57600080fd5b9250929050565b6000813590506200190281620027fe565b92915050565b6000815190506200191981620027fe565b92915050565b6000602082840312156200193257600080fd5b6000620019428482850162001746565b91505092915050565b6000602082840312156200195e57600080fd5b60006200196e848285016200175d565b91505092915050565b60008060008060008060008060008060006101008c8e0312156200199a57600080fd5b6000620019aa8e828f0162001774565b9b505060208c013567ffffffffffffffff811115620019c857600080fd5b620019d68e828f01620018a4565b9a509a505060408c013567ffffffffffffffff811115620019f657600080fd5b62001a048e828f01620018a4565b9850985050606062001a198e828f01620018f1565b965050608062001a2c8e828f01620018f1565b95505060a062001a3f8e828f01620018f1565b94505060c08c013567ffffffffffffffff81111562001a5d57600080fd5b62001a6b8e828f01620017e5565b935093505060e062001a808e828f01620018f1565b9150509295989b509295989b9093969950565b60006020828403121562001aa657600080fd5b600082015167ffffffffffffffff81111562001ac157600080fd5b62001acf848285016200178b565b91505092915050565b60006020828403121562001aeb57600080fd5b600082015167ffffffffffffffff81111562001b0657600080fd5b62001b1484828501620017b8565b91505092915050565b6000806040838503121562001b3157600080fd5b600083015167ffffffffffffffff81111562001b4c57600080fd5b62001b5a8582860162001832565b925050602083015167ffffffffffffffff81111562001b7857600080fd5b62001b86858286016200178b565b9150509250929050565b60006020828403121562001ba357600080fd5b600062001bb38482850162001876565b91505092915050565b60006020828403121562001bcf57600080fd5b600062001bdf848285016200188d565b91505092915050565b60006020828403121562001bfb57600080fd5b600062001c0b8482850162001908565b91505092915050565b600062001c22838362001cce565b60208301905092915050565b600062001c3c8383620020b4565b60208301905092915050565b600062001c568383620020c5565b60208301905092915050565b600062001c708383620020d6565b60208301905092915050565b600062001c8a83836200212b565b905092915050565b600062001ca0838362002173565b60208301905092915050565b62001cb781620026ee565b82525050565b62001cc8816200267b565b82525050565b62001cd98162002667565b82525050565b62001cea8162002667565b82525050565b600062001cfd826200254f565b62001d098185620025df565b935062001d1683620024ef565b8060005b8381101562001d4d57815162001d31888262001c14565b975062001d3e8362002591565b92505060018101905062001d1a565b5085935050505092915050565b600062001d67826200254f565b62001d738185620025f0565b935062001d8083620024ef565b8060005b8381101562001db757815162001d9b888262001c14565b975062001da88362002591565b92505060018101905062001d84565b5085935050505092915050565b600062001dd1826200255a565b62001ddd818562002601565b935062001dea83620024ff565b8060005b8381101562001e2157815162001e05888262001c2e565b975062001e12836200259e565b92505060018101905062001dee565b5085935050505092915050565b600062001e3b8262002565565b62001e478185620025f0565b935062001e54836200250f565b8060005b8381101562001e8b57815162001e6f888262001c48565b975062001e7c83620025ab565b92505060018101905062001e58565b5085935050505092915050565b600062001ea58262002570565b62001eb1818562002645565b935062001ebe836200251f565b8060005b8381101562001ef557815162001ed9888262001c62565b975062001ee683620025b8565b92505060018101905062001ec2565b5085935050505092915050565b600062001f0f826200257b565b62001f1b818562002612565b93508360208202850162001f2f856200252f565b8060005b8581101562001f71578484038952815162001f4f858262001c7c565b945062001f5c83620025c5565b925060208a0199505060018101905062001f33565b50829750879550505050505092915050565b600062001f91838562002634565b93507f07ffffffffffffffffffffffffffffffffffffffffffffffffffffffffffffff83111562001fc157600080fd5b60208302925062001fd483858462002766565b82840190509392505050565b600062001fed8262002586565b62001ff9818562002623565b935062002006836200253f565b8060005b838110156200203d57815162002021888262001c92565b97506200202e83620025d2565b9250506001810190506200200a565b5085935050505092915050565b6000620020578262002586565b62002063818562002634565b935062002070836200253f565b8060005b83811015620020a75781516200208b888262001c92565b97506200209883620025d2565b92505060018101905062002074565b5085935050505092915050565b620020bf816200268f565b82525050565b620020d08162002702565b82525050565b620020e1816200272a565b82525050565b620020f2816200272a565b82525050565b600062002106838562002656565b93506200211583858462002766565b620021208362002777565b840190509392505050565b600060408301600083015184820360008601526200214a828262001fe0565b9150506020830151848203602086015262002166828262001cf0565b9150508091505092915050565b6200217e81620026e4565b82525050565b6200218f81620026e4565b82525050565b6000602082019050620021ac600083018462001cdf565b92915050565b600061010082019050620021ca600083018e62001cbd565b8181036020830152620021df818c8e620020f8565b90508181036040830152620021f6818a8c620020f8565b905062002207606083018962002184565b62002216608083018862002184565b6200222560a083018762002184565b81810360c08301526200223a81858762001f83565b90506200224b60e083018462002184565b9c9b505050505050505050505050565b60006101208201905062002273600083018f62001cdf565b62002282602083018e62001cac565b818103604083015262002297818c8e620020f8565b90508181036060830152620022ae818a8c620020f8565b9050620022bf608083018962002184565b620022ce60a083018862002184565b620022dd60c083018762002184565b81810360e0830152620022f281858762001f83565b90506200230461010083018462002184565b9d9c50505050505050505050505050565b600060c082019050818103600083015262002331818962001d5a565b905081810360208301526200234781886200204a565b905081810360408301526200235d81876200204a565b9050818103606083015262002373818662001e98565b9050818103608083015262002389818562001dc4565b905081810360a08301526200239f81846200204a565b9050979650505050505050565b60006020820190508181036000830152620023c8818462001e2e565b905092915050565b60006020820190508181036000830152620023ec818462001f02565b905092915050565b60006020820190506200240b6000830184620020e7565b92915050565b600060208201905062002428600083018462002184565b92915050565b6000604051905081810181811067ffffffffffffffff8211171562002458576200245762002775565b5b8060405250919050565b600067ffffffffffffffff82111562002480576200247f62002775565b5b602082029050602081019050919050565b600067ffffffffffffffff821115620024af57620024ae62002775565b5b602082029050602081019050919050565b600067ffffffffffffffff821115620024de57620024dd62002775565b5b602082029050602081019050919050565b6000819050602082019050919050565b6000819050602082019050919050565b6000819050602082019050919050565b6000819050602082019050919050565b6000819050602082019050919050565b6000819050602082019050919050565b600081519050919050565b600081519050919050565b600081519050919050565b600081519050919050565b600081519050919050565b600081519050919050565b6000602082019050919050565b6000602082019050919050565b6000602082019050919050565b6000602082019050919050565b6000602082019050919050565b6000602082019050919050565b600082825260208201905092915050565b600082825260208201905092915050565b600082825260208201905092915050565b600082825260208201905092915050565b600082825260208201905092915050565b600082825260208201905092915050565b600082825260208201905092915050565b600082825260208201905092915050565b60006200267482620026c4565b9050919050565b60006200268882620026c4565b9050919050565b60008115159050919050565b6000620026a88262002667565b9050919050565b6000819050620026bf8262002788565b919050565b600073ffffffffffffffffffffffffffffffffffffffff82169050919050565b6000819050919050565b6000620026fb826200273e565b9050919050565b60006200270f8262002716565b9050919050565b60006200272382620026c4565b9050919050565b60006200273782620026af565b9050919050565b60006200274b8262002752565b9050919050565b60006200275f82620026c4565b9050919050565b82818337600083830152505050565bfe5b6000601f19601f8301169050919050565b600381106200279c576200279b62002775565b5b50565b620027aa8162002667565b8114620027b657600080fd5b50565b620027c4816200267b565b8114620027d057600080fd5b50565b620027de816200269b565b8114620027ea57600080fd5b50565b60038110620027fb57600080fd5b50565b6200280981620026e4565b81146200281557600080fd5b5056fe60806040526000600760006101000a81548160ff021916908360028111156200002457fe5b02179055503480156200003657600080fd5b50604051620032a0380380620032a083398181016040528101906200005c91906200036a565b876000806101000a81548173ffffffffffffffffffffffffffffffffffffffff021916908373ffffffffffffffffffffffffffffffffffffffff1602179055508660059080519060200190620000b492919062000120565b508560069080519060200190620000cd92919062000120565b50836001819055508460048190555060006003819055504260028190555082600b8190555081600c90805190602001906200010a929190620001b7565b5080600d819055505050505050505050620005b8565b828054600181600116156101000203166002900490600052602060002090601f016020900481019282620001585760008555620001a4565b82601f106200017357805160ff1916838001178555620001a4565b82800160010185558215620001a4579182015b82811115620001a357825182559160200191906001019062000186565b5b509050620001b3919062000209565b5090565b828054828255906000526020600020908101928215620001f6579160200282015b82811115620001f5578251825591602001919060010190620001d8565b5b50905062000205919062000209565b5090565b5b80821115620002245760008160009055506001016200020a565b5090565b60006200023f6200023984620004ac565b62000478565b905080838252602082019050828560208602820111156200025f57600080fd5b60005b8581101562000293578162000278888262000353565b84526020840193506020830192505060018101905062000262565b5050509392505050565b6000620002b4620002ae84620004db565b62000478565b905082815260208101848484011115620002cd57600080fd5b620002da8482856200054c565b509392505050565b600081519050620002f38162000584565b92915050565b600082601f8301126200030b57600080fd5b81516200031d84826020860162000228565b91505092915050565b600082601f8301126200033857600080fd5b81516200034a8482602086016200029d565b91505092915050565b60008151905062000364816200059e565b92915050565b600080600080600080600080610100898b0312156200038857600080fd5b6000620003988b828c01620002e2565b985050602089015167ffffffffffffffff811115620003b657600080fd5b620003c48b828c0162000326565b975050604089015167ffffffffffffffff811115620003e257600080fd5b620003f08b828c0162000326565b9650506060620004038b828c0162000353565b9550506080620004168b828c0162000353565b94505060a0620004298b828c0162000353565b93505060c089015167ffffffffffffffff8111156200044757600080fd5b620004558b828c01620002f9565b92505060e0620004688b828c0162000353565b9150509295985092959890939650565b6000604051905081810181811067ffffffffffffffff82111715620004a257620004a162000582565b5b8060405250919050565b600067ffffffffffffffff821115620004ca57620004c962000582565b5b602082029050602081019050919050565b600067ffffffffffffffff821115620004f957620004f862000582565b5b601f19601f8301169050602081019050919050565b60006200051b8262000522565b9050919050565b600073ffffffffffffffffffffffffffffffffffffffff82169050919050565b6000819050919050565b60005b838110156200056c5780820151818401526020810190506200054f565b838111156200057c576000848401525b50505050565bfe5b6200058f816200050e565b81146200059b57600080fd5b50565b620005a98162000542565b8114620005b557600080fd5b50565b612cd880620005c86000396000f3fe6080604052600436106101ee5760003560e01c80635d495aea1161010d578063952587d6116100a0578063ce845d1d1161006f578063ce845d1d14610737578063e75582a414610762578063f301af421461078b578063f71d96cb146107c8578063f7feb20d14610805576101ee565b8063952587d614610666578063a374e43f14610692578063a6a031b9146106cf578063c19d93fb1461070c576101ee565b8063893d20e8116100dc578063893d20e8146105ba5780638acfaca9146105e55780638b5b9ccc146106105780638e33cffc1461063b576101ee565b80635d495aea1461051d57806364c1653414610527578063685f9bf5146105525780637284e4161461058f576101ee565b806330289c61116101855780634129b2c9116101545780634129b2c91461044c57806344ed63f6146104895780634a79d50c146104b55780634de58efe146104e0576101ee565b806330289c6114610372578063325a19f1146103b957806332a2c5d0146103e4578063403d13121461040f576101ee565b80631f6d4942116101c15780631f6d4942146102c357806324cc286614610300578063298ec2081461032b57806329dcb0cf14610347576101ee565b806302d05d3f146101f35780630e0b0f431461021e57806312243b671461025b5780631865c57d14610298575b600080fd5b3480156101ff57600080fd5b50610208610842565b6040516102159190612824565b60405180910390f35b34801561022a57600080fd5b506102456004803603810190610240919061228f565b610866565b6040516102529190612aa7565b60405180910390f35b34801561026757600080fd5b50610282600480360381019061027d919061228f565b61091e565b60405161028f919061298f565b60405180910390f35b3480156102a457600080fd5b506102ad6109fa565b6040516102ba91906129aa565b60405180910390f35b3480156102cf57600080fd5b506102ea60048036038101906102e5919061228f565b610a11565b6040516102f79190612aa7565b60405180910390f35b34801561030c57600080fd5b50610315610a29565b60405161032291906127ee565b60405180910390f35b61034560048036038101906103409190612333565b610ad0565b005b34801561035357600080fd5b5061035c610eb9565b6040516103699190612aa7565b60405180910390f35b34801561037e57600080fd5b506103996004803603810190610394919061228f565b610ebf565b6040516103b09b9a9998979695949392919061283f565b60405180910390f35b3480156103c557600080fd5b506103ce6110fe565b6040516103db9190612aa7565b60405180910390f35b3480156103f057600080fd5b506103f9611104565b60405161040691906127ee565b60405180910390f35b34801561041b57600080fd5b50610436600480360381019061043191906122e1565b61110c565b6040516104439190612aa7565b60405180910390f35b34801561045857600080fd5b50610473600480360381019061046e91906122e1565b611130565b60405161048091906127ee565b60405180910390f35b34801561049557600080fd5b5061049e611170565b6040516104ac929190612921565b60405180910390f35b3480156104c157600080fd5b506104ca61129f565b6040516104d791906129c5565b60405180910390f35b3480156104ec57600080fd5b506105076004803603810190610502919061228f565b61133d565b6040516105149190612aa7565b60405180910390f35b610525611386565b005b34801561053357600080fd5b5061053c6119ec565b6040516105499190612aa7565b60405180910390f35b34801561055e57600080fd5b506105796004803603810190610574919061228f565b6119f2565b6040516105869190612aa7565b60405180910390f35b34801561059b57600080fd5b506105a4611a96565b6040516105b191906129c5565b60405180910390f35b3480156105c657600080fd5b506105cf611b34565b6040516105dc91906127ee565b60405180910390f35b3480156105f157600080fd5b506105fa611b5d565b6040516106079190612aa7565b60405180910390f35b34801561061c57600080fd5b50610625611b63565b60405161063291906128ff565b60405180910390f35b34801561064757600080fd5b50610650611bf1565b60405161065d9190612aa7565b60405180910390f35b34801561067257600080fd5b5061067b611bfb565b604051610689929190612958565b60405180910390f35b34801561069e57600080fd5b506106b960048036038101906106b49190612333565b611dac565b6040516106c691906127ee565b60405180910390f35b3480156106db57600080fd5b506106f660048036038101906106f1919061228f565b611e06565b6040516107039190612aa7565b60405180910390f35b34801561071857600080fd5b50610721611eab565b60405161072e91906129aa565b60405180910390f35b34801561074357600080fd5b5061074c611ebe565b6040516107599190612aa7565b60405180910390f35b34801561076e57600080fd5b506107896004803603810190610784919061228f565b611ec4565b005b34801561079757600080fd5b506107b260048036038101906107ad91906122e1565b611f79565b6040516107bf9190612aa7565b60405180910390f35b3480156107d457600080fd5b506107ef60048036038101906107ea91906122e1565b611f9d565b6040516107fc91906127ee565b60405180910390f35b34801561081157600080fd5b5061082c600480360381019061082791906122e1565b611fdc565b6040516108399190612aa7565b60405180910390f35b60008054906101000a900473ffffffffffffffffffffffffffffffffffffffff1681565b6000806000905060005b600e8054905081101561091457600e60008154811061088b57fe5b9060005260206000200181815481106108a057fe5b9060005260206000200160009054906101000a900473ffffffffffffffffffffffffffffffffffffffff1673ffffffffffffffffffffffffffffffffffffffff168473ffffffffffffffffffffffffffffffffffffffff1614156109075781806001019250505b8080600101915050610870565b5080915050919050565b600080600090505b6009805490508110156109ef578273ffffffffffffffffffffffffffffffffffffffff166009828154811061095757fe5b9060005260206000200160009054906101000a900473ffffffffffffffffffffffffffffffffffffffff1673ffffffffffffffffffffffffffffffffffffffff1614156109e257600981815481106109ab57fe5b9060005260206000200160006101000a81549073ffffffffffffffffffffffffffffffffffffffff021916905560019150506109f5565b8080600101915050610926565b50600090505b919050565b6000600760009054906101000a900460ff16905090565b60086020528060005260406000206000915090505481565b6000600f60009054906101000a900473ffffffffffffffffffffffffffffffffffffffff1673ffffffffffffffffffffffffffffffffffffffff16630ee2cb106040518163ffffffff1660e01b815260040160206040518083038186803b158015610a9357600080fd5b505afa158015610aa7573d6000803e3d6000fd5b505050506040513d601f19601f82011682018060405250810190610acb91906122b8565b905090565b6004544210610b14576040517f08c379a0000000000000000000000000000000000000000000000000000000008152600401610b0b90612a47565b60405180910390fd5b60008211610b57576040517f08c379a0000000000000000000000000000000000000000000000000000000008152600401610b4e906129e7565b60405180910390fd5b6000813073ffffffffffffffffffffffffffffffffffffffff16630e0b0f43336040518263ffffffff1660e01b8152600401610b939190612809565b60206040518083038186803b158015610bab57600080fd5b505afa158015610bbf573d6000803e3d6000fd5b505050506040513d601f19601f82011682018060405250810190610be3919061230a565b01905080600d541015610c2b576040517f08c379a0000000000000000000000000000000000000000000000000000000008152600401610c2290612a67565b60405180910390fd5b610c7d83600860003373ffffffffffffffffffffffffffffffffffffffff1673ffffffffffffffffffffffffffffffffffffffff16815260200190815260200160002054611ffc90919063ffffffff16565b600860003373ffffffffffffffffffffffffffffffffffffffff1673ffffffffffffffffffffffffffffffffffffffff16815260200190815260200160002081905550610cd583600354611ffc90919063ffffffff16565b60038190555060005b82811015610d6c57600e600081548110610cf457fe5b90600052602060002001339080600181540180825580915050600190039060005260206000200160009091909190916101000a81548173ffffffffffffffffffffffffffffffffffffffff021916908373ffffffffffffffffffffffffffffffffffffffff1602179055508080600101915050610cde565b506000805b600980549050811015610dfb5760098181548110610d8b57fe5b9060005260206000200160009054906101000a900473ffffffffffffffffffffffffffffffffffffffff1673ffffffffffffffffffffffffffffffffffffffff163373ffffffffffffffffffffffffffffffffffffffff161415610dee57600191505b8080600101915050610d71565b5080610e65576009339080600181540180825580915050600190039060005260206000200160009091909190916101000a81548173ffffffffffffffffffffffffffffffffffffffff021916908373ffffffffffffffffffffffffffffffffffffffff1602179055505b3373ffffffffffffffffffffffffffffffffffffffff167f69ca02dd4edd7bf0a4abb9ed3b7af3f14778db5d61921c7dc7cd545266326de285604051610eab9190612aa7565b60405180910390a250505050565b60045481565b6000606080600080600080600080606060008060009054906101000a900473ffffffffffffffffffffffffffffffffffffffff169a5060058054600181600116156101000203166002900480601f016020809104026020016040519081016040528092919081815260200182805460018160011615610100020316600290048015610f8b5780601f10610f6057610100808354040283529160200191610f8b565b820191906000526020600020905b815481529060010190602001808311610f6e57829003601f168201915b5050505050995060068054600181600116156101000203166002900480601f0160208091040260200160405190810160405280929190818152602001828054600181600116156101000203166002900480156110285780601f10610ffd57610100808354040283529160200191611028565b820191906000526020600020905b81548152906001019060200180831161100b57829003601f168201915b505050505098506004549750600760009054906101000a900460ff16965060035495506001549450600a5493506002549250600c8054806020026020016040519081016040528092919081815260200182805480156110a657602002820191906000526020600020905b815481526020019060010190808311611092575b50505050509150600860008d73ffffffffffffffffffffffffffffffffffffffff1673ffffffffffffffffffffffffffffffffffffffff16815260200190815260200160002054905091939597999b90929496989a50565b60025481565b600030905090565b6011818154811061111c57600080fd5b906000526020600020016000915090505481565b60006010600083815260200190815260200160002060020160009054906101000a900473ffffffffffffffffffffffffffffffffffffffff169050919050565b60608060098054806020026020016040519081016040528092919081815260200182805480156111f557602002820191906000526020600020905b8160009054906101000a900473ffffffffffffffffffffffffffffffffffffffff1673ffffffffffffffffffffffffffffffffffffffff16815260200190600101908083116111ab575b50505050509150600e60008154811061120a57fe5b9060005260206000200180548060200260200160405190810160405280929190818152602001828054801561129457602002820191906000526020600020905b8160009054906101000a900473ffffffffffffffffffffffffffffffffffffffff1673ffffffffffffffffffffffffffffffffffffffff168152602001906001019080831161124a575b505050505090509091565b60058054600181600116156101000203166002900480601f0160208091040260200160405190810160405280929190818152602001828054600181600116156101000203166002900480156113355780601f1061130a57610100808354040283529160200191611335565b820191906000526020600020905b81548152906001019060200180831161131857829003601f168201915b505050505081565b6000600860008373ffffffffffffffffffffffffffffffffffffffff1673ffffffffffffffffffffffffffffffffffffffff168152602001908152602001600020549050919050565b60008054906101000a900473ffffffffffffffffffffffffffffffffffffffff1673ffffffffffffffffffffffffffffffffffffffff163373ffffffffffffffffffffffffffffffffffffffff1614611414576040517f08c379a000000000000000000000000000000000000000000000000000000000815260040161140b90612a07565b60405180910390fd5b6004544211611458576040517f08c379a000000000000000000000000000000000000000000000000000000000815260040161144f90612a27565b60405180910390fd5b6000476003819055506000605f905060006005905060005b600b548110156119045782612710600354600c848154811061148e57fe5b906000526020600020015402816114a157fe5b04029350611549600e82815481106114b557fe5b9060005260206000200180548060200260200160405190810160405280929190818152602001828054801561153f57602002820191906000526020600020905b8160009054906101000a900473ffffffffffffffffffffffffffffffffffffffff1673ffffffffffffffffffffffffffffffffffffffff16815260200190600101908083116114f5575b5050505050612084565b6000600e828154811061155857fe5b906000526020600020018054905061160a600e848154811061157657fe5b9060005260206000200180548060200260200160405190810160405280929190818152602001828054801561160057602002820191906000526020600020905b8160009054906101000a900473ffffffffffffffffffffffffffffffffffffffff1673ffffffffffffffffffffffffffffffffffffffff16815260200190600101908083116115b6575b5050505050612198565b8161161157fe5b0690506000601060008481526020019081526020016000209050600e838154811061163857fe5b90600052602060002001828154811061164d57fe5b9060005260206000200160009054906101000a900473ffffffffffffffffffffffffffffffffffffffff168160020160006101000a81548173ffffffffffffffffffffffffffffffffffffffff021916908373ffffffffffffffffffffffffffffffffffffffff160217905550858160010181905550601183908060018154018082558091505060019003906000526020600020016000909190919091505560005b600e84815481106116fc57fe5b9060005260206000200180549050811015611889578160020160009054906101000a900473ffffffffffffffffffffffffffffffffffffffff1673ffffffffffffffffffffffffffffffffffffffff16600e858154811061175957fe5b90600052602060002001828154811061176e57fe5b9060005260206000200160009054906101000a900473ffffffffffffffffffffffffffffffffffffffff1673ffffffffffffffffffffffffffffffffffffffff161461187c57600e60018501815481106117c457fe5b90600052602060002001600e85815481106117db57fe5b9060005260206000200182815481106117f057fe5b9060005260206000200160009054906101000a900473ffffffffffffffffffffffffffffffffffffffff169080600181540180825580915050600190039060005260206000200160009091909190916101000a81548173ffffffffffffffffffffffffffffffffffffffff021916908373ffffffffffffffffffffffffffffffffffffffff1602179055505b80806001019150506116ef565b508060020160009054906101000a900473ffffffffffffffffffffffffffffffffffffffff1673ffffffffffffffffffffffffffffffffffffffff166108fc879081150290604051600060405180830381858888f193505050501580156118f4573d6000803e3d6000fd5b5050508080600101915050611470565b504760038190555060646003548161191857fe5b048161012c8161192457fe5b0402925060008054906101000a900473ffffffffffffffffffffffffffffffffffffffff1673ffffffffffffffffffffffffffffffffffffffff166108fc849081150290604051600060405180830381858888f1935050505015801561198e573d6000803e3d6000fd5b50611997610a29565b73ffffffffffffffffffffffffffffffffffffffff166108fc479081150290604051600060405180830381858888f193505050501580156119dc573d6000803e3d6000fd5b506119e760016121cf565b505050565b60015481565b6000600e805490506127103073ffffffffffffffffffffffffffffffffffffffff16630e0b0f43856040518263ffffffff1660e01b8152600401611a3691906127ee565b60206040518083038186803b158015611a4e57600080fd5b505afa158015611a62573d6000803e3d6000fd5b505050506040513d601f19601f82011682018060405250810190611a86919061230a565b0281611a8e57fe5b049050919050565b60068054600181600116156101000203166002900480601f016020809104026020016040519081016040528092919081815260200182805460018160011615610100020316600290048015611b2c5780601f10611b0157610100808354040283529160200191611b2c565b820191906000526020600020905b815481529060010190602001808311611b0f57829003601f168201915b505050505081565b60008060009054906101000a900473ffffffffffffffffffffffffffffffffffffffff16905090565b600b5481565b60606009805480602002602001604051908101604052809291908181526020018280548015611be757602002820191906000526020600020905b8160009054906101000a900473ffffffffffffffffffffffffffffffffffffffff1673ffffffffffffffffffffffffffffffffffffffff1681526020019060010190808311611b9d575b5050505050905090565b6000600b54905090565b6060806004544211611c42576040517f08c379a0000000000000000000000000000000000000000000000000000000008152600401611c3990612a87565b60405180910390fd5b600060118054905067ffffffffffffffff81118015611c6057600080fd5b50604051908082528060200260200182016040528015611c8f5781602001602082028036833780820191505090505b509050600060118054905067ffffffffffffffff81118015611cb057600080fd5b50604051908082528060200260200182016040528015611cdf5781602001602082028036833780820191505090505b50905060005b601180549050811015611d9f5760006010600083815260200190815260200160002090508060020160009054906101000a900473ffffffffffffffffffffffffffffffffffffffff16848381518110611d3a57fe5b602002602001019073ffffffffffffffffffffffffffffffffffffffff16908173ffffffffffffffffffffffffffffffffffffffff16815250508060010154838381518110611d8557fe5b602002602001018181525050508080600101915050611ce5565b5080829350935050509091565b600e8281548110611dbc57600080fd5b906000526020600020018181548110611dd457600080fd5b906000526020600020016000915091509054906101000a900473ffffffffffffffffffffffffffffffffffffffff1681565b6000806000905060005b600b54811015611ea15760006010600083815260200190815260200160002090508473ffffffffffffffffffffffffffffffffffffffff168160020160009054906101000a900473ffffffffffffffffffffffffffffffffffffffff1673ffffffffffffffffffffffffffffffffffffffff161415611e93578060010154830192505b508080600101915050611e10565b5080915050919050565b600760009054906101000a900460ff1681565b60035481565b6004544210611ed257600080fd5b6000600860003373ffffffffffffffffffffffffffffffffffffffff1673ffffffffffffffffffffffffffffffffffffffff1681526020019081526020016000205490506000811415611f2457600080fd5b8173ffffffffffffffffffffffffffffffffffffffff166108fc829081150290604051600060405180830381858888f19350505050158015611f6a573d6000803e3d6000fd5b50611f748261091e565b505050565b600c8181548110611f8957600080fd5b906000526020600020016000915090505481565b60098181548110611fad57600080fd5b906000526020600020016000915054906101000a900473ffffffffffffffffffffffffffffffffffffffff1681565b600060106000838152602001908152602001600020600101549050919050565b60008082840190508381101561207a576040517f08c379a000000000000000000000000000000000000000000000000000000000815260040180806020018281038252601b8152602001807f536166654d6174683a206164646974696f6e206f766572666c6f77000000000081525060200191505060405180910390fd5b8091505092915050565b60005b815181101561219457600081835103426040516020016120a7919061279a565b6040516020818303038152906040528051906020012060001c816120c757fe5b068201905060008382815181106120da57fe5b602002602001015190508383815181106120f057fe5b602002602001015184838151811061210457fe5b602002602001019073ffffffffffffffffffffffffffffffffffffffff16908173ffffffffffffffffffffffffffffffffffffffff16815250508084848151811061214b57fe5b602002602001019073ffffffffffffffffffffffffffffffffffffffff16908173ffffffffffffffffffffffffffffffffffffffff168152505050508080600101915050612087565b5050565b60004442836040516020016121af939291906127b5565b6040516020818303038152906040528051906020012060001c9050919050565b80600760006101000a81548160ff021916908360028111156121ed57fe5b02179055507f1e046fdd2110d82ed3fa7652b41ced17c49cbb9ee4536e65f51ad2a6ed5359a7600760009054906101000a900460ff1660405161223091906129aa565b60405180910390a150565b60008135905061224a81612c74565b92915050565b60008151905061225f81612c74565b92915050565b60008135905061227481612c8b565b92915050565b60008151905061228981612c8b565b92915050565b6000602082840312156122a157600080fd5b60006122af8482850161223b565b91505092915050565b6000602082840312156122ca57600080fd5b60006122d884828501612250565b91505092915050565b6000602082840312156122f357600080fd5b600061230184828501612265565b91505092915050565b60006020828403121561231c57600080fd5b600061232a8482850161227a565b91505092915050565b6000806040838503121561234657600080fd5b600061235485828601612265565b925050602061236585828601612265565b9150509250929050565b600061237b83836123d5565b60208301905092915050565b600061239383836123f3565b60208301905092915050565b60006123ab8383612765565b60208301905092915050565b6123c081612bc8565b82525050565b6123cf81612b6d565b82525050565b6123de81612b5b565b82525050565b6123ed81612b5b565b82525050565b6123fc81612b5b565b82525050565b600061240d82612ae2565b6124178185612b1d565b935061242283612ac2565b8060005b8381101561245357815161243a888261236f565b975061244583612b03565b925050600181019050612426565b5085935050505092915050565b600061246b82612ae2565b6124758185612b2e565b935061248083612ac2565b8060005b838110156124b15781516124988882612387565b97506124a383612b03565b925050600181019050612484565b5085935050505092915050565b60006124c982612aed565b6124d38185612b39565b93506124de83612ad2565b8060005b8381101561250f5781516124f6888261239f565b975061250183612b10565b9250506001810190506124e2565b5085935050505092915050565b61252581612b7f565b82525050565b61253481612bda565b82525050565b600061254582612af8565b61254f8185612b4a565b935061255f818560208601612c10565b61256881612c4f565b840191505092915050565b6000612580601583612b4a565b91507f5072696365206d757374206265206f76657220302e00000000000000000000006000830152602082019050919050565b60006125c0603283612b4a565b91507f4f6e6c792074686520636f6e74726163742063726561746f722063616e20657860008301527f6563757465207468697320616374696f6e2e00000000000000000000000000006020830152604082019050919050565b6000612626601583612b4a565b91507f4c6f7474657279206973207374696c6c206f70656e00000000000000000000006000830152602082019050919050565b6000612666601683612b4a565b91507f546865206c6f74746572792068617320656e6465642e000000000000000000006000830152602082019050919050565b60006126a6602683612b4a565b91507f596f75206172652067657474696e67206f76657220746865206c696d6974207460008301527f69636b65742e00000000000000000000000000000000000000000000000000006020830152604082019050919050565b600061270c602883612b4a565b91507f5468652077696e6e6572732068617665206e6f74206265656e20616e6e6f756e60008301527f636564207965742e0000000000000000000000000000000000000000000000006020830152604082019050919050565b61276e81612bbe565b82525050565b61277d81612bbe565b82525050565b61279461278f82612bbe565b612c43565b82525050565b60006127a68284612783565b60208201915081905092915050565b60006127c18286612783565b6020820191506127d18285612783565b6020820191506127e18284612460565b9150819050949350505050565b600060208201905061280360008301846123e4565b92915050565b600060208201905061281e60008301846123b7565b92915050565b600060208201905061283960008301846123c6565b92915050565b600061016082019050612855600083018e6123c6565b8181036020830152612867818d61253a565b9050818103604083015261287b818c61253a565b905061288a606083018b612774565b612897608083018a61252b565b6128a460a0830189612774565b6128b160c0830188612774565b6128be60e0830187612774565b6128cc610100830186612774565b8181036101208301526128df81856124be565b90506128ef610140830184612774565b9c9b505050505050505050505050565b600060208201905081810360008301526129198184612402565b905092915050565b6000604082019050818103600083015261293b8185612402565b9050818103602083015261294f8184612402565b90509392505050565b6000604082019050818103600083015261297281856124be565b905081810360208301526129868184612402565b90509392505050565b60006020820190506129a4600083018461251c565b92915050565b60006020820190506129bf600083018461252b565b92915050565b600060208201905081810360008301526129df818461253a565b905092915050565b60006020820190508181036000830152612a0081612573565b9050919050565b60006020820190508181036000830152612a20816125b3565b9050919050565b60006020820190508181036000830152612a4081612619565b9050919050565b60006020820190508181036000830152612a6081612659565b9050919050565b60006020820190508181036000830152612a8081612699565b9050919050565b60006020820190508181036000830152612aa0816126ff565b9050919050565b6000602082019050612abc6000830184612774565b92915050565b6000819050602082019050919050565b6000819050602082019050919050565b600081519050919050565b600081519050919050565b600081519050919050565b6000602082019050919050565b6000602082019050919050565b600082825260208201905092915050565b600081905092915050565b600082825260208201905092915050565b600082825260208201905092915050565b6000612b6682612b9e565b9050919050565b6000612b7882612b9e565b9050919050565b60008115159050919050565b6000819050612b9982612c60565b919050565b600073ffffffffffffffffffffffffffffffffffffffff82169050919050565b6000819050919050565b6000612bd382612bec565b9050919050565b6000612be582612b8b565b9050919050565b6000612bf782612bfe565b9050919050565b6000612c0982612b9e565b9050919050565b60005b83811015612c2e578082015181840152602081019050612c13565b83811115612c3d576000848401525b50505050565b6000819050919050565bfe5b6000601f19601f8301169050919050565b60038110612c7157612c70612c4d565b5b50565b612c7d81612b5b565b8114612c8857600080fd5b50565b612c9481612bbe565b8114612c9f57600080fd5b5056fea2646970667358221220c6f63bab58e1ad3a9c417cdf93b9f693563c19cfa9cd224c7d4f7e185b96c7ef64736f6c63430007060033a26469706673582212207856029af20645717bab39ee20c854c2fd47c2ac494a7ca23ee7ca832cb9cb7f64736f6c63430007060033",
  "immutableReferences": {},
  "source": "// SPDX-License-Identifier: MIT\r\npragma solidity ^0.7.0;\r\nimport \"../node_modules/@openzeppelin/contracts/math/SafeMath.sol\";\r\npragma experimental ABIEncoderV2;\r\nimport \"@openzeppelin/contracts/access/Ownable.sol\";\r\n\r\nenum State {\r\n    Open,\r\n    Closed,\r\n    Suspended\r\n}\r\n\r\ncontract LotteryBuilder {\r\n    using SafeMath for uint256;\r\n\r\n    // List of existing projects\r\n    Lottery[] private lotteries;\r\n    address payable creator;\r\n\r\n    constructor(address payable deployer) {\r\n        creator = deployer;\r\n    }\r\n\r\n    // Event that will be emitted whenever a new project is started\r\n    event ProjectStarted(\r\n        address contractAddress,\r\n        address projectStarter,\r\n        string projectTitle,\r\n        string projectDesc,\r\n        uint256 deadline,\r\n        uint256 ticketPrice,\r\n        uint256 numberWinners,\r\n        uint256[] rewards,\r\n        uint256 limitTickets\r\n    );\r\n\r\n    /** @dev Function to start a new project.\r\n     * @param title Title of the project to be created\r\n     * @param description Brief description about the project\r\n     * @param deadlineDate Project deadline in days\r\n     * @param ticketPrice Project goal in wei\r\n     */\r\n    function startProject(\r\n        address payable owner,\r\n        string calldata title,\r\n        string calldata description,\r\n        uint256 deadlineDate,\r\n        uint256 ticketPrice,\r\n        uint256 numberWinners,\r\n        uint256[] calldata rewards,\r\n        uint256 limitTickets\r\n    ) external {\r\n        uint256 raiseUntil = deadlineDate;\r\n        Lottery newProject = new Lottery(\r\n            owner,\r\n            title,\r\n            description,\r\n            raiseUntil,\r\n            ticketPrice,\r\n            numberWinners,\r\n            rewards,\r\n            limitTickets\r\n        );\r\n        lotteries.push(newProject);\r\n        emit ProjectStarted(\r\n            address(newProject),\r\n            owner,\r\n            title,\r\n            description,\r\n            raiseUntil,\r\n            ticketPrice,\r\n            numberWinners,\r\n            rewards,\r\n            limitTickets\r\n        );\r\n    }\r\n\r\n    struct Winners {\r\n        uint256[] values;\r\n        address[] accounts;\r\n    }\r\n    mapping(uint256 => Winners) allWinners;\r\n\r\n    struct participated {\r\n        address lotteryAddress;\r\n        uint256 value;\r\n        uint256 ticketsAmount;\r\n        State state;\r\n        bool won;\r\n        uint256 amountWon;\r\n    }\r\n    mapping(uint256 => participated) participatedList;\r\n\r\n    function participatedByAddress(address _address)\r\n        public\r\n        returns (\r\n            address[] memory,\r\n            uint256[] memory,\r\n            uint256[] memory,\r\n            State[] memory,\r\n            bool[] memory,\r\n            uint256[] memory\r\n        )\r\n    {\r\n        uint256 participatedIndex = 0;\r\n        for (uint256 i = 0; i < lotteries.length; i++) {\r\n            Lottery ltr = lotteries[i];\r\n            address[] memory players = ltr.getPlayers();\r\n            for (uint256 j = 0; j < players.length; j++) {\r\n                if (players[j] == _address) {\r\n                    participated storage par = participatedList[\r\n                        participatedIndex\r\n                    ];\r\n                    par.lotteryAddress = ltr.getContractAddress();\r\n                    par.value = ltr.getContributed(_address);\r\n                    par.ticketsAmount = ltr.getEnteredTicketsByAccount(\r\n                        _address\r\n                    );\r\n                    par.state = ltr.getState();\r\n                    par.won = false;\r\n                    par.amountWon = 0;\r\n\r\n                    for (uint256 k = 0; k < ltr.getNumberOfWinners(); k++) {\r\n                        if (_address == ltr.getWinner(k)) {\r\n                            par.won = true;\r\n                            par.amountWon = ltr.getWinnerAmount(k);\r\n                        }\r\n                    }\r\n                    participatedIndex++;\r\n                }\r\n            }\r\n        }\r\n\r\n        address[] memory addrs = new address[](participatedIndex);\r\n        uint256[] memory funds = new uint256[](participatedIndex);\r\n        uint256[] memory tickets = new uint256[](participatedIndex);\r\n        State[] memory states = new State[](participatedIndex);\r\n        bool[] memory won = new bool[](participatedIndex);\r\n        uint256[] memory amountWon = new uint256[](participatedIndex);\r\n\r\n        for (uint256 i = 0; i < participatedIndex; i++) {\r\n            participated storage pa = participatedList[i];\r\n            addrs[i] = pa.lotteryAddress;\r\n            funds[i] = pa.value;\r\n            tickets[i] = pa.ticketsAmount;\r\n            states[i] = pa.state;\r\n            won[i] = pa.won;\r\n            amountWon[i] = pa.amountWon;\r\n        }\r\n\r\n        return (addrs, funds, tickets, states, won, amountWon);\r\n    }\r\n\r\n    // function getTotalSpent(address _address) external view returns (uint256) {\r\n    //     uint256 totalSpent = 0;\r\n    //     totalSpent = this.getRewardsWonByAddress(_address) - this.getSpentState(_address);\r\n    //     return totalSpent;\r\n    // }\r\n\r\n    function getCreator() public view returns (address) {\r\n        return creator;\r\n    }\r\n\r\n    function getSpentState(address _address) external view returns (uint256) {\r\n        uint256 spent = 0;\r\n\r\n        for (uint256 i = 0; i < lotteries.length; i++) {\r\n            Lottery ltr = lotteries[i];\r\n            spent = spent + uint256(ltr.getContributed(_address));\r\n        }\r\n\r\n        return spent;\r\n    }\r\n\r\n    function getRewardsWonByAddress(address _address)\r\n        external\r\n        view\r\n        returns (uint256)\r\n    {\r\n        uint256 rewardsWon = 0;\r\n\r\n        for (uint256 i = 0; i < lotteries.length; i++) {\r\n            Lottery ltr = lotteries[i];\r\n            rewardsWon =\r\n                uint256(rewardsWon) +\r\n                uint256(ltr.getRewardsByAccount(_address));\r\n        }\r\n        return rewardsWon;\r\n    }\r\n\r\n    event RevealLatestWinners(Winners[] _a);\r\n\r\n    function getLatestWinners() external view returns (Winners[] memory) {\r\n        Lottery[] memory closedLotteries = this.returnClosedProjects();\r\n\r\n        Winners[] memory winners = new Winners[](closedLotteries.length);\r\n        if (closedLotteries.length != 0) {\r\n            for (uint256 i = 0; i < closedLotteries.length; i++) {\r\n                Lottery ltr = closedLotteries[i];\r\n                (uint256[] memory values, address[] memory accounts) = ltr\r\n                    .revealWinners();\r\n                winners[i].values = values;\r\n                winners[i].accounts = accounts;\r\n            }\r\n        }\r\n        return winners;\r\n    }\r\n\r\n    function returnClosedProjects() external view returns (Lottery[] memory) {\r\n        return this.getProjectsByState(State.Closed);\r\n    }\r\n\r\n    function returnOpenProjects() external view returns (Lottery[] memory) {\r\n        return this.getProjectsByState(State.Open);\r\n    }\r\n\r\n    function getProjectsByState(State state)\r\n        external\r\n        view\r\n        returns (Lottery[] memory)\r\n    {\r\n        uint256 count = 0;\r\n        for (uint256 i = 0; i < lotteries.length; i++) {\r\n            Lottery ltr = lotteries[i];\r\n            if (ltr.getState() == state) {\r\n                count++;\r\n            }\r\n        }\r\n        Lottery[] memory ltrs = new Lottery[](count);\r\n        count = 0;\r\n        for (uint256 i = 0; i < lotteries.length; i++) {\r\n            Lottery ltr = lotteries[i];\r\n            if (ltr.getState() == state) {\r\n                ltrs[count] = ltr;\r\n                count++;\r\n            }\r\n        }\r\n        return ltrs;\r\n    }\r\n\r\n    /** @dev Function to get all projects' contract addresses.\r\n     * @return A list of all projects' contract addreses\r\n     */\r\n    function returnAllLotteries() external view returns (Lottery[] memory) {\r\n        return lotteries;\r\n    }\r\n}\r\n\r\ncontract Lottery {\r\n    using SafeMath for uint256;\r\n    // State variables\r\n    address payable public creator;\r\n    uint256 public priceTicket; // required to reach at least this much, else everyone gets refund\r\n    uint256 public created;\r\n    uint256 public currentBalance;\r\n    uint256 public deadline;\r\n    string public title;\r\n    string public description;\r\n    State public state = State.Open; // initialize on create\r\n    mapping(address => uint256) public contributors;\r\n    address[] public players;\r\n    uint256 playersLength;\r\n    uint256 public numberOfWinners;\r\n    uint256[] public rewards;\r\n    uint256 limitTickets;\r\n    address[][] public tickets;\r\n\r\n    LotteryBuilder lotteryBuilder;\r\n\r\n    function getDeployerAddress() public view returns (address) {\r\n        return lotteryBuilder.getCreator();\r\n    }\r\n\r\n    struct winner {\r\n        uint256 id;\r\n        uint256 amount;\r\n        address account;\r\n    }\r\n    mapping(uint256 => winner) winners;\r\n    uint256[] public winnerIds;\r\n\r\n    // function createTickets(address data) public {\r\n    //     delete tickets; // This should reset the length to zero\r\n    //     tickets.push(data);\r\n    // }\r\n\r\n    // function pushTicket(address data) public {\r\n    //     tickets.push(data);\r\n    // }\r\n\r\n    // function getTickets() public view returns(address[] memory) {\r\n    //     return tickets;\r\n    // }    \r\n    event LotteryStateChanged(State newState);\r\n    event Transfer(address indexed _from, uint256 _value);\r\n\r\n    constructor(\r\n        address payable projectStarter,\r\n        string memory projectTitle,\r\n        string memory projectDesc,\r\n        uint256 deadlineTime,\r\n        uint256 projectTicketPrice,\r\n        uint256 numberWinners,\r\n        uint256[] memory lotteryRewards,\r\n        uint256 lotteryLimitTickets\r\n    ) {\r\n        creator = projectStarter;\r\n        title = projectTitle;\r\n        description = projectDesc;\r\n        priceTicket = projectTicketPrice;\r\n        deadline = deadlineTime;\r\n        currentBalance = 0;\r\n        created = block.timestamp;\r\n        numberOfWinners = numberWinners;\r\n        rewards = lotteryRewards;\r\n        limitTickets = lotteryLimitTickets;\r\n    }\r\n\r\n    function getRewardsByAccount(address _address)\r\n        public\r\n        view\r\n        returns (uint256)\r\n    {\r\n        uint256 rewardsWon = 0;\r\n        for (uint256 i = 0; i < numberOfWinners; i++) {\r\n            winner storage ltWinner = winners[i];\r\n            if (ltWinner.account == _address) {\r\n                rewardsWon = uint256(rewardsWon) + uint256(ltWinner.amount);\r\n            }\r\n        }\r\n        return rewardsWon;\r\n    }\r\n\r\n    function getContractAddress() public view returns (address) {\r\n        return address(this);\r\n    }\r\n\r\n    function getContributed(address _address) public view returns (uint256) {\r\n        return contributors[_address];\r\n    }\r\n\r\n    function getState() public view returns (State) {\r\n        return state;\r\n    }\r\n\r\n    function getWinner(uint256 id) public view returns (address) {\r\n        return winners[id].account;\r\n    }\r\n\r\n    function getWinnerAmount(uint256 id) public view returns (uint256) {\r\n        return winners[id].amount;\r\n    }\r\n\r\n    function buyTicket(uint256 overralPrice, uint256 ticketAmount)\r\n        public\r\n        payable\r\n    {\r\n        require(block.timestamp < deadline, 'The lottery has ended.'); // in the fundraising period\r\n        require(overralPrice > 0, 'Price must be over 0.');\r\n\r\n        uint256 ticketsByAcc = this.getEnteredTicketsByAccount(msg.sender) +\r\n            ticketAmount;\r\n        require(limitTickets >= ticketsByAcc, 'You are getting over the limit ticket.');\r\n\r\n        contributors[msg.sender] = contributors[msg.sender].add(overralPrice);\r\n        currentBalance = currentBalance.add(overralPrice);\r\n\r\n        for (uint256 i = 0; i < ticketAmount; i++) {\r\n            tickets[0].push(msg.sender);\r\n        }\r\n\r\n        bool doesPlayerEntered = false;\r\n        for (uint256 i = 0; i < players.length; i++) {\r\n            if (msg.sender == players[i]) {\r\n                doesPlayerEntered = true;\r\n            }\r\n        }\r\n\r\n        if (!doesPlayerEntered) {\r\n            players.push(msg.sender);\r\n        }\r\n\r\n        emit Transfer(msg.sender, overralPrice);\r\n    }\r\n\r\n    function getNumberOfWinners() public view returns (uint256) {\r\n        return numberOfWinners;\r\n    }\r\n\r\n    function getOwner() public view returns (address) {\r\n        return creator;\r\n    }\r\n\r\n    function getEnteredTicketsByAccount(address _address)\r\n        public\r\n        view\r\n        returns (uint256)\r\n    {\r\n        uint256 ticketsByAccount = 0;\r\n        for (uint256 i = 0; i < tickets.length; i++) {\r\n            if (_address == tickets[0][i]) {\r\n                ticketsByAccount++;\r\n            }\r\n        }\r\n        return ticketsByAccount;\r\n    }\r\n\r\n    function getWinProbabiltyByAccount(address _address)\r\n        public\r\n        view\r\n        returns (uint256)\r\n    {\r\n        // vraciam percenta + navyse 2 desatinimi cislami,\r\n        // kvoli tomu ze v Solidity sa neda pracovat s float\r\n        // na frontende ak vstup predelim 100, dostanem percenta\r\n        // napr 21,58\r\n        return\r\n            (this.getEnteredTicketsByAccount(_address) * 10000) /\r\n            tickets.length;\r\n    }\r\n\r\n    function shuffle(address[] memory roundTickets) private view {\r\n    for (uint256 i = 0; i < roundTickets.length; i++) {\r\n        uint256 n = i + uint256(keccak256(abi.encodePacked(block.timestamp))) % (roundTickets.length - i);\r\n        address temp = roundTickets[n];\r\n        roundTickets[n] = roundTickets[i];\r\n        roundTickets[i] = temp;\r\n    }\r\n}\r\n\r\n    function random(address[] memory roundTickets) private view returns (uint256) {\r\n        return\r\n            uint256(\r\n                keccak256(\r\n                    abi.encodePacked(block.difficulty, block.timestamp, roundTickets)\r\n                )\r\n            );\r\n    }\r\n\r\n    function pickWinner() public payable isCreator {\r\n        // po casovom limite, admin spusti losovanie a nasledne\r\n        // vyhodnotenie vyhercov\r\n        require(block.timestamp > deadline, 'Lottery is still open');\r\n\r\n        uint256 reward;\r\n        currentBalance = address(this).balance;\r\n        uint256 winnersReward = 95;\r\n        uint256 creatorsReward = 5;\r\n        for (uint256 i = 0; i < numberOfWinners; i++) {\r\n            // calculate the REWARD based on draw ROUND\r\n            reward =\r\n                ((uint256(rewards[i]) * currentBalance) / uint256(10000)) *\r\n                uint256(winnersReward);\r\n\r\n            // shuffle tickets in round i\r\n            shuffle(tickets[i]);\r\n\r\n            // get random address from tickets\r\n            uint256 index = random(tickets[i]) % tickets[i].length;\r\n\r\n            // set the winner properties\r\n            winner storage ltWinner = winners[i];\r\n            ltWinner.account = tickets[i][index];\r\n            ltWinner.amount = reward;\r\n            winnerIds.push(i);\r\n\r\n            // move all tickets to next round except the winners\r\n            for (uint256 j = 0; j < tickets[i].length; j++) {\r\n                if (tickets[i][j] != ltWinner.account) {\r\n                    tickets[i+1].push(tickets[i][j]);\r\n                }\r\n            }\r\n\r\n            // send reward to the winner\r\n            payable(ltWinner.account).transfer(reward);\r\n        }\r\n\r\n        // reward for creator 3%\r\n        currentBalance = address(this).balance;\r\n        reward = (100*3 / creatorsReward) * (currentBalance / 100);\r\n        payable(creator).transfer(reward);\r\n\r\n        // reward for deployer 2%\r\n        //reward = (100*3 / 5) * address(this).balance / 100;\r\n        payable(getDeployerAddress()).transfer(address(this).balance);\r\n        _changeState(State.Closed);\r\n    }\r\n\r\n    // Modifier to check if the function caller is the project creator\r\n    modifier isCreator() {\r\n        require(msg.sender == creator, 'Only the contract creator can execute this action.');\r\n        _;\r\n    }\r\n\r\n    function getPlayers() public view returns (address[] memory) {\r\n        return players;\r\n    }\r\n\r\n    function storno(address sender) public {\r\n        require(block.timestamp < deadline); //is open period\r\n\r\n        uint256 amount = contributors[msg.sender];\r\n        require(amount != 0);\r\n\r\n        payable(sender).transfer(amount); //payment return\r\n        deletePlayer(sender); //remove from lottery\r\n    }\r\n\r\n    function deletePlayer(address player) public returns (bool) {\r\n        for (uint256 i = 0; i < players.length; i++) {\r\n            if (players[i] == player) {\r\n                delete players[i];\r\n                return true;\r\n            }\r\n        }\r\n        return false;\r\n    }\r\n\r\n    function revealWinners()\r\n        public\r\n        view\r\n        returns (uint256[] memory, address[] memory)\r\n    {\r\n        require(block.timestamp > deadline, 'The winners have not been announced yet.');\r\n\r\n        address[] memory addrs = new address[](winnerIds.length);\r\n        uint256[] memory amounts = new uint256[](winnerIds.length);\r\n\r\n        for (uint256 i = 0; i < winnerIds.length; i++) {\r\n            winner storage ltWinner = winners[i];\r\n            addrs[i] = ltWinner.account;\r\n            amounts[i] = ltWinner.amount;\r\n        }\r\n        return (amounts, addrs);\r\n    }\r\n\r\n    /** @dev Function to get specific information about the project.\r\n     * @return projectStarter Returns all the project's details\r\n     */\r\n    function getDetails(address account)\r\n        public\r\n        view\r\n        returns (\r\n            address payable projectStarter,\r\n            string memory projectTitle,\r\n            string memory projectDesc,\r\n            uint256 deadlineTime,\r\n            State currentState,\r\n            uint256 currentAmount,\r\n            uint256 ticketPrice,\r\n            uint256 lotteryPlayersLength,\r\n            uint256 lotteryDateCreated,\r\n            uint256[] memory lotteryRewards,\r\n            uint256 purchased\r\n        )\r\n    {\r\n        projectStarter = creator;\r\n        projectTitle = title;\r\n        projectDesc = description;\r\n        deadlineTime = deadline;\r\n        currentState = state;\r\n        currentAmount = currentBalance;\r\n        ticketPrice = priceTicket;\r\n        lotteryPlayersLength = playersLength;\r\n        lotteryDateCreated = created;\r\n        lotteryRewards = rewards;\r\n        purchased = contributors[account];\r\n    }\r\n\r\n    // function purchasedByAddress(address _key) public view returns (uint256) {\r\n    //     return contributors[_key];\r\n    // }\r\n    function _changeState(State _newState) private {\r\n        state = _newState;\r\n        emit LotteryStateChanged(state);\r\n    }\r\n\r\n    function getPlayersDetails()\r\n        public\r\n        view\r\n        returns (\r\n            address[] memory lotteryPlayers,\r\n            address[] memory lotteryTickets\r\n        )\r\n    {\r\n        lotteryPlayers = players;\r\n        lotteryTickets = tickets[0];\r\n    }\r\n}\r\n",
  "sourcePath": "c:\\fei\\projects\\lottery\\contracts\\Lottery.sol",
  "compiler": {
    "name": "solc",
    "version": "0.7.6+commit.7338295f.Emscripten.clang"
  },
  "schemaVersion": "3.4.4",
  "updatedAt": "2022-04-05T09:20:05.438Z",
  "networkType": "ethereum",
  "devdoc": {
    "kind": "dev",
    "methods": {
      "returnAllLotteries()": {
        "details": "Function to get all projects' contract addresses.",
        "returns": {
          "_0": "A list of all projects' contract addreses"
        }
      },
      "startProject(address,string,string,uint256,uint256,uint256,uint256[],uint256)": {
        "details": "Function to start a new project.",
        "params": {
          "deadlineDate": "Project deadline in days",
          "description": "Brief description about the project",
          "ticketPrice": "Project goal in wei",
          "title": "Title of the project to be created"
        }
      }
    },
    "version": 1
  },
  "userdoc": {
    "kind": "user",
    "methods": {},
    "version": 1
  }
}