{
  "contractName": "Lottery",
  "abi": [
    {
      "inputs": [
        {
          "internalType": "address payable",
          "name": "projectDeployer",
          "type": "address"
        },
        {
          "internalType": "address payable",
          "name": "projectStarter",
          "type": "address"
        },
        {
          "internalType": "string",
          "name": "projectTitle",
          "type": "string"
        },
        {
          "internalType": "string",
          "name": "projectDesc",
          "type": "string"
        },
        {
          "internalType": "uint256",
          "name": "deadlineTime",
          "type": "uint256"
        },
        {
          "internalType": "uint256",
          "name": "projectTicketPrice",
          "type": "uint256"
        },
        {
          "internalType": "uint256[]",
          "name": "lotteryRewards",
          "type": "uint256[]"
        },
        {
          "internalType": "uint256",
          "name": "lotteryLimitTickets",
          "type": "uint256"
        }
      ],
      "stateMutability": "nonpayable",
      "type": "constructor"
    },
    {
      "anonymous": false,
      "inputs": [
        {
          "indexed": true,
          "internalType": "address",
          "name": "userAddress",
          "type": "address"
        },
        {
          "indexed": false,
          "internalType": "uint256",
          "name": "index",
          "type": "uint256"
        }
      ],
      "name": "LogDeleteUser",
      "type": "event"
    },
    {
      "anonymous": false,
      "inputs": [
        {
          "indexed": false,
          "internalType": "address",
          "name": "winner",
          "type": "address"
        }
      ],
      "name": "LogWinnerSelected",
      "type": "event"
    },
    {
      "anonymous": false,
      "inputs": [
        {
          "indexed": false,
          "internalType": "string",
          "name": "message",
          "type": "string"
        }
      ],
      "name": "LogWinnerSelectionStarted",
      "type": "event"
    },
    {
      "anonymous": false,
      "inputs": [
        {
          "indexed": false,
          "internalType": "enum State",
          "name": "newState",
          "type": "uint8"
        }
      ],
      "name": "LotteryStateChanged",
      "type": "event"
    },
    {
      "anonymous": false,
      "inputs": [
        {
          "indexed": true,
          "internalType": "address",
          "name": "_from",
          "type": "address"
        },
        {
          "indexed": false,
          "internalType": "uint256",
          "name": "_value",
          "type": "uint256"
        }
      ],
      "name": "Transfer",
      "type": "event"
    },
    {
      "inputs": [
        {
          "internalType": "address",
          "name": "",
          "type": "address"
        }
      ],
      "name": "contributors",
      "outputs": [
        {
          "internalType": "uint256",
          "name": "",
          "type": "uint256"
        }
      ],
      "stateMutability": "view",
      "type": "function"
    },
    {
      "inputs": [],
      "name": "created",
      "outputs": [
        {
          "internalType": "uint256",
          "name": "",
          "type": "uint256"
        }
      ],
      "stateMutability": "view",
      "type": "function"
    },
    {
      "inputs": [],
      "name": "creator",
      "outputs": [
        {
          "internalType": "address payable",
          "name": "",
          "type": "address"
        }
      ],
      "stateMutability": "view",
      "type": "function"
    },
    {
      "inputs": [],
      "name": "currentBalance",
      "outputs": [
        {
          "internalType": "uint256",
          "name": "",
          "type": "uint256"
        }
      ],
      "stateMutability": "view",
      "type": "function"
    },
    {
      "inputs": [],
      "name": "deadline",
      "outputs": [
        {
          "internalType": "uint256",
          "name": "",
          "type": "uint256"
        }
      ],
      "stateMutability": "view",
      "type": "function"
    },
    {
      "inputs": [],
      "name": "deployer",
      "outputs": [
        {
          "internalType": "address payable",
          "name": "",
          "type": "address"
        }
      ],
      "stateMutability": "view",
      "type": "function"
    },
    {
      "inputs": [],
      "name": "description",
      "outputs": [
        {
          "internalType": "string",
          "name": "",
          "type": "string"
        }
      ],
      "stateMutability": "view",
      "type": "function"
    },
    {
      "inputs": [],
      "name": "numberOfWinners",
      "outputs": [
        {
          "internalType": "uint256",
          "name": "",
          "type": "uint256"
        }
      ],
      "stateMutability": "view",
      "type": "function"
    },
    {
      "inputs": [
        {
          "internalType": "uint256",
          "name": "",
          "type": "uint256"
        }
      ],
      "name": "players",
      "outputs": [
        {
          "internalType": "address",
          "name": "",
          "type": "address"
        }
      ],
      "stateMutability": "view",
      "type": "function"
    },
    {
      "inputs": [],
      "name": "priceTicket",
      "outputs": [
        {
          "internalType": "uint256",
          "name": "",
          "type": "uint256"
        }
      ],
      "stateMutability": "view",
      "type": "function"
    },
    {
      "inputs": [
        {
          "internalType": "uint256",
          "name": "",
          "type": "uint256"
        }
      ],
      "name": "rewards",
      "outputs": [
        {
          "internalType": "uint256",
          "name": "",
          "type": "uint256"
        }
      ],
      "stateMutability": "view",
      "type": "function"
    },
    {
      "inputs": [],
      "name": "state",
      "outputs": [
        {
          "internalType": "enum State",
          "name": "",
          "type": "uint8"
        }
      ],
      "stateMutability": "view",
      "type": "function"
    },
    {
      "inputs": [
        {
          "internalType": "uint256",
          "name": "",
          "type": "uint256"
        }
      ],
      "name": "tickets",
      "outputs": [
        {
          "internalType": "address",
          "name": "",
          "type": "address"
        }
      ],
      "stateMutability": "view",
      "type": "function"
    },
    {
      "inputs": [],
      "name": "title",
      "outputs": [
        {
          "internalType": "string",
          "name": "",
          "type": "string"
        }
      ],
      "stateMutability": "view",
      "type": "function"
    },
    {
      "inputs": [
        {
          "internalType": "uint256",
          "name": "",
          "type": "uint256"
        }
      ],
      "name": "winnerIds",
      "outputs": [
        {
          "internalType": "uint256",
          "name": "",
          "type": "uint256"
        }
      ],
      "stateMutability": "view",
      "type": "function"
    },
    {
      "inputs": [],
      "name": "getDeployerAddress",
      "outputs": [
        {
          "internalType": "address",
          "name": "",
          "type": "address"
        }
      ],
      "stateMutability": "view",
      "type": "function"
    },
    {
      "inputs": [],
      "name": "getContractAddress",
      "outputs": [
        {
          "internalType": "address",
          "name": "",
          "type": "address"
        }
      ],
      "stateMutability": "view",
      "type": "function"
    },
    {
      "inputs": [],
      "name": "getTitle",
      "outputs": [
        {
          "internalType": "string",
          "name": "",
          "type": "string"
        }
      ],
      "stateMutability": "view",
      "type": "function"
    },
    {
      "inputs": [],
      "name": "getDescription",
      "outputs": [
        {
          "internalType": "string",
          "name": "",
          "type": "string"
        }
      ],
      "stateMutability": "view",
      "type": "function"
    },
    {
      "inputs": [],
      "name": "getTicketPrice",
      "outputs": [
        {
          "internalType": "uint256",
          "name": "",
          "type": "uint256"
        }
      ],
      "stateMutability": "view",
      "type": "function"
    },
    {
      "inputs": [],
      "name": "getDeadline",
      "outputs": [
        {
          "internalType": "uint256",
          "name": "",
          "type": "uint256"
        }
      ],
      "stateMutability": "view",
      "type": "function"
    },
    {
      "inputs": [],
      "name": "getLimitTicket",
      "outputs": [
        {
          "internalType": "uint256",
          "name": "",
          "type": "uint256"
        }
      ],
      "stateMutability": "view",
      "type": "function"
    },
    {
      "inputs": [],
      "name": "getRewards",
      "outputs": [
        {
          "internalType": "uint256[]",
          "name": "",
          "type": "uint256[]"
        }
      ],
      "stateMutability": "view",
      "type": "function"
    },
    {
      "inputs": [
        {
          "internalType": "address",
          "name": "_address",
          "type": "address"
        }
      ],
      "name": "getContributed",
      "outputs": [
        {
          "internalType": "uint256",
          "name": "",
          "type": "uint256"
        }
      ],
      "stateMutability": "view",
      "type": "function"
    },
    {
      "inputs": [],
      "name": "getState",
      "outputs": [
        {
          "internalType": "enum State",
          "name": "",
          "type": "uint8"
        }
      ],
      "stateMutability": "view",
      "type": "function"
    },
    {
      "inputs": [],
      "name": "getTicketsCount",
      "outputs": [
        {
          "internalType": "uint256",
          "name": "",
          "type": "uint256"
        }
      ],
      "stateMutability": "view",
      "type": "function"
    },
    {
      "inputs": [],
      "name": "getTickets",
      "outputs": [
        {
          "internalType": "address[]",
          "name": "",
          "type": "address[]"
        }
      ],
      "stateMutability": "view",
      "type": "function"
    },
    {
      "inputs": [
        {
          "internalType": "uint256",
          "name": "id",
          "type": "uint256"
        }
      ],
      "name": "getWinner",
      "outputs": [
        {
          "internalType": "address",
          "name": "",
          "type": "address"
        }
      ],
      "stateMutability": "view",
      "type": "function"
    },
    {
      "inputs": [
        {
          "internalType": "uint256",
          "name": "id",
          "type": "uint256"
        }
      ],
      "name": "getWinnerAmount",
      "outputs": [
        {
          "internalType": "uint256",
          "name": "",
          "type": "uint256"
        }
      ],
      "stateMutability": "view",
      "type": "function"
    },
    {
      "inputs": [],
      "name": "getNumberOfWinners",
      "outputs": [
        {
          "internalType": "uint256",
          "name": "",
          "type": "uint256"
        }
      ],
      "stateMutability": "view",
      "type": "function"
    },
    {
      "inputs": [],
      "name": "getOwner",
      "outputs": [
        {
          "internalType": "address",
          "name": "",
          "type": "address"
        }
      ],
      "stateMutability": "view",
      "type": "function"
    },
    {
      "inputs": [],
      "name": "getBalance",
      "outputs": [
        {
          "internalType": "uint256",
          "name": "",
          "type": "uint256"
        }
      ],
      "stateMutability": "view",
      "type": "function"
    },
    {
      "inputs": [],
      "name": "getPlayers",
      "outputs": [
        {
          "internalType": "address[]",
          "name": "",
          "type": "address[]"
        }
      ],
      "stateMutability": "view",
      "type": "function"
    },
    {
      "inputs": [],
      "name": "getEntrantCount",
      "outputs": [
        {
          "internalType": "uint256",
          "name": "",
          "type": "uint256"
        }
      ],
      "stateMutability": "view",
      "type": "function"
    },
    {
      "inputs": [],
      "name": "kill",
      "outputs": [],
      "stateMutability": "nonpayable",
      "type": "function"
    },
    {
      "inputs": [
        {
          "internalType": "uint256",
          "name": "ticketAmount",
          "type": "uint256"
        }
      ],
      "name": "buyTicket",
      "outputs": [
        {
          "internalType": "uint256",
          "name": "",
          "type": "uint256"
        }
      ],
      "stateMutability": "payable",
      "type": "function"
    },
    {
      "inputs": [
        {
          "internalType": "address",
          "name": "_address",
          "type": "address"
        }
      ],
      "name": "getRewardsByAccount",
      "outputs": [
        {
          "internalType": "uint256",
          "name": "",
          "type": "uint256"
        }
      ],
      "stateMutability": "view",
      "type": "function"
    },
    {
      "inputs": [
        {
          "internalType": "address",
          "name": "_address",
          "type": "address"
        }
      ],
      "name": "getEnteredTicketsByAccount",
      "outputs": [
        {
          "internalType": "uint256",
          "name": "",
          "type": "uint256"
        }
      ],
      "stateMutability": "view",
      "type": "function"
    },
    {
      "inputs": [
        {
          "internalType": "address",
          "name": "_address",
          "type": "address"
        }
      ],
      "name": "getWinProbabiltyByAccount",
      "outputs": [
        {
          "internalType": "uint256",
          "name": "",
          "type": "uint256"
        }
      ],
      "stateMutability": "view",
      "type": "function"
    },
    {
      "inputs": [],
      "name": "pickWinner",
      "outputs": [],
      "stateMutability": "payable",
      "type": "function"
    },
    {
      "inputs": [
        {
          "internalType": "uint256",
          "name": "userIndex",
          "type": "uint256"
        }
      ],
      "name": "deleteUser",
      "outputs": [
        {
          "internalType": "address",
          "name": "index",
          "type": "address"
        }
      ],
      "stateMutability": "nonpayable",
      "type": "function"
    },
    {
      "inputs": [],
      "name": "revealWinners",
      "outputs": [
        {
          "internalType": "uint256[]",
          "name": "",
          "type": "uint256[]"
        },
        {
          "internalType": "address[]",
          "name": "",
          "type": "address[]"
        }
      ],
      "stateMutability": "view",
      "type": "function"
    },
    {
      "inputs": [
        {
          "internalType": "address",
          "name": "account",
          "type": "address"
        }
      ],
      "name": "getDetails",
      "outputs": [
        {
          "internalType": "address payable",
          "name": "projectStarter",
          "type": "address"
        },
        {
          "internalType": "string",
          "name": "projectTitle",
          "type": "string"
        },
        {
          "internalType": "string",
          "name": "projectDesc",
          "type": "string"
        },
        {
          "internalType": "uint256",
          "name": "deadlineTime",
          "type": "uint256"
        },
        {
          "internalType": "enum State",
          "name": "currentState",
          "type": "uint8"
        },
        {
          "internalType": "uint256",
          "name": "currentAmount",
          "type": "uint256"
        },
        {
          "internalType": "uint256",
          "name": "ticketPrice",
          "type": "uint256"
        },
        {
          "internalType": "uint256",
          "name": "lotteryPlayersLength",
          "type": "uint256"
        },
        {
          "internalType": "uint256",
          "name": "lotteryDateCreated",
          "type": "uint256"
        },
        {
          "internalType": "uint256[]",
          "name": "lotteryRewards",
          "type": "uint256[]"
        },
        {
          "internalType": "uint256",
          "name": "purchased",
          "type": "uint256"
        }
      ],
      "stateMutability": "view",
      "type": "function"
    },
    {
      "inputs": [],
      "name": "getPlayersDetails",
      "outputs": [
        {
          "internalType": "address[]",
          "name": "lotteryPlayers",
          "type": "address[]"
        },
        {
          "internalType": "address[]",
          "name": "lotteryTickets",
          "type": "address[]"
        }
      ],
      "stateMutability": "view",
      "type": "function"
    }
  ],
  "bytecode": "0x60806040526008805460ff191690553480156200001b57600080fd5b506040516200256c3803806200256c8339810160408190526200003e91620002ea565b600080546001600160a01b03808b166001600160a01b03199283161790925560018054928a1692909116919091179055855162000083906006906020890190620000d9565b50845162000099906007906020880190620000d9565b50600283905560058490556000600455426003558151600c819055620000c790600d9060208501906200016e565b50600e5550620003df95505050505050565b828054600181600116156101000203166002900490600052602060002090601f0160209004810192826200011157600085556200015c565b82601f106200012c57805160ff19168380011785556200015c565b828001600101855582156200015c579182015b828111156200015c5782518255916020019190600101906200013f565b506200016a929150620001ab565b5090565b8280548282559060005260206000209081019282156200015c57916020028201828111156200015c5782518255916020019190600101906200013f565b5b808211156200016a5760008155600101620001ac565b80516001600160a01b0381168114620001da57600080fd5b919050565b600082601f830112620001f0578081fd5b815160206001600160401b038211156200020657fe5b80820262000216828201620003bb565b83815282810190868401838801850189101562000231578687fd5b8693505b858410156200025557805183526001939093019291840191840162000235565b50979650505050505050565b600082601f83011262000272578081fd5b81516001600160401b038111156200028657fe5b60206200029c601f8301601f19168201620003bb565b8281528582848701011115620002b0578384fd5b835b83811015620002cf578581018301518282018401528201620002b2565b83811115620002e057848385840101525b5095945050505050565b600080600080600080600080610100898b03121562000307578384fd5b6200031289620001c2565b97506200032260208a01620001c2565b60408a01519097506001600160401b03808211156200033f578586fd5b6200034d8c838d0162000261565b975060608b015191508082111562000363578586fd5b620003718c838d0162000261565b965060808b0151955060a08b0151945060c08b015191508082111562000395578384fd5b50620003a48b828c01620001df565b92505060e089015190509295985092959890939650565b6040518181016001600160401b0381118282101715620003d757fe5b604052919050565b61217d80620003ef6000396000f3fe6080604052600436106102e75760003560e01c80635d495aea116101845780638b5b9ccc116100d6578063ce845d1d1161008a578063f71d96cb11610064578063f71d96cb1461073f578063f7feb20d1461075f578063ff3c1a8f1461077f576102e7565b8063ce845d1d146106f5578063d5f394881461070a578063f301af421461071f576102e7565b8063952587d6116100bb578063952587d61461069d578063a6a031b9146106c0578063c19d93fb146106e0576102e7565b80638b5b9ccc146106735780638e33cffc14610688576102e7565b80637284e4161161013857806387bb7ae01161011257806387bb7ae014610634578063893d20e8146106495780638acfaca91461065e576102e7565b80637284e416146105f557806376d6b4ed1461060a578063790b62091461061f576102e7565b806364c165341161016957806364c16534146105ad57806367dd74ca146105c2578063685f9bf5146105d5576102e7565b80635d495aea146105905780635f8d96de14610598576102e7565b8063325a19f11161023d57806341c0e1b5116101f15780634de58efe116101cb5780634de58efe1461052e5780634ed026221461054e57806350b4471214610570576102e7565b806341c0e1b5146104df57806344ed63f6146104f65780634a79d50c14610519576102e7565b806338f148451161022257806338f148451461047f578063403d13121461049f5780634129b2c9146104bf576102e7565b8063325a19f11461045557806332a2c5d01461046a576102e7565b80631865c57d1161029f57806324cc28661161027957806324cc2866146103f457806329dcb0cf1461040957806330289c611461041e576102e7565b80631865c57d146103905780631a092541146103b25780631f6d4942146103d4576102e7565b8063080b2a86116102d0578063080b2a86146103395780630e0b0f431461035b57806312065fe01461037b576102e7565b806302d05d3f146102ec5780630572b0cc14610317575b600080fd5b3480156102f857600080fd5b50610301610794565b60405161030e9190611d9e565b60405180910390f35b34801561032357600080fd5b5061032c6107a3565b60405161030e9190611e8c565b34801561034557600080fd5b5061034e6107fb565b60405161030e9190611d4b565b34801561036757600080fd5b5061034e610376366004611bd2565b610801565b34801561038757600080fd5b5061034e610852565b34801561039c57600080fd5b506103a5610858565b60405161030e9190611eb2565b3480156103be57600080fd5b506103c7610861565b60405161030e9190611ec0565b3480156103e057600080fd5b5061034e6103ef366004611bd2565b6108ee565b34801561040057600080fd5b50610301610900565b34801561041557600080fd5b5061034e61090f565b34801561042a57600080fd5b5061043e610439366004611bd2565b610915565b60405161030e9b9a99989796959493929190611db2565b34801561046157600080fd5b5061034e610b2e565b34801561047657600080fd5b50610301610b34565b34801561048b57600080fd5b5061030161049a366004611bf9565b610b38565b3480156104ab57600080fd5b5061034e6104ba366004611bf9565b610ba6565b3480156104cb57600080fd5b506103016104da366004611bf9565b610bc7565b3480156104eb57600080fd5b506104f4610be5565b005b34801561050257600080fd5b5061050b610c26565b60405161030e929190611e5e565b34801561052557600080fd5b506103c7610ce7565b34801561053a57600080fd5b5061034e610549366004611bd2565b610d75565b34801561055a57600080fd5b50610563610d90565b60405161030e9190611e44565b34801561057c57600080fd5b5061030161058b366004611bf9565b610df1565b6104f4610e1b565b3480156105a457600080fd5b5061034e6112c6565b3480156105b957600080fd5b5061034e6112cc565b61034e6105d0366004611bf9565b6112d2565b3480156105e157600080fd5b5061034e6105f0366004611bd2565b611540565b34801561060157600080fd5b506103c76115cc565b34801561061657600080fd5b5061034e611627565b34801561062b57600080fd5b5061034e61162d565b34801561064057600080fd5b5061034e611633565b34801561065557600080fd5b50610301611639565b34801561066a57600080fd5b5061034e611648565b34801561067f57600080fd5b5061056361164e565b34801561069457600080fd5b5061034e6116ae565b3480156106a957600080fd5b506106b26116b4565b60405161030e929190611e9f565b3480156106cc57600080fd5b5061034e6106db366004611bd2565b6117d4565b3480156106ec57600080fd5b506103a561181c565b34801561070157600080fd5b5061034e611825565b34801561071657600080fd5b5061030161182b565b34801561072b57600080fd5b5061034e61073a366004611bf9565b61183a565b34801561074b57600080fd5b5061030161075a366004611bf9565b61184a565b34801561076b57600080fd5b5061034e61077a366004611bf9565b61185a565b34801561078b57600080fd5b506103c761186f565b6001546001600160a01b031681565b6060600d8054806020026020016040519081016040528092919081815260200182805480156107f157602002820191906000526020600020905b8154815260200190600101908083116107dd575b5050505050905090565b600f5490565b600080805b600f5481101561084b57600f818154811061081d57fe5b6000918252602090912001546001600160a01b0385811691161415610843576001909101905b600101610806565b5092915050565b60045490565b60085460ff1690565b60078054604080516020601f60026000196101006001881615020190951694909404938401819004810282018101909252828152606093909290918301828280156107f15780601f106108c2576101008083540402835291602001916107f1565b820191906000526020600020905b8154815290600101906020018083116108d057509395945050505050565b60096020526000908152604090205481565b6000546001600160a01b031690565b60055481565b600060608060008060008060008060606000600160009054906101000a90046001600160a01b03169a5060068054600181600116156101000203166002900480601f0160208091040260200160405190810160405280929190818152602001828054600181600116156101000203166002900480156109d55780601f106109aa576101008083540402835291602001916109d5565b820191906000526020600020905b8154815290600101906020018083116109b857829003601f168201915b5050505050995060078054600181600116156101000203166002900480601f016020809104026020016040519081016040528092919081815260200182805460018160011615610100020316600290048015610a725780601f10610a4757610100808354040283529160200191610a72565b820191906000526020600020905b815481529060010190602001808311610a5557829003601f168201915b505050505098506005549750600860009054906101000a900460ff16965060045495506002549450600b5493506003549250600d805480602002602001604051908101604052809291908181526020018280548015610af057602002820191906000526020600020905b815481526020019060010190808311610adc575b50505050509150600960008d6001600160a01b03166001600160a01b0316815260200190815260200160002054905091939597999b90929496989a50565b60035481565b3090565b600080600f8381548110610b4857fe5b600091825260209091200154600f546001600160a01b03909116915060001901610b7284826118d0565b600f805480610b7d57fe5b600082815260209020600019908201810180546001600160a01b03191690550190555092915050565b60118181548110610bb657600080fd5b600091825260209091200154905081565b6000908152601060205260409020600201546001600160a01b031690565b6001546001600160a01b03163314610c185760405162461bcd60e51b8152600401610c0f906120ea565b60405180910390fd5b6001546001600160a01b0316ff5b606080600a805480602002602001604051908101604052809291908181526020018280548015610c7f57602002820191906000526020600020905b81546001600160a01b03168152600190910190602001808311610c61575b50505050509150600f805480602002602001604051908101604052809291908181526020018280548015610cdc57602002820191906000526020600020905b81546001600160a01b03168152600190910190602001808311610cbe575b505050505090509091565b6006805460408051602060026001851615610100026000190190941693909304601f81018490048402820184019092528181529291830182828015610d6d5780601f10610d4257610100808354040283529160200191610d6d565b820191906000526020600020905b815481529060010190602001808311610d5057829003601f168201915b505050505081565b6001600160a01b031660009081526009602052604090205490565b6060600f8054806020026020016040519081016040528092919081815260200182805480156107f157602002820191906000526020600020905b81546001600160a01b03168152600190910190602001808311610dca575050505050905090565b600f8181548110610e0157600080fd5b6000918252602090912001546001600160a01b0316905081565b6001546001600160a01b03163314610e455760405162461bcd60e51b8152600401610c0f90611ed3565b610e4d61199c565b610e695760405162461bcd60e51b8152600401610c0f906120b5565b610e716119a3565b15610e8e5760405162461bcd60e51b8152600401610c0f90611f30565b610e9860026119be565b47600455600c54600a54600091605f9160059110610f2d5760005b600a54811015610f27576000600a8281548110610ecc57fe5b60009182526020808320909101546001600160a01b031680835260099091526040808320549051919350839281156108fc029290818181858888f19350505050158015610f1d573d6000803e3d6000fd5b5050600101610eb3565b5061121c565b60005b600c5481101561121a57600f54610f465761121a565b7faf4ec89c92b2378c5281acbbdbd9184d1dddf5382f07d8bdaf42196683e206f381600101604051602001610f7b9190611cf4565b60408051601f1981840301815290829052610f9591611ec0565b60405180910390a182612710600454600d8481548110610fb157fe5b90600052602060002001540281610fc457fe5b04029350610fd0611a1e565b600f80546040805160208084028201810190925282815260009361103392849083018282801561102957602002820191906000526020600020905b81546001600160a01b0316815260019091019060200180831161100b575b5050505050611b3a565b8161103a57fe5b6000848152601060205260409020600f8054939092069350918390811061105d57fe5b60009182526020822001546002830180546001600160a01b0319166001600160a01b03909216919091179055600182810188905560118054918201815582527f31ecc21a745e3968a04e9570e4425bc18fa8019c68028196b546d1669c200c68018490555b600f546000190181116111d2576002820154600f80546001600160a01b0390921691839081106110ee57fe5b6000918252602090912001546001600160a01b031614156111ca57600f805460009190600019810190811061111f57fe5b6000918252602090912001546001600160a01b031690505b60028301546001600160a01b03828116911614801561115c5750600f54600019018214155b156111be57600f80548061116c57fe5b600082815260209020810160001990810180546001600160a01b0319169055908101909155600f8054909181019081106111a257fe5b6000918252602090912001546001600160a01b03169050611137565b6111c782610b38565b50505b6001016110c2565b5060028101546040516001600160a01b039091169087156108fc029088906000818181858888f1935050505015801561120f573d6000803e3d6000fd5b505050600101610f30565b505b476004819055606490048161012c8161123157fe5b600154604051929091049290920294506001600160a01b039091169084156108fc029085906000818181858888f19350505050158015611275573d6000803e3d6000fd5b5061127e610900565b6001600160a01b03166108fc479081150290604051600060405180830381858888f193505050501580156112b6573d6000803e3d6000fd5b506112c160016119be565b505050565b60055490565b60025481565b600060055442106112f55760405162461bcd60e51b8152600401610c0f90611fea565b6002543410156113175760405162461bcd60e51b8152600401610c0f90612021565b61131f61199c565b61133b5760405162461bcd60e51b8152600401610c0f90611f8d565b604051630e0b0f4360e01b815260009083903090630e0b0f4390611363903390600401611d9e565b60206040518083038186803b15801561137b57600080fd5b505afa15801561138f573d6000803e3d6000fd5b505050506040513d601f19601f820116820180604052508101906113b39190611c11565b01905080600e5410156113d85760405162461bcd60e51b8152600401610c0f90612058565b336000908152600960205260409020546113f29034611b6f565b3360009081526009602052604090205560045461140f9034611b6f565b60045560005b8381101561146657600f8054600181810183556000929092527f8d1108e10bcb7c27dddfc02ed9d693a074039d026cf4ea4240b40f7d581ac8020180546001600160a01b0319163317905501611415565b506000805b600a548110156114ab57600a818154811061148257fe5b6000918252602090912001546001600160a01b03163314156114a357600191505b60010161146b565b50806114f457600a80546001810182556000919091527fc65a7bb8d6351c1cf70c95a316cc6a92839c986682d98bc35f958f4883f9d2a80180546001600160a01b031916331790555b336001600160a01b03167f69ca02dd4edd7bf0a4abb9ed3b7af3f14778db5d61921c7dc7cd545266326de23460405161152d9190611d4b565b60405180910390a25050600f5492915050565b600f54604051630e0b0f4360e01b8152600091903090630e0b0f439061156a908690600401611d9e565b60206040518083038186803b15801561158257600080fd5b505afa158015611596573d6000803e3d6000fd5b505050506040513d601f19601f820116820180604052508101906115ba9190611c11565b61271002816115c557fe5b0492915050565b6007805460408051602060026001851615610100026000190190941693909304601f81018490048402820184019092528181529291830182828015610d6d5780601f10610d4257610100808354040283529160200191610d6d565b600e5490565b600a5490565b60025490565b6001546001600160a01b031690565b600c5481565b6060600a8054806020026020016040519081016040528092919081815260200182805480156107f1576020028201919060005260206000209081546001600160a01b03168152600190910190602001808311610dca575050505050905090565b600d5490565b606080600060118054905067ffffffffffffffff811180156116d557600080fd5b506040519080825280602002602001820160405280156116ff578160200160208202803683370190505b5060115490915060009067ffffffffffffffff8111801561171f57600080fd5b50604051908082528060200260200182016040528015611749578160200160208202803683370190505b50905060005b6011548110156117cb576000818152601060205260409020600281015484516001600160a01b039091169085908490811061178657fe5b60200260200101906001600160a01b031690816001600160a01b03168152505080600101548383815181106117b757fe5b60209081029190910101525060010161174f565b50925090509091565b600080805b600c5481101561084b57600081815260106020526040902060028101546001600160a01b0386811691161415611813578060010154830192505b506001016117d9565b60085460ff1681565b60045481565b6000546001600160a01b031681565b600d8181548110610bb657600080fd5b600a8181548110610e0157600080fd5b60009081526010602052604090206001015490565b60068054604080516020601f60026000196101006001881615020190951694909404938401819004810282018101909252828152606093909290918301828280156107f15780601f106108c2576101008083540402835291602001916107f1565b6000600f83815481106118df57fe5b600091825260209091200154600f80546001600160a01b039092169250908390811061190757fe5b600091825260209091200154600f80546001600160a01b03909216918590811061192d57fe5b9060005260206000200160006101000a8154816001600160a01b0302191690836001600160a01b0316021790555080600f838154811061196957fe5b9060005260206000200160006101000a8154816001600160a01b0302191690836001600160a01b03160217905550505050565b6011541590565b6000600260085460ff1660028111156119b857fe5b14905090565b6008805482919060ff191660018360028111156119d757fe5b02179055506008546040517f1e046fdd2110d82ed3fa7652b41ced17c49cbb9ee4536e65f51ad2a6ed5359a791611a139160ff90911690611eb2565b60405180910390a150565b60005b600f54811015611b3757600081600f805490500342604051602001611a469190611d4b565b6040516020818303038152906040528051906020012060001c81611a6657fe5b06820190506000600f8281548110611a7a57fe5b600091825260209091200154600f80546001600160a01b0390921692509084908110611aa257fe5b600091825260209091200154600f80546001600160a01b039092169184908110611ac857fe5b9060005260206000200160006101000a8154816001600160a01b0302191690836001600160a01b0316021790555080600f8481548110611b0457fe5b600091825260209091200180546001600160a01b0319166001600160a01b03929092169190911790555050600101611a21565b50565b6000444283604051602001611b5193929190611d54565b60408051601f19818403018152919052805160209091012092915050565b600082820183811015611bc9576040805162461bcd60e51b815260206004820152601b60248201527f536166654d6174683a206164646974696f6e206f766572666c6f770000000000604482015290519081900360640190fd5b90505b92915050565b600060208284031215611be3578081fd5b81356001600160a01b0381168114611bc9578182fd5b600060208284031215611c0a578081fd5b5035919050565b600060208284031215611c22578081fd5b5051919050565b6000815180845260208085019450808401835b83811015611c615781516001600160a01b031687529582019590820190600101611c3c565b509495945050505050565b6000815180845260208085019450808401835b83811015611c6157815187529582019590820190600101611c7f565b60038110611ca557fe5b9052565b60008151808452815b81811015611cce57602081850181015186830182015201611cb2565b81811115611cdf5782602083870101525b50601f01601f19169290920160200192915050565b7f57696e6e65722000000000000000000000000000000000000000000000000000815260078101919091527f2073656c656374696f6e206861732073746172746564210000000000000000006027820152603e0190565b90815260200190565b600084825260208481840152604083018451828601845b82811015611d905781516001600160a01b031684529284019290840190600101611d6b565b509198975050505050505050565b6001600160a01b0391909116815260200190565b60006101606001600160a01b038e168352806020840152611dd58184018e611ca9565b90508281036040840152611de9818d611ca9565b90508a6060840152611dfe608084018b611c9b565b8860a08401528760c08401528660e084015285610100840152828103610120840152611e2a8186611c6c565b915050826101408301529c9b505050505050505050505050565b600060208252611e576020830184611c29565b9392505050565b600060408252611e716040830185611c29565b8281036020840152611e838185611c29565b95945050505050565b600060208252611e576020830184611c6c565b600060408252611e716040830185611c6c565b60208101611bcc8284611c9b565b600060208252611e576020830184611ca9565b60208082526032908201527f4f6e6c792074686520636f6e74726163742063726561746f722063616e20657860408201527f6563757465207468697320616374696f6e2e0000000000000000000000000000606082015260800190565b60208082526026908201527f57696e6e6572732073656c656374696f6e20616c726561647920696e2070726f60408201527f67726573732e0000000000000000000000000000000000000000000000000000606082015260800190565b6020808252603f908201527f4c6f74746572792068617320616c7265616479206265656e20636c6f7365642e60408201527f2057696e6e657273207765726520616c72656164792073656c65637465642e00606082015260800190565b60208082526016908201527f546865206c6f74746572792068617320656e6465642e00000000000000000000604082015260600190565b60208082526018908201527f5072696365206973206e6f74206f7665722030206574682e0000000000000000604082015260600190565b60208082526026908201527f596f75206172652067657474696e67206f76657220746865206c696d6974207460408201527f69636b65742e0000000000000000000000000000000000000000000000000000606082015260800190565b6020808252818101527f57696e6e65722068617320616c7265616479206265656e2073656c6563746564604082015260600190565b60208082526025908201527f4f6e6c7920746865206f776e65722063616e206b696c6c207468697320636f6e60408201527f747261637400000000000000000000000000000000000000000000000000000060608201526080019056fea2646970667358221220e646ca7fa3ae979be7656b02c02004b3523e6f1bf16f0fafe6bcc0f0e433d0ad64736f6c63430007060033",
  "immutableReferences": {},
  "source": "// SPDX-License-Identifier: MIT\npragma solidity ^0.7.0;\nimport \"../node_modules/@openzeppelin/contracts/math/SafeMath.sol\";\npragma experimental ABIEncoderV2;\n// import \"@openzeppelin/contracts/access/Ownable.sol\";\n\n// import \"@chainlink/contracts/src/v0.8/VRFConsumerBase.sol\";\n\nenum State {\n    Open,\n    Closed,\n    InProgress\n}\n\ncontract Lottery {\n    using SafeMath for uint256;\n    // State variables\n    address payable public deployer;\n    address payable public creator;\n    uint256 public priceTicket; // required to reach at least this much, else everyone gets refund\n    uint256 public created;\n    uint256 public currentBalance;\n    uint256 public deadline;\n    string public title;\n    string public description;\n    State public state = State.Open; // initialize on create\n    mapping(address => uint256) public contributors;\n    address[] public players;\n    uint256 playersLength;\n    uint256 public numberOfWinners;\n    uint256[] public rewards;\n    uint256 limitTickets;\n    address[] public tickets;\n\n    function getDeployerAddress() public view returns (address) {\n        return deployer;\n    }\n\n    struct winner {\n        uint256 id;\n        uint256 amount;\n        address account;\n    }\n    mapping(uint256 => winner) winners;\n    uint256[] public winnerIds;\n\n    // function createTickets(address data) public {\n    //     delete tickets; // This should reset the length to zero\n    //     tickets.push(data);\n    // }\n\n    // function pushTicket(address data) public {\n    //     tickets.push(data);\n    // }\n\n    // function getTickets() public view returns(address[] memory) {\n    //     return tickets;\n    // }\n    event LotteryStateChanged(State newState);\n    event Transfer(address indexed _from, uint256 _value);\n    event LogWinnerSelectionStarted(string message);\n    event LogWinnerSelected(address winner);\n\n    constructor(\n        address payable projectDeployer,\n        address payable projectStarter,\n        string memory projectTitle,\n        string memory projectDesc,\n        uint256 deadlineTime,\n        uint256 projectTicketPrice,\n        uint256[] memory lotteryRewards,\n        uint256 lotteryLimitTickets\n    ) {\n        deployer = projectDeployer;\n        creator = projectStarter;\n        title = projectTitle;\n        description = projectDesc;\n        priceTicket = projectTicketPrice;\n        deadline = deadlineTime;\n        currentBalance = 0;\n        created = block.timestamp;\n        numberOfWinners = lotteryRewards.length;\n        rewards = lotteryRewards;\n        limitTickets = lotteryLimitTickets;\n    }\n\n    function getContractAddress() public view returns (address) {\n        return address(this);\n    }\n\n    function getTitle() public view returns (string memory) {\n        return title;\n    }\n\n    function getDescription() public view returns (string memory) {\n        return description;\n    }\n\n    function getTicketPrice() public view returns (uint256) {\n        return priceTicket;\n    }\n\n    function getDeadline() public view returns (uint256) {\n        return deadline;\n    }\n\n    function getLimitTicket() public view returns (uint256) {\n        return limitTickets;\n    }\n\n    function getRewards() public view returns (uint256[] memory) {\n        return rewards;\n    }\n\n    function getContributed(address _address) public view returns (uint256) {\n        return contributors[_address];\n    }\n\n    function getState() public view returns (State) {\n        return state;\n    }\n\n    function getTicketsCount() public view returns (uint256) {\n        return tickets.length;\n    }\n\n    function getTickets() public view returns (address[] memory) {\n        return tickets;\n    }\n\n    function getWinner(uint256 id) public view returns (address) {\n        return winners[id].account;\n    }\n\n    function getWinnerAmount(uint256 id) public view returns (uint256) {\n        return winners[id].amount;\n    }\n\n    function getNumberOfWinners() public view returns (uint256) {\n        return rewards.length;\n    }\n\n    function getOwner() public view returns (address) {\n        return creator;\n    }\n\n    function getBalance() public view returns (uint256) {\n        return currentBalance;\n    }\n\n    function getPlayers() public view returns (address[] memory) {\n        return players;\n    }\n\n    function getEntrantCount() public view returns (uint256) {\n        return players.length;\n    }\n\n    function winnerHasNotBeenSet() private view returns (bool) {\n        return winnerIds.length == 0;\n    }\n\n    function pickWinnerIsInProgress() private view returns (bool) {\n        return state == State.InProgress;\n    }\n\n    function kill() external {\n        require(msg.sender == creator, \"Only the owner can kill this contract\");\n        selfdestruct(creator);\n    }\n\n    function buyTicket(uint256 ticketAmount) public payable returns (uint256) {\n        require(block.timestamp < deadline, \"The lottery has ended.\");\n        require(msg.value >= priceTicket, \"Price is not over 0 eth.\");\n        require(\n            winnerHasNotBeenSet(),\n            \"Lottery has already been closed. Winners were already selected.\"\n        );\n\n        uint256 ticketsByAcc = this.getEnteredTicketsByAccount(msg.sender) +\n            ticketAmount;\n        require(\n            limitTickets >= ticketsByAcc,\n            \"You are getting over the limit ticket.\"\n        );\n\n        contributors[msg.sender] = contributors[msg.sender].add(msg.value);\n        currentBalance = currentBalance.add(msg.value);\n\n        for (uint256 i = 0; i < ticketAmount; i++) {\n            tickets.push(msg.sender);\n        }\n\n        bool doesPlayerEntered = false;\n        for (uint256 i = 0; i < players.length; i++) {\n            if (msg.sender == players[i]) {\n                doesPlayerEntered = true;\n            }\n        }\n\n        if (!doesPlayerEntered) {\n            players.push(msg.sender);\n        }\n\n        emit Transfer(msg.sender, msg.value);\n\n        return tickets.length;\n    }\n\n    function getRewardsByAccount(address _address)\n        public\n        view\n        returns (uint256)\n    {\n        uint256 rewardsWon = 0;\n        for (uint256 i = 0; i < numberOfWinners; i++) {\n            winner storage ltWinner = winners[i];\n            if (ltWinner.account == _address) {\n                rewardsWon = uint256(rewardsWon) + uint256(ltWinner.amount);\n            }\n        }\n        return rewardsWon;\n    }\n\n    function getEnteredTicketsByAccount(address _address)\n        public\n        view\n        returns (uint256)\n    {\n        uint256 ticketsByAccount = 0;\n        for (uint256 i = 0; i < tickets.length; i++) {\n            if (_address == tickets[i]) {\n                ticketsByAccount++;\n            }\n        }\n        return ticketsByAccount;\n    }\n\n    function getWinProbabiltyByAccount(address _address)\n        public\n        view\n        returns (uint256)\n    {\n        // vraciam percenta + navyse 2 desatinimi cislami,\n        // kvoli tomu ze v Solidity sa neda pracovat s float\n        // na frontende ak vstup predelim 100, dostanem percenta\n        // napr 21,58\n        return\n            (this.getEnteredTicketsByAccount(_address) * 10000) /\n            tickets.length;\n    }\n\n    function shuffle() private {\n        for (uint256 i = 0; i < tickets.length; i++) {\n            uint256 n = i +\n                (uint256(keccak256(abi.encodePacked(block.timestamp))) %\n                    (tickets.length - i));\n            address temp = tickets[n];\n            tickets[n] = tickets[i];\n            tickets[i] = temp;\n        }\n    }\n\n    function random(address[] memory roundTickets)\n        private\n        view\n        returns (uint256)\n    {\n        return\n            uint256(\n                keccak256(\n                    abi.encodePacked(\n                        block.difficulty,\n                        block.timestamp,\n                        roundTickets\n                    )\n                )\n            );\n    }\n\n    function pickWinner() public payable isCreator {\n        // require(block.timestamp > deadline, \"Lottery is still open\");\n        require(winnerHasNotBeenSet(), \"Winner has already been selected\");\n        require(\n            !pickWinnerIsInProgress(),\n            \"Winners selection already in progress.\"\n        );\n        _changeState(State.InProgress);\n        uint256 reward;\n        currentBalance = address(this).balance;\n        uint256 winnersReward = 95;\n        uint256 creatorsReward = 5;\n\n        if (players.length <= numberOfWinners) {\n            for (uint256 i = 0; i < players.length; i++) {\n                address player = players[i];\n                payable(player).transfer(contributors[player]);\n            }\n        } else {\n            for (uint256 i = 0; i < numberOfWinners; i++) {\n                // calculate the REWARD based on draw ROUND\n                if (tickets.length == 0) {\n                    break;\n                }\n\n                emit LogWinnerSelectionStarted(\n                    string(\n                        abi.encodePacked(\n                            \"Winner \",\n                            (i + 1),\n                            \" selection has started!\"\n                        )\n                    )\n                );\n                reward =\n                    ((uint256(rewards[i]) * currentBalance) / uint256(10000)) *\n                    uint256(winnersReward);\n\n                // shuffle tickets in round i\n                shuffle();\n\n                // get random address from tickets\n                uint256 index = random(tickets) % tickets.length;\n\n                // set the winner properties\n                winner storage ltWinner = winners[i];\n                ltWinner.account = tickets[index];\n                ltWinner.amount = reward;\n                winnerIds.push(i);\n\n                // move out winner tickets\n                for (uint256 j = 0; j <= tickets.length - 1; j++) {\n                    if (tickets[j] == ltWinner.account) {\n                        address toMove = tickets[tickets.length - 1];\n                        while (\n                            toMove == ltWinner.account &&\n                            tickets.length - 1 != j\n                        ) {\n                            tickets.pop();\n                            toMove = tickets[tickets.length - 1];\n                        }\n                        deleteUser(j);\n                    }\n                }\n\n                // send reward to the winner\n                payable(ltWinner.account).transfer(reward);\n            }\n        }\n\n        // reward for creator 3%\n        currentBalance = address(this).balance;\n        reward = ((100 * 3) / creatorsReward) * (currentBalance / 100);\n        payable(creator).transfer(reward);\n\n        // reward for deployer 2%\n        payable(getDeployerAddress()).transfer(address(this).balance);\n        _changeState(State.Closed);\n    }\n\n    // Modifier to check if the function caller is the project creator\n    modifier isCreator() {\n        require(\n            msg.sender == creator,\n            \"Only the contract creator can execute this action.\"\n        );\n        _;\n    }\n\n    event LogDeleteUser(address indexed userAddress, uint256 index);\n\n    function deleteUser(uint256 userIndex) public returns (address index) {\n        address toDelete = tickets[userIndex];\n        uint256 lastIndex = tickets.length - 1;\n        swap(userIndex, lastIndex);\n        tickets.pop();\n\n        return toDelete;\n    }\n\n    function swap(uint256 userIndex, uint256 lastIndex) private {\n        address toDelete = tickets[userIndex];\n        tickets[userIndex] = tickets[lastIndex];\n        tickets[lastIndex] = toDelete;\n    }\n\n    function revealWinners()\n        public\n        view\n        returns (uint256[] memory, address[] memory)\n    {\n        // require(\n        //     block.timestamp > deadline,\n        //     \"The winners have not been announced yet.\"\n        // );\n\n        address[] memory addrs = new address[](winnerIds.length);\n        uint256[] memory amounts = new uint256[](winnerIds.length);\n\n        for (uint256 i = 0; i < winnerIds.length; i++) {\n            winner storage ltWinner = winners[i];\n            addrs[i] = ltWinner.account;\n            amounts[i] = ltWinner.amount;\n        }\n        return (amounts, addrs);\n    }\n\n    /** @dev Function to get specific information about the project.\n     * @return projectStarter Returns all the project's details\n     */\n    function getDetails(address account)\n        public\n        view\n        returns (\n            address payable projectStarter,\n            string memory projectTitle,\n            string memory projectDesc,\n            uint256 deadlineTime,\n            State currentState,\n            uint256 currentAmount,\n            uint256 ticketPrice,\n            uint256 lotteryPlayersLength,\n            uint256 lotteryDateCreated,\n            uint256[] memory lotteryRewards,\n            uint256 purchased\n        )\n    {\n        projectStarter = creator;\n        projectTitle = title;\n        projectDesc = description;\n        deadlineTime = deadline;\n        currentState = state;\n        currentAmount = currentBalance;\n        ticketPrice = priceTicket;\n        lotteryPlayersLength = playersLength;\n        lotteryDateCreated = created;\n        lotteryRewards = rewards;\n        purchased = contributors[account];\n    }\n\n    // function purchasedByAddress(address _key) public view returns (uint256) {\n    //     return contributors[_key];\n    // }\n    function _changeState(State _newState) private {\n        state = _newState;\n        emit LotteryStateChanged(state);\n    }\n\n    function getPlayersDetails()\n        public\n        view\n        returns (\n            address[] memory lotteryPlayers,\n            address[] memory lotteryTickets\n        )\n    {\n        lotteryPlayers = players;\n        lotteryTickets = tickets;\n    }\n}\n",
  "sourcePath": "/Users/jakub/Documents/Skola/lottery/contracts/Lottery.sol",
  "compiler": {
    "name": "solc",
    "version": "0.7.6+commit.7338295f.Emscripten.clang"
  },
  "schemaVersion": "3.4.7",
  "updatedAt": "2022-05-03T21:17:59.174Z",
  "devdoc": {
    "kind": "dev",
    "methods": {
      "getDetails(address)": {
        "details": "Function to get specific information about the project.",
        "returns": {
          "projectStarter": "Returns all the project's details"
        }
      }
    },
    "version": 1
  },
  "userdoc": {
    "kind": "user",
    "methods": {},
    "version": 1
  }
}