{
  "contractName": "LotteryBuilder",
  "abi": [
    {
      "inputs": [],
      "stateMutability": "nonpayable",
      "type": "constructor"
    },
    {
      "anonymous": false,
      "inputs": [
        {
          "indexed": false,
          "internalType": "address",
          "name": "deployer",
          "type": "address"
        },
        {
          "indexed": false,
          "internalType": "address",
          "name": "contractAddress",
          "type": "address"
        },
        {
          "indexed": false,
          "internalType": "address",
          "name": "projectStarter",
          "type": "address"
        },
        {
          "indexed": false,
          "internalType": "string",
          "name": "projectTitle",
          "type": "string"
        },
        {
          "indexed": false,
          "internalType": "string",
          "name": "projectDesc",
          "type": "string"
        },
        {
          "indexed": false,
          "internalType": "uint256",
          "name": "deadline",
          "type": "uint256"
        },
        {
          "indexed": false,
          "internalType": "uint256",
          "name": "ticketPrice",
          "type": "uint256"
        },
        {
          "indexed": false,
          "internalType": "uint256[]",
          "name": "rewards",
          "type": "uint256[]"
        },
        {
          "indexed": false,
          "internalType": "uint256",
          "name": "limitTickets",
          "type": "uint256"
        }
      ],
      "name": "ProjectStarted",
      "type": "event"
    },
    {
      "anonymous": false,
      "inputs": [
        {
          "components": [
            {
              "internalType": "uint256[]",
              "name": "values",
              "type": "uint256[]"
            },
            {
              "internalType": "address[]",
              "name": "accounts",
              "type": "address[]"
            }
          ],
          "indexed": false,
          "internalType": "struct LotteryBuilder.Winners[]",
          "name": "_a",
          "type": "tuple[]"
        }
      ],
      "name": "RevealLatestWinners",
      "type": "event"
    },
    {
      "inputs": [],
      "name": "owner",
      "outputs": [
        {
          "internalType": "address",
          "name": "",
          "type": "address"
        }
      ],
      "stateMutability": "view",
      "type": "function"
    },
    {
      "inputs": [
        {
          "internalType": "address payable",
          "name": "deployer",
          "type": "address"
        },
        {
          "internalType": "address payable",
          "name": "creator",
          "type": "address"
        },
        {
          "internalType": "string",
          "name": "title",
          "type": "string"
        },
        {
          "internalType": "string",
          "name": "description",
          "type": "string"
        },
        {
          "internalType": "uint256",
          "name": "deadlineDate",
          "type": "uint256"
        },
        {
          "internalType": "uint256",
          "name": "ticketPrice",
          "type": "uint256"
        },
        {
          "internalType": "uint256[]",
          "name": "rewards",
          "type": "uint256[]"
        },
        {
          "internalType": "uint256",
          "name": "limitTickets",
          "type": "uint256"
        }
      ],
      "name": "startProject",
      "outputs": [],
      "stateMutability": "nonpayable",
      "type": "function"
    },
    {
      "inputs": [],
      "name": "getOwner",
      "outputs": [
        {
          "internalType": "address",
          "name": "",
          "type": "address"
        }
      ],
      "stateMutability": "view",
      "type": "function"
    },
    {
      "inputs": [
        {
          "internalType": "address",
          "name": "_address",
          "type": "address"
        }
      ],
      "name": "participatedByAddress",
      "outputs": [
        {
          "internalType": "address[]",
          "name": "",
          "type": "address[]"
        },
        {
          "internalType": "uint256[]",
          "name": "",
          "type": "uint256[]"
        },
        {
          "internalType": "uint256[]",
          "name": "",
          "type": "uint256[]"
        },
        {
          "internalType": "enum State[]",
          "name": "",
          "type": "uint8[]"
        },
        {
          "internalType": "bool[]",
          "name": "",
          "type": "bool[]"
        },
        {
          "internalType": "uint256[]",
          "name": "",
          "type": "uint256[]"
        }
      ],
      "stateMutability": "nonpayable",
      "type": "function"
    },
    {
      "inputs": [
        {
          "internalType": "address",
          "name": "_address",
          "type": "address"
        }
      ],
      "name": "getSpentState",
      "outputs": [
        {
          "internalType": "uint256",
          "name": "",
          "type": "uint256"
        }
      ],
      "stateMutability": "view",
      "type": "function"
    },
    {
      "inputs": [
        {
          "internalType": "address",
          "name": "_address",
          "type": "address"
        }
      ],
      "name": "getRewardsWonByAddress",
      "outputs": [
        {
          "internalType": "uint256",
          "name": "",
          "type": "uint256"
        }
      ],
      "stateMutability": "view",
      "type": "function"
    },
    {
      "inputs": [],
      "name": "getLatestWinners",
      "outputs": [
        {
          "components": [
            {
              "internalType": "uint256[]",
              "name": "values",
              "type": "uint256[]"
            },
            {
              "internalType": "address[]",
              "name": "accounts",
              "type": "address[]"
            }
          ],
          "internalType": "struct LotteryBuilder.Winners[]",
          "name": "",
          "type": "tuple[]"
        }
      ],
      "stateMutability": "view",
      "type": "function"
    },
    {
      "inputs": [],
      "name": "returnClosedProjects",
      "outputs": [
        {
          "internalType": "contract Lottery[]",
          "name": "",
          "type": "address[]"
        }
      ],
      "stateMutability": "view",
      "type": "function"
    },
    {
      "inputs": [],
      "name": "returnOpenProjects",
      "outputs": [
        {
          "internalType": "contract Lottery[]",
          "name": "",
          "type": "address[]"
        }
      ],
      "stateMutability": "view",
      "type": "function"
    },
    {
      "inputs": [
        {
          "internalType": "enum State",
          "name": "state",
          "type": "uint8"
        }
      ],
      "name": "getProjectsByState",
      "outputs": [
        {
          "internalType": "contract Lottery[]",
          "name": "",
          "type": "address[]"
        }
      ],
      "stateMutability": "view",
      "type": "function"
    },
    {
      "inputs": [],
      "name": "returnAllLotteries",
      "outputs": [
        {
          "internalType": "contract Lottery[]",
          "name": "",
          "type": "address[]"
        }
      ],
      "stateMutability": "view",
      "type": "function"
    }
  ],
  "bytecode": "0x608060405234801561001057600080fd5b50600180546001600160a01b031916331790556140cb806100326000396000f3fe60806040523480156200001157600080fd5b5060043610620000dc5760003560e01c80638b3645ee116200008d578063c934d7581162000063578063c934d75814620001a4578063e184794c14620001ca578063eb1f044514620001e157620000dc565b80638b3645ee14620001775780638da5cb5b1462000190578063c5d8668f146200019a57620000dc565b80632c9d406011620000c35780632c9d4060146200012e5780632f771ef61462000147578063893d20e8146200015e57620000dc565b80630adc2b3714620000e1578063180a1d1614620000fa575b600080fd5b620000f8620000f2366004620013d2565b620001eb565b005b620001116200010b3660046200138d565b620002e8565b60405162000125969594939291906200190e565b60405180910390f35b6200013862000b56565b604051620001259190620019c8565b620001386200015836600462001664565b62000bba565b6200016862000dee565b604051620001259190620017eb565b6200018162000dfd565b60405162000125919062001a17565b6200016862000fd5565b6200013862000fe4565b620001bb620001b53660046200138d565b6200106a565b60405162000125919062001ab5565b620001bb620001db3660046200138d565b62001149565b6200013862001221565b600085905060008c8c8c8c8c8c878c8c8c8c6040516200020b906200124a565b620002219b9a99989796959493929190620017ff565b604051809103906000f0801580156200023e573d6000803e3d6000fd5b5090506000819080600181540180825580915050600190039060005260206000200160009091909190916101000a8154816001600160a01b0302191690836001600160a01b031602179055507fdf54dbcf54b276c880d4a08833029386e6b1970214f14e76cfa9a29d46de6553818e8e8e8e8e8e898e8e8e8e604051620002d19c9b9a9998979695949392919062001882565b60405180910390a150505050505050505050505050565b6060806060806060806000805b600054811015620008655760008082815481106200030f57fe5b9060005260206000200160009054906101000a90046001600160a01b031690506000816001600160a01b0316638b5b9ccc6040518163ffffffff1660e01b815260040160006040518083038186803b1580156200036b57600080fd5b505afa15801562000380573d6000803e3d6000fd5b505050506040513d6000823e601f3d908101601f19168201604052620003aa9190810190620014bb565b905060005b815181101562000859578b6001600160a01b0316828281518110620003d057fe5b60200260200101516001600160a01b0316141562000850576000600360008781526020019081526020016000209050836001600160a01b03166332a2c5d06040518163ffffffff1660e01b815260040160206040518083038186803b1580156200043957600080fd5b505afa1580156200044e573d6000803e3d6000fd5b505050506040513d601f19601f82011682018060405250810190620004749190620013b3565b8160000160006101000a8154816001600160a01b0302191690836001600160a01b03160217905550836001600160a01b0316634de58efe8e6040518263ffffffff1660e01b8152600401620004ca9190620017eb565b60206040518083038186803b158015620004e357600080fd5b505afa158015620004f8573d6000803e3d6000fd5b505050506040513d601f19601f820116820180604052508101906200051e9190620016a2565b8160010181905550836001600160a01b0316630e0b0f438e6040518263ffffffff1660e01b8152600401620005549190620017eb565b60206040518083038186803b1580156200056d57600080fd5b505afa15801562000582573d6000803e3d6000fd5b505050506040513d601f19601f82011682018060405250810190620005a89190620016a2565b8160020181905550836001600160a01b0316631865c57d6040518163ffffffff1660e01b815260040160206040518083038186803b158015620005ea57600080fd5b505afa158015620005ff573d6000803e3d6000fd5b505050506040513d601f19601f8201168201806040525081019062000625919062001683565b60038201805460ff191660018360028111156200063e57fe5b021790555060038101805461ff00191690556000600482018190555b846001600160a01b0316638e33cffc6040518163ffffffff1660e01b815260040160206040518083038186803b1580156200069457600080fd5b505afa158015620006a9573d6000803e3d6000fd5b505050506040513d601f19601f82011682018060405250810190620006cf9190620016a2565b81101562000847576040517f4129b2c90000000000000000000000000000000000000000000000000000000081526001600160a01b03861690634129b2c9906200071e90849060040162001ab5565b60206040518083038186803b1580156200073757600080fd5b505afa1580156200074c573d6000803e3d6000fd5b505050506040513d601f19601f82011682018060405250810190620007729190620013b3565b6001600160a01b03168e6001600160a01b031614156200083e5760038201805461ff0019166101001790556040517ff7feb20d0000000000000000000000000000000000000000000000000000000081526001600160a01b0386169063f7feb20d90620007e490849060040162001ab5565b60206040518083038186803b158015620007fd57600080fd5b505afa15801562000812573d6000803e3d6000fd5b505050506040513d601f19601f82011682018060405250810190620008389190620016a2565b60048301555b6001016200065a565b50506001909401935b600101620003af565b505050600101620002f5565b5060008167ffffffffffffffff811180156200088057600080fd5b50604051908082528060200260200182016040528015620008ab578160200160208202803683370190505b50905060008267ffffffffffffffff81118015620008c857600080fd5b50604051908082528060200260200182016040528015620008f3578160200160208202803683370190505b50905060008367ffffffffffffffff811180156200091057600080fd5b506040519080825280602002602001820160405280156200093b578160200160208202803683370190505b50905060008467ffffffffffffffff811180156200095857600080fd5b5060405190808252806020026020018201604052801562000983578160200160208202803683370190505b50905060008567ffffffffffffffff81118015620009a057600080fd5b50604051908082528060200260200182016040528015620009cb578160200160208202803683370190505b50905060008667ffffffffffffffff81118015620009e857600080fd5b5060405190808252806020026020018201604052801562000a13578160200160208202803683370190505b50905060005b8781101562000b40576000818152600360205260409020805488516001600160a01b039091169089908490811062000a4d57fe5b60200260200101906001600160a01b031690816001600160a01b031681525050806001015487838151811062000a7f57fe5b602002602001018181525050806002015486838151811062000a9d57fe5b60209081029190910101526003810154855160ff9091169086908490811062000ac257fe5b6020026020010190600281111562000ad657fe5b9081600281111562000ae457fe5b815250508060030160019054906101000a900460ff1684838151811062000b0757fe5b602002602001019015159081151581525050806004015483838151811062000b2b57fe5b60209081029190910101525060010162000a19565b50949d939c50919a509850965090945092505050565b6060600080548060200260200160405190810160405280929190818152602001828054801562000bb057602002820191906000526020600020905b81546001600160a01b0316815260019091019060200180831162000b91575b5050505050905090565b60606000805b60005481101562000c9757600080828154811062000bda57fe5b6000918252602090912001546001600160a01b0316905084600281111562000bfe57fe5b816001600160a01b0316631865c57d6040518163ffffffff1660e01b815260040160206040518083038186803b15801562000c3857600080fd5b505afa15801562000c4d573d6000803e3d6000fd5b505050506040513d601f19601f8201168201806040525081019062000c73919062001683565b600281111562000c7f57fe5b141562000c8d576001909201915b5060010162000bc0565b5060008167ffffffffffffffff8111801562000cb257600080fd5b5060405190808252806020026020018201604052801562000cdd578160200160208202803683370190505b5090506000915060005b60005481101562000de457600080828154811062000d0157fe5b6000918252602090912001546001600160a01b0316905085600281111562000d2557fe5b816001600160a01b0316631865c57d6040518163ffffffff1660e01b815260040160206040518083038186803b15801562000d5f57600080fd5b505afa15801562000d74573d6000803e3d6000fd5b505050506040513d601f19601f8201168201806040525081019062000d9a919062001683565b600281111562000da657fe5b141562000dda578083858151811062000dbb57fe5b6001600160a01b03909216602092830291909101909101526001909301925b5060010162000ce7565b509150505b919050565b6001546001600160a01b031690565b60606000306001600160a01b031663c5d8668f6040518163ffffffff1660e01b815260040160006040518083038186803b15801562000e3b57600080fd5b505afa15801562000e50573d6000803e3d6000fd5b505050506040513d6000823e601f3d908101601f1916820160405262000e7a9190810190620014fa565b90506000815167ffffffffffffffff8111801562000e9757600080fd5b5060405190808252806020026020018201604052801562000ed557816020015b62000ec162001258565b81526020019060019003908162000eb75790505b509050815160001462000fcf5760005b825181101562000fcd57600083828151811062000efe57fe5b60200260200101519050600080826001600160a01b031663952587d66040518163ffffffff1660e01b815260040160006040518083038186803b15801562000f4557600080fd5b505afa15801562000f5a573d6000803e3d6000fd5b505050506040513d6000823e601f3d908101601f1916820160405262000f8491908101906200159e565b915091508185858151811062000f9657fe5b6020026020010151600001819052508085858151811062000fb357fe5b602090810291909101810151015250505060010162000ee5565b505b91505090565b6001546001600160a01b031681565b6040516317bb8f7b60e11b81526060903090632f771ef6906200100d9060019060040162001a9f565b60006040518083038186803b1580156200102657600080fd5b505afa1580156200103b573d6000803e3d6000fd5b505050506040513d6000823e601f3d908101601f19168201604052620010659190810190620014fa565b905090565b600080805b600054811015620011425760008082815481106200108957fe5b6000918252602090912001546040517f4de58efe0000000000000000000000000000000000000000000000000000000081526001600160a01b0390911691508190634de58efe90620010e0908890600401620017eb565b60206040518083038186803b158015620010f957600080fd5b505afa1580156200110e573d6000803e3d6000fd5b505050506040513d601f19601f82011682018060405250810190620011349190620016a2565b90920191506001016200106f565b5092915050565b600080805b600054811015620011425760008082815481106200116857fe5b6000918252602090912001546040517fa6a031b90000000000000000000000000000000000000000000000000000000081526001600160a01b039091169150819063a6a031b990620011bf908890600401620017eb565b60206040518083038186803b158015620011d857600080fd5b505afa158015620011ed573d6000803e3d6000fd5b505050506040513d601f19601f82011682018060405250810190620012139190620016a2565b90920191506001016200114e565b6040516317bb8f7b60e11b81526060903090632f771ef6906200100d9060009060040162001a9f565b61256c8062001b2a83390190565b604051806040016040528060608152602001606081525090565b803562000de98162001b02565b600082601f83011262001290578081fd5b81516020620012a9620012a38362001ae3565b62001abe565b8281528181019085830183850287018401881015620012c6578586fd5b855b85811015620012f1578151620012de8162001b02565b84529284019290840190600101620012c8565b5090979650505050505050565b60008083601f84011262001310578182fd5b50813567ffffffffffffffff81111562001328578182fd5b60208301915083602080830285010111156200134357600080fd5b9250929050565b60008083601f8401126200135c578182fd5b50813567ffffffffffffffff81111562001374578182fd5b6020830191508360208285010111156200134357600080fd5b6000602082840312156200139f578081fd5b8135620013ac8162001b02565b9392505050565b600060208284031215620013c5578081fd5b8151620013ac8162001b02565b60008060008060008060008060008060006101008c8e031215620013f4578687fd5b620013ff8c62001272565b9a506200140f60208d0162001272565b995067ffffffffffffffff8060408e013511156200142b578788fd5b6200143d8e60408f01358f016200134a565b909a50985060608d013581101562001453578788fd5b620014658e60608f01358f016200134a565b909850965060808d0135955060a08d0135945060c08d013581101562001489578384fd5b506200149c8d60c08e01358e01620012fe565b819450809350505060e08c013590509295989b509295989b9093969950565b600060208284031215620014cd578081fd5b815167ffffffffffffffff811115620014e4578182fd5b620014f2848285016200127f565b949350505050565b600060208083850312156200150d578182fd5b825167ffffffffffffffff81111562001524578283fd5b8301601f8101851362001535578283fd5b805162001546620012a38262001ae3565b818152838101908385018584028501860189101562001563578687fd5b8694505b83851015620015925780516200157d8162001b02565b83526001949094019391850191850162001567565b50979650505050505050565b60008060408385031215620015b1578182fd5b825167ffffffffffffffff80821115620015c9578384fd5b818501915085601f830112620015dd578384fd5b81516020620015f0620012a38362001ae3565b82815281810190858301838502870184018b10156200160d578889fd5b8896505b848710156200163157805183526001969096019591830191830162001611565b50918801519196509093505050808211156200164b578283fd5b506200165a858286016200127f565b9150509250929050565b60006020828403121562001676578081fd5b8135620013ac8162001b1b565b60006020828403121562001695578081fd5b8151620013ac8162001b1b565b600060208284031215620016b4578081fd5b5051919050565b6000815180845260208085019450808401835b83811015620016f55781516001600160a01b031687529582019590820190600101620016ce565b509495945050505050565b6000815180845260208085019450808401835b83811015620016f557815115158752958201959082019060010162001713565b60008284527f07ffffffffffffffffffffffffffffffffffffffffffffffffffffffffffffff83111562001765578081fd5b6020830280836020870137939093016020019283525090919050565b6000815180845260208085019450808401835b83811015620016f55781518752958201959082019060010162001794565b60038110620017bd57fe5b9052565b60008284528282602086013780602084860101526020601f19601f85011685010190509392505050565b6001600160a01b0391909116815260200190565b60006101006001600160a01b03808f168452808e166020850152508060408401526200182f8184018c8e620017c1565b9050828103606084015262001846818a8c620017c1565b90508760808401528660a084015282810360c08401526200186981868862001733565b9150508260e08301529c9b505050505050505050505050565b60006001600160a01b03808f168352808e166020840152808d166040840152506101206060830152620018bb61012083018b8d620017c1565b8281036080840152620018d0818a8c620017c1565b90508760a08401528660c084015282810360e0840152620018f381868862001733565b915050826101008301529d9c50505050505050505050505050565b600060c082526200192360c0830189620016bb565b60208382038185015262001938828a62001781565b915083820360408501526200194e828962001781565b84810360608601528751808252828901935090820190845b818110156200198d576200197c838651620017b2565b938301939183019160010162001966565b50508481036080860152620019a3818862001700565b9250505082810360a0840152620019bb818562001781565b9998505050505050505050565b6020808252825182820181905260009190848201906040850190845b8181101562001a0b5783516001600160a01b031683529284019291840191600101620019e4565b50909695505050505050565b60208082528251828201819052600091906040908185019080840286018301878501865b8381101562001a9157888303603f190185528151805187855262001a628886018262001781565b91890151858303868b015291905062001a7c8183620016bb565b96890196945050509086019060010162001a3b565b509098975050505050505050565b6020810162001aaf8284620017b2565b92915050565b90815260200190565b60405181810167ffffffffffffffff8111828210171562001adb57fe5b604052919050565b600067ffffffffffffffff82111562001af857fe5b5060209081020190565b6001600160a01b038116811462001b1857600080fd5b50565b6003811062001b1857600080fdfe60806040526008805460ff191690553480156200001b57600080fd5b506040516200256c3803806200256c8339810160408190526200003e91620002ea565b600080546001600160a01b03808b166001600160a01b03199283161790925560018054928a1692909116919091179055855162000083906006906020890190620000d9565b50845162000099906007906020880190620000d9565b50600283905560058490556000600455426003558151600c819055620000c790600d9060208501906200016e565b50600e5550620003df95505050505050565b828054600181600116156101000203166002900490600052602060002090601f0160209004810192826200011157600085556200015c565b82601f106200012c57805160ff19168380011785556200015c565b828001600101855582156200015c579182015b828111156200015c5782518255916020019190600101906200013f565b506200016a929150620001ab565b5090565b8280548282559060005260206000209081019282156200015c57916020028201828111156200015c5782518255916020019190600101906200013f565b5b808211156200016a5760008155600101620001ac565b80516001600160a01b0381168114620001da57600080fd5b919050565b600082601f830112620001f0578081fd5b815160206001600160401b038211156200020657fe5b80820262000216828201620003bb565b83815282810190868401838801850189101562000231578687fd5b8693505b858410156200025557805183526001939093019291840191840162000235565b50979650505050505050565b600082601f83011262000272578081fd5b81516001600160401b038111156200028657fe5b60206200029c601f8301601f19168201620003bb565b8281528582848701011115620002b0578384fd5b835b83811015620002cf578581018301518282018401528201620002b2565b83811115620002e057848385840101525b5095945050505050565b600080600080600080600080610100898b03121562000307578384fd5b6200031289620001c2565b97506200032260208a01620001c2565b60408a01519097506001600160401b03808211156200033f578586fd5b6200034d8c838d0162000261565b975060608b015191508082111562000363578586fd5b620003718c838d0162000261565b965060808b0151955060a08b0151945060c08b015191508082111562000395578384fd5b50620003a48b828c01620001df565b92505060e089015190509295985092959890939650565b6040518181016001600160401b0381118282101715620003d757fe5b604052919050565b61217d80620003ef6000396000f3fe6080604052600436106102e75760003560e01c80635d495aea116101845780638b5b9ccc116100d6578063ce845d1d1161008a578063f71d96cb11610064578063f71d96cb1461073f578063f7feb20d1461075f578063ff3c1a8f1461077f576102e7565b8063ce845d1d146106f5578063d5f394881461070a578063f301af421461071f576102e7565b8063952587d6116100bb578063952587d61461069d578063a6a031b9146106c0578063c19d93fb146106e0576102e7565b80638b5b9ccc146106735780638e33cffc14610688576102e7565b80637284e4161161013857806387bb7ae01161011257806387bb7ae014610634578063893d20e8146106495780638acfaca91461065e576102e7565b80637284e416146105f557806376d6b4ed1461060a578063790b62091461061f576102e7565b806364c165341161016957806364c16534146105ad57806367dd74ca146105c2578063685f9bf5146105d5576102e7565b80635d495aea146105905780635f8d96de14610598576102e7565b8063325a19f11161023d57806341c0e1b5116101f15780634de58efe116101cb5780634de58efe1461052e5780634ed026221461054e57806350b4471214610570576102e7565b806341c0e1b5146104df57806344ed63f6146104f65780634a79d50c14610519576102e7565b806338f148451161022257806338f148451461047f578063403d13121461049f5780634129b2c9146104bf576102e7565b8063325a19f11461045557806332a2c5d01461046a576102e7565b80631865c57d1161029f57806324cc28661161027957806324cc2866146103f457806329dcb0cf1461040957806330289c611461041e576102e7565b80631865c57d146103905780631a092541146103b25780631f6d4942146103d4576102e7565b8063080b2a86116102d0578063080b2a86146103395780630e0b0f431461035b57806312065fe01461037b576102e7565b806302d05d3f146102ec5780630572b0cc14610317575b600080fd5b3480156102f857600080fd5b50610301610794565b60405161030e9190611d9e565b60405180910390f35b34801561032357600080fd5b5061032c6107a3565b60405161030e9190611e8c565b34801561034557600080fd5b5061034e6107fb565b60405161030e9190611d4b565b34801561036757600080fd5b5061034e610376366004611bd2565b610801565b34801561038757600080fd5b5061034e610852565b34801561039c57600080fd5b506103a5610858565b60405161030e9190611eb2565b3480156103be57600080fd5b506103c7610861565b60405161030e9190611ec0565b3480156103e057600080fd5b5061034e6103ef366004611bd2565b6108ee565b34801561040057600080fd5b50610301610900565b34801561041557600080fd5b5061034e61090f565b34801561042a57600080fd5b5061043e610439366004611bd2565b610915565b60405161030e9b9a99989796959493929190611db2565b34801561046157600080fd5b5061034e610b2e565b34801561047657600080fd5b50610301610b34565b34801561048b57600080fd5b5061030161049a366004611bf9565b610b38565b3480156104ab57600080fd5b5061034e6104ba366004611bf9565b610ba6565b3480156104cb57600080fd5b506103016104da366004611bf9565b610bc7565b3480156104eb57600080fd5b506104f4610be5565b005b34801561050257600080fd5b5061050b610c26565b60405161030e929190611e5e565b34801561052557600080fd5b506103c7610ce7565b34801561053a57600080fd5b5061034e610549366004611bd2565b610d75565b34801561055a57600080fd5b50610563610d90565b60405161030e9190611e44565b34801561057c57600080fd5b5061030161058b366004611bf9565b610df1565b6104f4610e1b565b3480156105a457600080fd5b5061034e6112c6565b3480156105b957600080fd5b5061034e6112cc565b61034e6105d0366004611bf9565b6112d2565b3480156105e157600080fd5b5061034e6105f0366004611bd2565b611540565b34801561060157600080fd5b506103c76115cc565b34801561061657600080fd5b5061034e611627565b34801561062b57600080fd5b5061034e61162d565b34801561064057600080fd5b5061034e611633565b34801561065557600080fd5b50610301611639565b34801561066a57600080fd5b5061034e611648565b34801561067f57600080fd5b5061056361164e565b34801561069457600080fd5b5061034e6116ae565b3480156106a957600080fd5b506106b26116b4565b60405161030e929190611e9f565b3480156106cc57600080fd5b5061034e6106db366004611bd2565b6117d4565b3480156106ec57600080fd5b506103a561181c565b34801561070157600080fd5b5061034e611825565b34801561071657600080fd5b5061030161182b565b34801561072b57600080fd5b5061034e61073a366004611bf9565b61183a565b34801561074b57600080fd5b5061030161075a366004611bf9565b61184a565b34801561076b57600080fd5b5061034e61077a366004611bf9565b61185a565b34801561078b57600080fd5b506103c761186f565b6001546001600160a01b031681565b6060600d8054806020026020016040519081016040528092919081815260200182805480156107f157602002820191906000526020600020905b8154815260200190600101908083116107dd575b5050505050905090565b600f5490565b600080805b600f5481101561084b57600f818154811061081d57fe5b6000918252602090912001546001600160a01b0385811691161415610843576001909101905b600101610806565b5092915050565b60045490565b60085460ff1690565b60078054604080516020601f60026000196101006001881615020190951694909404938401819004810282018101909252828152606093909290918301828280156107f15780601f106108c2576101008083540402835291602001916107f1565b820191906000526020600020905b8154815290600101906020018083116108d057509395945050505050565b60096020526000908152604090205481565b6000546001600160a01b031690565b60055481565b600060608060008060008060008060606000600160009054906101000a90046001600160a01b03169a5060068054600181600116156101000203166002900480601f0160208091040260200160405190810160405280929190818152602001828054600181600116156101000203166002900480156109d55780601f106109aa576101008083540402835291602001916109d5565b820191906000526020600020905b8154815290600101906020018083116109b857829003601f168201915b5050505050995060078054600181600116156101000203166002900480601f016020809104026020016040519081016040528092919081815260200182805460018160011615610100020316600290048015610a725780601f10610a4757610100808354040283529160200191610a72565b820191906000526020600020905b815481529060010190602001808311610a5557829003601f168201915b505050505098506005549750600860009054906101000a900460ff16965060045495506002549450600b5493506003549250600d805480602002602001604051908101604052809291908181526020018280548015610af057602002820191906000526020600020905b815481526020019060010190808311610adc575b50505050509150600960008d6001600160a01b03166001600160a01b0316815260200190815260200160002054905091939597999b90929496989a50565b60035481565b3090565b600080600f8381548110610b4857fe5b600091825260209091200154600f546001600160a01b03909116915060001901610b7284826118d0565b600f805480610b7d57fe5b600082815260209020600019908201810180546001600160a01b03191690550190555092915050565b60118181548110610bb657600080fd5b600091825260209091200154905081565b6000908152601060205260409020600201546001600160a01b031690565b6001546001600160a01b03163314610c185760405162461bcd60e51b8152600401610c0f906120ea565b60405180910390fd5b6001546001600160a01b0316ff5b606080600a805480602002602001604051908101604052809291908181526020018280548015610c7f57602002820191906000526020600020905b81546001600160a01b03168152600190910190602001808311610c61575b50505050509150600f805480602002602001604051908101604052809291908181526020018280548015610cdc57602002820191906000526020600020905b81546001600160a01b03168152600190910190602001808311610cbe575b505050505090509091565b6006805460408051602060026001851615610100026000190190941693909304601f81018490048402820184019092528181529291830182828015610d6d5780601f10610d4257610100808354040283529160200191610d6d565b820191906000526020600020905b815481529060010190602001808311610d5057829003601f168201915b505050505081565b6001600160a01b031660009081526009602052604090205490565b6060600f8054806020026020016040519081016040528092919081815260200182805480156107f157602002820191906000526020600020905b81546001600160a01b03168152600190910190602001808311610dca575050505050905090565b600f8181548110610e0157600080fd5b6000918252602090912001546001600160a01b0316905081565b6001546001600160a01b03163314610e455760405162461bcd60e51b8152600401610c0f90611ed3565b610e4d61199c565b610e695760405162461bcd60e51b8152600401610c0f906120b5565b610e716119a3565b15610e8e5760405162461bcd60e51b8152600401610c0f90611f30565b610e9860026119be565b47600455600c54600a54600091605f9160059110610f2d5760005b600a54811015610f27576000600a8281548110610ecc57fe5b60009182526020808320909101546001600160a01b031680835260099091526040808320549051919350839281156108fc029290818181858888f19350505050158015610f1d573d6000803e3d6000fd5b5050600101610eb3565b5061121c565b60005b600c5481101561121a57600f54610f465761121a565b7faf4ec89c92b2378c5281acbbdbd9184d1dddf5382f07d8bdaf42196683e206f381600101604051602001610f7b9190611cf4565b60408051601f1981840301815290829052610f9591611ec0565b60405180910390a182612710600454600d8481548110610fb157fe5b90600052602060002001540281610fc457fe5b04029350610fd0611a1e565b600f80546040805160208084028201810190925282815260009361103392849083018282801561102957602002820191906000526020600020905b81546001600160a01b0316815260019091019060200180831161100b575b5050505050611b3a565b8161103a57fe5b6000848152601060205260409020600f8054939092069350918390811061105d57fe5b60009182526020822001546002830180546001600160a01b0319166001600160a01b03909216919091179055600182810188905560118054918201815582527f31ecc21a745e3968a04e9570e4425bc18fa8019c68028196b546d1669c200c68018490555b600f546000190181116111d2576002820154600f80546001600160a01b0390921691839081106110ee57fe5b6000918252602090912001546001600160a01b031614156111ca57600f805460009190600019810190811061111f57fe5b6000918252602090912001546001600160a01b031690505b60028301546001600160a01b03828116911614801561115c5750600f54600019018214155b156111be57600f80548061116c57fe5b600082815260209020810160001990810180546001600160a01b0319169055908101909155600f8054909181019081106111a257fe5b6000918252602090912001546001600160a01b03169050611137565b6111c782610b38565b50505b6001016110c2565b5060028101546040516001600160a01b039091169087156108fc029088906000818181858888f1935050505015801561120f573d6000803e3d6000fd5b505050600101610f30565b505b476004819055606490048161012c8161123157fe5b600154604051929091049290920294506001600160a01b039091169084156108fc029085906000818181858888f19350505050158015611275573d6000803e3d6000fd5b5061127e610900565b6001600160a01b03166108fc479081150290604051600060405180830381858888f193505050501580156112b6573d6000803e3d6000fd5b506112c160016119be565b505050565b60055490565b60025481565b600060055442106112f55760405162461bcd60e51b8152600401610c0f90611fea565b6002543410156113175760405162461bcd60e51b8152600401610c0f90612021565b61131f61199c565b61133b5760405162461bcd60e51b8152600401610c0f90611f8d565b604051630e0b0f4360e01b815260009083903090630e0b0f4390611363903390600401611d9e565b60206040518083038186803b15801561137b57600080fd5b505afa15801561138f573d6000803e3d6000fd5b505050506040513d601f19601f820116820180604052508101906113b39190611c11565b01905080600e5410156113d85760405162461bcd60e51b8152600401610c0f90612058565b336000908152600960205260409020546113f29034611b6f565b3360009081526009602052604090205560045461140f9034611b6f565b60045560005b8381101561146657600f8054600181810183556000929092527f8d1108e10bcb7c27dddfc02ed9d693a074039d026cf4ea4240b40f7d581ac8020180546001600160a01b0319163317905501611415565b506000805b600a548110156114ab57600a818154811061148257fe5b6000918252602090912001546001600160a01b03163314156114a357600191505b60010161146b565b50806114f457600a80546001810182556000919091527fc65a7bb8d6351c1cf70c95a316cc6a92839c986682d98bc35f958f4883f9d2a80180546001600160a01b031916331790555b336001600160a01b03167f69ca02dd4edd7bf0a4abb9ed3b7af3f14778db5d61921c7dc7cd545266326de23460405161152d9190611d4b565b60405180910390a25050600f5492915050565b600f54604051630e0b0f4360e01b8152600091903090630e0b0f439061156a908690600401611d9e565b60206040518083038186803b15801561158257600080fd5b505afa158015611596573d6000803e3d6000fd5b505050506040513d601f19601f820116820180604052508101906115ba9190611c11565b61271002816115c557fe5b0492915050565b6007805460408051602060026001851615610100026000190190941693909304601f81018490048402820184019092528181529291830182828015610d6d5780601f10610d4257610100808354040283529160200191610d6d565b600e5490565b600a5490565b60025490565b6001546001600160a01b031690565b600c5481565b6060600a8054806020026020016040519081016040528092919081815260200182805480156107f1576020028201919060005260206000209081546001600160a01b03168152600190910190602001808311610dca575050505050905090565b600d5490565b606080600060118054905067ffffffffffffffff811180156116d557600080fd5b506040519080825280602002602001820160405280156116ff578160200160208202803683370190505b5060115490915060009067ffffffffffffffff8111801561171f57600080fd5b50604051908082528060200260200182016040528015611749578160200160208202803683370190505b50905060005b6011548110156117cb576000818152601060205260409020600281015484516001600160a01b039091169085908490811061178657fe5b60200260200101906001600160a01b031690816001600160a01b03168152505080600101548383815181106117b757fe5b60209081029190910101525060010161174f565b50925090509091565b600080805b600c5481101561084b57600081815260106020526040902060028101546001600160a01b0386811691161415611813578060010154830192505b506001016117d9565b60085460ff1681565b60045481565b6000546001600160a01b031681565b600d8181548110610bb657600080fd5b600a8181548110610e0157600080fd5b60009081526010602052604090206001015490565b60068054604080516020601f60026000196101006001881615020190951694909404938401819004810282018101909252828152606093909290918301828280156107f15780601f106108c2576101008083540402835291602001916107f1565b6000600f83815481106118df57fe5b600091825260209091200154600f80546001600160a01b039092169250908390811061190757fe5b600091825260209091200154600f80546001600160a01b03909216918590811061192d57fe5b9060005260206000200160006101000a8154816001600160a01b0302191690836001600160a01b0316021790555080600f838154811061196957fe5b9060005260206000200160006101000a8154816001600160a01b0302191690836001600160a01b03160217905550505050565b6011541590565b6000600260085460ff1660028111156119b857fe5b14905090565b6008805482919060ff191660018360028111156119d757fe5b02179055506008546040517f1e046fdd2110d82ed3fa7652b41ced17c49cbb9ee4536e65f51ad2a6ed5359a791611a139160ff90911690611eb2565b60405180910390a150565b60005b600f54811015611b3757600081600f805490500342604051602001611a469190611d4b565b6040516020818303038152906040528051906020012060001c81611a6657fe5b06820190506000600f8281548110611a7a57fe5b600091825260209091200154600f80546001600160a01b0390921692509084908110611aa257fe5b600091825260209091200154600f80546001600160a01b039092169184908110611ac857fe5b9060005260206000200160006101000a8154816001600160a01b0302191690836001600160a01b0316021790555080600f8481548110611b0457fe5b600091825260209091200180546001600160a01b0319166001600160a01b03929092169190911790555050600101611a21565b50565b6000444283604051602001611b5193929190611d54565b60408051601f19818403018152919052805160209091012092915050565b600082820183811015611bc9576040805162461bcd60e51b815260206004820152601b60248201527f536166654d6174683a206164646974696f6e206f766572666c6f770000000000604482015290519081900360640190fd5b90505b92915050565b600060208284031215611be3578081fd5b81356001600160a01b0381168114611bc9578182fd5b600060208284031215611c0a578081fd5b5035919050565b600060208284031215611c22578081fd5b5051919050565b6000815180845260208085019450808401835b83811015611c615781516001600160a01b031687529582019590820190600101611c3c565b509495945050505050565b6000815180845260208085019450808401835b83811015611c6157815187529582019590820190600101611c7f565b60038110611ca557fe5b9052565b60008151808452815b81811015611cce57602081850181015186830182015201611cb2565b81811115611cdf5782602083870101525b50601f01601f19169290920160200192915050565b7f57696e6e65722000000000000000000000000000000000000000000000000000815260078101919091527f2073656c656374696f6e206861732073746172746564210000000000000000006027820152603e0190565b90815260200190565b600084825260208481840152604083018451828601845b82811015611d905781516001600160a01b031684529284019290840190600101611d6b565b509198975050505050505050565b6001600160a01b0391909116815260200190565b60006101606001600160a01b038e168352806020840152611dd58184018e611ca9565b90508281036040840152611de9818d611ca9565b90508a6060840152611dfe608084018b611c9b565b8860a08401528760c08401528660e084015285610100840152828103610120840152611e2a8186611c6c565b915050826101408301529c9b505050505050505050505050565b600060208252611e576020830184611c29565b9392505050565b600060408252611e716040830185611c29565b8281036020840152611e838185611c29565b95945050505050565b600060208252611e576020830184611c6c565b600060408252611e716040830185611c6c565b60208101611bcc8284611c9b565b600060208252611e576020830184611ca9565b60208082526032908201527f4f6e6c792074686520636f6e74726163742063726561746f722063616e20657860408201527f6563757465207468697320616374696f6e2e0000000000000000000000000000606082015260800190565b60208082526026908201527f57696e6e6572732073656c656374696f6e20616c726561647920696e2070726f60408201527f67726573732e0000000000000000000000000000000000000000000000000000606082015260800190565b6020808252603f908201527f4c6f74746572792068617320616c7265616479206265656e20636c6f7365642e60408201527f2057696e6e657273207765726520616c72656164792073656c65637465642e00606082015260800190565b60208082526016908201527f546865206c6f74746572792068617320656e6465642e00000000000000000000604082015260600190565b60208082526018908201527f5072696365206973206e6f74206f7665722030206574682e0000000000000000604082015260600190565b60208082526026908201527f596f75206172652067657474696e67206f76657220746865206c696d6974207460408201527f69636b65742e0000000000000000000000000000000000000000000000000000606082015260800190565b6020808252818101527f57696e6e65722068617320616c7265616479206265656e2073656c6563746564604082015260600190565b60208082526025908201527f4f6e6c7920746865206f776e65722063616e206b696c6c207468697320636f6e60408201527f747261637400000000000000000000000000000000000000000000000000000060608201526080019056fea2646970667358221220e646ca7fa3ae979be7656b02c02004b3523e6f1bf16f0fafe6bcc0f0e433d0ad64736f6c63430007060033a2646970667358221220e076bfbfb31aca9ce69da6ca09c4b5f75069001756ce8a7a62c7ab33aee7c4bc64736f6c63430007060033",
  "immutableReferences": {},
  "source": "// SPDX-License-Identifier: MIT\npragma solidity ^0.7.0;\nimport \"../node_modules/@openzeppelin/contracts/math/SafeMath.sol\";\npragma experimental ABIEncoderV2;\nimport \"./Lottery.sol\";\n\ncontract LotteryBuilder {\n    using SafeMath for uint256;\n\n    // List of existing projects\n    Lottery[] private lotteries;\n    address public owner;\n\n    constructor() {\n        owner = msg.sender;\n    }\n    // Event that will be emitted whenever a new project is started\n    event ProjectStarted(\n        address deployer,\n        address contractAddress,\n        address projectStarter,\n        string projectTitle,\n        string projectDesc,\n        uint256 deadline,\n        uint256 ticketPrice,\n        uint256[] rewards,\n        uint256 limitTickets\n    );\n\n    /** @dev Function to start a new project.\n     * @param title Title of the project to be created\n     * @param description Brief description about the project\n     * @param deadlineDate Project deadline in days\n     * @param ticketPrice Project goal in wei\n     */\n    function startProject(\n        address payable deployer,\n        address payable creator,\n        string calldata title,\n        string calldata description,\n        uint256 deadlineDate,\n        uint256 ticketPrice,\n        uint256[] calldata rewards,\n        uint256 limitTickets\n    ) external {\n        uint256 raiseUntil = deadlineDate;\n        Lottery newProject = new Lottery(\n            deployer,\n            creator,\n            title,\n            description,\n            raiseUntil,\n            ticketPrice,\n            rewards,\n            limitTickets\n        );\n        lotteries.push(newProject);\n        emit ProjectStarted(\n            address(newProject),\n            deployer,\n            creator,\n            title,\n            description,\n            raiseUntil,\n            ticketPrice,\n            rewards,\n            limitTickets\n        );\n    }\n\n    struct Winners {\n        uint256[] values;\n        address[] accounts;\n    }\n    mapping(uint256 => Winners) allWinners;\n\n    struct participated {\n        address lotteryAddress;\n        uint256 value;\n        uint256 ticketsAmount;\n        State state;\n        bool won;\n        uint256 amountWon;\n    }\n    mapping(uint256 => participated) participatedList;\n\n    function getOwner() public view returns (address) {\n        return owner;\n    }\n\n    function participatedByAddress(address _address)\n        public\n        returns (\n            address[] memory,\n            uint256[] memory,\n            uint256[] memory,\n            State[] memory,\n            bool[] memory,\n            uint256[] memory\n        )\n    {\n        uint256 participatedIndex = 0;\n        for (uint256 i = 0; i < lotteries.length; i++) {\n            Lottery ltr = lotteries[i];\n            address[] memory players = ltr.getPlayers();\n            for (uint256 j = 0; j < players.length; j++) {\n                if (players[j] == _address) {\n                    participated storage par = participatedList[\n                        participatedIndex\n                    ];\n                    par.lotteryAddress = ltr.getContractAddress();\n                    par.value = ltr.getContributed(_address);\n                    par.ticketsAmount = ltr.getEnteredTicketsByAccount(\n                        _address\n                    );\n                    par.state = ltr.getState();\n                    par.won = false;\n                    par.amountWon = 0;\n\n                    for (uint256 k = 0; k < ltr.getNumberOfWinners(); k++) {\n                        if (_address == ltr.getWinner(k)) {\n                            par.won = true;\n                            par.amountWon = ltr.getWinnerAmount(k);\n                        }\n                    }\n                    participatedIndex++;\n                }\n            }\n        }\n\n        address[] memory addrs = new address[](participatedIndex);\n        uint256[] memory funds = new uint256[](participatedIndex);\n        uint256[] memory tickets = new uint256[](participatedIndex);\n        State[] memory states = new State[](participatedIndex);\n        bool[] memory won = new bool[](participatedIndex);\n        uint256[] memory amountWon = new uint256[](participatedIndex);\n\n        for (uint256 i = 0; i < participatedIndex; i++) {\n            participated storage pa = participatedList[i];\n            addrs[i] = pa.lotteryAddress;\n            funds[i] = pa.value;\n            tickets[i] = pa.ticketsAmount;\n            states[i] = pa.state;\n            won[i] = pa.won;\n            amountWon[i] = pa.amountWon;\n        }\n\n        return (addrs, funds, tickets, states, won, amountWon);\n    }\n\n    // function getTotalSpent(address _address) external view returns (uint256) {\n    //     uint256 totalSpent = 0;\n    //     totalSpent = this.getRewardsWonByAddress(_address) - this.getSpentState(_address);\n    //     return totalSpent;\n    // }\n\n    function getSpentState(address _address) external view returns (uint256) {\n        uint256 spent = 0;\n\n        for (uint256 i = 0; i < lotteries.length; i++) {\n            Lottery ltr = lotteries[i];\n            spent = spent + uint256(ltr.getContributed(_address));\n        }\n\n        return spent;\n    }\n\n    function getRewardsWonByAddress(address _address)\n        external\n        view\n        returns (uint256)\n    {\n        uint256 rewardsWon = 0;\n\n        for (uint256 i = 0; i < lotteries.length; i++) {\n            Lottery ltr = lotteries[i];\n            rewardsWon =\n                uint256(rewardsWon) +\n                uint256(ltr.getRewardsByAccount(_address));\n        }\n        return rewardsWon;\n    }\n\n    event RevealLatestWinners(Winners[] _a);\n\n    function getLatestWinners() external view returns (Winners[] memory) {\n        Lottery[] memory closedLotteries = this.returnClosedProjects();\n\n        Winners[] memory winners = new Winners[](closedLotteries.length);\n        if (closedLotteries.length != 0) {\n            for (uint256 i = 0; i < closedLotteries.length; i++) {\n                Lottery ltr = closedLotteries[i];\n                (uint256[] memory values, address[] memory accounts) = ltr\n                    .revealWinners();\n                winners[i].values = values;\n                winners[i].accounts = accounts;\n            }\n        }\n        return winners;\n    }\n\n    function returnClosedProjects() external view returns (Lottery[] memory) {\n        return this.getProjectsByState(State.Closed);\n    }\n\n    function returnOpenProjects() external view returns (Lottery[] memory) {\n        return this.getProjectsByState(State.Open);\n    }\n\n    function getProjectsByState(State state)\n        external\n        view\n        returns (Lottery[] memory)\n    {\n        uint256 count = 0;\n        for (uint256 i = 0; i < lotteries.length; i++) {\n            Lottery ltr = lotteries[i];\n            if (ltr.getState() == state) {\n                count++;\n            }\n        }\n        Lottery[] memory ltrs = new Lottery[](count);\n        count = 0;\n        for (uint256 i = 0; i < lotteries.length; i++) {\n            Lottery ltr = lotteries[i];\n            if (ltr.getState() == state) {\n                ltrs[count] = ltr;\n                count++;\n            }\n        }\n        return ltrs;\n    }\n\n    /** @dev Function to get all projects' contract addresses.\n     * @return A list of all projects' contract addreses\n     */\n    function returnAllLotteries() external view returns (Lottery[] memory) {\n        return lotteries;\n    }\n}\n",
  "sourcePath": "/Users/jakub/Documents/Skola/lottery/contracts/LotteryBuilder.sol",
  "compiler": {
    "name": "solc",
    "version": "0.7.6+commit.7338295f.Emscripten.clang"
  },
  "schemaVersion": "3.4.7",
  "updatedAt": "2022-05-03T21:17:59.204Z",
  "devdoc": {
    "kind": "dev",
    "methods": {
      "returnAllLotteries()": {
        "details": "Function to get all projects' contract addresses.",
        "returns": {
          "_0": "A list of all projects' contract addreses"
        }
      },
      "startProject(address,address,string,string,uint256,uint256,uint256[],uint256)": {
        "details": "Function to start a new project.",
        "params": {
          "deadlineDate": "Project deadline in days",
          "description": "Brief description about the project",
          "ticketPrice": "Project goal in wei",
          "title": "Title of the project to be created"
        }
      }
    },
    "version": 1
  },
  "userdoc": {
    "kind": "user",
    "methods": {},
    "version": 1
  }
}